{
  "_format": "hh-sol-artifact-1",
  "contractName": "FundManagement",
  "sourceName": "contracts/FundManagement.sol",
  "abi": [
    {
      "inputs": [
        {
          "internalType": "address",
          "name": "_projectRegistryAddress",
          "type": "address"
        }
      ],
      "stateMutability": "nonpayable",
      "type": "constructor"
    },
    {
      "inputs": [],
      "name": "AccessControlBadConfirmation",
      "type": "error"
    },
    {
      "inputs": [
        {
          "internalType": "address",
          "name": "account",
          "type": "address"
        },
        {
          "internalType": "bytes32",
          "name": "neededRole",
          "type": "bytes32"
        }
      ],
      "name": "AccessControlUnauthorizedAccount",
      "type": "error"
    },
    {
      "inputs": [],
      "name": "EnforcedPause",
      "type": "error"
    },
    {
      "inputs": [],
      "name": "ExpectedPause",
      "type": "error"
    },
    {
      "inputs": [],
      "name": "ReentrancyGuardReentrantCall",
      "type": "error"
    },
    {
      "anonymous": false,
      "inputs": [
        {
          "indexed": true,
          "internalType": "uint256",
          "name": "projectId",
          "type": "uint256"
        },
        {
          "indexed": true,
          "internalType": "address",
          "name": "admin",
          "type": "address"
        },
        {
          "indexed": false,
          "internalType": "uint256",
          "name": "amount",
          "type": "uint256"
        },
        {
          "indexed": false,
          "internalType": "string",
          "name": "reason",
          "type": "string"
        }
      ],
      "name": "EmergencyWithdrawal",
      "type": "event"
    },
    {
      "anonymous": false,
      "inputs": [
        {
          "indexed": true,
          "internalType": "uint256",
          "name": "projectId",
          "type": "uint256"
        },
        {
          "indexed": false,
          "internalType": "uint256",
          "name": "amount",
          "type": "uint256"
        },
        {
          "indexed": false,
          "internalType": "uint256",
          "name": "timestamp",
          "type": "uint256"
        }
      ],
      "name": "FundsAllocated",
      "type": "event"
    },
    {
      "anonymous": false,
      "inputs": [
        {
          "indexed": true,
          "internalType": "uint256",
          "name": "projectId",
          "type": "uint256"
        },
        {
          "indexed": true,
          "internalType": "uint256",
          "name": "milestoneId",
          "type": "uint256"
        },
        {
          "indexed": true,
          "internalType": "address",
          "name": "contractor",
          "type": "address"
        },
        {
          "indexed": false,
          "internalType": "uint256",
          "name": "amount",
          "type": "uint256"
        }
      ],
      "name": "FundsReleased",
      "type": "event"
    },
    {
      "anonymous": false,
      "inputs": [
        {
          "indexed": true,
          "internalType": "uint256",
          "name": "projectId",
          "type": "uint256"
        },
        {
          "indexed": true,
          "internalType": "uint256",
          "name": "milestoneId",
          "type": "uint256"
        },
        {
          "indexed": false,
          "internalType": "address",
          "name": "approvedBy",
          "type": "address"
        }
      ],
      "name": "MilestoneApproved",
      "type": "event"
    },
    {
      "anonymous": false,
      "inputs": [
        {
          "indexed": true,
          "internalType": "uint256",
          "name": "projectId",
          "type": "uint256"
        },
        {
          "indexed": true,
          "internalType": "uint256",
          "name": "milestoneId",
          "type": "uint256"
        },
        {
          "indexed": false,
          "internalType": "address",
          "name": "completedBy",
          "type": "address"
        },
        {
          "indexed": false,
          "internalType": "string",
          "name": "verificationHash",
          "type": "string"
        }
      ],
      "name": "MilestoneCompleted",
      "type": "event"
    },
    {
      "anonymous": false,
      "inputs": [
        {
          "indexed": true,
          "internalType": "uint256",
          "name": "projectId",
          "type": "uint256"
        },
        {
          "indexed": true,
          "internalType": "uint256",
          "name": "milestoneId",
          "type": "uint256"
        },
        {
          "indexed": false,
          "internalType": "string",
          "name": "description",
          "type": "string"
        },
        {
          "indexed": false,
          "internalType": "uint256",
          "name": "percentage",
          "type": "uint256"
        }
      ],
      "name": "MilestoneCreated",
      "type": "event"
    },
    {
      "anonymous": false,
      "inputs": [
        {
          "indexed": false,
          "internalType": "address",
          "name": "account",
          "type": "address"
        }
      ],
      "name": "Paused",
      "type": "event"
    },
    {
      "anonymous": false,
      "inputs": [
        {
          "indexed": true,
          "internalType": "bytes32",
          "name": "role",
          "type": "bytes32"
        },
        {
          "indexed": true,
          "internalType": "bytes32",
          "name": "previousAdminRole",
          "type": "bytes32"
        },
        {
          "indexed": true,
          "internalType": "bytes32",
          "name": "newAdminRole",
          "type": "bytes32"
        }
      ],
      "name": "RoleAdminChanged",
      "type": "event"
    },
    {
      "anonymous": false,
      "inputs": [
        {
          "indexed": true,
          "internalType": "bytes32",
          "name": "role",
          "type": "bytes32"
        },
        {
          "indexed": true,
          "internalType": "address",
          "name": "account",
          "type": "address"
        },
        {
          "indexed": true,
          "internalType": "address",
          "name": "sender",
          "type": "address"
        }
      ],
      "name": "RoleGranted",
      "type": "event"
    },
    {
      "anonymous": false,
      "inputs": [
        {
          "indexed": true,
          "internalType": "bytes32",
          "name": "role",
          "type": "bytes32"
        },
        {
          "indexed": true,
          "internalType": "address",
          "name": "account",
          "type": "address"
        },
        {
          "indexed": true,
          "internalType": "address",
          "name": "sender",
          "type": "address"
        }
      ],
      "name": "RoleRevoked",
      "type": "event"
    },
    {
      "anonymous": false,
      "inputs": [
        {
          "indexed": false,
          "internalType": "address",
          "name": "account",
          "type": "address"
        }
      ],
      "name": "Unpaused",
      "type": "event"
    },
    {
      "inputs": [],
      "name": "AUTHORITY_ROLE",
      "outputs": [
        {
          "internalType": "bytes32",
          "name": "",
          "type": "bytes32"
        }
      ],
      "stateMutability": "view",
      "type": "function"
    },
    {
      "inputs": [],
      "name": "DEFAULT_ADMIN_ROLE",
      "outputs": [
        {
          "internalType": "bytes32",
          "name": "",
          "type": "bytes32"
        }
      ],
      "stateMutability": "view",
      "type": "function"
    },
    {
      "inputs": [],
      "name": "MAX_DAILY_WITHDRAWAL",
      "outputs": [
        {
          "internalType": "uint256",
          "name": "",
          "type": "uint256"
        }
      ],
      "stateMutability": "view",
      "type": "function"
    },
    {
      "inputs": [
        {
          "internalType": "uint256",
          "name": "_projectId",
          "type": "uint256"
        }
      ],
      "name": "allocateFunds",
      "outputs": [],
      "stateMutability": "payable",
      "type": "function"
    },
    {
      "inputs": [
        {
          "internalType": "uint256",
          "name": "_projectId",
          "type": "uint256"
        },
        {
          "internalType": "uint256",
          "name": "_milestoneId",
          "type": "uint256"
        }
      ],
      "name": "approveMilestone",
      "outputs": [],
      "stateMutability": "nonpayable",
      "type": "function"
    },
    {
      "inputs": [
        {
          "internalType": "uint256",
          "name": "_projectId",
          "type": "uint256"
        },
        {
          "internalType": "uint256",
          "name": "_milestoneId",
          "type": "uint256"
        },
        {
          "internalType": "string",
          "name": "_verificationHash",
          "type": "string"
        }
      ],
      "name": "completeMilestone",
      "outputs": [],
      "stateMutability": "nonpayable",
      "type": "function"
    },
    {
      "inputs": [
        {
          "internalType": "uint256",
          "name": "_projectId",
          "type": "uint256"
        },
        {
          "internalType": "string",
          "name": "_description",
          "type": "string"
        },
        {
          "internalType": "uint256",
          "name": "_percentageAllocation",
          "type": "uint256"
        }
      ],
      "name": "createMilestone",
      "outputs": [
        {
          "internalType": "uint256",
          "name": "",
          "type": "uint256"
        }
      ],
      "stateMutability": "nonpayable",
      "type": "function"
    },
    {
      "inputs": [
        {
          "internalType": "uint256",
          "name": "",
          "type": "uint256"
        }
      ],
      "name": "dailyWithdrawals",
      "outputs": [
        {
          "internalType": "uint256",
          "name": "",
          "type": "uint256"
        }
      ],
      "stateMutability": "view",
      "type": "function"
    },
    {
      "inputs": [
        {
          "internalType": "uint256",
          "name": "_projectId",
          "type": "uint256"
        },
        {
          "internalType": "string",
          "name": "_reason",
          "type": "string"
        }
      ],
      "name": "emergencyWithdraw",
      "outputs": [],
      "stateMutability": "nonpayable",
      "type": "function"
    },
    {
      "inputs": [
        {
          "internalType": "uint256",
          "name": "_projectId",
          "type": "uint256"
        },
        {
          "internalType": "uint256",
          "name": "_milestoneId",
          "type": "uint256"
        }
      ],
      "name": "getMilestone",
      "outputs": [
        {
          "components": [
            {
              "internalType": "uint256",
              "name": "milestoneId",
              "type": "uint256"
            },
            {
              "internalType": "uint256",
              "name": "projectId",
              "type": "uint256"
            },
            {
              "internalType": "string",
              "name": "description",
              "type": "string"
            },
            {
              "internalType": "uint256",
              "name": "percentageAllocation",
              "type": "uint256"
            },
            {
              "internalType": "bool",
              "name": "isCompleted",
              "type": "bool"
            },
            {
              "internalType": "bool",
              "name": "isApproved",
              "type": "bool"
            },
            {
              "internalType": "uint256",
              "name": "completionDate",
              "type": "uint256"
            },
            {
              "internalType": "uint256",
              "name": "approvalDate",
              "type": "uint256"
            },
            {
              "internalType": "string",
              "name": "verificationHash",
              "type": "string"
            },
            {
              "internalType": "address",
              "name": "completedBy",
              "type": "address"
            },
            {
              "internalType": "address",
              "name": "approvedBy",
              "type": "address"
            }
          ],
          "internalType": "struct FundManagement.Milestone",
          "name": "",
          "type": "tuple"
        }
      ],
      "stateMutability": "view",
      "type": "function"
    },
    {
      "inputs": [
        {
          "internalType": "uint256",
          "name": "_projectId",
          "type": "uint256"
        }
      ],
      "name": "getMilestoneProgress",
      "outputs": [
        {
          "internalType": "uint256",
          "name": "completedPercentage",
          "type": "uint256"
        },
        {
          "internalType": "uint256",
          "name": "approvedPercentage",
          "type": "uint256"
        }
      ],
      "stateMutability": "view",
      "type": "function"
    },
    {
      "inputs": [
        {
          "internalType": "uint256",
          "name": "_projectId",
          "type": "uint256"
        }
      ],
      "name": "getProjectFunding",
      "outputs": [
        {
          "internalType": "uint256",
          "name": "totalBudget",
          "type": "uint256"
        },
        {
          "internalType": "uint256",
          "name": "allocatedAmount",
          "type": "uint256"
        },
        {
          "internalType": "uint256",
          "name": "releasedAmount",
          "type": "uint256"
        },
        {
          "internalType": "uint256",
          "name": "remainingAmount",
          "type": "uint256"
        },
        {
          "internalType": "bool",
          "name": "isFunded",
          "type": "bool"
        },
        {
          "internalType": "uint256",
          "name": "fundedAt",
          "type": "uint256"
        },
        {
          "internalType": "uint256",
          "name": "milestoneCount",
          "type": "uint256"
        }
      ],
      "stateMutability": "view",
      "type": "function"
    },
    {
      "inputs": [
        {
          "internalType": "uint256",
          "name": "_projectId",
          "type": "uint256"
        }
      ],
      "name": "getProjectMilestones",
      "outputs": [
        {
          "internalType": "uint256[]",
          "name": "",
          "type": "uint256[]"
        }
      ],
      "stateMutability": "view",
      "type": "function"
    },
    {
      "inputs": [
        {
          "internalType": "bytes32",
          "name": "role",
          "type": "bytes32"
        }
      ],
      "name": "getRoleAdmin",
      "outputs": [
        {
          "internalType": "bytes32",
          "name": "",
          "type": "bytes32"
        }
      ],
      "stateMutability": "view",
      "type": "function"
    },
    {
      "inputs": [
        {
          "internalType": "bytes32",
          "name": "role",
          "type": "bytes32"
        },
        {
          "internalType": "address",
          "name": "account",
          "type": "address"
        }
      ],
      "name": "grantRole",
      "outputs": [],
      "stateMutability": "nonpayable",
      "type": "function"
    },
    {
      "inputs": [
        {
          "internalType": "bytes32",
          "name": "role",
          "type": "bytes32"
        },
        {
          "internalType": "address",
          "name": "account",
          "type": "address"
        }
      ],
      "name": "hasRole",
      "outputs": [
        {
          "internalType": "bool",
          "name": "",
          "type": "bool"
        }
      ],
      "stateMutability": "view",
      "type": "function"
    },
    {
      "inputs": [
        {
          "internalType": "uint256",
          "name": "",
          "type": "uint256"
        }
      ],
      "name": "lastWithdrawalDay",
      "outputs": [
        {
          "internalType": "uint256",
          "name": "",
          "type": "uint256"
        }
      ],
      "stateMutability": "view",
      "type": "function"
    },
    {
      "inputs": [],
      "name": "pause",
      "outputs": [],
      "stateMutability": "nonpayable",
      "type": "function"
    },
    {
      "inputs": [],
      "name": "paused",
      "outputs": [
        {
          "internalType": "bool",
          "name": "",
          "type": "bool"
        }
      ],
      "stateMutability": "view",
      "type": "function"
    },
    {
      "inputs": [],
      "name": "projectRegistry",
      "outputs": [
        {
          "internalType": "contract ProjectRegistry",
          "name": "",
          "type": "address"
        }
      ],
      "stateMutability": "view",
      "type": "function"
    },
    {
      "inputs": [
        {
          "internalType": "bytes32",
          "name": "role",
          "type": "bytes32"
        },
        {
          "internalType": "address",
          "name": "callerConfirmation",
          "type": "address"
        }
      ],
      "name": "renounceRole",
      "outputs": [],
      "stateMutability": "nonpayable",
      "type": "function"
    },
    {
      "inputs": [
        {
          "internalType": "bytes32",
          "name": "role",
          "type": "bytes32"
        },
        {
          "internalType": "address",
          "name": "account",
          "type": "address"
        }
      ],
      "name": "revokeRole",
      "outputs": [],
      "stateMutability": "nonpayable",
      "type": "function"
    },
    {
      "inputs": [
        {
          "internalType": "bytes4",
          "name": "interfaceId",
          "type": "bytes4"
        }
      ],
      "name": "supportsInterface",
      "outputs": [
        {
          "internalType": "bool",
          "name": "",
          "type": "bool"
        }
      ],
      "stateMutability": "view",
      "type": "function"
    },
    {
      "inputs": [],
      "name": "unpause",
      "outputs": [],
      "stateMutability": "nonpayable",
      "type": "function"
    },
    {
      "stateMutability": "payable",
      "type": "receive"
    }
  ],
  "bytecode": "0x60803461009357601f62001f1e38819003918201601f19168301916001600160401b038311848410176100985780849260209460405283398101031261009357516001600160a01b0381168103610093576001805560028054610100600160a81b03191660089290921b610100600160a81b0316919091179055610082336100ae565b50604051611ddf90816200013f8239f35b600080fd5b634e487b7160e01b600052604160045260246000fd5b6001600160a01b031660008181527fad3228b676f7d3cd4284a5443f17f1962b36e491b30a40b2405849e597ba5fb5602052604081205490919060ff1661013a57818052816020526040822081835260205260408220600160ff1982541617905533917f2f8788117e7eff1d82e926ec794901d17c78024a50270940304540a733656f0d8180a4600190565b509056fe608080604052600436101561001d575b50361561001b57600080fd5b005b60003560e01c90816301ffc9a7146118495750806309dbbf1c1461181d57806320913da5146113cc578063248a9ca31461139d5780632f2ff15d1461136c578063337702451461134057806336568abe146113075780633cbb4668146111ca5780633f4ba83a146111605780634a3fba0e1461112557806352766d801461107f578063551f3e891461100d5780635a33d8dc14610fe05780635c975abb14610fbd5780637fbedb7514610d115780638456cb5914610cb75780638543a0ac14610c935780638ed9895c14610ac757806391d1485414610a87578063a217fddf14610a6b578063b19814f81461096b578063c9f8cc67146105af578063d547741f1461057e5763da13b0d314610132573861000f565b346105795760603660031901126105795767ffffffffffffffff60243581811161057957610164903690600401611933565b61016c611bc8565b600435600052600360205260406000209160ff6004840154161561053f57604435151580610532575b156104f8578151156104bc5782600090600435600052600460205260406000209060405191826020825491828152019160005260206000209060005b8181106104a657505050826101e79103836118f5565b60009460078201935b835187101561022d576102216102279161020a8987611bfa565b516000528660205260036040600020015490611c0e565b96611beb565b956101f0565b9085606461023f879460443590611c0e565b116104615761024f600554611beb565b92836005558360005260205260406000209083825560043560018301558251908111610389576102826002830154611c1b565b601f811161041a575b506020601f82116001146103aa5790806004939260009161039f575b508160011b916000199060031b1c19161760028201555b60443560038201550161ffff19815416905560043560005260046020526040600020908154680100000000000000008110156103895760018101808455811015610373576020948460069281956000528760002001550161031f8154611beb565b90557f3d198c5d9c28f50bf234c9c1a9a84f7ed3a20d152833a06c844a8e897261abd26103576040519260408452604084019061199d565b916044358682015280600435930390a360018055604051908152f35b634e487b7160e01b600052603260045260246000fd5b634e487b7160e01b600052604160045260246000fd5b9050840151876102a7565b6002830160005260206000209060005b601f19841681106104025750916001916004949382601f198116106103e9575b5050811b0160028201556102be565b86015160001960f88460031b161c1916905587806103da565b909160206001819285890151815501930191016103ba565b600283016000526020600020601f830160051c81016020841061045a575b601f830160051c8201811061044e57505061028b565b60008155600101610438565b5080610438565b60405162461bcd60e51b815260206004820152601d60248201527f546f74616c2070657263656e74616765206578636565647320313030250000006044820152606490fd5b82548452602090930192600192830192016101d1565b60405162461bcd60e51b815260206004820152601460248201527311195cd8dc9a5c1d1a5bdb881c995c5d5a5c995960621b6044820152606490fd5b60405162461bcd60e51b8152602060048201526012602482015271496e76616c69642070657263656e7461676560701b6044820152606490fd5b5060646044351115610195565b60405162461bcd60e51b8152602060048201526012602482015271141c9bda9958dd081b9bdd08199d5b99195960721b6044820152606490fd5b600080fd5b346105795761001b61058f366118b2565b908060005260006020526105aa6001604060002001546119fc565b611aa0565b60208060031936011261057957600435906105c86119c2565b6105d0611bc8565b6105d8611baa565b3415610927578160005260038152604060002060048101805460ff81166108e9576002546040516334d1a86960e11b815260048101879052906000908290602490829060081c6001600160a01b03165afa80156108dd576000916000916106ff575b5060068110156106e9576002036106ad5791600160409492846106817fc0a79f21f196b4ee5a242474a85cb9aa5fc2ce59ecc884d7271f1c2bd19b9a139896341015611b69565b8455348285015534600385015560ff19161790556005429101558151903482524290820152a260018055005b60405162461bcd60e51b8152600481018690526014602482015273141c9bda9958dd081b9bdd08185c1c1c9bdd995960621b6044820152606490fd5b634e487b7160e01b600052602160045260246000fd5b9150503d806000833e61071281836118f5565b810160e08282031261057957858201519067ffffffffffffffff918281116105795781610740918501611b4c565b5060408301518281116105795781610759918501611b4c565b5060608301519160808401519360068510156105795760c081015190828211610579570160e081840312610579576040519260e084018481108482111761038957604052815183811161057957816107b2918401611b4c565b84528982015183811161057957816107cb918401611b4c565b8a850152604082015183811161057957820181601f82011215610579578051848111610389578b918160051b91610807604051948401856118f5565b83528c8084019282010191848311610579578d8201905b8382106108b857505050506040850152606082015183811161057957820181601f820112156105795781818c61085693519101611b15565b606085015260808201518381116105795781610873918401611b4c565b608085015260a08201518381116105795781610890918401611b4c565b60a085015260c08201519283116105795760c0926108ae9201611b4c565b910152908761063a565b8151888111610579578f916108d288848094880101611b4c565b81520191019061081e565b6040513d6000823e3d90fd5b60405162461bcd60e51b8152600481018590526016602482015275141c9bda9958dd08185b1c9958591e48199d5b99195960521b6044820152606490fd5b6064906040519062461bcd60e51b82526004820152601d60248201527f416d6f756e74206d7573742062652067726561746572207468616e20300000006044820152fd5b3461057957602080600319360112610579576004356000526003808252604060002090600483526040600020916040519283858254918281520191600052856000209060005b87828210610a575750505050836109c99103846118f5565b6000918291600701825b8551811015610a48576109e68187611bfa565b516000528187526040600020600481015460ff90818116610a33575b60081c16610a1a575b50610a1590611beb565b6109d3565b610a15919484610a2c92015490611c0e565b9390610a0b565b96610a42908684015490611c0e565b96610a02565b60408585898351928352820152f35b8354855290930192600192830192016109b1565b3461057957600036600319011261057957602060405160008152f35b3461057957610a95366118b2565b90600052600060205260406000209060018060a01b0316600052602052602060ff604060002054166040519015158152f35b3461057957610ad53661189c565b906000610140604051610ae7816118d8565b828152826020820152606060408201528260608201528260808201528260a08201528260c08201528260e082015260606101008201528261012082015201526000526003602052600760406000200190600052602052604060002060405190610b4f826118d8565b8054825260018101546020830152610b6960028201611d05565b60408301526003810154606083015260ff60048201548181161515608085015260081c16151560a0830152600581015460c0830152600681015460e0830152610bb460078201611d05565b61010083015260018060a01b03600882015416610120830152600960018060a01b039101541661014082015260405180916020825280516020830152602081015160408301526040810151610c69610c1a6101609283606087015261018086019061199d565b606084015160808601526080840151151560a086015260a0840151151560c086015260c084015160e086015260e0840151610100860152610100840151601f198683030161012087015261199d565b6101208301516001600160a01b039081166101408681019190915290930151909216908301520390f35b34610579576000366003190112610579576020604051683635c9adc5dea000008152f35b3461057957600036600319011261057957610cd06119c2565b610cd8611baa565b600160ff1960025416176002557f62e78cea01bee320cd4e420270b5ea74000d11b0c9f74754ebdbfc544b05a2586020604051338152a1005b346105795760603660031901126105795767ffffffffffffffff60243560043560443583811161057957610d49903690600401611933565b610d51611bc8565b816000526020906003825260076040600020018460005282526040600020600195610d80858884015414611c55565b60048201805460ff8116610f7857845115610f335760ff19168817905542600583015582516007830191811161038957610dba8254611c1b565b601f8111610eea575b5084601f8211600114610e59577fac864cf4ff524b962b342d243bb24951f3e0d8c001ee164d65910e8bb5c3f69d9593610e47938360409794600894600091610e4e575b50600019600383901b1c1916908c1b1790555b01336bffffffffffffffffffffffff60a01b8254161790558351938493338552840152604083019061199d565b0390a38055005b90508501518d610e07565b908891601f1982169084600052876000209160005b818110610ed3575093837fac864cf4ff524b962b342d243bb24951f3e0d8c001ee164d65910e8bb5c3f69d999793610e47979360089660409b9810610eba575b5050811b019055610e1a565b87015160001960f88460031b161c191690558d80610eae565b8883015184558c9590930192918901918901610e6e565b8260005285600020601f830160051c810191878410610f29575b601f0160051c019089905b828110610f1d575050610dc3565b60008155018990610f0f565b9091508190610f04565b60405162461bcd60e51b815260048101879052601b60248201527f566572696669636174696f6e2070726f6f6620726571756972656400000000006044820152606490fd5b60405162461bcd60e51b815260048101879052601b60248201527f4d696c6573746f6e6520616c726561647920636f6d706c6574656400000000006044820152606490fd5b3461057957600036600319011261057957602060ff600254166040519015158152f35b346105795760003660031901126105795760025460405160089190911c6001600160a01b03168152602090f35b3461057957602036600319011261057957600435600052600360205260e060406000208054906001810154906002810154600382015460ff6004840154169160066005850154940154946040519687526020870152604086015260608501521515608084015260a083015260c0820152f35b34610579576020806003193601126105795760043560005260048152604060002060405190818382549182815201908192600052846000209060005b868282106111115786866110d1828803836118f5565b604051928392818401908285525180915260408401929160005b8281106110fa57505050500390f35b8351855286955093810193928101926001016110eb565b8354855290930192600192830192016110bb565b346105795760003660031901126105795760206040517fd565e3fc066df348a5cbc05a8d6323e00552838041cea2d84cc59876ba37735d8152f35b34610579576000366003190112610579576111796119c2565b60025460ff8116156111b85760ff19166002557f5db9ee0a495bf2e6ff9c91a7834c1ba4fdd244a5e8aa4e537bd38aeae4b073aa6020604051338152a1005b604051638dfc202b60e01b8152600490fd5b346105795760403660031901126105795760043560243567ffffffffffffffff8111610579576111fe903690600401611933565b906112076119c2565b61120f611bc8565b8151156112d0578060005260036020526003604060002001805480156112945760007f5fa22300a932153a37b19aad103ef8ff9a6c00e3c5e73c8b165d404e8776b8f3925561126e600080808085335af1611268611c97565b50611cc7565b604051908152604060208201528061128b3395604083019061199d565b0390a360018055005b60405162461bcd60e51b81526020600482015260146024820152734e6f2066756e647320746f20776974686472617760601b6044820152606490fd5b60405162461bcd60e51b815260206004820152600f60248201526e1499585cdbdb881c995c5d5a5c9959608a1b6044820152606490fd5b3461057957611315366118b2565b336001600160a01b0382160361132e5761001b91611aa0565b60405163334bd91960e11b8152600490fd5b346105795760203660031901126105795760043560005260066020526020604060002054604051908152f35b346105795761001b61137d366118b2565b908060005260006020526113986001604060002001546119fc565b611a22565b346105795760203660031901126105795760043560005260006020526020600160406000200154604051908152f35b34610579576113da3661189c565b3360009081527ffd954c8947fdc98546445b97ed0b40d4f2e212d6308d6baacd84bd775362398960209081526040909120549092907fd565e3fc066df348a5cbc05a8d6323e00552838041cea2d84cc59876ba37735d9060ff16156117ff5750611442611bc8565b61144a611baa565b80600052600383526007604060002001826000528352604060002061147482600183015414611c55565b60048101805460ff8116156117ba5760ff8160081c1661177557906101006009939261ff00191617905542600682015501336bffffffffffffffffffffffff60a01b82541617905581817f9ffbb52f2a1362273cd74689a516ca4f52c4282dc13e2e68b7e0646a9a7af7a385604051338152a3806000526003835260406000209282600052600784018152604060002060ff600482015460081c161561173757600385549101549081810291818304149015171561164657606490049060038501916115438184541015611b69565b6201518042048460005260078352806040600020540361171c575b5060068252683635c9adc5dea0000061157c82604060002054611c0e565b116116d757600254604051600162453d2360e11b03198152600481018690526001600160a01b039184908290602490829060081c86165afa9081156108dd576000916116a1575b501695861561165c576002016115da828254611c0e565b90558254818103908111611646577fd5eb304362ffe48045a3ae2ed7e0d2cfed08eb62f44dc87c694d42606e8205d9935583600052600682526040600020611623828254611c0e565b90556116396000808080858b5af1611268611c97565b604051908152a460018055005b634e487b7160e01b600052601160045260246000fd5b60405162461bcd60e51b815260048101849052601a60248201527f496e76616c696420636f6e74726163746f7220616464726573730000000000006044820152606490fd5b90508381813d83116116d0575b6116b881836118f5565b810103126105795751818116810361057957886115c3565b503d6116ae565b60405162461bcd60e51b815260048101839052601f60248201527f4461696c79207769746864726177616c206c696d6974206578636565646564006044820152606490fd5b6006835260006040812055600783526040600020558661155e565b60405162461bcd60e51b8152600481018390526016602482015275135a5b195cdd1bdb99481b9bdd08185c1c1c9bdd995960521b6044820152606490fd5b60405162461bcd60e51b815260048101879052601a60248201527f4d696c6573746f6e6520616c726561647920617070726f7665640000000000006044820152606490fd5b60405162461bcd60e51b815260048101879052601760248201527f4d696c6573746f6e65206e6f7420636f6d706c657465640000000000000000006044820152606490fd5b6044906040519063e2517d3f60e01b82523360048301526024820152fd5b346105795760203660031901126105795760043560005260076020526020604060002054604051908152f35b34610579576020366003190112610579576004359063ffffffff60e01b821680920361057957602091637965db0b60e01b811490811561188b575b5015158152f35b6301ffc9a760e01b14905083611884565b6040906003190112610579576004359060243590565b604090600319011261057957600435906024356001600160a01b03811681036105795790565b610160810190811067ffffffffffffffff82111761038957604052565b90601f8019910116810190811067ffffffffffffffff82111761038957604052565b67ffffffffffffffff811161038957601f01601f191660200190565b81601f820112156105795780359061194a82611917565b9261195860405194856118f5565b8284526020838301011161057957816000926020809301838601378301015290565b60005b83811061198d5750506000910152565b818101518382015260200161197d565b906020916119b68151809281855285808601910161197a565b601f01601f1916010190565b3360009081527fad3228b676f7d3cd4284a5443f17f1962b36e491b30a40b2405849e597ba5fb5602052604081205460ff16156117ff5750565b80600052600060205260406000203360005260205260ff60406000205416156117ff5750565b9060009180835282602052604083209160018060a01b03169182845260205260ff60408420541615600014611a9b57808352826020526040832082845260205260408320600160ff198254161790557f2f8788117e7eff1d82e926ec794901d17c78024a50270940304540a733656f0d339380a4600190565b505090565b9060009180835282602052604083209160018060a01b03169182845260205260ff604084205416600014611a9b5780835282602052604083208284526020526040832060ff1981541690557ff6391f5c32d9c69d2a47ea670b442974b53935d1edc7fd64eb21e047a839171b339380a4600190565b90929192611b2281611917565b91611b3060405193846118f5565b829482845282820111610579576020611b4a93019061197a565b565b9080601f83011215610579578151611b6692602001611b15565b90565b15611b7057565b60405162461bcd60e51b8152602060048201526012602482015271496e73756666696369656e742066756e647360701b6044820152606490fd5b60ff60025416611bb657565b60405163d93c066560e01b8152600490fd5b600260015414611bd9576002600155565b604051633ee5aeb560e01b8152600490fd5b60001981146116465760010190565b80518210156103735760209160051b010190565b9190820180921161164657565b90600182811c92168015611c4b575b6020831014611c3557565b634e487b7160e01b600052602260045260246000fd5b91607f1691611c2a565b15611c5c57565b60405162461bcd60e51b8152602060048201526013602482015272135a5b195cdd1bdb99481b9bdd08199bdd5b99606a1b6044820152606490fd5b3d15611cc2573d90611ca882611917565b91611cb660405193846118f5565b82523d6000602084013e565b606090565b15611cce57565b60405162461bcd60e51b815260206004820152600f60248201526e151c985b9cd9995c8819985a5b1959608a1b6044820152606490fd5b9060405191826000825492611d1984611c1b565b908184526001948581169081600014611d865750600114611d43575b5050611b4a925003836118f5565b9093915060005260209081600020936000915b818310611d6e575050611b4a93508201013880611d35565b85548884018501529485019487945091830191611d56565b915050611b4a94506020925060ff191682840152151560051b8201013880611d3556fea2646970667358221220fd33d4e05e613a8a249073928d39caa0620615b37497632c8d2bbd29817bf90064736f6c63430008140033",
  "linkReferences": {},
  "deployedLinkReferences": {}
}