{
  "_format": "hh-sol-artifact-1",
  "contractName": "ProjectRegistry",
  "sourceName": "contracts/ProjectRegistry.sol",
  "abi": [
    {
      "inputs": [],
      "stateMutability": "nonpayable",
      "type": "constructor"
    },
    {
      "inputs": [],
      "name": "AccessControlBadConfirmation",
      "type": "error"
    },
    {
      "inputs": [
        {
          "internalType": "address",
          "name": "account",
          "type": "address"
        },
        {
          "internalType": "bytes32",
          "name": "neededRole",
          "type": "bytes32"
        }
      ],
      "name": "AccessControlUnauthorizedAccount",
      "type": "error"
    },
    {
      "inputs": [],
      "name": "EnforcedPause",
      "type": "error"
    },
    {
      "inputs": [],
      "name": "ExpectedPause",
      "type": "error"
    },
    {
      "inputs": [],
      "name": "ReentrancyGuardReentrantCall",
      "type": "error"
    },
    {
      "anonymous": false,
      "inputs": [
        {
          "indexed": true,
          "internalType": "uint256",
          "name": "projectId",
          "type": "uint256"
        },
        {
          "indexed": false,
          "internalType": "string[]",
          "name": "ipfsHashes",
          "type": "string[]"
        }
      ],
      "name": "DocumentsUploaded",
      "type": "event"
    },
    {
      "anonymous": false,
      "inputs": [
        {
          "indexed": false,
          "internalType": "address",
          "name": "account",
          "type": "address"
        }
      ],
      "name": "Paused",
      "type": "event"
    },
    {
      "anonymous": false,
      "inputs": [
        {
          "indexed": true,
          "internalType": "uint256",
          "name": "projectId",
          "type": "uint256"
        },
        {
          "indexed": true,
          "internalType": "address",
          "name": "projectManager",
          "type": "address"
        },
        {
          "indexed": false,
          "internalType": "string",
          "name": "title",
          "type": "string"
        },
        {
          "indexed": false,
          "internalType": "uint256",
          "name": "budgetRequested",
          "type": "uint256"
        }
      ],
      "name": "ProjectCreated",
      "type": "event"
    },
    {
      "anonymous": false,
      "inputs": [
        {
          "indexed": true,
          "internalType": "uint256",
          "name": "projectId",
          "type": "uint256"
        },
        {
          "indexed": false,
          "internalType": "enum ProjectRegistry.ProjectStatus",
          "name": "oldStatus",
          "type": "uint8"
        },
        {
          "indexed": false,
          "internalType": "enum ProjectRegistry.ProjectStatus",
          "name": "newStatus",
          "type": "uint8"
        }
      ],
      "name": "ProjectStatusUpdated",
      "type": "event"
    },
    {
      "anonymous": false,
      "inputs": [
        {
          "indexed": true,
          "internalType": "uint256",
          "name": "projectId",
          "type": "uint256"
        },
        {
          "indexed": true,
          "internalType": "address",
          "name": "assignedAuthority",
          "type": "address"
        }
      ],
      "name": "ProjectSubmittedForReview",
      "type": "event"
    },
    {
      "anonymous": false,
      "inputs": [
        {
          "indexed": true,
          "internalType": "bytes32",
          "name": "role",
          "type": "bytes32"
        },
        {
          "indexed": true,
          "internalType": "bytes32",
          "name": "previousAdminRole",
          "type": "bytes32"
        },
        {
          "indexed": true,
          "internalType": "bytes32",
          "name": "newAdminRole",
          "type": "bytes32"
        }
      ],
      "name": "RoleAdminChanged",
      "type": "event"
    },
    {
      "anonymous": false,
      "inputs": [
        {
          "indexed": true,
          "internalType": "bytes32",
          "name": "role",
          "type": "bytes32"
        },
        {
          "indexed": true,
          "internalType": "address",
          "name": "account",
          "type": "address"
        },
        {
          "indexed": true,
          "internalType": "address",
          "name": "sender",
          "type": "address"
        }
      ],
      "name": "RoleGranted",
      "type": "event"
    },
    {
      "anonymous": false,
      "inputs": [
        {
          "indexed": true,
          "internalType": "bytes32",
          "name": "role",
          "type": "bytes32"
        },
        {
          "indexed": true,
          "internalType": "address",
          "name": "account",
          "type": "address"
        },
        {
          "indexed": true,
          "internalType": "address",
          "name": "sender",
          "type": "address"
        }
      ],
      "name": "RoleRevoked",
      "type": "event"
    },
    {
      "anonymous": false,
      "inputs": [
        {
          "indexed": false,
          "internalType": "address",
          "name": "account",
          "type": "address"
        }
      ],
      "name": "Unpaused",
      "type": "event"
    },
    {
      "inputs": [],
      "name": "AUTHORITY_ROLE",
      "outputs": [
        {
          "internalType": "bytes32",
          "name": "",
          "type": "bytes32"
        }
      ],
      "stateMutability": "view",
      "type": "function"
    },
    {
      "inputs": [],
      "name": "DEFAULT_ADMIN_ROLE",
      "outputs": [
        {
          "internalType": "bytes32",
          "name": "",
          "type": "bytes32"
        }
      ],
      "stateMutability": "view",
      "type": "function"
    },
    {
      "inputs": [],
      "name": "PROJECT_MANAGER_ROLE",
      "outputs": [
        {
          "internalType": "bytes32",
          "name": "",
          "type": "bytes32"
        }
      ],
      "stateMutability": "view",
      "type": "function"
    },
    {
      "inputs": [
        {
          "internalType": "uint256",
          "name": "_projectId",
          "type": "uint256"
        },
        {
          "internalType": "string",
          "name": "_comments",
          "type": "string"
        }
      ],
      "name": "addRevisionComments",
      "outputs": [],
      "stateMutability": "nonpayable",
      "type": "function"
    },
    {
      "inputs": [
        {
          "internalType": "string",
          "name": "_title",
          "type": "string"
        },
        {
          "internalType": "string",
          "name": "_description",
          "type": "string"
        },
        {
          "internalType": "uint256",
          "name": "_budgetRequested",
          "type": "uint256"
        },
        {
          "internalType": "address",
          "name": "_contractorWallet",
          "type": "address"
        },
        {
          "internalType": "string",
          "name": "_pdfDocumentHash",
          "type": "string"
        },
        {
          "internalType": "string",
          "name": "_labReportHash",
          "type": "string"
        },
        {
          "internalType": "string[]",
          "name": "_geoTaggedPhotoHashes",
          "type": "string[]"
        },
        {
          "internalType": "bytes",
          "name": "_digitalSignatureHash",
          "type": "bytes"
        },
        {
          "internalType": "string",
          "name": "_vendorInvoiceHash",
          "type": "string"
        },
        {
          "internalType": "string",
          "name": "_gpsLatitude",
          "type": "string"
        },
        {
          "internalType": "string",
          "name": "_gpsLongitude",
          "type": "string"
        }
      ],
      "name": "createProject",
      "outputs": [
        {
          "internalType": "uint256",
          "name": "",
          "type": "uint256"
        }
      ],
      "stateMutability": "nonpayable",
      "type": "function"
    },
    {
      "inputs": [
        {
          "internalType": "uint256",
          "name": "_projectId",
          "type": "uint256"
        }
      ],
      "name": "getContractorWallet",
      "outputs": [
        {
          "internalType": "address",
          "name": "",
          "type": "address"
        }
      ],
      "stateMutability": "view",
      "type": "function"
    },
    {
      "inputs": [
        {
          "internalType": "uint256",
          "name": "_projectId",
          "type": "uint256"
        }
      ],
      "name": "getProject",
      "outputs": [
        {
          "components": [
            {
              "internalType": "uint256",
              "name": "projectId",
              "type": "uint256"
            },
            {
              "internalType": "address",
              "name": "projectManager",
              "type": "address"
            },
            {
              "internalType": "string",
              "name": "title",
              "type": "string"
            },
            {
              "internalType": "string",
              "name": "description",
              "type": "string"
            },
            {
              "internalType": "uint256",
              "name": "budgetRequested",
              "type": "uint256"
            },
            {
              "internalType": "enum ProjectRegistry.ProjectStatus",
              "name": "status",
              "type": "uint8"
            },
            {
              "internalType": "uint256",
              "name": "createdAt",
              "type": "uint256"
            },
            {
              "internalType": "uint256",
              "name": "approvedAt",
              "type": "uint256"
            },
            {
              "internalType": "address",
              "name": "contractorWallet",
              "type": "address"
            },
            {
              "components": [
                {
                  "internalType": "string",
                  "name": "pdfDocumentHash",
                  "type": "string"
                },
                {
                  "internalType": "string",
                  "name": "labReportHash",
                  "type": "string"
                },
                {
                  "internalType": "string[]",
                  "name": "geoTaggedPhotoHashes",
                  "type": "string[]"
                },
                {
                  "internalType": "bytes",
                  "name": "digitalSignatureHash",
                  "type": "bytes"
                },
                {
                  "internalType": "string",
                  "name": "vendorInvoiceHash",
                  "type": "string"
                },
                {
                  "internalType": "string",
                  "name": "gpsLatitude",
                  "type": "string"
                },
                {
                  "internalType": "string",
                  "name": "gpsLongitude",
                  "type": "string"
                }
              ],
              "internalType": "struct ProjectRegistry.DocumentStorage",
              "name": "documents",
              "type": "tuple"
            },
            {
              "internalType": "string",
              "name": "rejectionReason",
              "type": "string"
            },
            {
              "internalType": "string",
              "name": "revisionComments",
              "type": "string"
            }
          ],
          "internalType": "struct ProjectRegistry.Project",
          "name": "",
          "type": "tuple"
        }
      ],
      "stateMutability": "view",
      "type": "function"
    },
    {
      "inputs": [
        {
          "internalType": "uint256",
          "name": "_projectId",
          "type": "uint256"
        }
      ],
      "name": "getProjectAnonymized",
      "outputs": [
        {
          "internalType": "uint256",
          "name": "projectId",
          "type": "uint256"
        },
        {
          "internalType": "string",
          "name": "title",
          "type": "string"
        },
        {
          "internalType": "string",
          "name": "description",
          "type": "string"
        },
        {
          "internalType": "uint256",
          "name": "budgetRequested",
          "type": "uint256"
        },
        {
          "internalType": "enum ProjectRegistry.ProjectStatus",
          "name": "status",
          "type": "uint8"
        },
        {
          "internalType": "uint256",
          "name": "createdAt",
          "type": "uint256"
        },
        {
          "components": [
            {
              "internalType": "string",
              "name": "pdfDocumentHash",
              "type": "string"
            },
            {
              "internalType": "string",
              "name": "labReportHash",
              "type": "string"
            },
            {
              "internalType": "string[]",
              "name": "geoTaggedPhotoHashes",
              "type": "string[]"
            },
            {
              "internalType": "bytes",
              "name": "digitalSignatureHash",
              "type": "bytes"
            },
            {
              "internalType": "string",
              "name": "vendorInvoiceHash",
              "type": "string"
            },
            {
              "internalType": "string",
              "name": "gpsLatitude",
              "type": "string"
            },
            {
              "internalType": "string",
              "name": "gpsLongitude",
              "type": "string"
            }
          ],
          "internalType": "struct ProjectRegistry.DocumentStorage",
          "name": "documents",
          "type": "tuple"
        }
      ],
      "stateMutability": "view",
      "type": "function"
    },
    {
      "inputs": [
        {
          "internalType": "address",
          "name": "_manager",
          "type": "address"
        }
      ],
      "name": "getProjectsByManager",
      "outputs": [
        {
          "internalType": "uint256[]",
          "name": "",
          "type": "uint256[]"
        }
      ],
      "stateMutability": "view",
      "type": "function"
    },
    {
      "inputs": [
        {
          "internalType": "enum ProjectRegistry.ProjectStatus",
          "name": "_status",
          "type": "uint8"
        }
      ],
      "name": "getProjectsByStatus",
      "outputs": [
        {
          "internalType": "uint256[]",
          "name": "",
          "type": "uint256[]"
        }
      ],
      "stateMutability": "view",
      "type": "function"
    },
    {
      "inputs": [
        {
          "internalType": "bytes32",
          "name": "role",
          "type": "bytes32"
        }
      ],
      "name": "getRoleAdmin",
      "outputs": [
        {
          "internalType": "bytes32",
          "name": "",
          "type": "bytes32"
        }
      ],
      "stateMutability": "view",
      "type": "function"
    },
    {
      "inputs": [],
      "name": "getTotalProjects",
      "outputs": [
        {
          "internalType": "uint256",
          "name": "",
          "type": "uint256"
        }
      ],
      "stateMutability": "view",
      "type": "function"
    },
    {
      "inputs": [
        {
          "internalType": "address",
          "name": "_manager",
          "type": "address"
        }
      ],
      "name": "grantProjectManagerRole",
      "outputs": [],
      "stateMutability": "nonpayable",
      "type": "function"
    },
    {
      "inputs": [
        {
          "internalType": "bytes32",
          "name": "role",
          "type": "bytes32"
        },
        {
          "internalType": "address",
          "name": "account",
          "type": "address"
        }
      ],
      "name": "grantRole",
      "outputs": [],
      "stateMutability": "nonpayable",
      "type": "function"
    },
    {
      "inputs": [
        {
          "internalType": "bytes32",
          "name": "role",
          "type": "bytes32"
        },
        {
          "internalType": "address",
          "name": "account",
          "type": "address"
        }
      ],
      "name": "hasRole",
      "outputs": [
        {
          "internalType": "bool",
          "name": "",
          "type": "bool"
        }
      ],
      "stateMutability": "view",
      "type": "function"
    },
    {
      "inputs": [],
      "name": "pause",
      "outputs": [],
      "stateMutability": "nonpayable",
      "type": "function"
    },
    {
      "inputs": [],
      "name": "paused",
      "outputs": [
        {
          "internalType": "bool",
          "name": "",
          "type": "bool"
        }
      ],
      "stateMutability": "view",
      "type": "function"
    },
    {
      "inputs": [
        {
          "internalType": "bytes32",
          "name": "role",
          "type": "bytes32"
        },
        {
          "internalType": "address",
          "name": "callerConfirmation",
          "type": "address"
        }
      ],
      "name": "renounceRole",
      "outputs": [],
      "stateMutability": "nonpayable",
      "type": "function"
    },
    {
      "inputs": [
        {
          "internalType": "bytes32",
          "name": "role",
          "type": "bytes32"
        },
        {
          "internalType": "address",
          "name": "account",
          "type": "address"
        }
      ],
      "name": "revokeRole",
      "outputs": [],
      "stateMutability": "nonpayable",
      "type": "function"
    },
    {
      "inputs": [
        {
          "internalType": "bytes4",
          "name": "interfaceId",
          "type": "bytes4"
        }
      ],
      "name": "supportsInterface",
      "outputs": [
        {
          "internalType": "bool",
          "name": "",
          "type": "bool"
        }
      ],
      "stateMutability": "view",
      "type": "function"
    },
    {
      "inputs": [],
      "name": "unpause",
      "outputs": [],
      "stateMutability": "nonpayable",
      "type": "function"
    },
    {
      "inputs": [
        {
          "internalType": "uint256",
          "name": "_projectId",
          "type": "uint256"
        },
        {
          "internalType": "enum ProjectRegistry.ProjectStatus",
          "name": "_newStatus",
          "type": "uint8"
        },
        {
          "internalType": "string",
          "name": "_comments",
          "type": "string"
        }
      ],
      "name": "updateProjectStatus",
      "outputs": [],
      "stateMutability": "nonpayable",
      "type": "function"
    }
  ],
  "bytecode": "0x60806040523461002657600180556100163361002b565b5060405161289c90816100bc8239f35b600080fd5b6001600160a01b031660008181527fad3228b676f7d3cd4284a5443f17f1962b36e491b30a40b2405849e597ba5fb5602052604081205490919060ff166100b757818052816020526040822081835260205260408220600160ff1982541617905533917f2f8788117e7eff1d82e926ec794901d17c78024a50270940304540a733656f0d8180a4600190565b509056fe608080604052600436101561001357600080fd5b60003560e01c90816301ffc9a7146120f1575080631aa22bba14612081578063248a9ca31461205257806329c76a73146120175780632f2ff15d14611fd857806336568abe14611f915780633f4ba83a14611f275780634a3fba0e14611eec57806352120ee714611b7e5780635699658d14610eb65780635c975abb14610e9357806369a350d214610c01578063812739a214610be35780638456cb5914610b8957806391d1485414610b3c578063a217fddf14610b20578063a8ba732214610aa3578063b13b6205146108e6578063d547741f146108a5578063ea094b1c14610821578063f0f3f2c81461041d5763ff7585ba1461011157600080fd5b3461041857602080600319360112610418576004358015158061040c575b61013890612754565b600052600481526040600020604051610150816121c6565b8154815260018060a01b0391600191838383015416858201526040516101848161017d8160028701612795565b03826121e2565b604082015260405161019d8161017d8160038701612795565b60608201526004820154608082015260ff6005830154169160a082019260068110156103bb578352600681015460c0830152600781015460e083015284600882015416936101008301948552604051906101f6826121ab565b60405161020a8161017d8160098801612795565b82526040516102208161017d81600a8801612795565b88830152600b830190815461023481612267565b9261024260405194856121e2565b81845260009081528a81208b8086015b8484106103e757508b8b8b60116101608d6103098e8e8e60408201526040516102828161017d81600c8701612795565b606082015260405161029b8161017d81600d8701612795565b60808201526040516102b48161017d81600e8701612795565b60a08201526040516102cd8161017d81600f8701612795565b60c08201526101208401526040516102ec8161017d8160108601612795565b6101408401526103026040518096819301612795565b03846121e2565b0152805160068110156103bb576002149081156103d1575b81156103a6575b508015610384575b1561033f575116604051908152f35b60405162461bcd60e51b815260048101849052601e60248201527f436f6e74726163746f7220696e666f206e6f7420796574207075626c696300006044820152606490fd5b506000805260008352604060002033600052835260ff60406000205416610330565b90505160068110156103bb5760051484610328565b634e487b7160e01b600052602160045260246000fd5b8091505160068110156103bb5760041490610321565b859182916040516103fc8161017d8189612795565b8152019201920191908c90610252565b5060035481111561012f565b600080fd5b34610418576020366003190112610418576004356060610160604051610442816121c6565b6000815260006020820152826040820152828082015260006080820152600060a0820152600060c0820152600060e0820152600061010082015261048461271d565b61012082015282610140820152015280151580610815575b6104a590612754565b600052600460205260406000206040516104be816121c6565b8154815260018201546001600160a01b031660208201526040516104e98161017d8160028701612795565b60408201526040516105028161017d8160038701612795565b60608201526004820154608082015260ff60058301541660068110156103bb5760a0820152600682015460c0820152600782015460e082015260088201546001600160a01b031661010082015260405161055b816121ab565b60405161056f8161017d8160098801612795565b81526040516105858161017d81600a8801612795565b6020820152600b8301805461059981612267565b916105a760405193846121e2565b818352602083019060005260206000206000915b8383106107f05761077c8760116106678b8a8a60408201526040516105e78161017d81600c8701612795565b60608201526040516106008161017d81600d8701612795565b60808201526040516106198161017d81600e8701612795565b60a08201526040516106328161017d81600f8701612795565b60c08201526101208501526040516106518161017d8160108601612795565b61014085015261017d6040518094819301612795565b61016082015260208101516001600160a01b0316331480156107b8575b8015610780575b6106949061282b565b604051918291602083528051602084015260018060a01b0360208201511660408401526101606107676107516106f46106de604086015161018060608a01526101a089019061227e565b6060860151888203601f190160808a015261227e565b608085015160a088015261071060a086015160c08901906122be565b60c085015160e088015260e085015161010088015260018060a01b0361010086015116610120880152610120850151601f1988830301610140890152612327565b610140840151868203601f19018488015261227e565b910151838203601f190161018085015261227e565b0390f35b503360009081527ffd954c8947fdc98546445b97ed0b40d4f2e212d6308d6baacd84bd7753623989602052604090205460ff1661068b565b503360009081527fad3228b676f7d3cd4284a5443f17f1962b36e491b30a40b2405849e597ba5fb5602052604090205460ff16610684565b6001602081926040516108078161017d8189612795565b8152019201920191906105bb565b5060035481111561049c565b3461041857602080600319360112610418576001600160a01b03610843612195565b1660005260058152604060002090604051908181845491828152019360005281600020916000905b82821061088e5761077c85610882818903826121e2565b60405191829182612144565b83548652948501946001938401939091019061086b565b34610418576040366003190112610418576108e46004356108c461217f565b908060005260006020526108df600160406000200154612412565b612563565b005b34610418576040366003190112610418576001600160401b036004356024358281116104185761091a903690600401612249565b917fd565e3fc066df348a5cbc05a8d6323e00552838041cea2d84cc59876ba37735d60005260209160008352604060002033600052835260ff6040600020541615610a5e5780151580610a52575b61097190612754565b600052600482526011604060002001918351918211610a3c5761099e8261099885546125fd565b8561264e565b80601f83116001146109d957508192936000926109ce575b5050600019600383901b1c191660019190911b179055005b0151905083806109b6565b90601f198316948460005282600020926000905b878210610a24575050836001959610610a0b575b505050811b019055005b015160001960f88460031b161c19169055838080610a01565b806001859682949686015181550195019301906109ed565b634e487b7160e01b600052604160045260246000fd5b50600354811115610968565b60405162461bcd60e51b815260048101849052601f60248201527f4f6e6c7920617574686f726974792063616e2061646420636f6d6d656e7473006044820152606490fd5b34610418576020366003190112610418576108e4610abf612195565b610ac76123ba565b7fa88d484f5aeb539ab60f9bd084e23511bc356a4f715a255e909643bb69ddcb4160009081526020527f0beaf284d6500f9045213f3d900c4b07f5b63bfcb6036ce1569f5385ec1728fd54610b1b90612412565b612438565b3461041857600036600319011261041857602060405160008152f35b3461041857604036600319011261041857610b5561217f565b600435600052600060205260406000209060018060a01b0316600052602052602060ff604060002054166040519015158152f35b3461041857600036600319011261041857610ba26123ba565b610baa6126ff565b600160ff1960025416176002557f62e78cea01bee320cd4e420270b5ea74000d11b0c9f74754ebdbfc544b05a2586020604051338152a1005b34610418576000366003190112610418576020600354604051908152f35b3461041857602036600319011261041857600435610c1d61271d565b5080151580610e87575b610c3090612754565b60005260046020526040600020604051610c49816121c6565b8154815260018201546001600160a01b03908116602083015260405191610c77836103028160028801612795565b6040810192835260405193610c9a85610c938160038501612795565b03866121e2565b606082019485526004810154906080830191825260ff6005820154169260a081019360068110156103bb57845260068201549460c08201958652600783015460e083015260088301541661010082015260405191610cf7836121ab565b604051610d0b8161017d8160098601612795565b8352604051610d218161017d81600a8601612795565b6020840152600b81018054610d3581612267565b91610d4360405193846121e2565b818352602083019060005260206000206000915b838310610e625750505050601191610dee916040860152604051610d828161017d81600c8601612795565b6060860152604051610d9b8161017d81600d8601612795565b6080860152604051610db48161017d81600e8601612795565b60a0860152604051610dcd8161017d81600f8601612795565b60c086015261012084019485526040516106518161017d8160108601612795565b6101608201525194519551915192519360068510156103bb5761077c94610e40610e509251935194610e326040519a8b9a8b5260e060208c015260e08b019061227e565b9089820360408b015261227e565b94606088015260808701906122be565b60a085015283820360c0850152612327565b600160208192604051610e798161017d8189612795565b815201920192019190610d57565b50600354811115610c27565b3461041857600036600319011261041857602060ff600254166040519015158152f35b3461041857610160366003190112610418576004356001600160401b03811161041857610ee7903690600401612249565b6024356001600160401b03811161041857610f06903690600401612249565b90606435906001600160a01b0382168203610418576084356001600160401b03811161041857610f3a903690600401612249565b9160a4356001600160401b03811161041857610f5a903690600401612249565b926001600160401b0360c435116104185736602360c4350112156104185760c4356004013591610f8983612267565b92610f9760405194856121e2565b80845260208401903660248260051b60c43501011161041857602460c43501915b60248260051b60c43501018310611b4b5750505060e4356001600160401b038111610418573660238201121561041857610ffc903690602481600401359101612203565b610104356001600160401b0381116104185761101c903690600401612249565b610124356001600160401b0381116104185761103c903690600401612249565b90610144356001600160401b0381116104185761105d903690600401612249565b926110666126ff565b875115611b155760443515611ad0576001600160a01b03851615611a8b57855115611a4e576110966003546125d8565b9889600355604051966110a8886121ab565b875260208701528660408701526060860152608085015260a084015260c083015284600052600460205260406000209585875560018701336bffffffffffffffffffffffff60a01b82541617905584516001600160401b038111610a3c576111208161111760028b01546125fd565b60028b0161264e565b806020601f82116001146119e1576000916119d6575b508160011b916000199060031b1c19161760028801555b8051906001600160401b038211610a3c57819061117a8261117160038c01546125fd565b60038c0161264e565b602090601f831160011461196457600092611959575b50508160011b916000199060031b1c19161760038701555b604435600487015560058601805460ff191690554260068701556008860180546001600160a01b0319166001600160a01b0390921691909117905580518051906001600160401b038211610a3c5781906112128261120960098b01546125fd565b60098b0161264e565b602090601f83116001146118e7576000926118dc575b50508160011b916000199060031b1c19161760098601555b60208101518051906001600160401b038211610a3c57819061127282611269600a8b01546125fd565b600a8b0161264e565b602090601f831160011461186a5760009261185f575b50508160011b916000199060031b1c191617600a8601555b6040810151805190600160401b8211610a3c57600b87015482600b8901558083106117e7575b5060200190600b87016000526020600020916000905b8282106117045750505050606081015180516001600160401b038111610a3c5780600c8801926113168261131086546125fd565b8661264e565b602090601f831160011461169e57600092611693575b50508160011b916000199060031b1c19161790555b608081015180516001600160401b038111610a3c5780600d88019261136a8261131086546125fd565b602090601f831160011461162d57600092611622575b50508160011b916000199060031b1c19161790555b60a081015180516001600160401b038111610a3c57600e8701916113bd8261099885546125fd565b602090601f83116001146115b65760c094939291600091836115ab575b50508160011b916000199060031b1c19161790555b0151918251946001600160401b038611610a3c57858594611422602098611419600f8601546125fd565b600f860161264e565b8790601f831160011461151357826114fd95937f0cc46d31d57911a499a9ee0ab637d9d7415085a00d00767d672b494ac93aed68979593600f93600092611508575b50508160011b916000199060031b1c1916179101555b33600052600587526114908560406000206126c3565b60008052600687526114a68560406000206126c3565b847f51d08cb6cfa640a387210fb69df925dfb70169ae7373f8ecd40b977b0c800d9a6114dd6040519360408552604085019061227e565b926044358a8201528033940390a3604051918291878352878301906122cb565b0390a2604051908152f35b015190508b80611464565b90600f8401600052886000209160005b601f19851681106115915750837f0cc46d31d57911a499a9ee0ab637d9d7415085a00d00767d672b494ac93aed68979593600f936001936114fd9997601f19811610611578575b505050811b0191015561147a565b015160001960f88460031b161c191690558b808061156a565b818301518455899850600190930192918a01918a01611523565b0151905089806113da565b90601f198316918460005260206000209260005b81811061160a575091600193918560c098979694106115f1575b505050811b0190556113ef565b015160001960f88460031b161c191690558980806115e4565b929360206001819287860151815501950193016115ca565b015190508880611380565b6000858152602081209350601f198516905b81811061167b5750908460019594939210611662575b505050811b019055611395565b015160001960f88460031b161c19169055888080611655565b9293602060018192878601518155019501930161163f565b01519050888061132c565b6000858152602081209350601f198516905b8181106116ec57509084600195949392106116d3575b505050811b019055611341565b015160001960f88460031b161c191690558880806116c6565b929360206001819287860151815501950193016116b0565b80518051906001600160401b038211610a3c5761172b8261172588546125fd565b8861264e565b602090601f831160011461177757928260019493602093869560009261176c575b5050600019600383901b1c191690841b1787555b019401910190926112dc565b015190508e8061174c565b908660005260206000209160005b601f19851681106117cf575083602093600196938796938794601f198116106117b6575b505050811b018755611760565b015160001960f88460031b161c191690558e80806117a9565b91926020600181928685015181550194019201611785565b600b88016000526020600020908382015b81830181106118085750506112c6565b80611815600192546125fd565b80611822575b50016117f8565b601f811183146118385750600081555b8b61181b565b600090828252611856601f60208420920160051c8201858301612637565b81835555611832565b015190508780611288565b9250600a88016000526020600020906000935b601f19841685106118c1576001945083601f198116106118a8575b505050811b01600a8601556112a0565b015160001960f88460031b161c19169055878080611898565b8181015183556020948501946001909301929091019061187d565b015190508780611228565b9250600988016000526020600020906000935b601f198416851061193e576001945083601f19811610611925575b505050811b016009860155611240565b015160001960f88460031b161c19169055878080611915565b818101518355602094850194600190930192909101906118fa565b015190508880611190565b9250600389016000526020600020906000935b601f19841685106119bb576001945083601f198116106119a2575b505050811b0160038701556111a8565b015160001960f88460031b161c19169055888080611992565b81810151835560209485019460019093019290910190611977565b905086015189611136565b91506002890160005260206000206000925b601f1983168410611a36576001935082601f19811610611a1d575b5050811b01600288015561114d565b88015160001960f88460031b161c191690558980611a0e565b888101518255602093840193600190920191016119f3565b60405162461bcd60e51b815260206004820152601560248201527414111188191bd8dd5b595b9d081c995c5d5a5c9959605a1b6044820152606490fd5b60405162461bcd60e51b815260206004820152601a60248201527f496e76616c696420636f6e74726163746f7220616464726573730000000000006044820152606490fd5b60405162461bcd60e51b815260206004820152601d60248201527f427564676574206d7573742062652067726561746572207468616e20300000006044820152606490fd5b60405162461bcd60e51b815260206004820152600e60248201526d151a5d1b19481c995c5d5a5c995960921b6044820152606490fd5b6001600160401b0383351161041857602080602492611b713685883560c4350101612249565b8152019301929050610fb8565b3461041857606036600319011261041857600435602480356006811015610418576001600160401b039060443582811161041857611bc0903690600401612249565b3360009081527fad3228b676f7d3cd4284a5443f17f1962b36e491b30a40b2405849e597ba5fb5602090815260409091205490919060ff168015611ead575b611c089061282b565b85151580611ea1575b611c1a90612754565b8560005260048252604060002090600582019485549560ff87169660ff87169060ff191617905560028514600014611dba5750506007429101555b84611c5f846126e6565b60005b815480821015611d86578390611c788385612695565b929054600393841b1c14611c96575050611c91906125d8565b611c62565b929350939495969060001992838101908111611d715790611cca611cbd611ce39387612695565b905490881b1c9186612695565b90919082549060031b91821b91600019901b1916179055565b8254908115611d5d57509260409592827f15a4a29eccf92a0bbf94f24a6840487aa0226f7fb02d3402f1f86b3360bdfc6a989693611d5a960192611d278484612695565b81939154921b1b19169055555b611d4687611d41846126e6565b6126c3565b611d52855180956122be565b8301906122be565ba2005b634e487b7160e01b60009081526031600452fd5b82634e487b7160e01b60005260116004526000fd5b505050507f15a4a29eccf92a0bbf94f24a6840487aa0226f7fb02d3402f1f86b3360bdfc6a935060409291611d5a91611d34565b909160038514611dcd575b505050611c55565b601001918051918211611e8c578190611dea8261131086546125fd565b8490601f8311600114611e2757600092611e1c575b50508160011b916000199060031b1c19161790555b858080611dc5565b015190508880611dff565b60008581528681209350601f198516905b87828210611e76575050908460019594939210611e5d575b505050811b019055611e14565b015160001960f88460031b161c19169055888080611e50565b6001859682939686015181550195019301611e38565b86634e487b7160e01b60005260416004526000fd5b50600354861115611c11565b507fd565e3fc066df348a5cbc05a8d6323e00552838041cea2d84cc59876ba37735d60009081528083526040808220338352845290205460ff16611bff565b346104185760003660031901126104185760206040517fd565e3fc066df348a5cbc05a8d6323e00552838041cea2d84cc59876ba37735d8152f35b3461041857600036600319011261041857611f406123ba565b60025460ff811615611f7f5760ff19166002557f5db9ee0a495bf2e6ff9c91a7834c1ba4fdd244a5e8aa4e537bd38aeae4b073aa6020604051338152a1005b604051638dfc202b60e01b8152600490fd5b3461041857604036600319011261041857611faa61217f565b336001600160a01b03821603611fc6576108e490600435612563565b60405163334bd91960e11b8152600490fd5b34610418576040366003190112610418576108e4600435611ff761217f565b90806000526000602052612012600160406000200154612412565b6124ea565b346104185760003660031901126104185760206040517fa88d484f5aeb539ab60f9bd084e23511bc356a4f715a255e909643bb69ddcb418152f35b346104185760203660031901126104185760043560005260006020526020600160406000200154604051908152f35b3461041857602080600319360112610418576004356006811015610418576120a8906126e6565b90604051908181845491828152019360005281600020916000905b8282106120da5761077c85610882818903826121e2565b8354865294850194600193840193909101906120c3565b34610418576020366003190112610418576004359063ffffffff60e01b821680920361041857602091637965db0b60e01b8114908115612133575b5015158152f35b6301ffc9a760e01b1490508361212c565b6020908160408183019282815285518094520193019160005b82811061216b575050505090565b83518552938101939281019260010161215d565b602435906001600160a01b038216820361041857565b600435906001600160a01b038216820361041857565b60e081019081106001600160401b03821117610a3c57604052565b61018081019081106001600160401b03821117610a3c57604052565b90601f801991011681019081106001600160401b03821117610a3c57604052565b9291926001600160401b038211610a3c576040519161222c601f8201601f1916602001846121e2565b829481845281830111610418578281602093846000960137010152565b9080601f830112156104185781602061226493359101612203565b90565b6001600160401b038111610a3c5760051b60200190565b919082519283825260005b8481106122aa575050826000602080949584010152601f8019910116010190565b602081830181015184830182015201612289565b9060068210156103bb5752565b908082519081815260208091019281808460051b8301019501936000915b8483106122f95750505050505090565b9091929394958480612317600193601f198682030187528a5161227e565b98019301930191949392906122e9565b6122649160c06123a961239761238561237361236161234f885160e0895260e089019061227e565b602089015188820360208a015261227e565b604088015187820360408901526122cb565b6060870151868203606088015261227e565b6080860151858203608087015261227e565b60a085015184820360a086015261227e565b9201519060c081840391015261227e565b3360009081527fad3228b676f7d3cd4284a5443f17f1962b36e491b30a40b2405849e597ba5fb5602052604081205460ff16156123f45750565b6044906040519063e2517d3f60e01b82523360048301526024820152fd5b80600052600060205260406000203360005260205260ff60406000205416156123f45750565b6001600160a01b031660008181527f0beaf284d6500f9045213f3d900c4b07f5b63bfcb6036ce1569f5385ec1728fc60205260408120549091907fa88d484f5aeb539ab60f9bd084e23511bc356a4f715a255e909643bb69ddcb419060ff166124e557808352826020526040832082845260205260408320600160ff198254161790557f2f8788117e7eff1d82e926ec794901d17c78024a50270940304540a733656f0d339380a4600190565b505090565b9060009180835282602052604083209160018060a01b03169182845260205260ff604084205416156000146124e557808352826020526040832082845260205260408320600160ff198254161790557f2f8788117e7eff1d82e926ec794901d17c78024a50270940304540a733656f0d339380a4600190565b9060009180835282602052604083209160018060a01b03169182845260205260ff6040842054166000146124e55780835282602052604083208284526020526040832060ff1981541690557ff6391f5c32d9c69d2a47ea670b442974b53935d1edc7fd64eb21e047a839171b339380a4600190565b60001981146125e75760010190565b634e487b7160e01b600052601160045260246000fd5b90600182811c9216801561262d575b602083101461261757565b634e487b7160e01b600052602260045260246000fd5b91607f169161260c565b818110612642575050565b60008155600101612637565b9190601f811161265d57505050565b612689926000526020600020906020601f840160051c8301931061268b575b601f0160051c0190612637565b565b909150819061267c565b80548210156126ad5760005260206000200190600090565b634e487b7160e01b600052603260045260246000fd5b90815491600160401b831015610a3c5782611cca91600161268995018155612695565b60068110156103bb576000526006602052604060002090565b60ff6002541661270b57565b60405163d93c066560e01b8152600490fd5b6040519061272a826121ab565b8160c060609182815282602082015282604082015282808201528260808201528260a08201520152565b1561275b57565b60405162461bcd60e51b8152602060048201526012602482015271125b9d985b1a59081c1c9bda9958dd08125160721b6044820152606490fd5b90600092918054916127a6836125fd565b91828252600193848116908160001461280857506001146127c8575b50505050565b90919394506000526020928360002092846000945b8386106127f45750505050010190388080806127c2565b8054858701830152940193859082016127dd565b9294505050602093945060ff191683830152151560051b010190388080806127c2565b1561283257565b60405162461bcd60e51b815260206004820152600c60248201526b155b985d5d1a1bdc9a5e995960a21b6044820152606490fdfea2646970667358221220ca875c51ab18038cc42c2b10759f4bd8788133d0e463c4d7bbaf1ac9884924d964736f6c63430008140033",
  "linkReferences": {},
  "deployedLinkReferences": {}
}