{"contracts/DocumentVerification.sol":{"DocumentVerification":{"abi":[{"inputs":[],"stateMutability":"nonpayable","type":"constructor"},{"inputs":[],"name":"AccessControlBadConfirmation","type":"error"},{"inputs":[{"internalType":"address","name":"account","type":"address"},{"internalType":"bytes32","name":"neededRole","type":"bytes32"}],"name":"AccessControlUnauthorizedAccount","type":"error"},{"anonymous":false,"inputs":[{"indexed":true,"internalType":"bytes32","name":"documentHash","type":"bytes32"},{"indexed":true,"internalType":"address","name":"flagger","type":"address"},{"indexed":false,"internalType":"string","name":"reason","type":"string"}],"name":"DocumentFlagged","type":"event"},{"anonymous":false,"inputs":[{"indexed":true,"internalType":"bytes32","name":"documentHash","type":"bytes32"},{"indexed":true,"internalType":"address","name":"uploader","type":"address"},{"indexed":false,"internalType":"enum DocumentVerification.DocumentType","name":"docType","type":"uint8"},{"indexed":true,"internalType":"uint256","name":"projectId","type":"uint256"},{"indexed":false,"internalType":"string","name":"ipfsHash","type":"string"}],"name":"DocumentRegistered","type":"event"},{"anonymous":false,"inputs":[{"indexed":true,"internalType":"bytes32","name":"documentHash","type":"bytes32"},{"indexed":true,"internalType":"address","name":"verifier","type":"address"}],"name":"DocumentVerified","type":"event"},{"anonymous":false,"inputs":[{"indexed":true,"internalType":"uint256","name":"projectId","type":"uint256"},{"indexed":false,"internalType":"string","name":"latitude","type":"string"},{"indexed":false,"internalType":"string","name":"longitude","type":"string"}],"name":"GPSCoordinatesRegistered","type":"event"},{"anonymous":false,"inputs":[{"indexed":true,"internalType":"bytes32","name":"role","type":"bytes32"},{"indexed":true,"internalType":"bytes32","name":"previousAdminRole","type":"bytes32"},{"indexed":true,"internalType":"bytes32","name":"newAdminRole","type":"bytes32"}],"name":"RoleAdminChanged","type":"event"},{"anonymous":false,"inputs":[{"indexed":true,"internalType":"bytes32","name":"role","type":"bytes32"},{"indexed":true,"internalType":"address","name":"account","type":"address"},{"indexed":true,"internalType":"address","name":"sender","type":"address"}],"name":"RoleGranted","type":"event"},{"anonymous":false,"inputs":[{"indexed":true,"internalType":"bytes32","name":"role","type":"bytes32"},{"indexed":true,"internalType":"address","name":"account","type":"address"},{"indexed":true,"internalType":"address","name":"sender","type":"address"}],"name":"RoleRevoked","type":"event"},{"inputs":[],"name":"DEFAULT_ADMIN_ROLE","outputs":[{"internalType":"bytes32","name":"","type":"bytes32"}],"stateMutability":"view","type":"function"},{"inputs":[{"internalType":"uint256","name":"_projectId","type":"uint256"}],"name":"auditDocumentHistory","outputs":[{"components":[{"internalType":"bytes32","name":"documentHash","type":"bytes32"},{"internalType":"address","name":"uploadedBy","type":"address"},{"internalType":"uint256","name":"timestamp","type":"uint256"},{"internalType":"enum DocumentVerification.DocumentType","name":"docType","type":"uint8"},{"internalType":"uint256","name":"projectId","type":"uint256"},{"internalType":"string","name":"ipfsHash","type":"string"},{"internalType":"bool","name":"isFlagged","type":"bool"},{"internalType":"string","name":"flagReason","type":"string"},{"internalType":"address","name":"flaggedBy","type":"address"},{"internalType":"bool","name":"isVerified","type":"bool"},{"internalType":"address","name":"verifiedBy","type":"address"}],"internalType":"struct DocumentVerification.DocumentMetadata[]","name":"","type":"tuple[]"}],"stateMutability":"view","type":"function"},{"inputs":[{"internalType":"bytes32","name":"_documentHash","type":"bytes32"}],"name":"checkDocumentIntegrity","outputs":[{"internalType":"bool","name":"exists","type":"bool"},{"internalType":"bool","name":"isFlagged","type":"bool"},{"internalType":"bool","name":"isVerified","type":"bool"}],"stateMutability":"view","type":"function"},{"inputs":[{"internalType":"string","name":"_ipfsHash","type":"string"}],"name":"computeDocumentHash","outputs":[{"internalType":"bytes32","name":"","type":"bytes32"}],"stateMutability":"pure","type":"function"},{"inputs":[{"internalType":"bytes32","name":"_documentHash","type":"bytes32"},{"internalType":"string","name":"_reason","type":"string"}],"name":"flagDocument","outputs":[],"stateMutability":"nonpayable","type":"function"},{"inputs":[{"internalType":"bytes32","name":"_documentHash","type":"bytes32"}],"name":"getDocumentMetadata","outputs":[{"components":[{"internalType":"bytes32","name":"documentHash","type":"bytes32"},{"internalType":"address","name":"uploadedBy","type":"address"},{"internalType":"uint256","name":"timestamp","type":"uint256"},{"internalType":"enum DocumentVerification.DocumentType","name":"docType","type":"uint8"},{"internalType":"uint256","name":"projectId","type":"uint256"},{"internalType":"string","name":"ipfsHash","type":"string"},{"internalType":"bool","name":"isFlagged","type":"bool"},{"internalType":"string","name":"flagReason","type":"string"},{"internalType":"address","name":"flaggedBy","type":"address"},{"internalType":"bool","name":"isVerified","type":"bool"},{"internalType":"address","name":"verifiedBy","type":"address"}],"internalType":"struct DocumentVerification.DocumentMetadata","name":"","type":"tuple"}],"stateMutability":"view","type":"function"},{"inputs":[{"internalType":"uint256","name":"_projectId","type":"uint256"}],"name":"getFlaggedDocumentsCount","outputs":[{"internalType":"uint256","name":"","type":"uint256"}],"stateMutability":"view","type":"function"},{"inputs":[{"internalType":"uint256","name":"_projectId","type":"uint256"}],"name":"getProjectDocuments","outputs":[{"internalType":"bytes32[]","name":"","type":"bytes32[]"}],"stateMutability":"view","type":"function"},{"inputs":[{"internalType":"uint256","name":"_projectId","type":"uint256"}],"name":"getProjectGPSCoordinates","outputs":[{"components":[{"internalType":"string","name":"latitude","type":"string"},{"internalType":"string","name":"longitude","type":"string"},{"internalType":"uint256","name":"timestamp","type":"uint256"},{"internalType":"uint256","name":"projectId","type":"uint256"}],"internalType":"struct DocumentVerification.GPSCoordinates","name":"","type":"tuple"}],"stateMutability":"view","type":"function"},{"inputs":[{"internalType":"bytes32","name":"role","type":"bytes32"}],"name":"getRoleAdmin","outputs":[{"internalType":"bytes32","name":"","type":"bytes32"}],"stateMutability":"view","type":"function"},{"inputs":[],"name":"getTotalDocuments","outputs":[{"internalType":"uint256","name":"","type":"uint256"}],"stateMutability":"view","type":"function"},{"inputs":[{"internalType":"bytes32","name":"role","type":"bytes32"},{"internalType":"address","name":"account","type":"address"}],"name":"grantRole","outputs":[],"stateMutability":"nonpayable","type":"function"},{"inputs":[{"internalType":"bytes32","name":"role","type":"bytes32"},{"internalType":"address","name":"account","type":"address"}],"name":"hasRole","outputs":[{"internalType":"bool","name":"","type":"bool"}],"stateMutability":"view","type":"function"},{"inputs":[{"internalType":"bytes32","name":"_documentHash","type":"bytes32"}],"name":"markDocumentVerified","outputs":[],"stateMutability":"nonpayable","type":"function"},{"inputs":[{"internalType":"bytes32","name":"_documentHash","type":"bytes32"},{"internalType":"enum DocumentVerification.DocumentType","name":"_docType","type":"uint8"},{"internalType":"uint256","name":"_projectId","type":"uint256"},{"internalType":"string","name":"_ipfsHash","type":"string"}],"name":"registerDocument","outputs":[{"internalType":"bool","name":"","type":"bool"}],"stateMutability":"nonpayable","type":"function"},{"inputs":[{"internalType":"uint256","name":"_projectId","type":"uint256"},{"internalType":"string","name":"_latitude","type":"string"},{"internalType":"string","name":"_longitude","type":"string"}],"name":"registerGPSCoordinates","outputs":[],"stateMutability":"nonpayable","type":"function"},{"inputs":[{"internalType":"bytes32","name":"role","type":"bytes32"},{"internalType":"address","name":"callerConfirmation","type":"address"}],"name":"renounceRole","outputs":[],"stateMutability":"nonpayable","type":"function"},{"inputs":[{"internalType":"bytes32","name":"role","type":"bytes32"},{"internalType":"address","name":"account","type":"address"}],"name":"revokeRole","outputs":[],"stateMutability":"nonpayable","type":"function"},{"inputs":[{"internalType":"bytes4","name":"interfaceId","type":"bytes4"}],"name":"supportsInterface","outputs":[{"internalType":"bool","name":"","type":"bool"}],"stateMutability":"view","type":"function"},{"inputs":[{"internalType":"string","name":"_lat1","type":"string"},{"internalType":"string","name":"_long1","type":"string"},{"internalType":"string","name":"_lat2","type":"string"},{"internalType":"string","name":"_long2","type":"string"}],"name":"validateGPSCoordinates","outputs":[{"internalType":"bool","name":"","type":"bool"}],"stateMutability":"pure","type":"function"},{"inputs":[{"internalType":"bytes32","name":"_documentHash","type":"bytes32"},{"internalType":"bytes","name":"_signature","type":"bytes"}],"name":"verifyDocument","outputs":[{"internalType":"bool","name":"","type":"bool"}],"stateMutability":"view","type":"function"}],"evm":{"bytecode":{"linkReferences":{},"object":"6080604052346100225761001233610027565b50604051611cd490816100b88239f35b600080fd5b6001600160a01b031660008181527fad3228b676f7d3cd4284a5443f17f1962b36e491b30a40b2405849e597ba5fb5602052604081205490919060ff166100b357818052816020526040822081835260205260408220600160ff1982541617905533917f2f8788117e7eff1d82e926ec794901d17c78024a50270940304540a733656f0d8180a4600190565b509056fe608080604052600436101561001357600080fd5b60003560e01c90816301ffc9a714611769575080631e26d79e146116a6578063248a9ca3146116775780632f2ff15d1461164657806336568abe1461160d5780633b72ef9e146114e95780633bdd87f4146114205780634a99de981461135f5780635ca0ad5614610f975780636dad334a14610d98578063863d809114610c9657806391d1485414610c56578063a217fddf14610c3a578063a3b5dc9e14610b94578063adbee67d14610aac578063aff0062b146104d8578063b2d6f2611461046d578063b5d2fe2614610407578063b9e88eca1461015c578063d547741f146101295763e90e7ad41461010657600080fd5b34610124576000366003190112610124576020600454604051908152f35b600080fd5b346101245761015a61013a366117bc565b90806000526000602052610155600160406000200154611995565b611a57565b005b34610124576040366003190112610124576004356001600160401b03602435818111610124576101909036906004016118c8565b91806000526001926020938085526101b16002604060002001541515611b12565b8260005280855260ff600660406000200154166103c25781511561038b578260005280855260076040600020600681018360ff19825416179055018251948511610375576101ff8154611ad8565b601f811161032c575b5085601f86116001146102a35790857fcb496344ee43575f87dbef648b6833d026a2a82542c38bb7ab0776f574ac41779596610293959493600091610298575b50600019600383901b1c191690831b1790555b8460005285526008604060002001336bffffffffffffffffffffffff60a01b8254161790556040519182918683523396830190611805565b0390a3005b905084015189610248565b601f1986169082600052876000209160005b8982821061031857505096849392610293969592827fcb496344ee43575f87dbef648b6833d026a2a82542c38bb7ab0776f574ac4177999a106102ff575b5050811b01905561025b565b86015160001960f88460031b161c1916905589806102f3565b8784015185559386019392830192016102b5565b8160005286600020601f870160051c81019188881061036b575b601f0160051c019083905b82811061035f575050610208565b60008155018390610351565b9091508190610346565b634e487b7160e01b600052604160045260246000fd5b60405162461bcd60e51b815260048101869052600f60248201526e1499585cdbdb881c995c5d5a5c9959608a1b6044820152606490fd5b60405162461bcd60e51b815260048101869052601860248201527f446f63756d656e7420616c726561647920666c616767656400000000000000006044820152606490fd5b34610124576020366003190112610124576004356001600160401b0381116101245761043960209136906004016118c8565b60405161046283828161045581830196878151938492016117e2565b8101038084520182611861565b519020604051908152f35b34610124576040366003190112610124576024356001600160401b0381116101245736602382011215610124576104b06020913690602481600401359101611882565b600435600052600182526104cd6002604060002001541515611b12565b511515604051908152f35b346101245760803660031901126101245760076024351015610124576064356001600160401b038111610124576105139036906004016118c8565b60043515610a6f576004356000526001602052600260406000200154610a2a578051156109f0576040519061054782611845565b600435825233602083015242604083015261056760243560608401611acc565b60443560808301528060a0830152600060c08301526040518060208101106001600160401b0360208301111761037557602081016040526000815260e08301526000610100830152600061012083015260006101408301526004356000526001602052604060002090825182556001820160018060a01b036020850151166bffffffffffffffffffffffff60a01b8254161790556040830151600283015560038201606084015160078110156109da5760ff801983541691161790556080830151600483015560a08301519283516001600160401b038111610375576106506005850154611ad8565b601f8111610993575b506020601f8211600114610924578192939495600092610919575b50508160011b916000199060031b1c19161760058401555b6006830160c0820151151560ff8019835416911617905560e08101519283516001600160401b038111610375576106c66007830154611ad8565b601f81116108d2575b506020601f821160011461085f5781906009949596600092610854575b50508160011b916000199060031b1c19161760078201555b6101008301516008820180546101208601516001600160a81b03199091166001600160a01b039384161790151560a01b60ff60a01b1617905561014090930151910180546001600160a01b0319169190921617905560443560009081526002602052604090208054680100000000000000009182821015610375576001820180825582101561083e5760005260043590602060002001556004549081101561037557600181018060045581101561083e576004600052600435907f8a35acfbc15ff81a39ae7d344fd709f28e8600b4aa8c65c6b64bfe7fe36bd19b01556040516107f0816024356118e6565b60406020820152604435917f050cbc02f6a7e361ffe1cb5d81c10c0924a8b3aa5446effda8db9b6c365a4826339280610830600435946040830190611805565b0390a4602060405160018152f35b634e487b7160e01b600052603260045260246000fd5b0151905086806106ec565b6007830160005260206000209560005b601f19841681106108ba57509582916009959697600194601f198116106108a1575b505050811b016007820155610704565b015160001960f88460031b161c19169055868080610891565b8282015188556001909701966020928301920161086f565b600783016000526020600020601f830160051c810160208410610912575b601f830160051c820181106109065750506106cf565b600081556001016108f0565b50806108f0565b015190508580610674565b6005850160005260206000209060005b601f198416811061097b575060019394959683601f19811610610962575b505050811b01600584015561068c565b015160001960f88460031b161c19169055858080610952565b9091602060018192858b015181550193019101610934565b600585016000526020600020601f830160051c8101602084106109d3575b601f830160051c820181106109c7575050610659565b600081556001016109b1565b50806109b1565b634e487b7160e01b600052602160045260246000fd5b60405162461bcd60e51b815260206004820152601260248201527112541194c81a185cda081c995c5d5a5c995960721b6044820152606490fd5b60405162461bcd60e51b815260206004820152601b60248201527f446f63756d656e7420616c7265616479207265676973746572656400000000006044820152606490fd5b60405162461bcd60e51b8152602060048201526015602482015274092dcecc2d8d2c840c8dec6eadacadce840d0c2e6d605b1b6044820152606490fd5b346101245760203660031901126101245760043560005260016020526060604060002060405190610adc82611845565b8054825260018060a01b039182600183015416602082015260028201549060408101918252610b1460ff600385015416868301611acc565b60048301546080820152610b2a60058401611b53565b60a082015261014060ff6006850154169460c083019515158652610b5060078601611b53565b60e0840152600960ff600887015483811661010087015260a01c16151595866101208601520154169101525115159151151560405192835260208301526040820152f35b34610124576020806003193601126101245760043560005260028152604060002060405190818382549182815201908192600052846000209060005b86828210610c26578686610be682880383611861565b604051928392818401908285525180915260408401929160005b828110610c0f57505050500390f35b835185528695509381019392810192600101610c00565b835485529093019260019283019201610bd0565b3461012457600036600319011261012457602060405160008152f35b3461012457610c64366117bc565b90600052600060205260406000209060018060a01b0316600052602052602060ff604060002054166040519015158152f35b346101245760208060031936011261012457600435610cb3611bf9565b508060005260018252610ccf6002604060002001541515611b12565b6000526001815260406000209060405191610ce983611845565b80548352600960018060a01b0391826001820154168486015260028101546040860152610d2060ff60038301541660608701611acc565b60048101546080860152610d3660058201611b53565b60a086015260ff600682015416151560c0860152610d5660078201611b53565b60e086015260ff600882015484811661010088015260a01c161515610120860152015416610140830152610d946040519282849384528301906118f3565b0390f35b3461012457602080600319360112610124576004356000526002808252604060002090604051808385829554938481520190600052856000209260005b87828210610f8157505050610dec92500383611861565b815190610df882611c4e565b91610e066040519384611861565b808352610e15601f1991611c4e565b018460005b828110610f6b5750505060005b8351811015610f0d5780610e3e610f089286611c8a565b516000526001808752604060002090600960405192610e5c84611845565b8054845260018060a01b038093820154168a85015286810154604085015260ff610e8f8160038401541660608701611acc565b60048201546080860152610ea560058301611b53565b60a0908187015281600684015416151560c0870152610ec660078401611b53565b60e08701526008830154908582166101008801521c161515610120850152015416610140820152610ef78286611c8a565b52610f028185611c8a565b50611c65565b610e27565b604080518681528451818801819052600092600582901b8301810191878a01918a9085015b828710610f3f5785850386f35b909192938280610f5b600193603f198a820301865288516118f3565b9601920196019592919092610f32565b610f73611bf9565b828287010152018590610e1a565b8554845260019586019588955093019201610dd5565b34610124576060366003190112610124576024356001600160401b03811161012457610fc79036906004016118c8565b6044356001600160401b03811161012457610fe69036906004016118c8565b90805115611326578151156112ec576040516110018161182a565b8181528260208201524260408201526004356060820152600435600052600360205260406000209080518051906001600160401b0382116103755781906110488554611ad8565b601f811161129c575b50602090601f83116001146112365760009261122b575b50508160011b916000199060031b1c19161782555b60208101518051906001600160401b038211610375576110a06001850154611ad8565b601f81116111e4575b50602090601f831160011461114c577fcedeb2141741852ed10fd6c0bb808d152fafc22833bc1eb641260977d3cf5f5695938361112b9694600394606094600092611141575b505060001982861b1c1916600191821b17908501555b60408101516002850155015191015561113c604051928392604084526040840190611805565b828103602084015260043595611805565b0390a2005b015190508a806110ef565b90601f198316916001860160005260206000209260005b8181106111cc5750846003946060947fcedeb2141741852ed10fd6c0bb808d152fafc22833bc1eb641260977d3cf5f569a989461112b9a98600195106111b4575b505050811b016001850155611105565b015160001983881b60f8161c191690558a80806111a4565b92936020600181928786015181550195019301611163565b600185016000526020600020601f840160051c810160208510611224575b601f830160051c820181106112185750506110a9565b60008155600101611202565b5080611202565b015190508680611068565b6000868152602081209350601f198516905b818110611284575090846001959493921061126b575b505050811b01825561107d565b015160001960f88460031b161c1916905586808061125e565b92936020600181928786015181550195019301611248565b909150846000526020600020601f840160051c8101602085106112e5575b90849392915b601f830160051c820181106112d6575050611051565b600081558594506001016112c0565b50806112ba565b60405162461bcd60e51b8152602060048201526012602482015271131bdb99da5d1d5919481c995c5d5a5c995960721b6044820152606490fd5b60405162461bcd60e51b815260206004820152601160248201527013185d1a5d1d5919481c995c5d5a5c9959607a1b6044820152606490fd5b34610124576080366003190112610124576001600160401b03600435818111610124576113909036906004016118c8565b602435828111610124576113a89036906004016118c8565b90604435838111610124576113c19036906004016118c8565b606435938411610124576113db60209436906004016118c8565b915115159283611415575b508261140a575b50816113ff575b506040519015158152f35b9050511515826113f4565b5115159150836113ed565b5115159250846113e6565b346101245760208060031936011261012457608090600060606040516114458161182a565b81815281848201528260408201520152600435600052600381526040600020604051916114718361182a565b61147a82611b53565b83526114d861148b60018401611b53565b8285019081526114c560036002860154956040880196875201549360608701948552604051978897828952519188015260a0870190611805565b9051858203601f19016040870152611805565b915160608401525160808301520390f35b346101245760208060031936011261012457600435906000805260008152604060002033600052815260ff60406000205416156115ee57816000526001815261153b6002604060002001541515611b12565b816000526001815260ff60086040600020015460a01c166115b757600082815260019091526040812060088101805460ff60a01b1916600160a01b17905560090180546001600160a01b0319163390811790915591907f536e3e5b353ccc73d28014bd5d2ff03ced4b84fa024148b4949000af72f0a2549080a3005b6064906040519062461bcd60e51b82526004820152601060248201526f105b1c9958591e481d995c9a599a595960821b6044820152fd5b60405163e2517d3f60e01b815233600482015260006024820152604490fd5b346101245761161b366117bc565b336001600160a01b038216036116345761015a91611a57565b60405163334bd91960e11b8152600490fd5b346101245761015a611657366117bc565b90806000526000602052611672600160406000200154611995565b6119d9565b346101245760203660031901126101245760043560005260006020526020600160406000200154604051908152f35b346101245760208060031936011261012457600435600052600281526040600020604051808284829454938481520190600052846000209260005b8682821061175357846116f681860382611861565b6000805b82518110156117495761170d8184611c8a565b516000526001845260ff60066040600020015416611734575b61172f90611c65565b6116fa565b9061174161172f91611c65565b919050611726565b8382604051908152f35b85548452600195860195879550930192016116e1565b34610124576020366003190112610124576004359063ffffffff60e01b821680920361012457602091637965db0b60e01b81149081156117ab575b5015158152f35b6301ffc9a760e01b149050836117a4565b604090600319011261012457600435906024356001600160a01b03811681036101245790565b60005b8381106117f55750506000910152565b81810151838201526020016117e5565b9060209161181e815180928185528580860191016117e2565b601f01601f1916010190565b608081019081106001600160401b0382111761037557604052565b61016081019081106001600160401b0382111761037557604052565b90601f801991011681019081106001600160401b0382111761037557604052565b9291926001600160401b03821161037557604051916118ab601f8201601f191660200184611861565b829481845281830111610124578281602093846000960137010152565b9080601f83011215610124578160206118e393359101611882565b90565b9060078210156109da5752565b908151815260018060a01b039182602082015116602083015260408101516040830152611928606082015160608401906118e6565b6080810151608083015261196c61194e60a08301516101608060a0870152850190611805565b60c0830151151560c085015260e083015184820360e0860152611805565b926101008181840151169084015261012080830151151590840152610140809201511691015290565b80600052600060205260406000203360005260205260ff60406000205416156119bb5750565b6044906040519063e2517d3f60e01b82523360048301526024820152fd5b9060009180835282602052604083209160018060a01b03169182845260205260ff60408420541615600014611a5257808352826020526040832082845260205260408320600160ff198254161790557f2f8788117e7eff1d82e926ec794901d17c78024a50270940304540a733656f0d339380a4600190565b505090565b9060009180835282602052604083209160018060a01b03169182845260205260ff604084205416600014611a525780835282602052604083208284526020526040832060ff1981541690557ff6391f5c32d9c69d2a47ea670b442974b53935d1edc7fd64eb21e047a839171b339380a4600190565b60078210156109da5752565b90600182811c92168015611b08575b6020831014611af257565b634e487b7160e01b600052602260045260246000fd5b91607f1691611ae7565b15611b1957565b60405162461bcd60e51b8152602060048201526012602482015271111bd8dd5b595b9d081b9bdd08199bdd5b9960721b6044820152606490fd5b9060405191826000825492611b6784611ad8565b908184526001948581169081600014611bd65750600114611b93575b5050611b9192500383611861565b565b9093915060005260209081600020936000915b818310611bbe575050611b9193508201013880611b83565b85548884018501529485019487945091830191611ba6565b915050611b9194506020925060ff191682840152151560051b8201013880611b83565b60405190611c0682611845565b81610140600091828152826020820152826040820152826060820152826080820152606060a08201528260c0820152606060e082015282610100820152826101208201520152565b6001600160401b0381116103755760051b60200190565b6000198114611c745760010190565b634e487b7160e01b600052601160045260246000fd5b805182101561083e5760209160051b01019056fea26469706673582212200899dc9b9c86b65bb98888d02e04d8de245d5b66a09e0e22356552e0886f04eb64736f6c63430008140033","opcodes":"PUSH1 0x80 PUSH1 0x40 MSTORE CALLVALUE PUSH2 0x22 JUMPI PUSH2 0x12 CALLER PUSH2 0x27 JUMP JUMPDEST POP PUSH1 0x40 MLOAD PUSH2 0x1CD4 SWAP1 DUP2 PUSH2 0xB8 DUP3 CODECOPY RETURN JUMPDEST PUSH1 0x0 DUP1 REVERT JUMPDEST PUSH1 0x1 PUSH1 0x1 PUSH1 0xA0 SHL SUB AND PUSH1 0x0 DUP2 DUP2 MSTORE PUSH32 0xAD3228B676F7D3CD4284A5443F17F1962B36E491B30A40B2405849E597BA5FB5 PUSH1 0x20 MSTORE PUSH1 0x40 DUP2 KECCAK256 SLOAD SWAP1 SWAP2 SWAP1 PUSH1 0xFF AND PUSH2 0xB3 JUMPI DUP2 DUP1 MSTORE DUP2 PUSH1 0x20 MSTORE PUSH1 0x40 DUP3 KECCAK256 DUP2 DUP4 MSTORE PUSH1 0x20 MSTORE PUSH1 0x40 DUP3 KECCAK256 PUSH1 0x1 PUSH1 0xFF NOT DUP3 SLOAD AND OR SWAP1 SSTORE CALLER SWAP2 PUSH32 0x2F8788117E7EFF1D82E926EC794901D17C78024A50270940304540A733656F0D DUP2 DUP1 LOG4 PUSH1 0x1 SWAP1 JUMP JUMPDEST POP SWAP1 JUMP INVALID PUSH1 0x80 DUP1 PUSH1 0x40 MSTORE PUSH1 0x4 CALLDATASIZE LT ISZERO PUSH2 0x13 JUMPI PUSH1 0x0 DUP1 REVERT JUMPDEST PUSH1 0x0 CALLDATALOAD PUSH1 0xE0 SHR SWAP1 DUP2 PUSH4 0x1FFC9A7 EQ PUSH2 0x1769 JUMPI POP DUP1 PUSH4 0x1E26D79E EQ PUSH2 0x16A6 JUMPI DUP1 PUSH4 0x248A9CA3 EQ PUSH2 0x1677 JUMPI DUP1 PUSH4 0x2F2FF15D EQ PUSH2 0x1646 JUMPI DUP1 PUSH4 0x36568ABE EQ PUSH2 0x160D JUMPI DUP1 PUSH4 0x3B72EF9E EQ PUSH2 0x14E9 JUMPI DUP1 PUSH4 0x3BDD87F4 EQ PUSH2 0x1420 JUMPI DUP1 PUSH4 0x4A99DE98 EQ PUSH2 0x135F JUMPI DUP1 PUSH4 0x5CA0AD56 EQ PUSH2 0xF97 JUMPI DUP1 PUSH4 0x6DAD334A EQ PUSH2 0xD98 JUMPI DUP1 PUSH4 0x863D8091 EQ PUSH2 0xC96 JUMPI DUP1 PUSH4 0x91D14854 EQ PUSH2 0xC56 JUMPI DUP1 PUSH4 0xA217FDDF EQ PUSH2 0xC3A JUMPI DUP1 PUSH4 0xA3B5DC9E EQ PUSH2 0xB94 JUMPI DUP1 PUSH4 0xADBEE67D EQ PUSH2 0xAAC JUMPI DUP1 PUSH4 0xAFF0062B EQ PUSH2 0x4D8 JUMPI DUP1 PUSH4 0xB2D6F261 EQ PUSH2 0x46D JUMPI DUP1 PUSH4 0xB5D2FE26 EQ PUSH2 0x407 JUMPI DUP1 PUSH4 0xB9E88ECA EQ PUSH2 0x15C JUMPI DUP1 PUSH4 0xD547741F EQ PUSH2 0x129 JUMPI PUSH4 0xE90E7AD4 EQ PUSH2 0x106 JUMPI PUSH1 0x0 DUP1 REVERT JUMPDEST CALLVALUE PUSH2 0x124 JUMPI PUSH1 0x0 CALLDATASIZE PUSH1 0x3 NOT ADD SLT PUSH2 0x124 JUMPI PUSH1 0x20 PUSH1 0x4 SLOAD PUSH1 0x40 MLOAD SWAP1 DUP2 MSTORE RETURN JUMPDEST PUSH1 0x0 DUP1 REVERT JUMPDEST CALLVALUE PUSH2 0x124 JUMPI PUSH2 0x15A PUSH2 0x13A CALLDATASIZE PUSH2 0x17BC JUMP JUMPDEST SWAP1 DUP1 PUSH1 0x0 MSTORE PUSH1 0x0 PUSH1 0x20 MSTORE PUSH2 0x155 PUSH1 0x1 PUSH1 0x40 PUSH1 0x0 KECCAK256 ADD SLOAD PUSH2 0x1995 JUMP JUMPDEST PUSH2 0x1A57 JUMP JUMPDEST STOP JUMPDEST CALLVALUE PUSH2 0x124 JUMPI PUSH1 0x40 CALLDATASIZE PUSH1 0x3 NOT ADD SLT PUSH2 0x124 JUMPI PUSH1 0x4 CALLDATALOAD PUSH1 0x1 PUSH1 0x1 PUSH1 0x40 SHL SUB PUSH1 0x24 CALLDATALOAD DUP2 DUP2 GT PUSH2 0x124 JUMPI PUSH2 0x190 SWAP1 CALLDATASIZE SWAP1 PUSH1 0x4 ADD PUSH2 0x18C8 JUMP JUMPDEST SWAP2 DUP1 PUSH1 0x0 MSTORE PUSH1 0x1 SWAP3 PUSH1 0x20 SWAP4 DUP1 DUP6 MSTORE PUSH2 0x1B1 PUSH1 0x2 PUSH1 0x40 PUSH1 0x0 KECCAK256 ADD SLOAD ISZERO ISZERO PUSH2 0x1B12 JUMP JUMPDEST DUP3 PUSH1 0x0 MSTORE DUP1 DUP6 MSTORE PUSH1 0xFF PUSH1 0x6 PUSH1 0x40 PUSH1 0x0 KECCAK256 ADD SLOAD AND PUSH2 0x3C2 JUMPI DUP2 MLOAD ISZERO PUSH2 0x38B JUMPI DUP3 PUSH1 0x0 MSTORE DUP1 DUP6 MSTORE PUSH1 0x7 PUSH1 0x40 PUSH1 0x0 KECCAK256 PUSH1 0x6 DUP2 ADD DUP4 PUSH1 0xFF NOT DUP3 SLOAD AND OR SWAP1 SSTORE ADD DUP3 MLOAD SWAP5 DUP6 GT PUSH2 0x375 JUMPI PUSH2 0x1FF DUP2 SLOAD PUSH2 0x1AD8 JUMP JUMPDEST PUSH1 0x1F DUP2 GT PUSH2 0x32C JUMPI JUMPDEST POP DUP6 PUSH1 0x1F DUP7 GT PUSH1 0x1 EQ PUSH2 0x2A3 JUMPI SWAP1 DUP6 PUSH32 0xCB496344EE43575F87DBEF648B6833D026A2A82542C38BB7AB0776F574AC4177 SWAP6 SWAP7 PUSH2 0x293 SWAP6 SWAP5 SWAP4 PUSH1 0x0 SWAP2 PUSH2 0x298 JUMPI JUMPDEST POP PUSH1 0x0 NOT PUSH1 0x3 DUP4 SWAP1 SHL SHR NOT AND SWAP1 DUP4 SHL OR SWAP1 SSTORE JUMPDEST DUP5 PUSH1 0x0 MSTORE DUP6 MSTORE PUSH1 0x8 PUSH1 0x40 PUSH1 0x0 KECCAK256 ADD CALLER PUSH12 0xFFFFFFFFFFFFFFFFFFFFFFFF PUSH1 0xA0 SHL DUP3 SLOAD AND OR SWAP1 SSTORE PUSH1 0x40 MLOAD SWAP2 DUP3 SWAP2 DUP7 DUP4 MSTORE CALLER SWAP7 DUP4 ADD SWAP1 PUSH2 0x1805 JUMP JUMPDEST SUB SWAP1 LOG3 STOP JUMPDEST SWAP1 POP DUP5 ADD MLOAD DUP10 PUSH2 0x248 JUMP JUMPDEST PUSH1 0x1F NOT DUP7 AND SWAP1 DUP3 PUSH1 0x0 MSTORE DUP8 PUSH1 0x0 KECCAK256 SWAP2 PUSH1 0x0 JUMPDEST DUP10 DUP3 DUP3 LT PUSH2 0x318 JUMPI POP POP SWAP7 DUP5 SWAP4 SWAP3 PUSH2 0x293 SWAP7 SWAP6 SWAP3 DUP3 PUSH32 0xCB496344EE43575F87DBEF648B6833D026A2A82542C38BB7AB0776F574AC4177 SWAP10 SWAP11 LT PUSH2 0x2FF JUMPI JUMPDEST POP POP DUP2 SHL ADD SWAP1 SSTORE PUSH2 0x25B JUMP JUMPDEST DUP7 ADD MLOAD PUSH1 0x0 NOT PUSH1 0xF8 DUP5 PUSH1 0x3 SHL AND SHR NOT AND SWAP1 SSTORE DUP10 DUP1 PUSH2 0x2F3 JUMP JUMPDEST DUP8 DUP5 ADD MLOAD DUP6 SSTORE SWAP4 DUP7 ADD SWAP4 SWAP3 DUP4 ADD SWAP3 ADD PUSH2 0x2B5 JUMP JUMPDEST DUP2 PUSH1 0x0 MSTORE DUP7 PUSH1 0x0 KECCAK256 PUSH1 0x1F DUP8 ADD PUSH1 0x5 SHR DUP2 ADD SWAP2 DUP9 DUP9 LT PUSH2 0x36B JUMPI JUMPDEST PUSH1 0x1F ADD PUSH1 0x5 SHR ADD SWAP1 DUP4 SWAP1 JUMPDEST DUP3 DUP2 LT PUSH2 0x35F JUMPI POP POP PUSH2 0x208 JUMP JUMPDEST PUSH1 0x0 DUP2 SSTORE ADD DUP4 SWAP1 PUSH2 0x351 JUMP JUMPDEST SWAP1 SWAP2 POP DUP2 SWAP1 PUSH2 0x346 JUMP JUMPDEST PUSH4 0x4E487B71 PUSH1 0xE0 SHL PUSH1 0x0 MSTORE PUSH1 0x41 PUSH1 0x4 MSTORE PUSH1 0x24 PUSH1 0x0 REVERT JUMPDEST PUSH1 0x40 MLOAD PUSH3 0x461BCD PUSH1 0xE5 SHL DUP2 MSTORE PUSH1 0x4 DUP2 ADD DUP7 SWAP1 MSTORE PUSH1 0xF PUSH1 0x24 DUP3 ADD MSTORE PUSH15 0x1499585CDBDB881C995C5D5A5C9959 PUSH1 0x8A SHL PUSH1 0x44 DUP3 ADD MSTORE PUSH1 0x64 SWAP1 REVERT JUMPDEST PUSH1 0x40 MLOAD PUSH3 0x461BCD PUSH1 0xE5 SHL DUP2 MSTORE PUSH1 0x4 DUP2 ADD DUP7 SWAP1 MSTORE PUSH1 0x18 PUSH1 0x24 DUP3 ADD MSTORE PUSH32 0x446F63756D656E7420616C726561647920666C61676765640000000000000000 PUSH1 0x44 DUP3 ADD MSTORE PUSH1 0x64 SWAP1 REVERT JUMPDEST CALLVALUE PUSH2 0x124 JUMPI PUSH1 0x20 CALLDATASIZE PUSH1 0x3 NOT ADD SLT PUSH2 0x124 JUMPI PUSH1 0x4 CALLDATALOAD PUSH1 0x1 PUSH1 0x1 PUSH1 0x40 SHL SUB DUP2 GT PUSH2 0x124 JUMPI PUSH2 0x439 PUSH1 0x20 SWAP2 CALLDATASIZE SWAP1 PUSH1 0x4 ADD PUSH2 0x18C8 JUMP JUMPDEST PUSH1 0x40 MLOAD PUSH2 0x462 DUP4 DUP3 DUP2 PUSH2 0x455 DUP2 DUP4 ADD SWAP7 DUP8 DUP2 MLOAD SWAP4 DUP5 SWAP3 ADD PUSH2 0x17E2 JUMP JUMPDEST DUP2 ADD SUB DUP1 DUP5 MSTORE ADD DUP3 PUSH2 0x1861 JUMP JUMPDEST MLOAD SWAP1 KECCAK256 PUSH1 0x40 MLOAD SWAP1 DUP2 MSTORE RETURN JUMPDEST CALLVALUE PUSH2 0x124 JUMPI PUSH1 0x40 CALLDATASIZE PUSH1 0x3 NOT ADD SLT PUSH2 0x124 JUMPI PUSH1 0x24 CALLDATALOAD PUSH1 0x1 PUSH1 0x1 PUSH1 0x40 SHL SUB DUP2 GT PUSH2 0x124 JUMPI CALLDATASIZE PUSH1 0x23 DUP3 ADD SLT ISZERO PUSH2 0x124 JUMPI PUSH2 0x4B0 PUSH1 0x20 SWAP2 CALLDATASIZE SWAP1 PUSH1 0x24 DUP2 PUSH1 0x4 ADD CALLDATALOAD SWAP2 ADD PUSH2 0x1882 JUMP JUMPDEST PUSH1 0x4 CALLDATALOAD PUSH1 0x0 MSTORE PUSH1 0x1 DUP3 MSTORE PUSH2 0x4CD PUSH1 0x2 PUSH1 0x40 PUSH1 0x0 KECCAK256 ADD SLOAD ISZERO ISZERO PUSH2 0x1B12 JUMP JUMPDEST MLOAD ISZERO ISZERO PUSH1 0x40 MLOAD SWAP1 DUP2 MSTORE RETURN JUMPDEST CALLVALUE PUSH2 0x124 JUMPI PUSH1 0x80 CALLDATASIZE PUSH1 0x3 NOT ADD SLT PUSH2 0x124 JUMPI PUSH1 0x7 PUSH1 0x24 CALLDATALOAD LT ISZERO PUSH2 0x124 JUMPI PUSH1 0x64 CALLDATALOAD PUSH1 0x1 PUSH1 0x1 PUSH1 0x40 SHL SUB DUP2 GT PUSH2 0x124 JUMPI PUSH2 0x513 SWAP1 CALLDATASIZE SWAP1 PUSH1 0x4 ADD PUSH2 0x18C8 JUMP JUMPDEST PUSH1 0x4 CALLDATALOAD ISZERO PUSH2 0xA6F JUMPI PUSH1 0x4 CALLDATALOAD PUSH1 0x0 MSTORE PUSH1 0x1 PUSH1 0x20 MSTORE PUSH1 0x2 PUSH1 0x40 PUSH1 0x0 KECCAK256 ADD SLOAD PUSH2 0xA2A JUMPI DUP1 MLOAD ISZERO PUSH2 0x9F0 JUMPI PUSH1 0x40 MLOAD SWAP1 PUSH2 0x547 DUP3 PUSH2 0x1845 JUMP JUMPDEST PUSH1 0x4 CALLDATALOAD DUP3 MSTORE CALLER PUSH1 0x20 DUP4 ADD MSTORE TIMESTAMP PUSH1 0x40 DUP4 ADD MSTORE PUSH2 0x567 PUSH1 0x24 CALLDATALOAD PUSH1 0x60 DUP5 ADD PUSH2 0x1ACC JUMP JUMPDEST PUSH1 0x44 CALLDATALOAD PUSH1 0x80 DUP4 ADD MSTORE DUP1 PUSH1 0xA0 DUP4 ADD MSTORE PUSH1 0x0 PUSH1 0xC0 DUP4 ADD MSTORE PUSH1 0x40 MLOAD DUP1 PUSH1 0x20 DUP2 ADD LT PUSH1 0x1 PUSH1 0x1 PUSH1 0x40 SHL SUB PUSH1 0x20 DUP4 ADD GT OR PUSH2 0x375 JUMPI PUSH1 0x20 DUP2 ADD PUSH1 0x40 MSTORE PUSH1 0x0 DUP2 MSTORE PUSH1 0xE0 DUP4 ADD MSTORE PUSH1 0x0 PUSH2 0x100 DUP4 ADD MSTORE PUSH1 0x0 PUSH2 0x120 DUP4 ADD MSTORE PUSH1 0x0 PUSH2 0x140 DUP4 ADD MSTORE PUSH1 0x4 CALLDATALOAD PUSH1 0x0 MSTORE PUSH1 0x1 PUSH1 0x20 MSTORE PUSH1 0x40 PUSH1 0x0 KECCAK256 SWAP1 DUP3 MLOAD DUP3 SSTORE PUSH1 0x1 DUP3 ADD PUSH1 0x1 DUP1 PUSH1 0xA0 SHL SUB PUSH1 0x20 DUP6 ADD MLOAD AND PUSH12 0xFFFFFFFFFFFFFFFFFFFFFFFF PUSH1 0xA0 SHL DUP3 SLOAD AND OR SWAP1 SSTORE PUSH1 0x40 DUP4 ADD MLOAD PUSH1 0x2 DUP4 ADD SSTORE PUSH1 0x3 DUP3 ADD PUSH1 0x60 DUP5 ADD MLOAD PUSH1 0x7 DUP2 LT ISZERO PUSH2 0x9DA JUMPI PUSH1 0xFF DUP1 NOT DUP4 SLOAD AND SWAP2 AND OR SWAP1 SSTORE PUSH1 0x80 DUP4 ADD MLOAD PUSH1 0x4 DUP4 ADD SSTORE PUSH1 0xA0 DUP4 ADD MLOAD SWAP3 DUP4 MLOAD PUSH1 0x1 PUSH1 0x1 PUSH1 0x40 SHL SUB DUP2 GT PUSH2 0x375 JUMPI PUSH2 0x650 PUSH1 0x5 DUP6 ADD SLOAD PUSH2 0x1AD8 JUMP JUMPDEST PUSH1 0x1F DUP2 GT PUSH2 0x993 JUMPI JUMPDEST POP PUSH1 0x20 PUSH1 0x1F DUP3 GT PUSH1 0x1 EQ PUSH2 0x924 JUMPI DUP2 SWAP3 SWAP4 SWAP5 SWAP6 PUSH1 0x0 SWAP3 PUSH2 0x919 JUMPI JUMPDEST POP POP DUP2 PUSH1 0x1 SHL SWAP2 PUSH1 0x0 NOT SWAP1 PUSH1 0x3 SHL SHR NOT AND OR PUSH1 0x5 DUP5 ADD SSTORE JUMPDEST PUSH1 0x6 DUP4 ADD PUSH1 0xC0 DUP3 ADD MLOAD ISZERO ISZERO PUSH1 0xFF DUP1 NOT DUP4 SLOAD AND SWAP2 AND OR SWAP1 SSTORE PUSH1 0xE0 DUP2 ADD MLOAD SWAP3 DUP4 MLOAD PUSH1 0x1 PUSH1 0x1 PUSH1 0x40 SHL SUB DUP2 GT PUSH2 0x375 JUMPI PUSH2 0x6C6 PUSH1 0x7 DUP4 ADD SLOAD PUSH2 0x1AD8 JUMP JUMPDEST PUSH1 0x1F DUP2 GT PUSH2 0x8D2 JUMPI JUMPDEST POP PUSH1 0x20 PUSH1 0x1F DUP3 GT PUSH1 0x1 EQ PUSH2 0x85F JUMPI DUP2 SWAP1 PUSH1 0x9 SWAP5 SWAP6 SWAP7 PUSH1 0x0 SWAP3 PUSH2 0x854 JUMPI JUMPDEST POP POP DUP2 PUSH1 0x1 SHL SWAP2 PUSH1 0x0 NOT SWAP1 PUSH1 0x3 SHL SHR NOT AND OR PUSH1 0x7 DUP3 ADD SSTORE JUMPDEST PUSH2 0x100 DUP4 ADD MLOAD PUSH1 0x8 DUP3 ADD DUP1 SLOAD PUSH2 0x120 DUP7 ADD MLOAD PUSH1 0x1 PUSH1 0x1 PUSH1 0xA8 SHL SUB NOT SWAP1 SWAP2 AND PUSH1 0x1 PUSH1 0x1 PUSH1 0xA0 SHL SUB SWAP4 DUP5 AND OR SWAP1 ISZERO ISZERO PUSH1 0xA0 SHL PUSH1 0xFF PUSH1 0xA0 SHL AND OR SWAP1 SSTORE PUSH2 0x140 SWAP1 SWAP4 ADD MLOAD SWAP2 ADD DUP1 SLOAD PUSH1 0x1 PUSH1 0x1 PUSH1 0xA0 SHL SUB NOT AND SWAP2 SWAP1 SWAP3 AND OR SWAP1 SSTORE PUSH1 0x44 CALLDATALOAD PUSH1 0x0 SWAP1 DUP2 MSTORE PUSH1 0x2 PUSH1 0x20 MSTORE PUSH1 0x40 SWAP1 KECCAK256 DUP1 SLOAD PUSH9 0x10000000000000000 SWAP2 DUP3 DUP3 LT ISZERO PUSH2 0x375 JUMPI PUSH1 0x1 DUP3 ADD DUP1 DUP3 SSTORE DUP3 LT ISZERO PUSH2 0x83E JUMPI PUSH1 0x0 MSTORE PUSH1 0x4 CALLDATALOAD SWAP1 PUSH1 0x20 PUSH1 0x0 KECCAK256 ADD SSTORE PUSH1 0x4 SLOAD SWAP1 DUP2 LT ISZERO PUSH2 0x375 JUMPI PUSH1 0x1 DUP2 ADD DUP1 PUSH1 0x4 SSTORE DUP2 LT ISZERO PUSH2 0x83E JUMPI PUSH1 0x4 PUSH1 0x0 MSTORE PUSH1 0x4 CALLDATALOAD SWAP1 PUSH32 0x8A35ACFBC15FF81A39AE7D344FD709F28E8600B4AA8C65C6B64BFE7FE36BD19B ADD SSTORE PUSH1 0x40 MLOAD PUSH2 0x7F0 DUP2 PUSH1 0x24 CALLDATALOAD PUSH2 0x18E6 JUMP JUMPDEST PUSH1 0x40 PUSH1 0x20 DUP3 ADD MSTORE PUSH1 0x44 CALLDATALOAD SWAP2 PUSH32 0x50CBC02F6A7E361FFE1CB5D81C10C0924A8B3AA5446EFFDA8DB9B6C365A4826 CALLER SWAP3 DUP1 PUSH2 0x830 PUSH1 0x4 CALLDATALOAD SWAP5 PUSH1 0x40 DUP4 ADD SWAP1 PUSH2 0x1805 JUMP JUMPDEST SUB SWAP1 LOG4 PUSH1 0x20 PUSH1 0x40 MLOAD PUSH1 0x1 DUP2 MSTORE RETURN JUMPDEST PUSH4 0x4E487B71 PUSH1 0xE0 SHL PUSH1 0x0 MSTORE PUSH1 0x32 PUSH1 0x4 MSTORE PUSH1 0x24 PUSH1 0x0 REVERT JUMPDEST ADD MLOAD SWAP1 POP DUP7 DUP1 PUSH2 0x6EC JUMP JUMPDEST PUSH1 0x7 DUP4 ADD PUSH1 0x0 MSTORE PUSH1 0x20 PUSH1 0x0 KECCAK256 SWAP6 PUSH1 0x0 JUMPDEST PUSH1 0x1F NOT DUP5 AND DUP2 LT PUSH2 0x8BA JUMPI POP SWAP6 DUP3 SWAP2 PUSH1 0x9 SWAP6 SWAP7 SWAP8 PUSH1 0x1 SWAP5 PUSH1 0x1F NOT DUP2 AND LT PUSH2 0x8A1 JUMPI JUMPDEST POP POP POP DUP2 SHL ADD PUSH1 0x7 DUP3 ADD SSTORE PUSH2 0x704 JUMP JUMPDEST ADD MLOAD PUSH1 0x0 NOT PUSH1 0xF8 DUP5 PUSH1 0x3 SHL AND SHR NOT AND SWAP1 SSTORE DUP7 DUP1 DUP1 PUSH2 0x891 JUMP JUMPDEST DUP3 DUP3 ADD MLOAD DUP9 SSTORE PUSH1 0x1 SWAP1 SWAP8 ADD SWAP7 PUSH1 0x20 SWAP3 DUP4 ADD SWAP3 ADD PUSH2 0x86F JUMP JUMPDEST PUSH1 0x7 DUP4 ADD PUSH1 0x0 MSTORE PUSH1 0x20 PUSH1 0x0 KECCAK256 PUSH1 0x1F DUP4 ADD PUSH1 0x5 SHR DUP2 ADD PUSH1 0x20 DUP5 LT PUSH2 0x912 JUMPI JUMPDEST PUSH1 0x1F DUP4 ADD PUSH1 0x5 SHR DUP3 ADD DUP2 LT PUSH2 0x906 JUMPI POP POP PUSH2 0x6CF JUMP JUMPDEST PUSH1 0x0 DUP2 SSTORE PUSH1 0x1 ADD PUSH2 0x8F0 JUMP JUMPDEST POP DUP1 PUSH2 0x8F0 JUMP JUMPDEST ADD MLOAD SWAP1 POP DUP6 DUP1 PUSH2 0x674 JUMP JUMPDEST PUSH1 0x5 DUP6 ADD PUSH1 0x0 MSTORE PUSH1 0x20 PUSH1 0x0 KECCAK256 SWAP1 PUSH1 0x0 JUMPDEST PUSH1 0x1F NOT DUP5 AND DUP2 LT PUSH2 0x97B JUMPI POP PUSH1 0x1 SWAP4 SWAP5 SWAP6 SWAP7 DUP4 PUSH1 0x1F NOT DUP2 AND LT PUSH2 0x962 JUMPI JUMPDEST POP POP POP DUP2 SHL ADD PUSH1 0x5 DUP5 ADD SSTORE PUSH2 0x68C JUMP JUMPDEST ADD MLOAD PUSH1 0x0 NOT PUSH1 0xF8 DUP5 PUSH1 0x3 SHL AND SHR NOT AND SWAP1 SSTORE DUP6 DUP1 DUP1 PUSH2 0x952 JUMP JUMPDEST SWAP1 SWAP2 PUSH1 0x20 PUSH1 0x1 DUP2 SWAP3 DUP6 DUP12 ADD MLOAD DUP2 SSTORE ADD SWAP4 ADD SWAP2 ADD PUSH2 0x934 JUMP JUMPDEST PUSH1 0x5 DUP6 ADD PUSH1 0x0 MSTORE PUSH1 0x20 PUSH1 0x0 KECCAK256 PUSH1 0x1F DUP4 ADD PUSH1 0x5 SHR DUP2 ADD PUSH1 0x20 DUP5 LT PUSH2 0x9D3 JUMPI JUMPDEST PUSH1 0x1F DUP4 ADD PUSH1 0x5 SHR DUP3 ADD DUP2 LT PUSH2 0x9C7 JUMPI POP POP PUSH2 0x659 JUMP JUMPDEST PUSH1 0x0 DUP2 SSTORE PUSH1 0x1 ADD PUSH2 0x9B1 JUMP JUMPDEST POP DUP1 PUSH2 0x9B1 JUMP JUMPDEST PUSH4 0x4E487B71 PUSH1 0xE0 SHL PUSH1 0x0 MSTORE PUSH1 0x21 PUSH1 0x4 MSTORE PUSH1 0x24 PUSH1 0x0 REVERT JUMPDEST PUSH1 0x40 MLOAD PUSH3 0x461BCD PUSH1 0xE5 SHL DUP2 MSTORE PUSH1 0x20 PUSH1 0x4 DUP3 ADD MSTORE PUSH1 0x12 PUSH1 0x24 DUP3 ADD MSTORE PUSH18 0x12541194C81A185CDA081C995C5D5A5C9959 PUSH1 0x72 SHL PUSH1 0x44 DUP3 ADD MSTORE PUSH1 0x64 SWAP1 REVERT JUMPDEST PUSH1 0x40 MLOAD PUSH3 0x461BCD PUSH1 0xE5 SHL DUP2 MSTORE PUSH1 0x20 PUSH1 0x4 DUP3 ADD MSTORE PUSH1 0x1B PUSH1 0x24 DUP3 ADD MSTORE PUSH32 0x446F63756D656E7420616C726561647920726567697374657265640000000000 PUSH1 0x44 DUP3 ADD MSTORE PUSH1 0x64 SWAP1 REVERT JUMPDEST PUSH1 0x40 MLOAD PUSH3 0x461BCD PUSH1 0xE5 SHL DUP2 MSTORE PUSH1 0x20 PUSH1 0x4 DUP3 ADD MSTORE PUSH1 0x15 PUSH1 0x24 DUP3 ADD MSTORE PUSH21 0x92DCECC2D8D2C840C8DEC6EADACADCE840D0C2E6D PUSH1 0x5B SHL PUSH1 0x44 DUP3 ADD MSTORE PUSH1 0x64 SWAP1 REVERT JUMPDEST CALLVALUE PUSH2 0x124 JUMPI PUSH1 0x20 CALLDATASIZE PUSH1 0x3 NOT ADD SLT PUSH2 0x124 JUMPI PUSH1 0x4 CALLDATALOAD PUSH1 0x0 MSTORE PUSH1 0x1 PUSH1 0x20 MSTORE PUSH1 0x60 PUSH1 0x40 PUSH1 0x0 KECCAK256 PUSH1 0x40 MLOAD SWAP1 PUSH2 0xADC DUP3 PUSH2 0x1845 JUMP JUMPDEST DUP1 SLOAD DUP3 MSTORE PUSH1 0x1 DUP1 PUSH1 0xA0 SHL SUB SWAP2 DUP3 PUSH1 0x1 DUP4 ADD SLOAD AND PUSH1 0x20 DUP3 ADD MSTORE PUSH1 0x2 DUP3 ADD SLOAD SWAP1 PUSH1 0x40 DUP2 ADD SWAP2 DUP3 MSTORE PUSH2 0xB14 PUSH1 0xFF PUSH1 0x3 DUP6 ADD SLOAD AND DUP7 DUP4 ADD PUSH2 0x1ACC JUMP JUMPDEST PUSH1 0x4 DUP4 ADD SLOAD PUSH1 0x80 DUP3 ADD MSTORE PUSH2 0xB2A PUSH1 0x5 DUP5 ADD PUSH2 0x1B53 JUMP JUMPDEST PUSH1 0xA0 DUP3 ADD MSTORE PUSH2 0x140 PUSH1 0xFF PUSH1 0x6 DUP6 ADD SLOAD AND SWAP5 PUSH1 0xC0 DUP4 ADD SWAP6 ISZERO ISZERO DUP7 MSTORE PUSH2 0xB50 PUSH1 0x7 DUP7 ADD PUSH2 0x1B53 JUMP JUMPDEST PUSH1 0xE0 DUP5 ADD MSTORE PUSH1 0x9 PUSH1 0xFF PUSH1 0x8 DUP8 ADD SLOAD DUP4 DUP2 AND PUSH2 0x100 DUP8 ADD MSTORE PUSH1 0xA0 SHR AND ISZERO ISZERO SWAP6 DUP7 PUSH2 0x120 DUP7 ADD MSTORE ADD SLOAD AND SWAP2 ADD MSTORE MLOAD ISZERO ISZERO SWAP2 MLOAD ISZERO ISZERO PUSH1 0x40 MLOAD SWAP3 DUP4 MSTORE PUSH1 0x20 DUP4 ADD MSTORE PUSH1 0x40 DUP3 ADD MSTORE RETURN JUMPDEST CALLVALUE PUSH2 0x124 JUMPI PUSH1 0x20 DUP1 PUSH1 0x3 NOT CALLDATASIZE ADD SLT PUSH2 0x124 JUMPI PUSH1 0x4 CALLDATALOAD PUSH1 0x0 MSTORE PUSH1 0x2 DUP2 MSTORE PUSH1 0x40 PUSH1 0x0 KECCAK256 PUSH1 0x40 MLOAD SWAP1 DUP2 DUP4 DUP3 SLOAD SWAP2 DUP3 DUP2 MSTORE ADD SWAP1 DUP2 SWAP3 PUSH1 0x0 MSTORE DUP5 PUSH1 0x0 KECCAK256 SWAP1 PUSH1 0x0 JUMPDEST DUP7 DUP3 DUP3 LT PUSH2 0xC26 JUMPI DUP7 DUP7 PUSH2 0xBE6 DUP3 DUP9 SUB DUP4 PUSH2 0x1861 JUMP JUMPDEST PUSH1 0x40 MLOAD SWAP3 DUP4 SWAP3 DUP2 DUP5 ADD SWAP1 DUP3 DUP6 MSTORE MLOAD DUP1 SWAP2 MSTORE PUSH1 0x40 DUP5 ADD SWAP3 SWAP2 PUSH1 0x0 JUMPDEST DUP3 DUP2 LT PUSH2 0xC0F JUMPI POP POP POP POP SUB SWAP1 RETURN JUMPDEST DUP4 MLOAD DUP6 MSTORE DUP7 SWAP6 POP SWAP4 DUP2 ADD SWAP4 SWAP3 DUP2 ADD SWAP3 PUSH1 0x1 ADD PUSH2 0xC00 JUMP JUMPDEST DUP4 SLOAD DUP6 MSTORE SWAP1 SWAP4 ADD SWAP3 PUSH1 0x1 SWAP3 DUP4 ADD SWAP3 ADD PUSH2 0xBD0 JUMP JUMPDEST CALLVALUE PUSH2 0x124 JUMPI PUSH1 0x0 CALLDATASIZE PUSH1 0x3 NOT ADD SLT PUSH2 0x124 JUMPI PUSH1 0x20 PUSH1 0x40 MLOAD PUSH1 0x0 DUP2 MSTORE RETURN JUMPDEST CALLVALUE PUSH2 0x124 JUMPI PUSH2 0xC64 CALLDATASIZE PUSH2 0x17BC JUMP JUMPDEST SWAP1 PUSH1 0x0 MSTORE PUSH1 0x0 PUSH1 0x20 MSTORE PUSH1 0x40 PUSH1 0x0 KECCAK256 SWAP1 PUSH1 0x1 DUP1 PUSH1 0xA0 SHL SUB AND PUSH1 0x0 MSTORE PUSH1 0x20 MSTORE PUSH1 0x20 PUSH1 0xFF PUSH1 0x40 PUSH1 0x0 KECCAK256 SLOAD AND PUSH1 0x40 MLOAD SWAP1 ISZERO ISZERO DUP2 MSTORE RETURN JUMPDEST CALLVALUE PUSH2 0x124 JUMPI PUSH1 0x20 DUP1 PUSH1 0x3 NOT CALLDATASIZE ADD SLT PUSH2 0x124 JUMPI PUSH1 0x4 CALLDATALOAD PUSH2 0xCB3 PUSH2 0x1BF9 JUMP JUMPDEST POP DUP1 PUSH1 0x0 MSTORE PUSH1 0x1 DUP3 MSTORE PUSH2 0xCCF PUSH1 0x2 PUSH1 0x40 PUSH1 0x0 KECCAK256 ADD SLOAD ISZERO ISZERO PUSH2 0x1B12 JUMP JUMPDEST PUSH1 0x0 MSTORE PUSH1 0x1 DUP2 MSTORE PUSH1 0x40 PUSH1 0x0 KECCAK256 SWAP1 PUSH1 0x40 MLOAD SWAP2 PUSH2 0xCE9 DUP4 PUSH2 0x1845 JUMP JUMPDEST DUP1 SLOAD DUP4 MSTORE PUSH1 0x9 PUSH1 0x1 DUP1 PUSH1 0xA0 SHL SUB SWAP2 DUP3 PUSH1 0x1 DUP3 ADD SLOAD AND DUP5 DUP7 ADD MSTORE PUSH1 0x2 DUP2 ADD SLOAD PUSH1 0x40 DUP7 ADD MSTORE PUSH2 0xD20 PUSH1 0xFF PUSH1 0x3 DUP4 ADD SLOAD AND PUSH1 0x60 DUP8 ADD PUSH2 0x1ACC JUMP JUMPDEST PUSH1 0x4 DUP2 ADD SLOAD PUSH1 0x80 DUP7 ADD MSTORE PUSH2 0xD36 PUSH1 0x5 DUP3 ADD PUSH2 0x1B53 JUMP JUMPDEST PUSH1 0xA0 DUP7 ADD MSTORE PUSH1 0xFF PUSH1 0x6 DUP3 ADD SLOAD AND ISZERO ISZERO PUSH1 0xC0 DUP7 ADD MSTORE PUSH2 0xD56 PUSH1 0x7 DUP3 ADD PUSH2 0x1B53 JUMP JUMPDEST PUSH1 0xE0 DUP7 ADD MSTORE PUSH1 0xFF PUSH1 0x8 DUP3 ADD SLOAD DUP5 DUP2 AND PUSH2 0x100 DUP9 ADD MSTORE PUSH1 0xA0 SHR AND ISZERO ISZERO PUSH2 0x120 DUP7 ADD MSTORE ADD SLOAD AND PUSH2 0x140 DUP4 ADD MSTORE PUSH2 0xD94 PUSH1 0x40 MLOAD SWAP3 DUP3 DUP5 SWAP4 DUP5 MSTORE DUP4 ADD SWAP1 PUSH2 0x18F3 JUMP JUMPDEST SUB SWAP1 RETURN JUMPDEST CALLVALUE PUSH2 0x124 JUMPI PUSH1 0x20 DUP1 PUSH1 0x3 NOT CALLDATASIZE ADD SLT PUSH2 0x124 JUMPI PUSH1 0x4 CALLDATALOAD PUSH1 0x0 MSTORE PUSH1 0x2 DUP1 DUP3 MSTORE PUSH1 0x40 PUSH1 0x0 KECCAK256 SWAP1 PUSH1 0x40 MLOAD DUP1 DUP4 DUP6 DUP3 SWAP6 SLOAD SWAP4 DUP5 DUP2 MSTORE ADD SWAP1 PUSH1 0x0 MSTORE DUP6 PUSH1 0x0 KECCAK256 SWAP3 PUSH1 0x0 JUMPDEST DUP8 DUP3 DUP3 LT PUSH2 0xF81 JUMPI POP POP POP PUSH2 0xDEC SWAP3 POP SUB DUP4 PUSH2 0x1861 JUMP JUMPDEST DUP2 MLOAD SWAP1 PUSH2 0xDF8 DUP3 PUSH2 0x1C4E JUMP JUMPDEST SWAP2 PUSH2 0xE06 PUSH1 0x40 MLOAD SWAP4 DUP5 PUSH2 0x1861 JUMP JUMPDEST DUP1 DUP4 MSTORE PUSH2 0xE15 PUSH1 0x1F NOT SWAP2 PUSH2 0x1C4E JUMP JUMPDEST ADD DUP5 PUSH1 0x0 JUMPDEST DUP3 DUP2 LT PUSH2 0xF6B JUMPI POP POP POP PUSH1 0x0 JUMPDEST DUP4 MLOAD DUP2 LT ISZERO PUSH2 0xF0D JUMPI DUP1 PUSH2 0xE3E PUSH2 0xF08 SWAP3 DUP7 PUSH2 0x1C8A JUMP JUMPDEST MLOAD PUSH1 0x0 MSTORE PUSH1 0x1 DUP1 DUP8 MSTORE PUSH1 0x40 PUSH1 0x0 KECCAK256 SWAP1 PUSH1 0x9 PUSH1 0x40 MLOAD SWAP3 PUSH2 0xE5C DUP5 PUSH2 0x1845 JUMP JUMPDEST DUP1 SLOAD DUP5 MSTORE PUSH1 0x1 DUP1 PUSH1 0xA0 SHL SUB DUP1 SWAP4 DUP3 ADD SLOAD AND DUP11 DUP6 ADD MSTORE DUP7 DUP2 ADD SLOAD PUSH1 0x40 DUP6 ADD MSTORE PUSH1 0xFF PUSH2 0xE8F DUP2 PUSH1 0x3 DUP5 ADD SLOAD AND PUSH1 0x60 DUP8 ADD PUSH2 0x1ACC JUMP JUMPDEST PUSH1 0x4 DUP3 ADD SLOAD PUSH1 0x80 DUP7 ADD MSTORE PUSH2 0xEA5 PUSH1 0x5 DUP4 ADD PUSH2 0x1B53 JUMP JUMPDEST PUSH1 0xA0 SWAP1 DUP2 DUP8 ADD MSTORE DUP2 PUSH1 0x6 DUP5 ADD SLOAD AND ISZERO ISZERO PUSH1 0xC0 DUP8 ADD MSTORE PUSH2 0xEC6 PUSH1 0x7 DUP5 ADD PUSH2 0x1B53 JUMP JUMPDEST PUSH1 0xE0 DUP8 ADD MSTORE PUSH1 0x8 DUP4 ADD SLOAD SWAP1 DUP6 DUP3 AND PUSH2 0x100 DUP9 ADD MSTORE SHR AND ISZERO ISZERO PUSH2 0x120 DUP6 ADD MSTORE ADD SLOAD AND PUSH2 0x140 DUP3 ADD MSTORE PUSH2 0xEF7 DUP3 DUP7 PUSH2 0x1C8A JUMP JUMPDEST MSTORE PUSH2 0xF02 DUP2 DUP6 PUSH2 0x1C8A JUMP JUMPDEST POP PUSH2 0x1C65 JUMP JUMPDEST PUSH2 0xE27 JUMP JUMPDEST PUSH1 0x40 DUP1 MLOAD DUP7 DUP2 MSTORE DUP5 MLOAD DUP2 DUP9 ADD DUP2 SWAP1 MSTORE PUSH1 0x0 SWAP3 PUSH1 0x5 DUP3 SWAP1 SHL DUP4 ADD DUP2 ADD SWAP2 DUP8 DUP11 ADD SWAP2 DUP11 SWAP1 DUP6 ADD JUMPDEST DUP3 DUP8 LT PUSH2 0xF3F JUMPI DUP6 DUP6 SUB DUP7 RETURN JUMPDEST SWAP1 SWAP2 SWAP3 SWAP4 DUP3 DUP1 PUSH2 0xF5B PUSH1 0x1 SWAP4 PUSH1 0x3F NOT DUP11 DUP3 SUB ADD DUP7 MSTORE DUP9 MLOAD PUSH2 0x18F3 JUMP JUMPDEST SWAP7 ADD SWAP3 ADD SWAP7 ADD SWAP6 SWAP3 SWAP2 SWAP1 SWAP3 PUSH2 0xF32 JUMP JUMPDEST PUSH2 0xF73 PUSH2 0x1BF9 JUMP JUMPDEST DUP3 DUP3 DUP8 ADD ADD MSTORE ADD DUP6 SWAP1 PUSH2 0xE1A JUMP JUMPDEST DUP6 SLOAD DUP5 MSTORE PUSH1 0x1 SWAP6 DUP7 ADD SWAP6 DUP9 SWAP6 POP SWAP4 ADD SWAP3 ADD PUSH2 0xDD5 JUMP JUMPDEST CALLVALUE PUSH2 0x124 JUMPI PUSH1 0x60 CALLDATASIZE PUSH1 0x3 NOT ADD SLT PUSH2 0x124 JUMPI PUSH1 0x24 CALLDATALOAD PUSH1 0x1 PUSH1 0x1 PUSH1 0x40 SHL SUB DUP2 GT PUSH2 0x124 JUMPI PUSH2 0xFC7 SWAP1 CALLDATASIZE SWAP1 PUSH1 0x4 ADD PUSH2 0x18C8 JUMP JUMPDEST PUSH1 0x44 CALLDATALOAD PUSH1 0x1 PUSH1 0x1 PUSH1 0x40 SHL SUB DUP2 GT PUSH2 0x124 JUMPI PUSH2 0xFE6 SWAP1 CALLDATASIZE SWAP1 PUSH1 0x4 ADD PUSH2 0x18C8 JUMP JUMPDEST SWAP1 DUP1 MLOAD ISZERO PUSH2 0x1326 JUMPI DUP2 MLOAD ISZERO PUSH2 0x12EC JUMPI PUSH1 0x40 MLOAD PUSH2 0x1001 DUP2 PUSH2 0x182A JUMP JUMPDEST DUP2 DUP2 MSTORE DUP3 PUSH1 0x20 DUP3 ADD MSTORE TIMESTAMP PUSH1 0x40 DUP3 ADD MSTORE PUSH1 0x4 CALLDATALOAD PUSH1 0x60 DUP3 ADD MSTORE PUSH1 0x4 CALLDATALOAD PUSH1 0x0 MSTORE PUSH1 0x3 PUSH1 0x20 MSTORE PUSH1 0x40 PUSH1 0x0 KECCAK256 SWAP1 DUP1 MLOAD DUP1 MLOAD SWAP1 PUSH1 0x1 PUSH1 0x1 PUSH1 0x40 SHL SUB DUP3 GT PUSH2 0x375 JUMPI DUP2 SWAP1 PUSH2 0x1048 DUP6 SLOAD PUSH2 0x1AD8 JUMP JUMPDEST PUSH1 0x1F DUP2 GT PUSH2 0x129C JUMPI JUMPDEST POP PUSH1 0x20 SWAP1 PUSH1 0x1F DUP4 GT PUSH1 0x1 EQ PUSH2 0x1236 JUMPI PUSH1 0x0 SWAP3 PUSH2 0x122B JUMPI JUMPDEST POP POP DUP2 PUSH1 0x1 SHL SWAP2 PUSH1 0x0 NOT SWAP1 PUSH1 0x3 SHL SHR NOT AND OR DUP3 SSTORE JUMPDEST PUSH1 0x20 DUP2 ADD MLOAD DUP1 MLOAD SWAP1 PUSH1 0x1 PUSH1 0x1 PUSH1 0x40 SHL SUB DUP3 GT PUSH2 0x375 JUMPI PUSH2 0x10A0 PUSH1 0x1 DUP6 ADD SLOAD PUSH2 0x1AD8 JUMP JUMPDEST PUSH1 0x1F DUP2 GT PUSH2 0x11E4 JUMPI JUMPDEST POP PUSH1 0x20 SWAP1 PUSH1 0x1F DUP4 GT PUSH1 0x1 EQ PUSH2 0x114C JUMPI PUSH32 0xCEDEB2141741852ED10FD6C0BB808D152FAFC22833BC1EB641260977D3CF5F56 SWAP6 SWAP4 DUP4 PUSH2 0x112B SWAP7 SWAP5 PUSH1 0x3 SWAP5 PUSH1 0x60 SWAP5 PUSH1 0x0 SWAP3 PUSH2 0x1141 JUMPI JUMPDEST POP POP PUSH1 0x0 NOT DUP3 DUP7 SHL SHR NOT AND PUSH1 0x1 SWAP2 DUP3 SHL OR SWAP1 DUP6 ADD SSTORE JUMPDEST PUSH1 0x40 DUP2 ADD MLOAD PUSH1 0x2 DUP6 ADD SSTORE ADD MLOAD SWAP2 ADD SSTORE PUSH2 0x113C PUSH1 0x40 MLOAD SWAP3 DUP4 SWAP3 PUSH1 0x40 DUP5 MSTORE PUSH1 0x40 DUP5 ADD SWAP1 PUSH2 0x1805 JUMP JUMPDEST DUP3 DUP2 SUB PUSH1 0x20 DUP5 ADD MSTORE PUSH1 0x4 CALLDATALOAD SWAP6 PUSH2 0x1805 JUMP JUMPDEST SUB SWAP1 LOG2 STOP JUMPDEST ADD MLOAD SWAP1 POP DUP11 DUP1 PUSH2 0x10EF JUMP JUMPDEST SWAP1 PUSH1 0x1F NOT DUP4 AND SWAP2 PUSH1 0x1 DUP7 ADD PUSH1 0x0 MSTORE PUSH1 0x20 PUSH1 0x0 KECCAK256 SWAP3 PUSH1 0x0 JUMPDEST DUP2 DUP2 LT PUSH2 0x11CC JUMPI POP DUP5 PUSH1 0x3 SWAP5 PUSH1 0x60 SWAP5 PUSH32 0xCEDEB2141741852ED10FD6C0BB808D152FAFC22833BC1EB641260977D3CF5F56 SWAP11 SWAP9 SWAP5 PUSH2 0x112B SWAP11 SWAP9 PUSH1 0x1 SWAP6 LT PUSH2 0x11B4 JUMPI JUMPDEST POP POP POP DUP2 SHL ADD PUSH1 0x1 DUP6 ADD SSTORE PUSH2 0x1105 JUMP JUMPDEST ADD MLOAD PUSH1 0x0 NOT DUP4 DUP9 SHL PUSH1 0xF8 AND SHR NOT AND SWAP1 SSTORE DUP11 DUP1 DUP1 PUSH2 0x11A4 JUMP JUMPDEST SWAP3 SWAP4 PUSH1 0x20 PUSH1 0x1 DUP2 SWAP3 DUP8 DUP7 ADD MLOAD DUP2 SSTORE ADD SWAP6 ADD SWAP4 ADD PUSH2 0x1163 JUMP JUMPDEST PUSH1 0x1 DUP6 ADD PUSH1 0x0 MSTORE PUSH1 0x20 PUSH1 0x0 KECCAK256 PUSH1 0x1F DUP5 ADD PUSH1 0x5 SHR DUP2 ADD PUSH1 0x20 DUP6 LT PUSH2 0x1224 JUMPI JUMPDEST PUSH1 0x1F DUP4 ADD PUSH1 0x5 SHR DUP3 ADD DUP2 LT PUSH2 0x1218 JUMPI POP POP PUSH2 0x10A9 JUMP JUMPDEST PUSH1 0x0 DUP2 SSTORE PUSH1 0x1 ADD PUSH2 0x1202 JUMP JUMPDEST POP DUP1 PUSH2 0x1202 JUMP JUMPDEST ADD MLOAD SWAP1 POP DUP7 DUP1 PUSH2 0x1068 JUMP JUMPDEST PUSH1 0x0 DUP7 DUP2 MSTORE PUSH1 0x20 DUP2 KECCAK256 SWAP4 POP PUSH1 0x1F NOT DUP6 AND SWAP1 JUMPDEST DUP2 DUP2 LT PUSH2 0x1284 JUMPI POP SWAP1 DUP5 PUSH1 0x1 SWAP6 SWAP5 SWAP4 SWAP3 LT PUSH2 0x126B JUMPI JUMPDEST POP POP POP DUP2 SHL ADD DUP3 SSTORE PUSH2 0x107D JUMP JUMPDEST ADD MLOAD PUSH1 0x0 NOT PUSH1 0xF8 DUP5 PUSH1 0x3 SHL AND SHR NOT AND SWAP1 SSTORE DUP7 DUP1 DUP1 PUSH2 0x125E JUMP JUMPDEST SWAP3 SWAP4 PUSH1 0x20 PUSH1 0x1 DUP2 SWAP3 DUP8 DUP7 ADD MLOAD DUP2 SSTORE ADD SWAP6 ADD SWAP4 ADD PUSH2 0x1248 JUMP JUMPDEST SWAP1 SWAP2 POP DUP5 PUSH1 0x0 MSTORE PUSH1 0x20 PUSH1 0x0 KECCAK256 PUSH1 0x1F DUP5 ADD PUSH1 0x5 SHR DUP2 ADD PUSH1 0x20 DUP6 LT PUSH2 0x12E5 JUMPI JUMPDEST SWAP1 DUP5 SWAP4 SWAP3 SWAP2 JUMPDEST PUSH1 0x1F DUP4 ADD PUSH1 0x5 SHR DUP3 ADD DUP2 LT PUSH2 0x12D6 JUMPI POP POP PUSH2 0x1051 JUMP JUMPDEST PUSH1 0x0 DUP2 SSTORE DUP6 SWAP5 POP PUSH1 0x1 ADD PUSH2 0x12C0 JUMP JUMPDEST POP DUP1 PUSH2 0x12BA JUMP JUMPDEST PUSH1 0x40 MLOAD PUSH3 0x461BCD PUSH1 0xE5 SHL DUP2 MSTORE PUSH1 0x20 PUSH1 0x4 DUP3 ADD MSTORE PUSH1 0x12 PUSH1 0x24 DUP3 ADD MSTORE PUSH18 0x131BDB99DA5D1D5919481C995C5D5A5C9959 PUSH1 0x72 SHL PUSH1 0x44 DUP3 ADD MSTORE PUSH1 0x64 SWAP1 REVERT JUMPDEST PUSH1 0x40 MLOAD PUSH3 0x461BCD PUSH1 0xE5 SHL DUP2 MSTORE PUSH1 0x20 PUSH1 0x4 DUP3 ADD MSTORE PUSH1 0x11 PUSH1 0x24 DUP3 ADD MSTORE PUSH17 0x13185D1A5D1D5919481C995C5D5A5C9959 PUSH1 0x7A SHL PUSH1 0x44 DUP3 ADD MSTORE PUSH1 0x64 SWAP1 REVERT JUMPDEST CALLVALUE PUSH2 0x124 JUMPI PUSH1 0x80 CALLDATASIZE PUSH1 0x3 NOT ADD SLT PUSH2 0x124 JUMPI PUSH1 0x1 PUSH1 0x1 PUSH1 0x40 SHL SUB PUSH1 0x4 CALLDATALOAD DUP2 DUP2 GT PUSH2 0x124 JUMPI PUSH2 0x1390 SWAP1 CALLDATASIZE SWAP1 PUSH1 0x4 ADD PUSH2 0x18C8 JUMP JUMPDEST PUSH1 0x24 CALLDATALOAD DUP3 DUP2 GT PUSH2 0x124 JUMPI PUSH2 0x13A8 SWAP1 CALLDATASIZE SWAP1 PUSH1 0x4 ADD PUSH2 0x18C8 JUMP JUMPDEST SWAP1 PUSH1 0x44 CALLDATALOAD DUP4 DUP2 GT PUSH2 0x124 JUMPI PUSH2 0x13C1 SWAP1 CALLDATASIZE SWAP1 PUSH1 0x4 ADD PUSH2 0x18C8 JUMP JUMPDEST PUSH1 0x64 CALLDATALOAD SWAP4 DUP5 GT PUSH2 0x124 JUMPI PUSH2 0x13DB PUSH1 0x20 SWAP5 CALLDATASIZE SWAP1 PUSH1 0x4 ADD PUSH2 0x18C8 JUMP JUMPDEST SWAP2 MLOAD ISZERO ISZERO SWAP3 DUP4 PUSH2 0x1415 JUMPI JUMPDEST POP DUP3 PUSH2 0x140A JUMPI JUMPDEST POP DUP2 PUSH2 0x13FF JUMPI JUMPDEST POP PUSH1 0x40 MLOAD SWAP1 ISZERO ISZERO DUP2 MSTORE RETURN JUMPDEST SWAP1 POP MLOAD ISZERO ISZERO DUP3 PUSH2 0x13F4 JUMP JUMPDEST MLOAD ISZERO ISZERO SWAP2 POP DUP4 PUSH2 0x13ED JUMP JUMPDEST MLOAD ISZERO ISZERO SWAP3 POP DUP5 PUSH2 0x13E6 JUMP JUMPDEST CALLVALUE PUSH2 0x124 JUMPI PUSH1 0x20 DUP1 PUSH1 0x3 NOT CALLDATASIZE ADD SLT PUSH2 0x124 JUMPI PUSH1 0x80 SWAP1 PUSH1 0x0 PUSH1 0x60 PUSH1 0x40 MLOAD PUSH2 0x1445 DUP2 PUSH2 0x182A JUMP JUMPDEST DUP2 DUP2 MSTORE DUP2 DUP5 DUP3 ADD MSTORE DUP3 PUSH1 0x40 DUP3 ADD MSTORE ADD MSTORE PUSH1 0x4 CALLDATALOAD PUSH1 0x0 MSTORE PUSH1 0x3 DUP2 MSTORE PUSH1 0x40 PUSH1 0x0 KECCAK256 PUSH1 0x40 MLOAD SWAP2 PUSH2 0x1471 DUP4 PUSH2 0x182A JUMP JUMPDEST PUSH2 0x147A DUP3 PUSH2 0x1B53 JUMP JUMPDEST DUP4 MSTORE PUSH2 0x14D8 PUSH2 0x148B PUSH1 0x1 DUP5 ADD PUSH2 0x1B53 JUMP JUMPDEST DUP3 DUP6 ADD SWAP1 DUP2 MSTORE PUSH2 0x14C5 PUSH1 0x3 PUSH1 0x2 DUP7 ADD SLOAD SWAP6 PUSH1 0x40 DUP9 ADD SWAP7 DUP8 MSTORE ADD SLOAD SWAP4 PUSH1 0x60 DUP8 ADD SWAP5 DUP6 MSTORE PUSH1 0x40 MLOAD SWAP8 DUP9 SWAP8 DUP3 DUP10 MSTORE MLOAD SWAP2 DUP9 ADD MSTORE PUSH1 0xA0 DUP8 ADD SWAP1 PUSH2 0x1805 JUMP JUMPDEST SWAP1 MLOAD DUP6 DUP3 SUB PUSH1 0x1F NOT ADD PUSH1 0x40 DUP8 ADD MSTORE PUSH2 0x1805 JUMP JUMPDEST SWAP2 MLOAD PUSH1 0x60 DUP5 ADD MSTORE MLOAD PUSH1 0x80 DUP4 ADD MSTORE SUB SWAP1 RETURN JUMPDEST CALLVALUE PUSH2 0x124 JUMPI PUSH1 0x20 DUP1 PUSH1 0x3 NOT CALLDATASIZE ADD SLT PUSH2 0x124 JUMPI PUSH1 0x4 CALLDATALOAD SWAP1 PUSH1 0x0 DUP1 MSTORE PUSH1 0x0 DUP2 MSTORE PUSH1 0x40 PUSH1 0x0 KECCAK256 CALLER PUSH1 0x0 MSTORE DUP2 MSTORE PUSH1 0xFF PUSH1 0x40 PUSH1 0x0 KECCAK256 SLOAD AND ISZERO PUSH2 0x15EE JUMPI DUP2 PUSH1 0x0 MSTORE PUSH1 0x1 DUP2 MSTORE PUSH2 0x153B PUSH1 0x2 PUSH1 0x40 PUSH1 0x0 KECCAK256 ADD SLOAD ISZERO ISZERO PUSH2 0x1B12 JUMP JUMPDEST DUP2 PUSH1 0x0 MSTORE PUSH1 0x1 DUP2 MSTORE PUSH1 0xFF PUSH1 0x8 PUSH1 0x40 PUSH1 0x0 KECCAK256 ADD SLOAD PUSH1 0xA0 SHR AND PUSH2 0x15B7 JUMPI PUSH1 0x0 DUP3 DUP2 MSTORE PUSH1 0x1 SWAP1 SWAP2 MSTORE PUSH1 0x40 DUP2 KECCAK256 PUSH1 0x8 DUP2 ADD DUP1 SLOAD PUSH1 0xFF PUSH1 0xA0 SHL NOT AND PUSH1 0x1 PUSH1 0xA0 SHL OR SWAP1 SSTORE PUSH1 0x9 ADD DUP1 SLOAD PUSH1 0x1 PUSH1 0x1 PUSH1 0xA0 SHL SUB NOT AND CALLER SWAP1 DUP2 OR SWAP1 SWAP2 SSTORE SWAP2 SWAP1 PUSH32 0x536E3E5B353CCC73D28014BD5D2FF03CED4B84FA024148B4949000AF72F0A254 SWAP1 DUP1 LOG3 STOP JUMPDEST PUSH1 0x64 SWAP1 PUSH1 0x40 MLOAD SWAP1 PUSH3 0x461BCD PUSH1 0xE5 SHL DUP3 MSTORE PUSH1 0x4 DUP3 ADD MSTORE PUSH1 0x10 PUSH1 0x24 DUP3 ADD MSTORE PUSH16 0x105B1C9958591E481D995C9A599A5959 PUSH1 0x82 SHL PUSH1 0x44 DUP3 ADD MSTORE REVERT JUMPDEST PUSH1 0x40 MLOAD PUSH4 0xE2517D3F PUSH1 0xE0 SHL DUP2 MSTORE CALLER PUSH1 0x4 DUP3 ADD MSTORE PUSH1 0x0 PUSH1 0x24 DUP3 ADD MSTORE PUSH1 0x44 SWAP1 REVERT JUMPDEST CALLVALUE PUSH2 0x124 JUMPI PUSH2 0x161B CALLDATASIZE PUSH2 0x17BC JUMP JUMPDEST CALLER PUSH1 0x1 PUSH1 0x1 PUSH1 0xA0 SHL SUB DUP3 AND SUB PUSH2 0x1634 JUMPI PUSH2 0x15A SWAP2 PUSH2 0x1A57 JUMP JUMPDEST PUSH1 0x40 MLOAD PUSH4 0x334BD919 PUSH1 0xE1 SHL DUP2 MSTORE PUSH1 0x4 SWAP1 REVERT JUMPDEST CALLVALUE PUSH2 0x124 JUMPI PUSH2 0x15A PUSH2 0x1657 CALLDATASIZE PUSH2 0x17BC JUMP JUMPDEST SWAP1 DUP1 PUSH1 0x0 MSTORE PUSH1 0x0 PUSH1 0x20 MSTORE PUSH2 0x1672 PUSH1 0x1 PUSH1 0x40 PUSH1 0x0 KECCAK256 ADD SLOAD PUSH2 0x1995 JUMP JUMPDEST PUSH2 0x19D9 JUMP JUMPDEST CALLVALUE PUSH2 0x124 JUMPI PUSH1 0x20 CALLDATASIZE PUSH1 0x3 NOT ADD SLT PUSH2 0x124 JUMPI PUSH1 0x4 CALLDATALOAD PUSH1 0x0 MSTORE PUSH1 0x0 PUSH1 0x20 MSTORE PUSH1 0x20 PUSH1 0x1 PUSH1 0x40 PUSH1 0x0 KECCAK256 ADD SLOAD PUSH1 0x40 MLOAD SWAP1 DUP2 MSTORE RETURN JUMPDEST CALLVALUE PUSH2 0x124 JUMPI PUSH1 0x20 DUP1 PUSH1 0x3 NOT CALLDATASIZE ADD SLT PUSH2 0x124 JUMPI PUSH1 0x4 CALLDATALOAD PUSH1 0x0 MSTORE PUSH1 0x2 DUP2 MSTORE PUSH1 0x40 PUSH1 0x0 KECCAK256 PUSH1 0x40 MLOAD DUP1 DUP3 DUP5 DUP3 SWAP5 SLOAD SWAP4 DUP5 DUP2 MSTORE ADD SWAP1 PUSH1 0x0 MSTORE DUP5 PUSH1 0x0 KECCAK256 SWAP3 PUSH1 0x0 JUMPDEST DUP7 DUP3 DUP3 LT PUSH2 0x1753 JUMPI DUP5 PUSH2 0x16F6 DUP2 DUP7 SUB DUP3 PUSH2 0x1861 JUMP JUMPDEST PUSH1 0x0 DUP1 JUMPDEST DUP3 MLOAD DUP2 LT ISZERO PUSH2 0x1749 JUMPI PUSH2 0x170D DUP2 DUP5 PUSH2 0x1C8A JUMP JUMPDEST MLOAD PUSH1 0x0 MSTORE PUSH1 0x1 DUP5 MSTORE PUSH1 0xFF PUSH1 0x6 PUSH1 0x40 PUSH1 0x0 KECCAK256 ADD SLOAD AND PUSH2 0x1734 JUMPI JUMPDEST PUSH2 0x172F SWAP1 PUSH2 0x1C65 JUMP JUMPDEST PUSH2 0x16FA JUMP JUMPDEST SWAP1 PUSH2 0x1741 PUSH2 0x172F SWAP2 PUSH2 0x1C65 JUMP JUMPDEST SWAP2 SWAP1 POP PUSH2 0x1726 JUMP JUMPDEST DUP4 DUP3 PUSH1 0x40 MLOAD SWAP1 DUP2 MSTORE RETURN JUMPDEST DUP6 SLOAD DUP5 MSTORE PUSH1 0x1 SWAP6 DUP7 ADD SWAP6 DUP8 SWAP6 POP SWAP4 ADD SWAP3 ADD PUSH2 0x16E1 JUMP JUMPDEST CALLVALUE PUSH2 0x124 JUMPI PUSH1 0x20 CALLDATASIZE PUSH1 0x3 NOT ADD SLT PUSH2 0x124 JUMPI PUSH1 0x4 CALLDATALOAD SWAP1 PUSH4 0xFFFFFFFF PUSH1 0xE0 SHL DUP3 AND DUP1 SWAP3 SUB PUSH2 0x124 JUMPI PUSH1 0x20 SWAP2 PUSH4 0x7965DB0B PUSH1 0xE0 SHL DUP2 EQ SWAP1 DUP2 ISZERO PUSH2 0x17AB JUMPI JUMPDEST POP ISZERO ISZERO DUP2 MSTORE RETURN JUMPDEST PUSH4 0x1FFC9A7 PUSH1 0xE0 SHL EQ SWAP1 POP DUP4 PUSH2 0x17A4 JUMP JUMPDEST PUSH1 0x40 SWAP1 PUSH1 0x3 NOT ADD SLT PUSH2 0x124 JUMPI PUSH1 0x4 CALLDATALOAD SWAP1 PUSH1 0x24 CALLDATALOAD PUSH1 0x1 PUSH1 0x1 PUSH1 0xA0 SHL SUB DUP2 AND DUP2 SUB PUSH2 0x124 JUMPI SWAP1 JUMP JUMPDEST PUSH1 0x0 JUMPDEST DUP4 DUP2 LT PUSH2 0x17F5 JUMPI POP POP PUSH1 0x0 SWAP2 ADD MSTORE JUMP JUMPDEST DUP2 DUP2 ADD MLOAD DUP4 DUP3 ADD MSTORE PUSH1 0x20 ADD PUSH2 0x17E5 JUMP JUMPDEST SWAP1 PUSH1 0x20 SWAP2 PUSH2 0x181E DUP2 MLOAD DUP1 SWAP3 DUP2 DUP6 MSTORE DUP6 DUP1 DUP7 ADD SWAP2 ADD PUSH2 0x17E2 JUMP JUMPDEST PUSH1 0x1F ADD PUSH1 0x1F NOT AND ADD ADD SWAP1 JUMP JUMPDEST PUSH1 0x80 DUP2 ADD SWAP1 DUP2 LT PUSH1 0x1 PUSH1 0x1 PUSH1 0x40 SHL SUB DUP3 GT OR PUSH2 0x375 JUMPI PUSH1 0x40 MSTORE JUMP JUMPDEST PUSH2 0x160 DUP2 ADD SWAP1 DUP2 LT PUSH1 0x1 PUSH1 0x1 PUSH1 0x40 SHL SUB DUP3 GT OR PUSH2 0x375 JUMPI PUSH1 0x40 MSTORE JUMP JUMPDEST SWAP1 PUSH1 0x1F DUP1 NOT SWAP2 ADD AND DUP2 ADD SWAP1 DUP2 LT PUSH1 0x1 PUSH1 0x1 PUSH1 0x40 SHL SUB DUP3 GT OR PUSH2 0x375 JUMPI PUSH1 0x40 MSTORE JUMP JUMPDEST SWAP3 SWAP2 SWAP3 PUSH1 0x1 PUSH1 0x1 PUSH1 0x40 SHL SUB DUP3 GT PUSH2 0x375 JUMPI PUSH1 0x40 MLOAD SWAP2 PUSH2 0x18AB PUSH1 0x1F DUP3 ADD PUSH1 0x1F NOT AND PUSH1 0x20 ADD DUP5 PUSH2 0x1861 JUMP JUMPDEST DUP3 SWAP5 DUP2 DUP5 MSTORE DUP2 DUP4 ADD GT PUSH2 0x124 JUMPI DUP3 DUP2 PUSH1 0x20 SWAP4 DUP5 PUSH1 0x0 SWAP7 ADD CALLDATACOPY ADD ADD MSTORE JUMP JUMPDEST SWAP1 DUP1 PUSH1 0x1F DUP4 ADD SLT ISZERO PUSH2 0x124 JUMPI DUP2 PUSH1 0x20 PUSH2 0x18E3 SWAP4 CALLDATALOAD SWAP2 ADD PUSH2 0x1882 JUMP JUMPDEST SWAP1 JUMP JUMPDEST SWAP1 PUSH1 0x7 DUP3 LT ISZERO PUSH2 0x9DA JUMPI MSTORE JUMP JUMPDEST SWAP1 DUP2 MLOAD DUP2 MSTORE PUSH1 0x1 DUP1 PUSH1 0xA0 SHL SUB SWAP2 DUP3 PUSH1 0x20 DUP3 ADD MLOAD AND PUSH1 0x20 DUP4 ADD MSTORE PUSH1 0x40 DUP2 ADD MLOAD PUSH1 0x40 DUP4 ADD MSTORE PUSH2 0x1928 PUSH1 0x60 DUP3 ADD MLOAD PUSH1 0x60 DUP5 ADD SWAP1 PUSH2 0x18E6 JUMP JUMPDEST PUSH1 0x80 DUP2 ADD MLOAD PUSH1 0x80 DUP4 ADD MSTORE PUSH2 0x196C PUSH2 0x194E PUSH1 0xA0 DUP4 ADD MLOAD PUSH2 0x160 DUP1 PUSH1 0xA0 DUP8 ADD MSTORE DUP6 ADD SWAP1 PUSH2 0x1805 JUMP JUMPDEST PUSH1 0xC0 DUP4 ADD MLOAD ISZERO ISZERO PUSH1 0xC0 DUP6 ADD MSTORE PUSH1 0xE0 DUP4 ADD MLOAD DUP5 DUP3 SUB PUSH1 0xE0 DUP7 ADD MSTORE PUSH2 0x1805 JUMP JUMPDEST SWAP3 PUSH2 0x100 DUP2 DUP2 DUP5 ADD MLOAD AND SWAP1 DUP5 ADD MSTORE PUSH2 0x120 DUP1 DUP4 ADD MLOAD ISZERO ISZERO SWAP1 DUP5 ADD MSTORE PUSH2 0x140 DUP1 SWAP3 ADD MLOAD AND SWAP2 ADD MSTORE SWAP1 JUMP JUMPDEST DUP1 PUSH1 0x0 MSTORE PUSH1 0x0 PUSH1 0x20 MSTORE PUSH1 0x40 PUSH1 0x0 KECCAK256 CALLER PUSH1 0x0 MSTORE PUSH1 0x20 MSTORE PUSH1 0xFF PUSH1 0x40 PUSH1 0x0 KECCAK256 SLOAD AND ISZERO PUSH2 0x19BB JUMPI POP JUMP JUMPDEST PUSH1 0x44 SWAP1 PUSH1 0x40 MLOAD SWAP1 PUSH4 0xE2517D3F PUSH1 0xE0 SHL DUP3 MSTORE CALLER PUSH1 0x4 DUP4 ADD MSTORE PUSH1 0x24 DUP3 ADD MSTORE REVERT JUMPDEST SWAP1 PUSH1 0x0 SWAP2 DUP1 DUP4 MSTORE DUP3 PUSH1 0x20 MSTORE PUSH1 0x40 DUP4 KECCAK256 SWAP2 PUSH1 0x1 DUP1 PUSH1 0xA0 SHL SUB AND SWAP2 DUP3 DUP5 MSTORE PUSH1 0x20 MSTORE PUSH1 0xFF PUSH1 0x40 DUP5 KECCAK256 SLOAD AND ISZERO PUSH1 0x0 EQ PUSH2 0x1A52 JUMPI DUP1 DUP4 MSTORE DUP3 PUSH1 0x20 MSTORE PUSH1 0x40 DUP4 KECCAK256 DUP3 DUP5 MSTORE PUSH1 0x20 MSTORE PUSH1 0x40 DUP4 KECCAK256 PUSH1 0x1 PUSH1 0xFF NOT DUP3 SLOAD AND OR SWAP1 SSTORE PUSH32 0x2F8788117E7EFF1D82E926EC794901D17C78024A50270940304540A733656F0D CALLER SWAP4 DUP1 LOG4 PUSH1 0x1 SWAP1 JUMP JUMPDEST POP POP SWAP1 JUMP JUMPDEST SWAP1 PUSH1 0x0 SWAP2 DUP1 DUP4 MSTORE DUP3 PUSH1 0x20 MSTORE PUSH1 0x40 DUP4 KECCAK256 SWAP2 PUSH1 0x1 DUP1 PUSH1 0xA0 SHL SUB AND SWAP2 DUP3 DUP5 MSTORE PUSH1 0x20 MSTORE PUSH1 0xFF PUSH1 0x40 DUP5 KECCAK256 SLOAD AND PUSH1 0x0 EQ PUSH2 0x1A52 JUMPI DUP1 DUP4 MSTORE DUP3 PUSH1 0x20 MSTORE PUSH1 0x40 DUP4 KECCAK256 DUP3 DUP5 MSTORE PUSH1 0x20 MSTORE PUSH1 0x40 DUP4 KECCAK256 PUSH1 0xFF NOT DUP2 SLOAD AND SWAP1 SSTORE PUSH32 0xF6391F5C32D9C69D2A47EA670B442974B53935D1EDC7FD64EB21E047A839171B CALLER SWAP4 DUP1 LOG4 PUSH1 0x1 SWAP1 JUMP JUMPDEST PUSH1 0x7 DUP3 LT ISZERO PUSH2 0x9DA JUMPI MSTORE JUMP JUMPDEST SWAP1 PUSH1 0x1 DUP3 DUP2 SHR SWAP3 AND DUP1 ISZERO PUSH2 0x1B08 JUMPI JUMPDEST PUSH1 0x20 DUP4 LT EQ PUSH2 0x1AF2 JUMPI JUMP JUMPDEST PUSH4 0x4E487B71 PUSH1 0xE0 SHL PUSH1 0x0 MSTORE PUSH1 0x22 PUSH1 0x4 MSTORE PUSH1 0x24 PUSH1 0x0 REVERT JUMPDEST SWAP2 PUSH1 0x7F AND SWAP2 PUSH2 0x1AE7 JUMP JUMPDEST ISZERO PUSH2 0x1B19 JUMPI JUMP JUMPDEST PUSH1 0x40 MLOAD PUSH3 0x461BCD PUSH1 0xE5 SHL DUP2 MSTORE PUSH1 0x20 PUSH1 0x4 DUP3 ADD MSTORE PUSH1 0x12 PUSH1 0x24 DUP3 ADD MSTORE PUSH18 0x111BD8DD5B595B9D081B9BDD08199BDD5B99 PUSH1 0x72 SHL PUSH1 0x44 DUP3 ADD MSTORE PUSH1 0x64 SWAP1 REVERT JUMPDEST SWAP1 PUSH1 0x40 MLOAD SWAP2 DUP3 PUSH1 0x0 DUP3 SLOAD SWAP3 PUSH2 0x1B67 DUP5 PUSH2 0x1AD8 JUMP JUMPDEST SWAP1 DUP2 DUP5 MSTORE PUSH1 0x1 SWAP5 DUP6 DUP2 AND SWAP1 DUP2 PUSH1 0x0 EQ PUSH2 0x1BD6 JUMPI POP PUSH1 0x1 EQ PUSH2 0x1B93 JUMPI JUMPDEST POP POP PUSH2 0x1B91 SWAP3 POP SUB DUP4 PUSH2 0x1861 JUMP JUMPDEST JUMP JUMPDEST SWAP1 SWAP4 SWAP2 POP PUSH1 0x0 MSTORE PUSH1 0x20 SWAP1 DUP2 PUSH1 0x0 KECCAK256 SWAP4 PUSH1 0x0 SWAP2 JUMPDEST DUP2 DUP4 LT PUSH2 0x1BBE JUMPI POP POP PUSH2 0x1B91 SWAP4 POP DUP3 ADD ADD CODESIZE DUP1 PUSH2 0x1B83 JUMP JUMPDEST DUP6 SLOAD DUP9 DUP5 ADD DUP6 ADD MSTORE SWAP5 DUP6 ADD SWAP5 DUP8 SWAP5 POP SWAP2 DUP4 ADD SWAP2 PUSH2 0x1BA6 JUMP JUMPDEST SWAP2 POP POP PUSH2 0x1B91 SWAP5 POP PUSH1 0x20 SWAP3 POP PUSH1 0xFF NOT AND DUP3 DUP5 ADD MSTORE ISZERO ISZERO PUSH1 0x5 SHL DUP3 ADD ADD CODESIZE DUP1 PUSH2 0x1B83 JUMP JUMPDEST PUSH1 0x40 MLOAD SWAP1 PUSH2 0x1C06 DUP3 PUSH2 0x1845 JUMP JUMPDEST DUP2 PUSH2 0x140 PUSH1 0x0 SWAP2 DUP3 DUP2 MSTORE DUP3 PUSH1 0x20 DUP3 ADD MSTORE DUP3 PUSH1 0x40 DUP3 ADD MSTORE DUP3 PUSH1 0x60 DUP3 ADD MSTORE DUP3 PUSH1 0x80 DUP3 ADD MSTORE PUSH1 0x60 PUSH1 0xA0 DUP3 ADD MSTORE DUP3 PUSH1 0xC0 DUP3 ADD MSTORE PUSH1 0x60 PUSH1 0xE0 DUP3 ADD MSTORE DUP3 PUSH2 0x100 DUP3 ADD MSTORE DUP3 PUSH2 0x120 DUP3 ADD MSTORE ADD MSTORE JUMP JUMPDEST PUSH1 0x1 PUSH1 0x1 PUSH1 0x40 SHL SUB DUP2 GT PUSH2 0x375 JUMPI PUSH1 0x5 SHL PUSH1 0x20 ADD SWAP1 JUMP JUMPDEST PUSH1 0x0 NOT DUP2 EQ PUSH2 0x1C74 JUMPI PUSH1 0x1 ADD SWAP1 JUMP JUMPDEST PUSH4 0x4E487B71 PUSH1 0xE0 SHL PUSH1 0x0 MSTORE PUSH1 0x11 PUSH1 0x4 MSTORE PUSH1 0x24 PUSH1 0x0 REVERT JUMPDEST DUP1 MLOAD DUP3 LT ISZERO PUSH2 0x83E JUMPI PUSH1 0x20 SWAP2 PUSH1 0x5 SHL ADD ADD SWAP1 JUMP INVALID LOG2 PUSH5 0x6970667358 0x22 SLT KECCAK256 ADDMOD SWAP10 0xDC SWAP12 SWAP13 DUP7 0xB6 JUMPDEST 0xB9 DUP9 DUP9 0xD0 0x2E DIV 0xD8 0xDE 0x24 0x5D JUMPDEST PUSH7 0xA09E0E22356552 0xE0 DUP9 PUSH16 0x4EB64736F6C63430008140033000000 "},"methodIdentifiers":{"DEFAULT_ADMIN_ROLE()":"a217fddf","auditDocumentHistory(uint256)":"6dad334a","checkDocumentIntegrity(bytes32)":"adbee67d","computeDocumentHash(string)":"b5d2fe26","flagDocument(bytes32,string)":"b9e88eca","getDocumentMetadata(bytes32)":"863d8091","getFlaggedDocumentsCount(uint256)":"1e26d79e","getProjectDocuments(uint256)":"a3b5dc9e","getProjectGPSCoordinates(uint256)":"3bdd87f4","getRoleAdmin(bytes32)":"248a9ca3","getTotalDocuments()":"e90e7ad4","grantRole(bytes32,address)":"2f2ff15d","hasRole(bytes32,address)":"91d14854","markDocumentVerified(bytes32)":"3b72ef9e","registerDocument(bytes32,uint8,uint256,string)":"aff0062b","registerGPSCoordinates(uint256,string,string)":"5ca0ad56","renounceRole(bytes32,address)":"36568abe","revokeRole(bytes32,address)":"d547741f","supportsInterface(bytes4)":"01ffc9a7","validateGPSCoordinates(string,string,string,string)":"4a99de98","verifyDocument(bytes32,bytes)":"b2d6f261"}}}}}