{"contracts/FundManagement.sol":{"FundManagement":{"abi":[{"inputs":[{"internalType":"address","name":"_projectRegistryAddress","type":"address"}],"stateMutability":"nonpayable","type":"constructor"},{"inputs":[],"name":"AccessControlBadConfirmation","type":"error"},{"inputs":[{"internalType":"address","name":"account","type":"address"},{"internalType":"bytes32","name":"neededRole","type":"bytes32"}],"name":"AccessControlUnauthorizedAccount","type":"error"},{"inputs":[],"name":"EnforcedPause","type":"error"},{"inputs":[],"name":"ExpectedPause","type":"error"},{"inputs":[],"name":"ReentrancyGuardReentrantCall","type":"error"},{"anonymous":false,"inputs":[{"indexed":true,"internalType":"uint256","name":"projectId","type":"uint256"},{"indexed":true,"internalType":"address","name":"admin","type":"address"},{"indexed":false,"internalType":"uint256","name":"amount","type":"uint256"},{"indexed":false,"internalType":"string","name":"reason","type":"string"}],"name":"EmergencyWithdrawal","type":"event"},{"anonymous":false,"inputs":[{"indexed":true,"internalType":"uint256","name":"projectId","type":"uint256"},{"indexed":false,"internalType":"uint256","name":"amount","type":"uint256"},{"indexed":false,"internalType":"uint256","name":"timestamp","type":"uint256"}],"name":"FundsAllocated","type":"event"},{"anonymous":false,"inputs":[{"indexed":true,"internalType":"uint256","name":"projectId","type":"uint256"},{"indexed":true,"internalType":"uint256","name":"milestoneId","type":"uint256"},{"indexed":true,"internalType":"address","name":"contractor","type":"address"},{"indexed":false,"internalType":"uint256","name":"amount","type":"uint256"}],"name":"FundsReleased","type":"event"},{"anonymous":false,"inputs":[{"indexed":true,"internalType":"uint256","name":"projectId","type":"uint256"},{"indexed":true,"internalType":"uint256","name":"milestoneId","type":"uint256"},{"indexed":false,"internalType":"address","name":"approvedBy","type":"address"}],"name":"MilestoneApproved","type":"event"},{"anonymous":false,"inputs":[{"indexed":true,"internalType":"uint256","name":"projectId","type":"uint256"},{"indexed":true,"internalType":"uint256","name":"milestoneId","type":"uint256"},{"indexed":false,"internalType":"address","name":"completedBy","type":"address"},{"indexed":false,"internalType":"string","name":"verificationHash","type":"string"}],"name":"MilestoneCompleted","type":"event"},{"anonymous":false,"inputs":[{"indexed":true,"internalType":"uint256","name":"projectId","type":"uint256"},{"indexed":true,"internalType":"uint256","name":"milestoneId","type":"uint256"},{"indexed":false,"internalType":"string","name":"description","type":"string"},{"indexed":false,"internalType":"uint256","name":"percentage","type":"uint256"}],"name":"MilestoneCreated","type":"event"},{"anonymous":false,"inputs":[{"indexed":false,"internalType":"address","name":"account","type":"address"}],"name":"Paused","type":"event"},{"anonymous":false,"inputs":[{"indexed":true,"internalType":"bytes32","name":"role","type":"bytes32"},{"indexed":true,"internalType":"bytes32","name":"previousAdminRole","type":"bytes32"},{"indexed":true,"internalType":"bytes32","name":"newAdminRole","type":"bytes32"}],"name":"RoleAdminChanged","type":"event"},{"anonymous":false,"inputs":[{"indexed":true,"internalType":"bytes32","name":"role","type":"bytes32"},{"indexed":true,"internalType":"address","name":"account","type":"address"},{"indexed":true,"internalType":"address","name":"sender","type":"address"}],"name":"RoleGranted","type":"event"},{"anonymous":false,"inputs":[{"indexed":true,"internalType":"bytes32","name":"role","type":"bytes32"},{"indexed":true,"internalType":"address","name":"account","type":"address"},{"indexed":true,"internalType":"address","name":"sender","type":"address"}],"name":"RoleRevoked","type":"event"},{"anonymous":false,"inputs":[{"indexed":false,"internalType":"address","name":"account","type":"address"}],"name":"Unpaused","type":"event"},{"inputs":[],"name":"AUTHORITY_ROLE","outputs":[{"internalType":"bytes32","name":"","type":"bytes32"}],"stateMutability":"view","type":"function"},{"inputs":[],"name":"DEFAULT_ADMIN_ROLE","outputs":[{"internalType":"bytes32","name":"","type":"bytes32"}],"stateMutability":"view","type":"function"},{"inputs":[],"name":"MAX_DAILY_WITHDRAWAL","outputs":[{"internalType":"uint256","name":"","type":"uint256"}],"stateMutability":"view","type":"function"},{"inputs":[{"internalType":"uint256","name":"_projectId","type":"uint256"}],"name":"allocateFunds","outputs":[],"stateMutability":"payable","type":"function"},{"inputs":[{"internalType":"uint256","name":"_projectId","type":"uint256"},{"internalType":"uint256","name":"_milestoneId","type":"uint256"}],"name":"approveMilestone","outputs":[],"stateMutability":"nonpayable","type":"function"},{"inputs":[{"internalType":"uint256","name":"_projectId","type":"uint256"},{"internalType":"uint256","name":"_milestoneId","type":"uint256"},{"internalType":"string","name":"_verificationHash","type":"string"}],"name":"completeMilestone","outputs":[],"stateMutability":"nonpayable","type":"function"},{"inputs":[{"internalType":"uint256","name":"_projectId","type":"uint256"},{"internalType":"string","name":"_description","type":"string"},{"internalType":"uint256","name":"_percentageAllocation","type":"uint256"}],"name":"createMilestone","outputs":[{"internalType":"uint256","name":"","type":"uint256"}],"stateMutability":"nonpayable","type":"function"},{"inputs":[{"internalType":"uint256","name":"","type":"uint256"}],"name":"dailyWithdrawals","outputs":[{"internalType":"uint256","name":"","type":"uint256"}],"stateMutability":"view","type":"function"},{"inputs":[{"internalType":"uint256","name":"_projectId","type":"uint256"},{"internalType":"string","name":"_reason","type":"string"}],"name":"emergencyWithdraw","outputs":[],"stateMutability":"nonpayable","type":"function"},{"inputs":[{"internalType":"uint256","name":"_projectId","type":"uint256"},{"internalType":"uint256","name":"_milestoneId","type":"uint256"}],"name":"getMilestone","outputs":[{"components":[{"internalType":"uint256","name":"milestoneId","type":"uint256"},{"internalType":"uint256","name":"projectId","type":"uint256"},{"internalType":"string","name":"description","type":"string"},{"internalType":"uint256","name":"percentageAllocation","type":"uint256"},{"internalType":"bool","name":"isCompleted","type":"bool"},{"internalType":"bool","name":"isApproved","type":"bool"},{"internalType":"uint256","name":"completionDate","type":"uint256"},{"internalType":"uint256","name":"approvalDate","type":"uint256"},{"internalType":"string","name":"verificationHash","type":"string"},{"internalType":"address","name":"completedBy","type":"address"},{"internalType":"address","name":"approvedBy","type":"address"}],"internalType":"struct FundManagement.Milestone","name":"","type":"tuple"}],"stateMutability":"view","type":"function"},{"inputs":[{"internalType":"uint256","name":"_projectId","type":"uint256"}],"name":"getMilestoneProgress","outputs":[{"internalType":"uint256","name":"completedPercentage","type":"uint256"},{"internalType":"uint256","name":"approvedPercentage","type":"uint256"}],"stateMutability":"view","type":"function"},{"inputs":[{"internalType":"uint256","name":"_projectId","type":"uint256"}],"name":"getProjectFunding","outputs":[{"internalType":"uint256","name":"totalBudget","type":"uint256"},{"internalType":"uint256","name":"allocatedAmount","type":"uint256"},{"internalType":"uint256","name":"releasedAmount","type":"uint256"},{"internalType":"uint256","name":"remainingAmount","type":"uint256"},{"internalType":"bool","name":"isFunded","type":"bool"},{"internalType":"uint256","name":"fundedAt","type":"uint256"},{"internalType":"uint256","name":"milestoneCount","type":"uint256"}],"stateMutability":"view","type":"function"},{"inputs":[{"internalType":"uint256","name":"_projectId","type":"uint256"}],"name":"getProjectMilestones","outputs":[{"internalType":"uint256[]","name":"","type":"uint256[]"}],"stateMutability":"view","type":"function"},{"inputs":[{"internalType":"bytes32","name":"role","type":"bytes32"}],"name":"getRoleAdmin","outputs":[{"internalType":"bytes32","name":"","type":"bytes32"}],"stateMutability":"view","type":"function"},{"inputs":[{"internalType":"bytes32","name":"role","type":"bytes32"},{"internalType":"address","name":"account","type":"address"}],"name":"grantRole","outputs":[],"stateMutability":"nonpayable","type":"function"},{"inputs":[{"internalType":"bytes32","name":"role","type":"bytes32"},{"internalType":"address","name":"account","type":"address"}],"name":"hasRole","outputs":[{"internalType":"bool","name":"","type":"bool"}],"stateMutability":"view","type":"function"},{"inputs":[{"internalType":"uint256","name":"","type":"uint256"}],"name":"lastWithdrawalDay","outputs":[{"internalType":"uint256","name":"","type":"uint256"}],"stateMutability":"view","type":"function"},{"inputs":[],"name":"pause","outputs":[],"stateMutability":"nonpayable","type":"function"},{"inputs":[],"name":"paused","outputs":[{"internalType":"bool","name":"","type":"bool"}],"stateMutability":"view","type":"function"},{"inputs":[],"name":"projectRegistry","outputs":[{"internalType":"contract ProjectRegistry","name":"","type":"address"}],"stateMutability":"view","type":"function"},{"inputs":[{"internalType":"bytes32","name":"role","type":"bytes32"},{"internalType":"address","name":"callerConfirmation","type":"address"}],"name":"renounceRole","outputs":[],"stateMutability":"nonpayable","type":"function"},{"inputs":[{"internalType":"bytes32","name":"role","type":"bytes32"},{"internalType":"address","name":"account","type":"address"}],"name":"revokeRole","outputs":[],"stateMutability":"nonpayable","type":"function"},{"inputs":[{"internalType":"bytes4","name":"interfaceId","type":"bytes4"}],"name":"supportsInterface","outputs":[{"internalType":"bool","name":"","type":"bool"}],"stateMutability":"view","type":"function"},{"inputs":[],"name":"unpause","outputs":[],"stateMutability":"nonpayable","type":"function"},{"stateMutability":"payable","type":"receive"}],"evm":{"bytecode":{"linkReferences":{},"object":"60803461009357601f62001f1e38819003918201601f19168301916001600160401b038311848410176100985780849260209460405283398101031261009357516001600160a01b0381168103610093576001805560028054610100600160a81b03191660089290921b610100600160a81b0316919091179055610082336100ae565b50604051611ddf90816200013f8239f35b600080fd5b634e487b7160e01b600052604160045260246000fd5b6001600160a01b031660008181527fad3228b676f7d3cd4284a5443f17f1962b36e491b30a40b2405849e597ba5fb5602052604081205490919060ff1661013a57818052816020526040822081835260205260408220600160ff1982541617905533917f2f8788117e7eff1d82e926ec794901d17c78024a50270940304540a733656f0d8180a4600190565b509056fe608080604052600436101561001d575b50361561001b57600080fd5b005b60003560e01c90816301ffc9a7146118495750806309dbbf1c1461181d57806320913da5146113cc578063248a9ca31461139d5780632f2ff15d1461136c578063337702451461134057806336568abe146113075780633cbb4668146111ca5780633f4ba83a146111605780634a3fba0e1461112557806352766d801461107f578063551f3e891461100d5780635a33d8dc14610fe05780635c975abb14610fbd5780637fbedb7514610d115780638456cb5914610cb75780638543a0ac14610c935780638ed9895c14610ac757806391d1485414610a87578063a217fddf14610a6b578063b19814f81461096b578063c9f8cc67146105af578063d547741f1461057e5763da13b0d314610132573861000f565b346105795760603660031901126105795767ffffffffffffffff60243581811161057957610164903690600401611933565b61016c611bc8565b600435600052600360205260406000209160ff6004840154161561053f57604435151580610532575b156104f8578151156104bc5782600090600435600052600460205260406000209060405191826020825491828152019160005260206000209060005b8181106104a657505050826101e79103836118f5565b60009460078201935b835187101561022d576102216102279161020a8987611bfa565b516000528660205260036040600020015490611c0e565b96611beb565b956101f0565b9085606461023f879460443590611c0e565b116104615761024f600554611beb565b92836005558360005260205260406000209083825560043560018301558251908111610389576102826002830154611c1b565b601f811161041a575b506020601f82116001146103aa5790806004939260009161039f575b508160011b916000199060031b1c19161760028201555b60443560038201550161ffff19815416905560043560005260046020526040600020908154680100000000000000008110156103895760018101808455811015610373576020948460069281956000528760002001550161031f8154611beb565b90557f3d198c5d9c28f50bf234c9c1a9a84f7ed3a20d152833a06c844a8e897261abd26103576040519260408452604084019061199d565b916044358682015280600435930390a360018055604051908152f35b634e487b7160e01b600052603260045260246000fd5b634e487b7160e01b600052604160045260246000fd5b9050840151876102a7565b6002830160005260206000209060005b601f19841681106104025750916001916004949382601f198116106103e9575b5050811b0160028201556102be565b86015160001960f88460031b161c1916905587806103da565b909160206001819285890151815501930191016103ba565b600283016000526020600020601f830160051c81016020841061045a575b601f830160051c8201811061044e57505061028b565b60008155600101610438565b5080610438565b60405162461bcd60e51b815260206004820152601d60248201527f546f74616c2070657263656e74616765206578636565647320313030250000006044820152606490fd5b82548452602090930192600192830192016101d1565b60405162461bcd60e51b815260206004820152601460248201527311195cd8dc9a5c1d1a5bdb881c995c5d5a5c995960621b6044820152606490fd5b60405162461bcd60e51b8152602060048201526012602482015271496e76616c69642070657263656e7461676560701b6044820152606490fd5b5060646044351115610195565b60405162461bcd60e51b8152602060048201526012602482015271141c9bda9958dd081b9bdd08199d5b99195960721b6044820152606490fd5b600080fd5b346105795761001b61058f366118b2565b908060005260006020526105aa6001604060002001546119fc565b611aa0565b60208060031936011261057957600435906105c86119c2565b6105d0611bc8565b6105d8611baa565b3415610927578160005260038152604060002060048101805460ff81166108e9576002546040516334d1a86960e11b815260048101879052906000908290602490829060081c6001600160a01b03165afa80156108dd576000916000916106ff575b5060068110156106e9576002036106ad5791600160409492846106817fc0a79f21f196b4ee5a242474a85cb9aa5fc2ce59ecc884d7271f1c2bd19b9a139896341015611b69565b8455348285015534600385015560ff19161790556005429101558151903482524290820152a260018055005b60405162461bcd60e51b8152600481018690526014602482015273141c9bda9958dd081b9bdd08185c1c1c9bdd995960621b6044820152606490fd5b634e487b7160e01b600052602160045260246000fd5b9150503d806000833e61071281836118f5565b810160e08282031261057957858201519067ffffffffffffffff918281116105795781610740918501611b4c565b5060408301518281116105795781610759918501611b4c565b5060608301519160808401519360068510156105795760c081015190828211610579570160e081840312610579576040519260e084018481108482111761038957604052815183811161057957816107b2918401611b4c565b84528982015183811161057957816107cb918401611b4c565b8a850152604082015183811161057957820181601f82011215610579578051848111610389578b918160051b91610807604051948401856118f5565b83528c8084019282010191848311610579578d8201905b8382106108b857505050506040850152606082015183811161057957820181601f820112156105795781818c61085693519101611b15565b606085015260808201518381116105795781610873918401611b4c565b608085015260a08201518381116105795781610890918401611b4c565b60a085015260c08201519283116105795760c0926108ae9201611b4c565b910152908761063a565b8151888111610579578f916108d288848094880101611b4c565b81520191019061081e565b6040513d6000823e3d90fd5b60405162461bcd60e51b8152600481018590526016602482015275141c9bda9958dd08185b1c9958591e48199d5b99195960521b6044820152606490fd5b6064906040519062461bcd60e51b82526004820152601d60248201527f416d6f756e74206d7573742062652067726561746572207468616e20300000006044820152fd5b3461057957602080600319360112610579576004356000526003808252604060002090600483526040600020916040519283858254918281520191600052856000209060005b87828210610a575750505050836109c99103846118f5565b6000918291600701825b8551811015610a48576109e68187611bfa565b516000528187526040600020600481015460ff90818116610a33575b60081c16610a1a575b50610a1590611beb565b6109d3565b610a15919484610a2c92015490611c0e565b9390610a0b565b96610a42908684015490611c0e565b96610a02565b60408585898351928352820152f35b8354855290930192600192830192016109b1565b3461057957600036600319011261057957602060405160008152f35b3461057957610a95366118b2565b90600052600060205260406000209060018060a01b0316600052602052602060ff604060002054166040519015158152f35b3461057957610ad53661189c565b906000610140604051610ae7816118d8565b828152826020820152606060408201528260608201528260808201528260a08201528260c08201528260e082015260606101008201528261012082015201526000526003602052600760406000200190600052602052604060002060405190610b4f826118d8565b8054825260018101546020830152610b6960028201611d05565b60408301526003810154606083015260ff60048201548181161515608085015260081c16151560a0830152600581015460c0830152600681015460e0830152610bb460078201611d05565b61010083015260018060a01b03600882015416610120830152600960018060a01b039101541661014082015260405180916020825280516020830152602081015160408301526040810151610c69610c1a6101609283606087015261018086019061199d565b606084015160808601526080840151151560a086015260a0840151151560c086015260c084015160e086015260e0840151610100860152610100840151601f198683030161012087015261199d565b6101208301516001600160a01b039081166101408681019190915290930151909216908301520390f35b34610579576000366003190112610579576020604051683635c9adc5dea000008152f35b3461057957600036600319011261057957610cd06119c2565b610cd8611baa565b600160ff1960025416176002557f62e78cea01bee320cd4e420270b5ea74000d11b0c9f74754ebdbfc544b05a2586020604051338152a1005b346105795760603660031901126105795767ffffffffffffffff60243560043560443583811161057957610d49903690600401611933565b610d51611bc8565b816000526020906003825260076040600020018460005282526040600020600195610d80858884015414611c55565b60048201805460ff8116610f7857845115610f335760ff19168817905542600583015582516007830191811161038957610dba8254611c1b565b601f8111610eea575b5084601f8211600114610e59577fac864cf4ff524b962b342d243bb24951f3e0d8c001ee164d65910e8bb5c3f69d9593610e47938360409794600894600091610e4e575b50600019600383901b1c1916908c1b1790555b01336bffffffffffffffffffffffff60a01b8254161790558351938493338552840152604083019061199d565b0390a38055005b90508501518d610e07565b908891601f1982169084600052876000209160005b818110610ed3575093837fac864cf4ff524b962b342d243bb24951f3e0d8c001ee164d65910e8bb5c3f69d999793610e47979360089660409b9810610eba575b5050811b019055610e1a565b87015160001960f88460031b161c191690558d80610eae565b8883015184558c9590930192918901918901610e6e565b8260005285600020601f830160051c810191878410610f29575b601f0160051c019089905b828110610f1d575050610dc3565b60008155018990610f0f565b9091508190610f04565b60405162461bcd60e51b815260048101879052601b60248201527f566572696669636174696f6e2070726f6f6620726571756972656400000000006044820152606490fd5b60405162461bcd60e51b815260048101879052601b60248201527f4d696c6573746f6e6520616c726561647920636f6d706c6574656400000000006044820152606490fd5b3461057957600036600319011261057957602060ff600254166040519015158152f35b346105795760003660031901126105795760025460405160089190911c6001600160a01b03168152602090f35b3461057957602036600319011261057957600435600052600360205260e060406000208054906001810154906002810154600382015460ff6004840154169160066005850154940154946040519687526020870152604086015260608501521515608084015260a083015260c0820152f35b34610579576020806003193601126105795760043560005260048152604060002060405190818382549182815201908192600052846000209060005b868282106111115786866110d1828803836118f5565b604051928392818401908285525180915260408401929160005b8281106110fa57505050500390f35b8351855286955093810193928101926001016110eb565b8354855290930192600192830192016110bb565b346105795760003660031901126105795760206040517fd565e3fc066df348a5cbc05a8d6323e00552838041cea2d84cc59876ba37735d8152f35b34610579576000366003190112610579576111796119c2565b60025460ff8116156111b85760ff19166002557f5db9ee0a495bf2e6ff9c91a7834c1ba4fdd244a5e8aa4e537bd38aeae4b073aa6020604051338152a1005b604051638dfc202b60e01b8152600490fd5b346105795760403660031901126105795760043560243567ffffffffffffffff8111610579576111fe903690600401611933565b906112076119c2565b61120f611bc8565b8151156112d0578060005260036020526003604060002001805480156112945760007f5fa22300a932153a37b19aad103ef8ff9a6c00e3c5e73c8b165d404e8776b8f3925561126e600080808085335af1611268611c97565b50611cc7565b604051908152604060208201528061128b3395604083019061199d565b0390a360018055005b60405162461bcd60e51b81526020600482015260146024820152734e6f2066756e647320746f20776974686472617760601b6044820152606490fd5b60405162461bcd60e51b815260206004820152600f60248201526e1499585cdbdb881c995c5d5a5c9959608a1b6044820152606490fd5b3461057957611315366118b2565b336001600160a01b0382160361132e5761001b91611aa0565b60405163334bd91960e11b8152600490fd5b346105795760203660031901126105795760043560005260066020526020604060002054604051908152f35b346105795761001b61137d366118b2565b908060005260006020526113986001604060002001546119fc565b611a22565b346105795760203660031901126105795760043560005260006020526020600160406000200154604051908152f35b34610579576113da3661189c565b3360009081527ffd954c8947fdc98546445b97ed0b40d4f2e212d6308d6baacd84bd775362398960209081526040909120549092907fd565e3fc066df348a5cbc05a8d6323e00552838041cea2d84cc59876ba37735d9060ff16156117ff5750611442611bc8565b61144a611baa565b80600052600383526007604060002001826000528352604060002061147482600183015414611c55565b60048101805460ff8116156117ba5760ff8160081c1661177557906101006009939261ff00191617905542600682015501336bffffffffffffffffffffffff60a01b82541617905581817f9ffbb52f2a1362273cd74689a516ca4f52c4282dc13e2e68b7e0646a9a7af7a385604051338152a3806000526003835260406000209282600052600784018152604060002060ff600482015460081c161561173757600385549101549081810291818304149015171561164657606490049060038501916115438184541015611b69565b6201518042048460005260078352806040600020540361171c575b5060068252683635c9adc5dea0000061157c82604060002054611c0e565b116116d757600254604051600162453d2360e11b03198152600481018690526001600160a01b039184908290602490829060081c86165afa9081156108dd576000916116a1575b501695861561165c576002016115da828254611c0e565b90558254818103908111611646577fd5eb304362ffe48045a3ae2ed7e0d2cfed08eb62f44dc87c694d42606e8205d9935583600052600682526040600020611623828254611c0e565b90556116396000808080858b5af1611268611c97565b604051908152a460018055005b634e487b7160e01b600052601160045260246000fd5b60405162461bcd60e51b815260048101849052601a60248201527f496e76616c696420636f6e74726163746f7220616464726573730000000000006044820152606490fd5b90508381813d83116116d0575b6116b881836118f5565b810103126105795751818116810361057957886115c3565b503d6116ae565b60405162461bcd60e51b815260048101839052601f60248201527f4461696c79207769746864726177616c206c696d6974206578636565646564006044820152606490fd5b6006835260006040812055600783526040600020558661155e565b60405162461bcd60e51b8152600481018390526016602482015275135a5b195cdd1bdb99481b9bdd08185c1c1c9bdd995960521b6044820152606490fd5b60405162461bcd60e51b815260048101879052601a60248201527f4d696c6573746f6e6520616c726561647920617070726f7665640000000000006044820152606490fd5b60405162461bcd60e51b815260048101879052601760248201527f4d696c6573746f6e65206e6f7420636f6d706c657465640000000000000000006044820152606490fd5b6044906040519063e2517d3f60e01b82523360048301526024820152fd5b346105795760203660031901126105795760043560005260076020526020604060002054604051908152f35b34610579576020366003190112610579576004359063ffffffff60e01b821680920361057957602091637965db0b60e01b811490811561188b575b5015158152f35b6301ffc9a760e01b14905083611884565b6040906003190112610579576004359060243590565b604090600319011261057957600435906024356001600160a01b03811681036105795790565b610160810190811067ffffffffffffffff82111761038957604052565b90601f8019910116810190811067ffffffffffffffff82111761038957604052565b67ffffffffffffffff811161038957601f01601f191660200190565b81601f820112156105795780359061194a82611917565b9261195860405194856118f5565b8284526020838301011161057957816000926020809301838601378301015290565b60005b83811061198d5750506000910152565b818101518382015260200161197d565b906020916119b68151809281855285808601910161197a565b601f01601f1916010190565b3360009081527fad3228b676f7d3cd4284a5443f17f1962b36e491b30a40b2405849e597ba5fb5602052604081205460ff16156117ff5750565b80600052600060205260406000203360005260205260ff60406000205416156117ff5750565b9060009180835282602052604083209160018060a01b03169182845260205260ff60408420541615600014611a9b57808352826020526040832082845260205260408320600160ff198254161790557f2f8788117e7eff1d82e926ec794901d17c78024a50270940304540a733656f0d339380a4600190565b505090565b9060009180835282602052604083209160018060a01b03169182845260205260ff604084205416600014611a9b5780835282602052604083208284526020526040832060ff1981541690557ff6391f5c32d9c69d2a47ea670b442974b53935d1edc7fd64eb21e047a839171b339380a4600190565b90929192611b2281611917565b91611b3060405193846118f5565b829482845282820111610579576020611b4a93019061197a565b565b9080601f83011215610579578151611b6692602001611b15565b90565b15611b7057565b60405162461bcd60e51b8152602060048201526012602482015271496e73756666696369656e742066756e647360701b6044820152606490fd5b60ff60025416611bb657565b60405163d93c066560e01b8152600490fd5b600260015414611bd9576002600155565b604051633ee5aeb560e01b8152600490fd5b60001981146116465760010190565b80518210156103735760209160051b010190565b9190820180921161164657565b90600182811c92168015611c4b575b6020831014611c3557565b634e487b7160e01b600052602260045260246000fd5b91607f1691611c2a565b15611c5c57565b60405162461bcd60e51b8152602060048201526013602482015272135a5b195cdd1bdb99481b9bdd08199bdd5b99606a1b6044820152606490fd5b3d15611cc2573d90611ca882611917565b91611cb660405193846118f5565b82523d6000602084013e565b606090565b15611cce57565b60405162461bcd60e51b815260206004820152600f60248201526e151c985b9cd9995c8819985a5b1959608a1b6044820152606490fd5b9060405191826000825492611d1984611c1b565b908184526001948581169081600014611d865750600114611d43575b5050611b4a925003836118f5565b9093915060005260209081600020936000915b818310611d6e575050611b4a93508201013880611d35565b85548884018501529485019487945091830191611d56565b915050611b4a94506020925060ff191682840152151560051b8201013880611d3556fea2646970667358221220fd33d4e05e613a8a249073928d39caa0620615b37497632c8d2bbd29817bf90064736f6c63430008140033","opcodes":"PUSH1 0x80 CALLVALUE PUSH2 0x93 JUMPI PUSH1 0x1F PUSH3 0x1F1E CODESIZE DUP2 SWAP1 SUB SWAP2 DUP3 ADD PUSH1 0x1F NOT AND DUP4 ADD SWAP2 PUSH1 0x1 PUSH1 0x1 PUSH1 0x40 SHL SUB DUP4 GT DUP5 DUP5 LT OR PUSH2 0x98 JUMPI DUP1 DUP5 SWAP3 PUSH1 0x20 SWAP5 PUSH1 0x40 MSTORE DUP4 CODECOPY DUP2 ADD SUB SLT PUSH2 0x93 JUMPI MLOAD PUSH1 0x1 PUSH1 0x1 PUSH1 0xA0 SHL SUB DUP2 AND DUP2 SUB PUSH2 0x93 JUMPI PUSH1 0x1 DUP1 SSTORE PUSH1 0x2 DUP1 SLOAD PUSH2 0x100 PUSH1 0x1 PUSH1 0xA8 SHL SUB NOT AND PUSH1 0x8 SWAP3 SWAP1 SWAP3 SHL PUSH2 0x100 PUSH1 0x1 PUSH1 0xA8 SHL SUB AND SWAP2 SWAP1 SWAP2 OR SWAP1 SSTORE PUSH2 0x82 CALLER PUSH2 0xAE JUMP JUMPDEST POP PUSH1 0x40 MLOAD PUSH2 0x1DDF SWAP1 DUP2 PUSH3 0x13F DUP3 CODECOPY RETURN JUMPDEST PUSH1 0x0 DUP1 REVERT JUMPDEST PUSH4 0x4E487B71 PUSH1 0xE0 SHL PUSH1 0x0 MSTORE PUSH1 0x41 PUSH1 0x4 MSTORE PUSH1 0x24 PUSH1 0x0 REVERT JUMPDEST PUSH1 0x1 PUSH1 0x1 PUSH1 0xA0 SHL SUB AND PUSH1 0x0 DUP2 DUP2 MSTORE PUSH32 0xAD3228B676F7D3CD4284A5443F17F1962B36E491B30A40B2405849E597BA5FB5 PUSH1 0x20 MSTORE PUSH1 0x40 DUP2 KECCAK256 SLOAD SWAP1 SWAP2 SWAP1 PUSH1 0xFF AND PUSH2 0x13A JUMPI DUP2 DUP1 MSTORE DUP2 PUSH1 0x20 MSTORE PUSH1 0x40 DUP3 KECCAK256 DUP2 DUP4 MSTORE PUSH1 0x20 MSTORE PUSH1 0x40 DUP3 KECCAK256 PUSH1 0x1 PUSH1 0xFF NOT DUP3 SLOAD AND OR SWAP1 SSTORE CALLER SWAP2 PUSH32 0x2F8788117E7EFF1D82E926EC794901D17C78024A50270940304540A733656F0D DUP2 DUP1 LOG4 PUSH1 0x1 SWAP1 JUMP JUMPDEST POP SWAP1 JUMP INVALID PUSH1 0x80 DUP1 PUSH1 0x40 MSTORE PUSH1 0x4 CALLDATASIZE LT ISZERO PUSH2 0x1D JUMPI JUMPDEST POP CALLDATASIZE ISZERO PUSH2 0x1B JUMPI PUSH1 0x0 DUP1 REVERT JUMPDEST STOP JUMPDEST PUSH1 0x0 CALLDATALOAD PUSH1 0xE0 SHR SWAP1 DUP2 PUSH4 0x1FFC9A7 EQ PUSH2 0x1849 JUMPI POP DUP1 PUSH4 0x9DBBF1C EQ PUSH2 0x181D JUMPI DUP1 PUSH4 0x20913DA5 EQ PUSH2 0x13CC JUMPI DUP1 PUSH4 0x248A9CA3 EQ PUSH2 0x139D JUMPI DUP1 PUSH4 0x2F2FF15D EQ PUSH2 0x136C JUMPI DUP1 PUSH4 0x33770245 EQ PUSH2 0x1340 JUMPI DUP1 PUSH4 0x36568ABE EQ PUSH2 0x1307 JUMPI DUP1 PUSH4 0x3CBB4668 EQ PUSH2 0x11CA JUMPI DUP1 PUSH4 0x3F4BA83A EQ PUSH2 0x1160 JUMPI DUP1 PUSH4 0x4A3FBA0E EQ PUSH2 0x1125 JUMPI DUP1 PUSH4 0x52766D80 EQ PUSH2 0x107F JUMPI DUP1 PUSH4 0x551F3E89 EQ PUSH2 0x100D JUMPI DUP1 PUSH4 0x5A33D8DC EQ PUSH2 0xFE0 JUMPI DUP1 PUSH4 0x5C975ABB EQ PUSH2 0xFBD JUMPI DUP1 PUSH4 0x7FBEDB75 EQ PUSH2 0xD11 JUMPI DUP1 PUSH4 0x8456CB59 EQ PUSH2 0xCB7 JUMPI DUP1 PUSH4 0x8543A0AC EQ PUSH2 0xC93 JUMPI DUP1 PUSH4 0x8ED9895C EQ PUSH2 0xAC7 JUMPI DUP1 PUSH4 0x91D14854 EQ PUSH2 0xA87 JUMPI DUP1 PUSH4 0xA217FDDF EQ PUSH2 0xA6B JUMPI DUP1 PUSH4 0xB19814F8 EQ PUSH2 0x96B JUMPI DUP1 PUSH4 0xC9F8CC67 EQ PUSH2 0x5AF JUMPI DUP1 PUSH4 0xD547741F EQ PUSH2 0x57E JUMPI PUSH4 0xDA13B0D3 EQ PUSH2 0x132 JUMPI CODESIZE PUSH2 0xF JUMP JUMPDEST CALLVALUE PUSH2 0x579 JUMPI PUSH1 0x60 CALLDATASIZE PUSH1 0x3 NOT ADD SLT PUSH2 0x579 JUMPI PUSH8 0xFFFFFFFFFFFFFFFF PUSH1 0x24 CALLDATALOAD DUP2 DUP2 GT PUSH2 0x579 JUMPI PUSH2 0x164 SWAP1 CALLDATASIZE SWAP1 PUSH1 0x4 ADD PUSH2 0x1933 JUMP JUMPDEST PUSH2 0x16C PUSH2 0x1BC8 JUMP JUMPDEST PUSH1 0x4 CALLDATALOAD PUSH1 0x0 MSTORE PUSH1 0x3 PUSH1 0x20 MSTORE PUSH1 0x40 PUSH1 0x0 KECCAK256 SWAP2 PUSH1 0xFF PUSH1 0x4 DUP5 ADD SLOAD AND ISZERO PUSH2 0x53F JUMPI PUSH1 0x44 CALLDATALOAD ISZERO ISZERO DUP1 PUSH2 0x532 JUMPI JUMPDEST ISZERO PUSH2 0x4F8 JUMPI DUP2 MLOAD ISZERO PUSH2 0x4BC JUMPI DUP3 PUSH1 0x0 SWAP1 PUSH1 0x4 CALLDATALOAD PUSH1 0x0 MSTORE PUSH1 0x4 PUSH1 0x20 MSTORE PUSH1 0x40 PUSH1 0x0 KECCAK256 SWAP1 PUSH1 0x40 MLOAD SWAP2 DUP3 PUSH1 0x20 DUP3 SLOAD SWAP2 DUP3 DUP2 MSTORE ADD SWAP2 PUSH1 0x0 MSTORE PUSH1 0x20 PUSH1 0x0 KECCAK256 SWAP1 PUSH1 0x0 JUMPDEST DUP2 DUP2 LT PUSH2 0x4A6 JUMPI POP POP POP DUP3 PUSH2 0x1E7 SWAP2 SUB DUP4 PUSH2 0x18F5 JUMP JUMPDEST PUSH1 0x0 SWAP5 PUSH1 0x7 DUP3 ADD SWAP4 JUMPDEST DUP4 MLOAD DUP8 LT ISZERO PUSH2 0x22D JUMPI PUSH2 0x221 PUSH2 0x227 SWAP2 PUSH2 0x20A DUP10 DUP8 PUSH2 0x1BFA JUMP JUMPDEST MLOAD PUSH1 0x0 MSTORE DUP7 PUSH1 0x20 MSTORE PUSH1 0x3 PUSH1 0x40 PUSH1 0x0 KECCAK256 ADD SLOAD SWAP1 PUSH2 0x1C0E JUMP JUMPDEST SWAP7 PUSH2 0x1BEB JUMP JUMPDEST SWAP6 PUSH2 0x1F0 JUMP JUMPDEST SWAP1 DUP6 PUSH1 0x64 PUSH2 0x23F DUP8 SWAP5 PUSH1 0x44 CALLDATALOAD SWAP1 PUSH2 0x1C0E JUMP JUMPDEST GT PUSH2 0x461 JUMPI PUSH2 0x24F PUSH1 0x5 SLOAD PUSH2 0x1BEB JUMP JUMPDEST SWAP3 DUP4 PUSH1 0x5 SSTORE DUP4 PUSH1 0x0 MSTORE PUSH1 0x20 MSTORE PUSH1 0x40 PUSH1 0x0 KECCAK256 SWAP1 DUP4 DUP3 SSTORE PUSH1 0x4 CALLDATALOAD PUSH1 0x1 DUP4 ADD SSTORE DUP3 MLOAD SWAP1 DUP2 GT PUSH2 0x389 JUMPI PUSH2 0x282 PUSH1 0x2 DUP4 ADD SLOAD PUSH2 0x1C1B JUMP JUMPDEST PUSH1 0x1F DUP2 GT PUSH2 0x41A JUMPI JUMPDEST POP PUSH1 0x20 PUSH1 0x1F DUP3 GT PUSH1 0x1 EQ PUSH2 0x3AA JUMPI SWAP1 DUP1 PUSH1 0x4 SWAP4 SWAP3 PUSH1 0x0 SWAP2 PUSH2 0x39F JUMPI JUMPDEST POP DUP2 PUSH1 0x1 SHL SWAP2 PUSH1 0x0 NOT SWAP1 PUSH1 0x3 SHL SHR NOT AND OR PUSH1 0x2 DUP3 ADD SSTORE JUMPDEST PUSH1 0x44 CALLDATALOAD PUSH1 0x3 DUP3 ADD SSTORE ADD PUSH2 0xFFFF NOT DUP2 SLOAD AND SWAP1 SSTORE PUSH1 0x4 CALLDATALOAD PUSH1 0x0 MSTORE PUSH1 0x4 PUSH1 0x20 MSTORE PUSH1 0x40 PUSH1 0x0 KECCAK256 SWAP1 DUP2 SLOAD PUSH9 0x10000000000000000 DUP2 LT ISZERO PUSH2 0x389 JUMPI PUSH1 0x1 DUP2 ADD DUP1 DUP5 SSTORE DUP2 LT ISZERO PUSH2 0x373 JUMPI PUSH1 0x20 SWAP5 DUP5 PUSH1 0x6 SWAP3 DUP2 SWAP6 PUSH1 0x0 MSTORE DUP8 PUSH1 0x0 KECCAK256 ADD SSTORE ADD PUSH2 0x31F DUP2 SLOAD PUSH2 0x1BEB JUMP JUMPDEST SWAP1 SSTORE PUSH32 0x3D198C5D9C28F50BF234C9C1A9A84F7ED3A20D152833A06C844A8E897261ABD2 PUSH2 0x357 PUSH1 0x40 MLOAD SWAP3 PUSH1 0x40 DUP5 MSTORE PUSH1 0x40 DUP5 ADD SWAP1 PUSH2 0x199D JUMP JUMPDEST SWAP2 PUSH1 0x44 CALLDATALOAD DUP7 DUP3 ADD MSTORE DUP1 PUSH1 0x4 CALLDATALOAD SWAP4 SUB SWAP1 LOG3 PUSH1 0x1 DUP1 SSTORE PUSH1 0x40 MLOAD SWAP1 DUP2 MSTORE RETURN JUMPDEST PUSH4 0x4E487B71 PUSH1 0xE0 SHL PUSH1 0x0 MSTORE PUSH1 0x32 PUSH1 0x4 MSTORE PUSH1 0x24 PUSH1 0x0 REVERT JUMPDEST PUSH4 0x4E487B71 PUSH1 0xE0 SHL PUSH1 0x0 MSTORE PUSH1 0x41 PUSH1 0x4 MSTORE PUSH1 0x24 PUSH1 0x0 REVERT JUMPDEST SWAP1 POP DUP5 ADD MLOAD DUP8 PUSH2 0x2A7 JUMP JUMPDEST PUSH1 0x2 DUP4 ADD PUSH1 0x0 MSTORE PUSH1 0x20 PUSH1 0x0 KECCAK256 SWAP1 PUSH1 0x0 JUMPDEST PUSH1 0x1F NOT DUP5 AND DUP2 LT PUSH2 0x402 JUMPI POP SWAP2 PUSH1 0x1 SWAP2 PUSH1 0x4 SWAP5 SWAP4 DUP3 PUSH1 0x1F NOT DUP2 AND LT PUSH2 0x3E9 JUMPI JUMPDEST POP POP DUP2 SHL ADD PUSH1 0x2 DUP3 ADD SSTORE PUSH2 0x2BE JUMP JUMPDEST DUP7 ADD MLOAD PUSH1 0x0 NOT PUSH1 0xF8 DUP5 PUSH1 0x3 SHL AND SHR NOT AND SWAP1 SSTORE DUP8 DUP1 PUSH2 0x3DA JUMP JUMPDEST SWAP1 SWAP2 PUSH1 0x20 PUSH1 0x1 DUP2 SWAP3 DUP6 DUP10 ADD MLOAD DUP2 SSTORE ADD SWAP4 ADD SWAP2 ADD PUSH2 0x3BA JUMP JUMPDEST PUSH1 0x2 DUP4 ADD PUSH1 0x0 MSTORE PUSH1 0x20 PUSH1 0x0 KECCAK256 PUSH1 0x1F DUP4 ADD PUSH1 0x5 SHR DUP2 ADD PUSH1 0x20 DUP5 LT PUSH2 0x45A JUMPI JUMPDEST PUSH1 0x1F DUP4 ADD PUSH1 0x5 SHR DUP3 ADD DUP2 LT PUSH2 0x44E JUMPI POP POP PUSH2 0x28B JUMP JUMPDEST PUSH1 0x0 DUP2 SSTORE PUSH1 0x1 ADD PUSH2 0x438 JUMP JUMPDEST POP DUP1 PUSH2 0x438 JUMP JUMPDEST PUSH1 0x40 MLOAD PUSH3 0x461BCD PUSH1 0xE5 SHL DUP2 MSTORE PUSH1 0x20 PUSH1 0x4 DUP3 ADD MSTORE PUSH1 0x1D PUSH1 0x24 DUP3 ADD MSTORE PUSH32 0x546F74616C2070657263656E7461676520657863656564732031303025000000 PUSH1 0x44 DUP3 ADD MSTORE PUSH1 0x64 SWAP1 REVERT JUMPDEST DUP3 SLOAD DUP5 MSTORE PUSH1 0x20 SWAP1 SWAP4 ADD SWAP3 PUSH1 0x1 SWAP3 DUP4 ADD SWAP3 ADD PUSH2 0x1D1 JUMP JUMPDEST PUSH1 0x40 MLOAD PUSH3 0x461BCD PUSH1 0xE5 SHL DUP2 MSTORE PUSH1 0x20 PUSH1 0x4 DUP3 ADD MSTORE PUSH1 0x14 PUSH1 0x24 DUP3 ADD MSTORE PUSH20 0x11195CD8DC9A5C1D1A5BDB881C995C5D5A5C9959 PUSH1 0x62 SHL PUSH1 0x44 DUP3 ADD MSTORE PUSH1 0x64 SWAP1 REVERT JUMPDEST PUSH1 0x40 MLOAD PUSH3 0x461BCD PUSH1 0xE5 SHL DUP2 MSTORE PUSH1 0x20 PUSH1 0x4 DUP3 ADD MSTORE PUSH1 0x12 PUSH1 0x24 DUP3 ADD MSTORE PUSH18 0x496E76616C69642070657263656E74616765 PUSH1 0x70 SHL PUSH1 0x44 DUP3 ADD MSTORE PUSH1 0x64 SWAP1 REVERT JUMPDEST POP PUSH1 0x64 PUSH1 0x44 CALLDATALOAD GT ISZERO PUSH2 0x195 JUMP JUMPDEST PUSH1 0x40 MLOAD PUSH3 0x461BCD PUSH1 0xE5 SHL DUP2 MSTORE PUSH1 0x20 PUSH1 0x4 DUP3 ADD MSTORE PUSH1 0x12 PUSH1 0x24 DUP3 ADD MSTORE PUSH18 0x141C9BDA9958DD081B9BDD08199D5B991959 PUSH1 0x72 SHL PUSH1 0x44 DUP3 ADD MSTORE PUSH1 0x64 SWAP1 REVERT JUMPDEST PUSH1 0x0 DUP1 REVERT JUMPDEST CALLVALUE PUSH2 0x579 JUMPI PUSH2 0x1B PUSH2 0x58F CALLDATASIZE PUSH2 0x18B2 JUMP JUMPDEST SWAP1 DUP1 PUSH1 0x0 MSTORE PUSH1 0x0 PUSH1 0x20 MSTORE PUSH2 0x5AA PUSH1 0x1 PUSH1 0x40 PUSH1 0x0 KECCAK256 ADD SLOAD PUSH2 0x19FC JUMP JUMPDEST PUSH2 0x1AA0 JUMP JUMPDEST PUSH1 0x20 DUP1 PUSH1 0x3 NOT CALLDATASIZE ADD SLT PUSH2 0x579 JUMPI PUSH1 0x4 CALLDATALOAD SWAP1 PUSH2 0x5C8 PUSH2 0x19C2 JUMP JUMPDEST PUSH2 0x5D0 PUSH2 0x1BC8 JUMP JUMPDEST PUSH2 0x5D8 PUSH2 0x1BAA JUMP JUMPDEST CALLVALUE ISZERO PUSH2 0x927 JUMPI DUP2 PUSH1 0x0 MSTORE PUSH1 0x3 DUP2 MSTORE PUSH1 0x40 PUSH1 0x0 KECCAK256 PUSH1 0x4 DUP2 ADD DUP1 SLOAD PUSH1 0xFF DUP2 AND PUSH2 0x8E9 JUMPI PUSH1 0x2 SLOAD PUSH1 0x40 MLOAD PUSH4 0x34D1A869 PUSH1 0xE1 SHL DUP2 MSTORE PUSH1 0x4 DUP2 ADD DUP8 SWAP1 MSTORE SWAP1 PUSH1 0x0 SWAP1 DUP3 SWAP1 PUSH1 0x24 SWAP1 DUP3 SWAP1 PUSH1 0x8 SHR PUSH1 0x1 PUSH1 0x1 PUSH1 0xA0 SHL SUB AND GAS STATICCALL DUP1 ISZERO PUSH2 0x8DD JUMPI PUSH1 0x0 SWAP2 PUSH1 0x0 SWAP2 PUSH2 0x6FF JUMPI JUMPDEST POP PUSH1 0x6 DUP2 LT ISZERO PUSH2 0x6E9 JUMPI PUSH1 0x2 SUB PUSH2 0x6AD JUMPI SWAP2 PUSH1 0x1 PUSH1 0x40 SWAP5 SWAP3 DUP5 PUSH2 0x681 PUSH32 0xC0A79F21F196B4EE5A242474A85CB9AA5FC2CE59ECC884D7271F1C2BD19B9A13 SWAP9 SWAP7 CALLVALUE LT ISZERO PUSH2 0x1B69 JUMP JUMPDEST DUP5 SSTORE CALLVALUE DUP3 DUP6 ADD SSTORE CALLVALUE PUSH1 0x3 DUP6 ADD SSTORE PUSH1 0xFF NOT AND OR SWAP1 SSTORE PUSH1 0x5 TIMESTAMP SWAP2 ADD SSTORE DUP2 MLOAD SWAP1 CALLVALUE DUP3 MSTORE TIMESTAMP SWAP1 DUP3 ADD MSTORE LOG2 PUSH1 0x1 DUP1 SSTORE STOP JUMPDEST PUSH1 0x40 MLOAD PUSH3 0x461BCD PUSH1 0xE5 SHL DUP2 MSTORE PUSH1 0x4 DUP2 ADD DUP7 SWAP1 MSTORE PUSH1 0x14 PUSH1 0x24 DUP3 ADD MSTORE PUSH20 0x141C9BDA9958DD081B9BDD08185C1C1C9BDD9959 PUSH1 0x62 SHL PUSH1 0x44 DUP3 ADD MSTORE PUSH1 0x64 SWAP1 REVERT JUMPDEST PUSH4 0x4E487B71 PUSH1 0xE0 SHL PUSH1 0x0 MSTORE PUSH1 0x21 PUSH1 0x4 MSTORE PUSH1 0x24 PUSH1 0x0 REVERT JUMPDEST SWAP2 POP POP RETURNDATASIZE DUP1 PUSH1 0x0 DUP4 RETURNDATACOPY PUSH2 0x712 DUP2 DUP4 PUSH2 0x18F5 JUMP JUMPDEST DUP2 ADD PUSH1 0xE0 DUP3 DUP3 SUB SLT PUSH2 0x579 JUMPI DUP6 DUP3 ADD MLOAD SWAP1 PUSH8 0xFFFFFFFFFFFFFFFF SWAP2 DUP3 DUP2 GT PUSH2 0x579 JUMPI DUP2 PUSH2 0x740 SWAP2 DUP6 ADD PUSH2 0x1B4C JUMP JUMPDEST POP PUSH1 0x40 DUP4 ADD MLOAD DUP3 DUP2 GT PUSH2 0x579 JUMPI DUP2 PUSH2 0x759 SWAP2 DUP6 ADD PUSH2 0x1B4C JUMP JUMPDEST POP PUSH1 0x60 DUP4 ADD MLOAD SWAP2 PUSH1 0x80 DUP5 ADD MLOAD SWAP4 PUSH1 0x6 DUP6 LT ISZERO PUSH2 0x579 JUMPI PUSH1 0xC0 DUP2 ADD MLOAD SWAP1 DUP3 DUP3 GT PUSH2 0x579 JUMPI ADD PUSH1 0xE0 DUP2 DUP5 SUB SLT PUSH2 0x579 JUMPI PUSH1 0x40 MLOAD SWAP3 PUSH1 0xE0 DUP5 ADD DUP5 DUP2 LT DUP5 DUP3 GT OR PUSH2 0x389 JUMPI PUSH1 0x40 MSTORE DUP2 MLOAD DUP4 DUP2 GT PUSH2 0x579 JUMPI DUP2 PUSH2 0x7B2 SWAP2 DUP5 ADD PUSH2 0x1B4C JUMP JUMPDEST DUP5 MSTORE DUP10 DUP3 ADD MLOAD DUP4 DUP2 GT PUSH2 0x579 JUMPI DUP2 PUSH2 0x7CB SWAP2 DUP5 ADD PUSH2 0x1B4C JUMP JUMPDEST DUP11 DUP6 ADD MSTORE PUSH1 0x40 DUP3 ADD MLOAD DUP4 DUP2 GT PUSH2 0x579 JUMPI DUP3 ADD DUP2 PUSH1 0x1F DUP3 ADD SLT ISZERO PUSH2 0x579 JUMPI DUP1 MLOAD DUP5 DUP2 GT PUSH2 0x389 JUMPI DUP12 SWAP2 DUP2 PUSH1 0x5 SHL SWAP2 PUSH2 0x807 PUSH1 0x40 MLOAD SWAP5 DUP5 ADD DUP6 PUSH2 0x18F5 JUMP JUMPDEST DUP4 MSTORE DUP13 DUP1 DUP5 ADD SWAP3 DUP3 ADD ADD SWAP2 DUP5 DUP4 GT PUSH2 0x579 JUMPI DUP14 DUP3 ADD SWAP1 JUMPDEST DUP4 DUP3 LT PUSH2 0x8B8 JUMPI POP POP POP POP PUSH1 0x40 DUP6 ADD MSTORE PUSH1 0x60 DUP3 ADD MLOAD DUP4 DUP2 GT PUSH2 0x579 JUMPI DUP3 ADD DUP2 PUSH1 0x1F DUP3 ADD SLT ISZERO PUSH2 0x579 JUMPI DUP2 DUP2 DUP13 PUSH2 0x856 SWAP4 MLOAD SWAP2 ADD PUSH2 0x1B15 JUMP JUMPDEST PUSH1 0x60 DUP6 ADD MSTORE PUSH1 0x80 DUP3 ADD MLOAD DUP4 DUP2 GT PUSH2 0x579 JUMPI DUP2 PUSH2 0x873 SWAP2 DUP5 ADD PUSH2 0x1B4C JUMP JUMPDEST PUSH1 0x80 DUP6 ADD MSTORE PUSH1 0xA0 DUP3 ADD MLOAD DUP4 DUP2 GT PUSH2 0x579 JUMPI DUP2 PUSH2 0x890 SWAP2 DUP5 ADD PUSH2 0x1B4C JUMP JUMPDEST PUSH1 0xA0 DUP6 ADD MSTORE PUSH1 0xC0 DUP3 ADD MLOAD SWAP3 DUP4 GT PUSH2 0x579 JUMPI PUSH1 0xC0 SWAP3 PUSH2 0x8AE SWAP3 ADD PUSH2 0x1B4C JUMP JUMPDEST SWAP2 ADD MSTORE SWAP1 DUP8 PUSH2 0x63A JUMP JUMPDEST DUP2 MLOAD DUP9 DUP2 GT PUSH2 0x579 JUMPI DUP16 SWAP2 PUSH2 0x8D2 DUP9 DUP5 DUP1 SWAP5 DUP9 ADD ADD PUSH2 0x1B4C JUMP JUMPDEST DUP2 MSTORE ADD SWAP2 ADD SWAP1 PUSH2 0x81E JUMP JUMPDEST PUSH1 0x40 MLOAD RETURNDATASIZE PUSH1 0x0 DUP3 RETURNDATACOPY RETURNDATASIZE SWAP1 REVERT JUMPDEST PUSH1 0x40 MLOAD PUSH3 0x461BCD PUSH1 0xE5 SHL DUP2 MSTORE PUSH1 0x4 DUP2 ADD DUP6 SWAP1 MSTORE PUSH1 0x16 PUSH1 0x24 DUP3 ADD MSTORE PUSH22 0x141C9BDA9958DD08185B1C9958591E48199D5B991959 PUSH1 0x52 SHL PUSH1 0x44 DUP3 ADD MSTORE PUSH1 0x64 SWAP1 REVERT JUMPDEST PUSH1 0x64 SWAP1 PUSH1 0x40 MLOAD SWAP1 PUSH3 0x461BCD PUSH1 0xE5 SHL DUP3 MSTORE PUSH1 0x4 DUP3 ADD MSTORE PUSH1 0x1D PUSH1 0x24 DUP3 ADD MSTORE PUSH32 0x416D6F756E74206D7573742062652067726561746572207468616E2030000000 PUSH1 0x44 DUP3 ADD MSTORE REVERT JUMPDEST CALLVALUE PUSH2 0x579 JUMPI PUSH1 0x20 DUP1 PUSH1 0x3 NOT CALLDATASIZE ADD SLT PUSH2 0x579 JUMPI PUSH1 0x4 CALLDATALOAD PUSH1 0x0 MSTORE PUSH1 0x3 DUP1 DUP3 MSTORE PUSH1 0x40 PUSH1 0x0 KECCAK256 SWAP1 PUSH1 0x4 DUP4 MSTORE PUSH1 0x40 PUSH1 0x0 KECCAK256 SWAP2 PUSH1 0x40 MLOAD SWAP3 DUP4 DUP6 DUP3 SLOAD SWAP2 DUP3 DUP2 MSTORE ADD SWAP2 PUSH1 0x0 MSTORE DUP6 PUSH1 0x0 KECCAK256 SWAP1 PUSH1 0x0 JUMPDEST DUP8 DUP3 DUP3 LT PUSH2 0xA57 JUMPI POP POP POP POP DUP4 PUSH2 0x9C9 SWAP2 SUB DUP5 PUSH2 0x18F5 JUMP JUMPDEST PUSH1 0x0 SWAP2 DUP3 SWAP2 PUSH1 0x7 ADD DUP3 JUMPDEST DUP6 MLOAD DUP2 LT ISZERO PUSH2 0xA48 JUMPI PUSH2 0x9E6 DUP2 DUP8 PUSH2 0x1BFA JUMP JUMPDEST MLOAD PUSH1 0x0 MSTORE DUP2 DUP8 MSTORE PUSH1 0x40 PUSH1 0x0 KECCAK256 PUSH1 0x4 DUP2 ADD SLOAD PUSH1 0xFF SWAP1 DUP2 DUP2 AND PUSH2 0xA33 JUMPI JUMPDEST PUSH1 0x8 SHR AND PUSH2 0xA1A JUMPI JUMPDEST POP PUSH2 0xA15 SWAP1 PUSH2 0x1BEB JUMP JUMPDEST PUSH2 0x9D3 JUMP JUMPDEST PUSH2 0xA15 SWAP2 SWAP5 DUP5 PUSH2 0xA2C SWAP3 ADD SLOAD SWAP1 PUSH2 0x1C0E JUMP JUMPDEST SWAP4 SWAP1 PUSH2 0xA0B JUMP JUMPDEST SWAP7 PUSH2 0xA42 SWAP1 DUP7 DUP5 ADD SLOAD SWAP1 PUSH2 0x1C0E JUMP JUMPDEST SWAP7 PUSH2 0xA02 JUMP JUMPDEST PUSH1 0x40 DUP6 DUP6 DUP10 DUP4 MLOAD SWAP3 DUP4 MSTORE DUP3 ADD MSTORE RETURN JUMPDEST DUP4 SLOAD DUP6 MSTORE SWAP1 SWAP4 ADD SWAP3 PUSH1 0x1 SWAP3 DUP4 ADD SWAP3 ADD PUSH2 0x9B1 JUMP JUMPDEST CALLVALUE PUSH2 0x579 JUMPI PUSH1 0x0 CALLDATASIZE PUSH1 0x3 NOT ADD SLT PUSH2 0x579 JUMPI PUSH1 0x20 PUSH1 0x40 MLOAD PUSH1 0x0 DUP2 MSTORE RETURN JUMPDEST CALLVALUE PUSH2 0x579 JUMPI PUSH2 0xA95 CALLDATASIZE PUSH2 0x18B2 JUMP JUMPDEST SWAP1 PUSH1 0x0 MSTORE PUSH1 0x0 PUSH1 0x20 MSTORE PUSH1 0x40 PUSH1 0x0 KECCAK256 SWAP1 PUSH1 0x1 DUP1 PUSH1 0xA0 SHL SUB AND PUSH1 0x0 MSTORE PUSH1 0x20 MSTORE PUSH1 0x20 PUSH1 0xFF PUSH1 0x40 PUSH1 0x0 KECCAK256 SLOAD AND PUSH1 0x40 MLOAD SWAP1 ISZERO ISZERO DUP2 MSTORE RETURN JUMPDEST CALLVALUE PUSH2 0x579 JUMPI PUSH2 0xAD5 CALLDATASIZE PUSH2 0x189C JUMP JUMPDEST SWAP1 PUSH1 0x0 PUSH2 0x140 PUSH1 0x40 MLOAD PUSH2 0xAE7 DUP2 PUSH2 0x18D8 JUMP JUMPDEST DUP3 DUP2 MSTORE DUP3 PUSH1 0x20 DUP3 ADD MSTORE PUSH1 0x60 PUSH1 0x40 DUP3 ADD MSTORE DUP3 PUSH1 0x60 DUP3 ADD MSTORE DUP3 PUSH1 0x80 DUP3 ADD MSTORE DUP3 PUSH1 0xA0 DUP3 ADD MSTORE DUP3 PUSH1 0xC0 DUP3 ADD MSTORE DUP3 PUSH1 0xE0 DUP3 ADD MSTORE PUSH1 0x60 PUSH2 0x100 DUP3 ADD MSTORE DUP3 PUSH2 0x120 DUP3 ADD MSTORE ADD MSTORE PUSH1 0x0 MSTORE PUSH1 0x3 PUSH1 0x20 MSTORE PUSH1 0x7 PUSH1 0x40 PUSH1 0x0 KECCAK256 ADD SWAP1 PUSH1 0x0 MSTORE PUSH1 0x20 MSTORE PUSH1 0x40 PUSH1 0x0 KECCAK256 PUSH1 0x40 MLOAD SWAP1 PUSH2 0xB4F DUP3 PUSH2 0x18D8 JUMP JUMPDEST DUP1 SLOAD DUP3 MSTORE PUSH1 0x1 DUP2 ADD SLOAD PUSH1 0x20 DUP4 ADD MSTORE PUSH2 0xB69 PUSH1 0x2 DUP3 ADD PUSH2 0x1D05 JUMP JUMPDEST PUSH1 0x40 DUP4 ADD MSTORE PUSH1 0x3 DUP2 ADD SLOAD PUSH1 0x60 DUP4 ADD MSTORE PUSH1 0xFF PUSH1 0x4 DUP3 ADD SLOAD DUP2 DUP2 AND ISZERO ISZERO PUSH1 0x80 DUP6 ADD MSTORE PUSH1 0x8 SHR AND ISZERO ISZERO PUSH1 0xA0 DUP4 ADD MSTORE PUSH1 0x5 DUP2 ADD SLOAD PUSH1 0xC0 DUP4 ADD MSTORE PUSH1 0x6 DUP2 ADD SLOAD PUSH1 0xE0 DUP4 ADD MSTORE PUSH2 0xBB4 PUSH1 0x7 DUP3 ADD PUSH2 0x1D05 JUMP JUMPDEST PUSH2 0x100 DUP4 ADD MSTORE PUSH1 0x1 DUP1 PUSH1 0xA0 SHL SUB PUSH1 0x8 DUP3 ADD SLOAD AND PUSH2 0x120 DUP4 ADD MSTORE PUSH1 0x9 PUSH1 0x1 DUP1 PUSH1 0xA0 SHL SUB SWAP2 ADD SLOAD AND PUSH2 0x140 DUP3 ADD MSTORE PUSH1 0x40 MLOAD DUP1 SWAP2 PUSH1 0x20 DUP3 MSTORE DUP1 MLOAD PUSH1 0x20 DUP4 ADD MSTORE PUSH1 0x20 DUP2 ADD MLOAD PUSH1 0x40 DUP4 ADD MSTORE PUSH1 0x40 DUP2 ADD MLOAD PUSH2 0xC69 PUSH2 0xC1A PUSH2 0x160 SWAP3 DUP4 PUSH1 0x60 DUP8 ADD MSTORE PUSH2 0x180 DUP7 ADD SWAP1 PUSH2 0x199D JUMP JUMPDEST PUSH1 0x60 DUP5 ADD MLOAD PUSH1 0x80 DUP7 ADD MSTORE PUSH1 0x80 DUP5 ADD MLOAD ISZERO ISZERO PUSH1 0xA0 DUP7 ADD MSTORE PUSH1 0xA0 DUP5 ADD MLOAD ISZERO ISZERO PUSH1 0xC0 DUP7 ADD MSTORE PUSH1 0xC0 DUP5 ADD MLOAD PUSH1 0xE0 DUP7 ADD MSTORE PUSH1 0xE0 DUP5 ADD MLOAD PUSH2 0x100 DUP7 ADD MSTORE PUSH2 0x100 DUP5 ADD MLOAD PUSH1 0x1F NOT DUP7 DUP4 SUB ADD PUSH2 0x120 DUP8 ADD MSTORE PUSH2 0x199D JUMP JUMPDEST PUSH2 0x120 DUP4 ADD MLOAD PUSH1 0x1 PUSH1 0x1 PUSH1 0xA0 SHL SUB SWAP1 DUP2 AND PUSH2 0x140 DUP7 DUP2 ADD SWAP2 SWAP1 SWAP2 MSTORE SWAP1 SWAP4 ADD MLOAD SWAP1 SWAP3 AND SWAP1 DUP4 ADD MSTORE SUB SWAP1 RETURN JUMPDEST CALLVALUE PUSH2 0x579 JUMPI PUSH1 0x0 CALLDATASIZE PUSH1 0x3 NOT ADD SLT PUSH2 0x579 JUMPI PUSH1 0x20 PUSH1 0x40 MLOAD PUSH9 0x3635C9ADC5DEA00000 DUP2 MSTORE RETURN JUMPDEST CALLVALUE PUSH2 0x579 JUMPI PUSH1 0x0 CALLDATASIZE PUSH1 0x3 NOT ADD SLT PUSH2 0x579 JUMPI PUSH2 0xCD0 PUSH2 0x19C2 JUMP JUMPDEST PUSH2 0xCD8 PUSH2 0x1BAA JUMP JUMPDEST PUSH1 0x1 PUSH1 0xFF NOT PUSH1 0x2 SLOAD AND OR PUSH1 0x2 SSTORE PUSH32 0x62E78CEA01BEE320CD4E420270B5EA74000D11B0C9F74754EBDBFC544B05A258 PUSH1 0x20 PUSH1 0x40 MLOAD CALLER DUP2 MSTORE LOG1 STOP JUMPDEST CALLVALUE PUSH2 0x579 JUMPI PUSH1 0x60 CALLDATASIZE PUSH1 0x3 NOT ADD SLT PUSH2 0x579 JUMPI PUSH8 0xFFFFFFFFFFFFFFFF PUSH1 0x24 CALLDATALOAD PUSH1 0x4 CALLDATALOAD PUSH1 0x44 CALLDATALOAD DUP4 DUP2 GT PUSH2 0x579 JUMPI PUSH2 0xD49 SWAP1 CALLDATASIZE SWAP1 PUSH1 0x4 ADD PUSH2 0x1933 JUMP JUMPDEST PUSH2 0xD51 PUSH2 0x1BC8 JUMP JUMPDEST DUP2 PUSH1 0x0 MSTORE PUSH1 0x20 SWAP1 PUSH1 0x3 DUP3 MSTORE PUSH1 0x7 PUSH1 0x40 PUSH1 0x0 KECCAK256 ADD DUP5 PUSH1 0x0 MSTORE DUP3 MSTORE PUSH1 0x40 PUSH1 0x0 KECCAK256 PUSH1 0x1 SWAP6 PUSH2 0xD80 DUP6 DUP9 DUP5 ADD SLOAD EQ PUSH2 0x1C55 JUMP JUMPDEST PUSH1 0x4 DUP3 ADD DUP1 SLOAD PUSH1 0xFF DUP2 AND PUSH2 0xF78 JUMPI DUP5 MLOAD ISZERO PUSH2 0xF33 JUMPI PUSH1 0xFF NOT AND DUP9 OR SWAP1 SSTORE TIMESTAMP PUSH1 0x5 DUP4 ADD SSTORE DUP3 MLOAD PUSH1 0x7 DUP4 ADD SWAP2 DUP2 GT PUSH2 0x389 JUMPI PUSH2 0xDBA DUP3 SLOAD PUSH2 0x1C1B JUMP JUMPDEST PUSH1 0x1F DUP2 GT PUSH2 0xEEA JUMPI JUMPDEST POP DUP5 PUSH1 0x1F DUP3 GT PUSH1 0x1 EQ PUSH2 0xE59 JUMPI PUSH32 0xAC864CF4FF524B962B342D243BB24951F3E0D8C001EE164D65910E8BB5C3F69D SWAP6 SWAP4 PUSH2 0xE47 SWAP4 DUP4 PUSH1 0x40 SWAP8 SWAP5 PUSH1 0x8 SWAP5 PUSH1 0x0 SWAP2 PUSH2 0xE4E JUMPI JUMPDEST POP PUSH1 0x0 NOT PUSH1 0x3 DUP4 SWAP1 SHL SHR NOT AND SWAP1 DUP13 SHL OR SWAP1 SSTORE JUMPDEST ADD CALLER PUSH12 0xFFFFFFFFFFFFFFFFFFFFFFFF PUSH1 0xA0 SHL DUP3 SLOAD AND OR SWAP1 SSTORE DUP4 MLOAD SWAP4 DUP5 SWAP4 CALLER DUP6 MSTORE DUP5 ADD MSTORE PUSH1 0x40 DUP4 ADD SWAP1 PUSH2 0x199D JUMP JUMPDEST SUB SWAP1 LOG3 DUP1 SSTORE STOP JUMPDEST SWAP1 POP DUP6 ADD MLOAD DUP14 PUSH2 0xE07 JUMP JUMPDEST SWAP1 DUP9 SWAP2 PUSH1 0x1F NOT DUP3 AND SWAP1 DUP5 PUSH1 0x0 MSTORE DUP8 PUSH1 0x0 KECCAK256 SWAP2 PUSH1 0x0 JUMPDEST DUP2 DUP2 LT PUSH2 0xED3 JUMPI POP SWAP4 DUP4 PUSH32 0xAC864CF4FF524B962B342D243BB24951F3E0D8C001EE164D65910E8BB5C3F69D SWAP10 SWAP8 SWAP4 PUSH2 0xE47 SWAP8 SWAP4 PUSH1 0x8 SWAP7 PUSH1 0x40 SWAP12 SWAP9 LT PUSH2 0xEBA JUMPI JUMPDEST POP POP DUP2 SHL ADD SWAP1 SSTORE PUSH2 0xE1A JUMP JUMPDEST DUP8 ADD MLOAD PUSH1 0x0 NOT PUSH1 0xF8 DUP5 PUSH1 0x3 SHL AND SHR NOT AND SWAP1 SSTORE DUP14 DUP1 PUSH2 0xEAE JUMP JUMPDEST DUP9 DUP4 ADD MLOAD DUP5 SSTORE DUP13 SWAP6 SWAP1 SWAP4 ADD SWAP3 SWAP2 DUP10 ADD SWAP2 DUP10 ADD PUSH2 0xE6E JUMP JUMPDEST DUP3 PUSH1 0x0 MSTORE DUP6 PUSH1 0x0 KECCAK256 PUSH1 0x1F DUP4 ADD PUSH1 0x5 SHR DUP2 ADD SWAP2 DUP8 DUP5 LT PUSH2 0xF29 JUMPI JUMPDEST PUSH1 0x1F ADD PUSH1 0x5 SHR ADD SWAP1 DUP10 SWAP1 JUMPDEST DUP3 DUP2 LT PUSH2 0xF1D JUMPI POP POP PUSH2 0xDC3 JUMP JUMPDEST PUSH1 0x0 DUP2 SSTORE ADD DUP10 SWAP1 PUSH2 0xF0F JUMP JUMPDEST SWAP1 SWAP2 POP DUP2 SWAP1 PUSH2 0xF04 JUMP JUMPDEST PUSH1 0x40 MLOAD PUSH3 0x461BCD PUSH1 0xE5 SHL DUP2 MSTORE PUSH1 0x4 DUP2 ADD DUP8 SWAP1 MSTORE PUSH1 0x1B PUSH1 0x24 DUP3 ADD MSTORE PUSH32 0x566572696669636174696F6E2070726F6F662072657175697265640000000000 PUSH1 0x44 DUP3 ADD MSTORE PUSH1 0x64 SWAP1 REVERT JUMPDEST PUSH1 0x40 MLOAD PUSH3 0x461BCD PUSH1 0xE5 SHL DUP2 MSTORE PUSH1 0x4 DUP2 ADD DUP8 SWAP1 MSTORE PUSH1 0x1B PUSH1 0x24 DUP3 ADD MSTORE PUSH32 0x4D696C6573746F6E6520616C726561647920636F6D706C657465640000000000 PUSH1 0x44 DUP3 ADD MSTORE PUSH1 0x64 SWAP1 REVERT JUMPDEST CALLVALUE PUSH2 0x579 JUMPI PUSH1 0x0 CALLDATASIZE PUSH1 0x3 NOT ADD SLT PUSH2 0x579 JUMPI PUSH1 0x20 PUSH1 0xFF PUSH1 0x2 SLOAD AND PUSH1 0x40 MLOAD SWAP1 ISZERO ISZERO DUP2 MSTORE RETURN JUMPDEST CALLVALUE PUSH2 0x579 JUMPI PUSH1 0x0 CALLDATASIZE PUSH1 0x3 NOT ADD SLT PUSH2 0x579 JUMPI PUSH1 0x2 SLOAD PUSH1 0x40 MLOAD PUSH1 0x8 SWAP2 SWAP1 SWAP2 SHR PUSH1 0x1 PUSH1 0x1 PUSH1 0xA0 SHL SUB AND DUP2 MSTORE PUSH1 0x20 SWAP1 RETURN JUMPDEST CALLVALUE PUSH2 0x579 JUMPI PUSH1 0x20 CALLDATASIZE PUSH1 0x3 NOT ADD SLT PUSH2 0x579 JUMPI PUSH1 0x4 CALLDATALOAD PUSH1 0x0 MSTORE PUSH1 0x3 PUSH1 0x20 MSTORE PUSH1 0xE0 PUSH1 0x40 PUSH1 0x0 KECCAK256 DUP1 SLOAD SWAP1 PUSH1 0x1 DUP2 ADD SLOAD SWAP1 PUSH1 0x2 DUP2 ADD SLOAD PUSH1 0x3 DUP3 ADD SLOAD PUSH1 0xFF PUSH1 0x4 DUP5 ADD SLOAD AND SWAP2 PUSH1 0x6 PUSH1 0x5 DUP6 ADD SLOAD SWAP5 ADD SLOAD SWAP5 PUSH1 0x40 MLOAD SWAP7 DUP8 MSTORE PUSH1 0x20 DUP8 ADD MSTORE PUSH1 0x40 DUP7 ADD MSTORE PUSH1 0x60 DUP6 ADD MSTORE ISZERO ISZERO PUSH1 0x80 DUP5 ADD MSTORE PUSH1 0xA0 DUP4 ADD MSTORE PUSH1 0xC0 DUP3 ADD MSTORE RETURN JUMPDEST CALLVALUE PUSH2 0x579 JUMPI PUSH1 0x20 DUP1 PUSH1 0x3 NOT CALLDATASIZE ADD SLT PUSH2 0x579 JUMPI PUSH1 0x4 CALLDATALOAD PUSH1 0x0 MSTORE PUSH1 0x4 DUP2 MSTORE PUSH1 0x40 PUSH1 0x0 KECCAK256 PUSH1 0x40 MLOAD SWAP1 DUP2 DUP4 DUP3 SLOAD SWAP2 DUP3 DUP2 MSTORE ADD SWAP1 DUP2 SWAP3 PUSH1 0x0 MSTORE DUP5 PUSH1 0x0 KECCAK256 SWAP1 PUSH1 0x0 JUMPDEST DUP7 DUP3 DUP3 LT PUSH2 0x1111 JUMPI DUP7 DUP7 PUSH2 0x10D1 DUP3 DUP9 SUB DUP4 PUSH2 0x18F5 JUMP JUMPDEST PUSH1 0x40 MLOAD SWAP3 DUP4 SWAP3 DUP2 DUP5 ADD SWAP1 DUP3 DUP6 MSTORE MLOAD DUP1 SWAP2 MSTORE PUSH1 0x40 DUP5 ADD SWAP3 SWAP2 PUSH1 0x0 JUMPDEST DUP3 DUP2 LT PUSH2 0x10FA JUMPI POP POP POP POP SUB SWAP1 RETURN JUMPDEST DUP4 MLOAD DUP6 MSTORE DUP7 SWAP6 POP SWAP4 DUP2 ADD SWAP4 SWAP3 DUP2 ADD SWAP3 PUSH1 0x1 ADD PUSH2 0x10EB JUMP JUMPDEST DUP4 SLOAD DUP6 MSTORE SWAP1 SWAP4 ADD SWAP3 PUSH1 0x1 SWAP3 DUP4 ADD SWAP3 ADD PUSH2 0x10BB JUMP JUMPDEST CALLVALUE PUSH2 0x579 JUMPI PUSH1 0x0 CALLDATASIZE PUSH1 0x3 NOT ADD SLT PUSH2 0x579 JUMPI PUSH1 0x20 PUSH1 0x40 MLOAD PUSH32 0xD565E3FC066DF348A5CBC05A8D6323E00552838041CEA2D84CC59876BA37735D DUP2 MSTORE RETURN JUMPDEST CALLVALUE PUSH2 0x579 JUMPI PUSH1 0x0 CALLDATASIZE PUSH1 0x3 NOT ADD SLT PUSH2 0x579 JUMPI PUSH2 0x1179 PUSH2 0x19C2 JUMP JUMPDEST PUSH1 0x2 SLOAD PUSH1 0xFF DUP2 AND ISZERO PUSH2 0x11B8 JUMPI PUSH1 0xFF NOT AND PUSH1 0x2 SSTORE PUSH32 0x5DB9EE0A495BF2E6FF9C91A7834C1BA4FDD244A5E8AA4E537BD38AEAE4B073AA PUSH1 0x20 PUSH1 0x40 MLOAD CALLER DUP2 MSTORE LOG1 STOP JUMPDEST PUSH1 0x40 MLOAD PUSH4 0x8DFC202B PUSH1 0xE0 SHL DUP2 MSTORE PUSH1 0x4 SWAP1 REVERT JUMPDEST CALLVALUE PUSH2 0x579 JUMPI PUSH1 0x40 CALLDATASIZE PUSH1 0x3 NOT ADD SLT PUSH2 0x579 JUMPI PUSH1 0x4 CALLDATALOAD PUSH1 0x24 CALLDATALOAD PUSH8 0xFFFFFFFFFFFFFFFF DUP2 GT PUSH2 0x579 JUMPI PUSH2 0x11FE SWAP1 CALLDATASIZE SWAP1 PUSH1 0x4 ADD PUSH2 0x1933 JUMP JUMPDEST SWAP1 PUSH2 0x1207 PUSH2 0x19C2 JUMP JUMPDEST PUSH2 0x120F PUSH2 0x1BC8 JUMP JUMPDEST DUP2 MLOAD ISZERO PUSH2 0x12D0 JUMPI DUP1 PUSH1 0x0 MSTORE PUSH1 0x3 PUSH1 0x20 MSTORE PUSH1 0x3 PUSH1 0x40 PUSH1 0x0 KECCAK256 ADD DUP1 SLOAD DUP1 ISZERO PUSH2 0x1294 JUMPI PUSH1 0x0 PUSH32 0x5FA22300A932153A37B19AAD103EF8FF9A6C00E3C5E73C8B165D404E8776B8F3 SWAP3 SSTORE PUSH2 0x126E PUSH1 0x0 DUP1 DUP1 DUP1 DUP6 CALLER GAS CALL PUSH2 0x1268 PUSH2 0x1C97 JUMP JUMPDEST POP PUSH2 0x1CC7 JUMP JUMPDEST PUSH1 0x40 MLOAD SWAP1 DUP2 MSTORE PUSH1 0x40 PUSH1 0x20 DUP3 ADD MSTORE DUP1 PUSH2 0x128B CALLER SWAP6 PUSH1 0x40 DUP4 ADD SWAP1 PUSH2 0x199D JUMP JUMPDEST SUB SWAP1 LOG3 PUSH1 0x1 DUP1 SSTORE STOP JUMPDEST PUSH1 0x40 MLOAD PUSH3 0x461BCD PUSH1 0xE5 SHL DUP2 MSTORE PUSH1 0x20 PUSH1 0x4 DUP3 ADD MSTORE PUSH1 0x14 PUSH1 0x24 DUP3 ADD MSTORE PUSH20 0x4E6F2066756E647320746F207769746864726177 PUSH1 0x60 SHL PUSH1 0x44 DUP3 ADD MSTORE PUSH1 0x64 SWAP1 REVERT JUMPDEST PUSH1 0x40 MLOAD PUSH3 0x461BCD PUSH1 0xE5 SHL DUP2 MSTORE PUSH1 0x20 PUSH1 0x4 DUP3 ADD MSTORE PUSH1 0xF PUSH1 0x24 DUP3 ADD MSTORE PUSH15 0x1499585CDBDB881C995C5D5A5C9959 PUSH1 0x8A SHL PUSH1 0x44 DUP3 ADD MSTORE PUSH1 0x64 SWAP1 REVERT JUMPDEST CALLVALUE PUSH2 0x579 JUMPI PUSH2 0x1315 CALLDATASIZE PUSH2 0x18B2 JUMP JUMPDEST CALLER PUSH1 0x1 PUSH1 0x1 PUSH1 0xA0 SHL SUB DUP3 AND SUB PUSH2 0x132E JUMPI PUSH2 0x1B SWAP2 PUSH2 0x1AA0 JUMP JUMPDEST PUSH1 0x40 MLOAD PUSH4 0x334BD919 PUSH1 0xE1 SHL DUP2 MSTORE PUSH1 0x4 SWAP1 REVERT JUMPDEST CALLVALUE PUSH2 0x579 JUMPI PUSH1 0x20 CALLDATASIZE PUSH1 0x3 NOT ADD SLT PUSH2 0x579 JUMPI PUSH1 0x4 CALLDATALOAD PUSH1 0x0 MSTORE PUSH1 0x6 PUSH1 0x20 MSTORE PUSH1 0x20 PUSH1 0x40 PUSH1 0x0 KECCAK256 SLOAD PUSH1 0x40 MLOAD SWAP1 DUP2 MSTORE RETURN JUMPDEST CALLVALUE PUSH2 0x579 JUMPI PUSH2 0x1B PUSH2 0x137D CALLDATASIZE PUSH2 0x18B2 JUMP JUMPDEST SWAP1 DUP1 PUSH1 0x0 MSTORE PUSH1 0x0 PUSH1 0x20 MSTORE PUSH2 0x1398 PUSH1 0x1 PUSH1 0x40 PUSH1 0x0 KECCAK256 ADD SLOAD PUSH2 0x19FC JUMP JUMPDEST PUSH2 0x1A22 JUMP JUMPDEST CALLVALUE PUSH2 0x579 JUMPI PUSH1 0x20 CALLDATASIZE PUSH1 0x3 NOT ADD SLT PUSH2 0x579 JUMPI PUSH1 0x4 CALLDATALOAD PUSH1 0x0 MSTORE PUSH1 0x0 PUSH1 0x20 MSTORE PUSH1 0x20 PUSH1 0x1 PUSH1 0x40 PUSH1 0x0 KECCAK256 ADD SLOAD PUSH1 0x40 MLOAD SWAP1 DUP2 MSTORE RETURN JUMPDEST CALLVALUE PUSH2 0x579 JUMPI PUSH2 0x13DA CALLDATASIZE PUSH2 0x189C JUMP JUMPDEST CALLER PUSH1 0x0 SWAP1 DUP2 MSTORE PUSH32 0xFD954C8947FDC98546445B97ED0B40D4F2E212D6308D6BAACD84BD7753623989 PUSH1 0x20 SWAP1 DUP2 MSTORE PUSH1 0x40 SWAP1 SWAP2 KECCAK256 SLOAD SWAP1 SWAP3 SWAP1 PUSH32 0xD565E3FC066DF348A5CBC05A8D6323E00552838041CEA2D84CC59876BA37735D SWAP1 PUSH1 0xFF AND ISZERO PUSH2 0x17FF JUMPI POP PUSH2 0x1442 PUSH2 0x1BC8 JUMP JUMPDEST PUSH2 0x144A PUSH2 0x1BAA JUMP JUMPDEST DUP1 PUSH1 0x0 MSTORE PUSH1 0x3 DUP4 MSTORE PUSH1 0x7 PUSH1 0x40 PUSH1 0x0 KECCAK256 ADD DUP3 PUSH1 0x0 MSTORE DUP4 MSTORE PUSH1 0x40 PUSH1 0x0 KECCAK256 PUSH2 0x1474 DUP3 PUSH1 0x1 DUP4 ADD SLOAD EQ PUSH2 0x1C55 JUMP JUMPDEST PUSH1 0x4 DUP2 ADD DUP1 SLOAD PUSH1 0xFF DUP2 AND ISZERO PUSH2 0x17BA JUMPI PUSH1 0xFF DUP2 PUSH1 0x8 SHR AND PUSH2 0x1775 JUMPI SWAP1 PUSH2 0x100 PUSH1 0x9 SWAP4 SWAP3 PUSH2 0xFF00 NOT AND OR SWAP1 SSTORE TIMESTAMP PUSH1 0x6 DUP3 ADD SSTORE ADD CALLER PUSH12 0xFFFFFFFFFFFFFFFFFFFFFFFF PUSH1 0xA0 SHL DUP3 SLOAD AND OR SWAP1 SSTORE DUP2 DUP2 PUSH32 0x9FFBB52F2A1362273CD74689A516CA4F52C4282DC13E2E68B7E0646A9A7AF7A3 DUP6 PUSH1 0x40 MLOAD CALLER DUP2 MSTORE LOG3 DUP1 PUSH1 0x0 MSTORE PUSH1 0x3 DUP4 MSTORE PUSH1 0x40 PUSH1 0x0 KECCAK256 SWAP3 DUP3 PUSH1 0x0 MSTORE PUSH1 0x7 DUP5 ADD DUP2 MSTORE PUSH1 0x40 PUSH1 0x0 KECCAK256 PUSH1 0xFF PUSH1 0x4 DUP3 ADD SLOAD PUSH1 0x8 SHR AND ISZERO PUSH2 0x1737 JUMPI PUSH1 0x3 DUP6 SLOAD SWAP2 ADD SLOAD SWAP1 DUP2 DUP2 MUL SWAP2 DUP2 DUP4 DIV EQ SWAP1 ISZERO OR ISZERO PUSH2 0x1646 JUMPI PUSH1 0x64 SWAP1 DIV SWAP1 PUSH1 0x3 DUP6 ADD SWAP2 PUSH2 0x1543 DUP2 DUP5 SLOAD LT ISZERO PUSH2 0x1B69 JUMP JUMPDEST PUSH3 0x15180 TIMESTAMP DIV DUP5 PUSH1 0x0 MSTORE PUSH1 0x7 DUP4 MSTORE DUP1 PUSH1 0x40 PUSH1 0x0 KECCAK256 SLOAD SUB PUSH2 0x171C JUMPI JUMPDEST POP PUSH1 0x6 DUP3 MSTORE PUSH9 0x3635C9ADC5DEA00000 PUSH2 0x157C DUP3 PUSH1 0x40 PUSH1 0x0 KECCAK256 SLOAD PUSH2 0x1C0E JUMP JUMPDEST GT PUSH2 0x16D7 JUMPI PUSH1 0x2 SLOAD PUSH1 0x40 MLOAD PUSH1 0x1 PUSH3 0x453D23 PUSH1 0xE1 SHL SUB NOT DUP2 MSTORE PUSH1 0x4 DUP2 ADD DUP7 SWAP1 MSTORE PUSH1 0x1 PUSH1 0x1 PUSH1 0xA0 SHL SUB SWAP2 DUP5 SWAP1 DUP3 SWAP1 PUSH1 0x24 SWAP1 DUP3 SWAP1 PUSH1 0x8 SHR DUP7 AND GAS STATICCALL SWAP1 DUP2 ISZERO PUSH2 0x8DD JUMPI PUSH1 0x0 SWAP2 PUSH2 0x16A1 JUMPI JUMPDEST POP AND SWAP6 DUP7 ISZERO PUSH2 0x165C JUMPI PUSH1 0x2 ADD PUSH2 0x15DA DUP3 DUP3 SLOAD PUSH2 0x1C0E JUMP JUMPDEST SWAP1 SSTORE DUP3 SLOAD DUP2 DUP2 SUB SWAP1 DUP2 GT PUSH2 0x1646 JUMPI PUSH32 0xD5EB304362FFE48045A3AE2ED7E0D2CFED08EB62F44DC87C694D42606E8205D9 SWAP4 SSTORE DUP4 PUSH1 0x0 MSTORE PUSH1 0x6 DUP3 MSTORE PUSH1 0x40 PUSH1 0x0 KECCAK256 PUSH2 0x1623 DUP3 DUP3 SLOAD PUSH2 0x1C0E JUMP JUMPDEST SWAP1 SSTORE PUSH2 0x1639 PUSH1 0x0 DUP1 DUP1 DUP1 DUP6 DUP12 GAS CALL PUSH2 0x1268 PUSH2 0x1C97 JUMP JUMPDEST PUSH1 0x40 MLOAD SWAP1 DUP2 MSTORE LOG4 PUSH1 0x1 DUP1 SSTORE STOP JUMPDEST PUSH4 0x4E487B71 PUSH1 0xE0 SHL PUSH1 0x0 MSTORE PUSH1 0x11 PUSH1 0x4 MSTORE PUSH1 0x24 PUSH1 0x0 REVERT JUMPDEST PUSH1 0x40 MLOAD PUSH3 0x461BCD PUSH1 0xE5 SHL DUP2 MSTORE PUSH1 0x4 DUP2 ADD DUP5 SWAP1 MSTORE PUSH1 0x1A PUSH1 0x24 DUP3 ADD MSTORE PUSH32 0x496E76616C696420636F6E74726163746F722061646472657373000000000000 PUSH1 0x44 DUP3 ADD MSTORE PUSH1 0x64 SWAP1 REVERT JUMPDEST SWAP1 POP DUP4 DUP2 DUP2 RETURNDATASIZE DUP4 GT PUSH2 0x16D0 JUMPI JUMPDEST PUSH2 0x16B8 DUP2 DUP4 PUSH2 0x18F5 JUMP JUMPDEST DUP2 ADD SUB SLT PUSH2 0x579 JUMPI MLOAD DUP2 DUP2 AND DUP2 SUB PUSH2 0x579 JUMPI DUP9 PUSH2 0x15C3 JUMP JUMPDEST POP RETURNDATASIZE PUSH2 0x16AE JUMP JUMPDEST PUSH1 0x40 MLOAD PUSH3 0x461BCD PUSH1 0xE5 SHL DUP2 MSTORE PUSH1 0x4 DUP2 ADD DUP4 SWAP1 MSTORE PUSH1 0x1F PUSH1 0x24 DUP3 ADD MSTORE PUSH32 0x4461696C79207769746864726177616C206C696D697420657863656564656400 PUSH1 0x44 DUP3 ADD MSTORE PUSH1 0x64 SWAP1 REVERT JUMPDEST PUSH1 0x6 DUP4 MSTORE PUSH1 0x0 PUSH1 0x40 DUP2 KECCAK256 SSTORE PUSH1 0x7 DUP4 MSTORE PUSH1 0x40 PUSH1 0x0 KECCAK256 SSTORE DUP7 PUSH2 0x155E JUMP JUMPDEST PUSH1 0x40 MLOAD PUSH3 0x461BCD PUSH1 0xE5 SHL DUP2 MSTORE PUSH1 0x4 DUP2 ADD DUP4 SWAP1 MSTORE PUSH1 0x16 PUSH1 0x24 DUP3 ADD MSTORE PUSH22 0x135A5B195CDD1BDB99481B9BDD08185C1C1C9BDD9959 PUSH1 0x52 SHL PUSH1 0x44 DUP3 ADD MSTORE PUSH1 0x64 SWAP1 REVERT JUMPDEST PUSH1 0x40 MLOAD PUSH3 0x461BCD PUSH1 0xE5 SHL DUP2 MSTORE PUSH1 0x4 DUP2 ADD DUP8 SWAP1 MSTORE PUSH1 0x1A PUSH1 0x24 DUP3 ADD MSTORE PUSH32 0x4D696C6573746F6E6520616C726561647920617070726F766564000000000000 PUSH1 0x44 DUP3 ADD MSTORE PUSH1 0x64 SWAP1 REVERT JUMPDEST PUSH1 0x40 MLOAD PUSH3 0x461BCD PUSH1 0xE5 SHL DUP2 MSTORE PUSH1 0x4 DUP2 ADD DUP8 SWAP1 MSTORE PUSH1 0x17 PUSH1 0x24 DUP3 ADD MSTORE PUSH32 0x4D696C6573746F6E65206E6F7420636F6D706C65746564000000000000000000 PUSH1 0x44 DUP3 ADD MSTORE PUSH1 0x64 SWAP1 REVERT JUMPDEST PUSH1 0x44 SWAP1 PUSH1 0x40 MLOAD SWAP1 PUSH4 0xE2517D3F PUSH1 0xE0 SHL DUP3 MSTORE CALLER PUSH1 0x4 DUP4 ADD MSTORE PUSH1 0x24 DUP3 ADD MSTORE REVERT JUMPDEST CALLVALUE PUSH2 0x579 JUMPI PUSH1 0x20 CALLDATASIZE PUSH1 0x3 NOT ADD SLT PUSH2 0x579 JUMPI PUSH1 0x4 CALLDATALOAD PUSH1 0x0 MSTORE PUSH1 0x7 PUSH1 0x20 MSTORE PUSH1 0x20 PUSH1 0x40 PUSH1 0x0 KECCAK256 SLOAD PUSH1 0x40 MLOAD SWAP1 DUP2 MSTORE RETURN JUMPDEST CALLVALUE PUSH2 0x579 JUMPI PUSH1 0x20 CALLDATASIZE PUSH1 0x3 NOT ADD SLT PUSH2 0x579 JUMPI PUSH1 0x4 CALLDATALOAD SWAP1 PUSH4 0xFFFFFFFF PUSH1 0xE0 SHL DUP3 AND DUP1 SWAP3 SUB PUSH2 0x579 JUMPI PUSH1 0x20 SWAP2 PUSH4 0x7965DB0B PUSH1 0xE0 SHL DUP2 EQ SWAP1 DUP2 ISZERO PUSH2 0x188B JUMPI JUMPDEST POP ISZERO ISZERO DUP2 MSTORE RETURN JUMPDEST PUSH4 0x1FFC9A7 PUSH1 0xE0 SHL EQ SWAP1 POP DUP4 PUSH2 0x1884 JUMP JUMPDEST PUSH1 0x40 SWAP1 PUSH1 0x3 NOT ADD SLT PUSH2 0x579 JUMPI PUSH1 0x4 CALLDATALOAD SWAP1 PUSH1 0x24 CALLDATALOAD SWAP1 JUMP JUMPDEST PUSH1 0x40 SWAP1 PUSH1 0x3 NOT ADD SLT PUSH2 0x579 JUMPI PUSH1 0x4 CALLDATALOAD SWAP1 PUSH1 0x24 CALLDATALOAD PUSH1 0x1 PUSH1 0x1 PUSH1 0xA0 SHL SUB DUP2 AND DUP2 SUB PUSH2 0x579 JUMPI SWAP1 JUMP JUMPDEST PUSH2 0x160 DUP2 ADD SWAP1 DUP2 LT PUSH8 0xFFFFFFFFFFFFFFFF DUP3 GT OR PUSH2 0x389 JUMPI PUSH1 0x40 MSTORE JUMP JUMPDEST SWAP1 PUSH1 0x1F DUP1 NOT SWAP2 ADD AND DUP2 ADD SWAP1 DUP2 LT PUSH8 0xFFFFFFFFFFFFFFFF DUP3 GT OR PUSH2 0x389 JUMPI PUSH1 0x40 MSTORE JUMP JUMPDEST PUSH8 0xFFFFFFFFFFFFFFFF DUP2 GT PUSH2 0x389 JUMPI PUSH1 0x1F ADD PUSH1 0x1F NOT AND PUSH1 0x20 ADD SWAP1 JUMP JUMPDEST DUP2 PUSH1 0x1F DUP3 ADD SLT ISZERO PUSH2 0x579 JUMPI DUP1 CALLDATALOAD SWAP1 PUSH2 0x194A DUP3 PUSH2 0x1917 JUMP JUMPDEST SWAP3 PUSH2 0x1958 PUSH1 0x40 MLOAD SWAP5 DUP6 PUSH2 0x18F5 JUMP JUMPDEST DUP3 DUP5 MSTORE PUSH1 0x20 DUP4 DUP4 ADD ADD GT PUSH2 0x579 JUMPI DUP2 PUSH1 0x0 SWAP3 PUSH1 0x20 DUP1 SWAP4 ADD DUP4 DUP7 ADD CALLDATACOPY DUP4 ADD ADD MSTORE SWAP1 JUMP JUMPDEST PUSH1 0x0 JUMPDEST DUP4 DUP2 LT PUSH2 0x198D JUMPI POP POP PUSH1 0x0 SWAP2 ADD MSTORE JUMP JUMPDEST DUP2 DUP2 ADD MLOAD DUP4 DUP3 ADD MSTORE PUSH1 0x20 ADD PUSH2 0x197D JUMP JUMPDEST SWAP1 PUSH1 0x20 SWAP2 PUSH2 0x19B6 DUP2 MLOAD DUP1 SWAP3 DUP2 DUP6 MSTORE DUP6 DUP1 DUP7 ADD SWAP2 ADD PUSH2 0x197A JUMP JUMPDEST PUSH1 0x1F ADD PUSH1 0x1F NOT AND ADD ADD SWAP1 JUMP JUMPDEST CALLER PUSH1 0x0 SWAP1 DUP2 MSTORE PUSH32 0xAD3228B676F7D3CD4284A5443F17F1962B36E491B30A40B2405849E597BA5FB5 PUSH1 0x20 MSTORE PUSH1 0x40 DUP2 KECCAK256 SLOAD PUSH1 0xFF AND ISZERO PUSH2 0x17FF JUMPI POP JUMP JUMPDEST DUP1 PUSH1 0x0 MSTORE PUSH1 0x0 PUSH1 0x20 MSTORE PUSH1 0x40 PUSH1 0x0 KECCAK256 CALLER PUSH1 0x0 MSTORE PUSH1 0x20 MSTORE PUSH1 0xFF PUSH1 0x40 PUSH1 0x0 KECCAK256 SLOAD AND ISZERO PUSH2 0x17FF JUMPI POP JUMP JUMPDEST SWAP1 PUSH1 0x0 SWAP2 DUP1 DUP4 MSTORE DUP3 PUSH1 0x20 MSTORE PUSH1 0x40 DUP4 KECCAK256 SWAP2 PUSH1 0x1 DUP1 PUSH1 0xA0 SHL SUB AND SWAP2 DUP3 DUP5 MSTORE PUSH1 0x20 MSTORE PUSH1 0xFF PUSH1 0x40 DUP5 KECCAK256 SLOAD AND ISZERO PUSH1 0x0 EQ PUSH2 0x1A9B JUMPI DUP1 DUP4 MSTORE DUP3 PUSH1 0x20 MSTORE PUSH1 0x40 DUP4 KECCAK256 DUP3 DUP5 MSTORE PUSH1 0x20 MSTORE PUSH1 0x40 DUP4 KECCAK256 PUSH1 0x1 PUSH1 0xFF NOT DUP3 SLOAD AND OR SWAP1 SSTORE PUSH32 0x2F8788117E7EFF1D82E926EC794901D17C78024A50270940304540A733656F0D CALLER SWAP4 DUP1 LOG4 PUSH1 0x1 SWAP1 JUMP JUMPDEST POP POP SWAP1 JUMP JUMPDEST SWAP1 PUSH1 0x0 SWAP2 DUP1 DUP4 MSTORE DUP3 PUSH1 0x20 MSTORE PUSH1 0x40 DUP4 KECCAK256 SWAP2 PUSH1 0x1 DUP1 PUSH1 0xA0 SHL SUB AND SWAP2 DUP3 DUP5 MSTORE PUSH1 0x20 MSTORE PUSH1 0xFF PUSH1 0x40 DUP5 KECCAK256 SLOAD AND PUSH1 0x0 EQ PUSH2 0x1A9B JUMPI DUP1 DUP4 MSTORE DUP3 PUSH1 0x20 MSTORE PUSH1 0x40 DUP4 KECCAK256 DUP3 DUP5 MSTORE PUSH1 0x20 MSTORE PUSH1 0x40 DUP4 KECCAK256 PUSH1 0xFF NOT DUP2 SLOAD AND SWAP1 SSTORE PUSH32 0xF6391F5C32D9C69D2A47EA670B442974B53935D1EDC7FD64EB21E047A839171B CALLER SWAP4 DUP1 LOG4 PUSH1 0x1 SWAP1 JUMP JUMPDEST SWAP1 SWAP3 SWAP2 SWAP3 PUSH2 0x1B22 DUP2 PUSH2 0x1917 JUMP JUMPDEST SWAP2 PUSH2 0x1B30 PUSH1 0x40 MLOAD SWAP4 DUP5 PUSH2 0x18F5 JUMP JUMPDEST DUP3 SWAP5 DUP3 DUP5 MSTORE DUP3 DUP3 ADD GT PUSH2 0x579 JUMPI PUSH1 0x20 PUSH2 0x1B4A SWAP4 ADD SWAP1 PUSH2 0x197A JUMP JUMPDEST JUMP JUMPDEST SWAP1 DUP1 PUSH1 0x1F DUP4 ADD SLT ISZERO PUSH2 0x579 JUMPI DUP2 MLOAD PUSH2 0x1B66 SWAP3 PUSH1 0x20 ADD PUSH2 0x1B15 JUMP JUMPDEST SWAP1 JUMP JUMPDEST ISZERO PUSH2 0x1B70 JUMPI JUMP JUMPDEST PUSH1 0x40 MLOAD PUSH3 0x461BCD PUSH1 0xE5 SHL DUP2 MSTORE PUSH1 0x20 PUSH1 0x4 DUP3 ADD MSTORE PUSH1 0x12 PUSH1 0x24 DUP3 ADD MSTORE PUSH18 0x496E73756666696369656E742066756E6473 PUSH1 0x70 SHL PUSH1 0x44 DUP3 ADD MSTORE PUSH1 0x64 SWAP1 REVERT JUMPDEST PUSH1 0xFF PUSH1 0x2 SLOAD AND PUSH2 0x1BB6 JUMPI JUMP JUMPDEST PUSH1 0x40 MLOAD PUSH4 0xD93C0665 PUSH1 0xE0 SHL DUP2 MSTORE PUSH1 0x4 SWAP1 REVERT JUMPDEST PUSH1 0x2 PUSH1 0x1 SLOAD EQ PUSH2 0x1BD9 JUMPI PUSH1 0x2 PUSH1 0x1 SSTORE JUMP JUMPDEST PUSH1 0x40 MLOAD PUSH4 0x3EE5AEB5 PUSH1 0xE0 SHL DUP2 MSTORE PUSH1 0x4 SWAP1 REVERT JUMPDEST PUSH1 0x0 NOT DUP2 EQ PUSH2 0x1646 JUMPI PUSH1 0x1 ADD SWAP1 JUMP JUMPDEST DUP1 MLOAD DUP3 LT ISZERO PUSH2 0x373 JUMPI PUSH1 0x20 SWAP2 PUSH1 0x5 SHL ADD ADD SWAP1 JUMP JUMPDEST SWAP2 SWAP1 DUP3 ADD DUP1 SWAP3 GT PUSH2 0x1646 JUMPI JUMP JUMPDEST SWAP1 PUSH1 0x1 DUP3 DUP2 SHR SWAP3 AND DUP1 ISZERO PUSH2 0x1C4B JUMPI JUMPDEST PUSH1 0x20 DUP4 LT EQ PUSH2 0x1C35 JUMPI JUMP JUMPDEST PUSH4 0x4E487B71 PUSH1 0xE0 SHL PUSH1 0x0 MSTORE PUSH1 0x22 PUSH1 0x4 MSTORE PUSH1 0x24 PUSH1 0x0 REVERT JUMPDEST SWAP2 PUSH1 0x7F AND SWAP2 PUSH2 0x1C2A JUMP JUMPDEST ISZERO PUSH2 0x1C5C JUMPI JUMP JUMPDEST PUSH1 0x40 MLOAD PUSH3 0x461BCD PUSH1 0xE5 SHL DUP2 MSTORE PUSH1 0x20 PUSH1 0x4 DUP3 ADD MSTORE PUSH1 0x13 PUSH1 0x24 DUP3 ADD MSTORE PUSH19 0x135A5B195CDD1BDB99481B9BDD08199BDD5B99 PUSH1 0x6A SHL PUSH1 0x44 DUP3 ADD MSTORE PUSH1 0x64 SWAP1 REVERT JUMPDEST RETURNDATASIZE ISZERO PUSH2 0x1CC2 JUMPI RETURNDATASIZE SWAP1 PUSH2 0x1CA8 DUP3 PUSH2 0x1917 JUMP JUMPDEST SWAP2 PUSH2 0x1CB6 PUSH1 0x40 MLOAD SWAP4 DUP5 PUSH2 0x18F5 JUMP JUMPDEST DUP3 MSTORE RETURNDATASIZE PUSH1 0x0 PUSH1 0x20 DUP5 ADD RETURNDATACOPY JUMP JUMPDEST PUSH1 0x60 SWAP1 JUMP JUMPDEST ISZERO PUSH2 0x1CCE JUMPI JUMP JUMPDEST PUSH1 0x40 MLOAD PUSH3 0x461BCD PUSH1 0xE5 SHL DUP2 MSTORE PUSH1 0x20 PUSH1 0x4 DUP3 ADD MSTORE PUSH1 0xF PUSH1 0x24 DUP3 ADD MSTORE PUSH15 0x151C985B9CD9995C8819985A5B1959 PUSH1 0x8A SHL PUSH1 0x44 DUP3 ADD MSTORE PUSH1 0x64 SWAP1 REVERT JUMPDEST SWAP1 PUSH1 0x40 MLOAD SWAP2 DUP3 PUSH1 0x0 DUP3 SLOAD SWAP3 PUSH2 0x1D19 DUP5 PUSH2 0x1C1B JUMP JUMPDEST SWAP1 DUP2 DUP5 MSTORE PUSH1 0x1 SWAP5 DUP6 DUP2 AND SWAP1 DUP2 PUSH1 0x0 EQ PUSH2 0x1D86 JUMPI POP PUSH1 0x1 EQ PUSH2 0x1D43 JUMPI JUMPDEST POP POP PUSH2 0x1B4A SWAP3 POP SUB DUP4 PUSH2 0x18F5 JUMP JUMPDEST SWAP1 SWAP4 SWAP2 POP PUSH1 0x0 MSTORE PUSH1 0x20 SWAP1 DUP2 PUSH1 0x0 KECCAK256 SWAP4 PUSH1 0x0 SWAP2 JUMPDEST DUP2 DUP4 LT PUSH2 0x1D6E JUMPI POP POP PUSH2 0x1B4A SWAP4 POP DUP3 ADD ADD CODESIZE DUP1 PUSH2 0x1D35 JUMP JUMPDEST DUP6 SLOAD DUP9 DUP5 ADD DUP6 ADD MSTORE SWAP5 DUP6 ADD SWAP5 DUP8 SWAP5 POP SWAP2 DUP4 ADD SWAP2 PUSH2 0x1D56 JUMP JUMPDEST SWAP2 POP POP PUSH2 0x1B4A SWAP5 POP PUSH1 0x20 SWAP3 POP PUSH1 0xFF NOT AND DUP3 DUP5 ADD MSTORE ISZERO ISZERO PUSH1 0x5 SHL DUP3 ADD ADD CODESIZE DUP1 PUSH2 0x1D35 JUMP INVALID LOG2 PUSH5 0x6970667358 0x22 SLT KECCAK256 REVERT CALLER 0xD4 0xE0 0x5E PUSH2 0x3A8A 0x24 SWAP1 PUSH20 0x928D39CAA0620615B37497632C8D2BBD29817BF9 STOP PUSH5 0x736F6C6343 STOP ADDMOD EQ STOP CALLER "},"methodIdentifiers":{"AUTHORITY_ROLE()":"4a3fba0e","DEFAULT_ADMIN_ROLE()":"a217fddf","MAX_DAILY_WITHDRAWAL()":"8543a0ac","allocateFunds(uint256)":"c9f8cc67","approveMilestone(uint256,uint256)":"20913da5","completeMilestone(uint256,uint256,string)":"7fbedb75","createMilestone(uint256,string,uint256)":"da13b0d3","dailyWithdrawals(uint256)":"33770245","emergencyWithdraw(uint256,string)":"3cbb4668","getMilestone(uint256,uint256)":"8ed9895c","getMilestoneProgress(uint256)":"b19814f8","getProjectFunding(uint256)":"551f3e89","getProjectMilestones(uint256)":"52766d80","getRoleAdmin(bytes32)":"248a9ca3","grantRole(bytes32,address)":"2f2ff15d","hasRole(bytes32,address)":"91d14854","lastWithdrawalDay(uint256)":"09dbbf1c","pause()":"8456cb59","paused()":"5c975abb","projectRegistry()":"5a33d8dc","renounceRole(bytes32,address)":"36568abe","revokeRole(bytes32,address)":"d547741f","supportsInterface(bytes4)":"01ffc9a7","unpause()":"3f4ba83a"}}}}}