{"contracts/ApprovalWorkflow.sol":{"ApprovalWorkflow":{"abi":[{"inputs":[{"internalType":"address","name":"_projectRegistryAddress","type":"address"}],"stateMutability":"nonpayable","type":"constructor"},{"inputs":[],"name":"AccessControlBadConfirmation","type":"error"},{"inputs":[{"internalType":"address","name":"account","type":"address"},{"internalType":"bytes32","name":"neededRole","type":"bytes32"}],"name":"AccessControlUnauthorizedAccount","type":"error"},{"inputs":[],"name":"ReentrancyGuardReentrantCall","type":"error"},{"anonymous":false,"inputs":[{"indexed":true,"internalType":"uint256","name":"projectId","type":"uint256"},{"indexed":true,"internalType":"address","name":"authority","type":"address"}],"name":"AuthorityAssigned","type":"event"},{"anonymous":false,"inputs":[{"indexed":true,"internalType":"address","name":"authority","type":"address"}],"name":"AuthorityRegistered","type":"event"},{"anonymous":false,"inputs":[{"indexed":true,"internalType":"address","name":"authority","type":"address"}],"name":"AuthorityRemoved","type":"event"},{"anonymous":false,"inputs":[{"indexed":true,"internalType":"uint256","name":"projectId","type":"uint256"}],"name":"MultiSigApprovalCompleted","type":"event"},{"anonymous":false,"inputs":[{"indexed":true,"internalType":"uint256","name":"projectId","type":"uint256"},{"indexed":true,"internalType":"address","name":"authority","type":"address"},{"indexed":false,"internalType":"uint256","name":"timestamp","type":"uint256"},{"indexed":false,"internalType":"string","name":"comments","type":"string"}],"name":"ProjectApproved","type":"event"},{"anonymous":false,"inputs":[{"indexed":true,"internalType":"uint256","name":"projectId","type":"uint256"},{"indexed":true,"internalType":"address","name":"authority","type":"address"},{"indexed":false,"internalType":"string","name":"reason","type":"string"}],"name":"ProjectRejected","type":"event"},{"anonymous":false,"inputs":[{"indexed":true,"internalType":"uint256","name":"projectId","type":"uint256"},{"indexed":true,"internalType":"address","name":"authority","type":"address"},{"indexed":false,"internalType":"string","name":"comments","type":"string"}],"name":"RevisionRequested","type":"event"},{"anonymous":false,"inputs":[{"indexed":true,"internalType":"bytes32","name":"role","type":"bytes32"},{"indexed":true,"internalType":"bytes32","name":"previousAdminRole","type":"bytes32"},{"indexed":true,"internalType":"bytes32","name":"newAdminRole","type":"bytes32"}],"name":"RoleAdminChanged","type":"event"},{"anonymous":false,"inputs":[{"indexed":true,"internalType":"bytes32","name":"role","type":"bytes32"},{"indexed":true,"internalType":"address","name":"account","type":"address"},{"indexed":true,"internalType":"address","name":"sender","type":"address"}],"name":"RoleGranted","type":"event"},{"anonymous":false,"inputs":[{"indexed":true,"internalType":"bytes32","name":"role","type":"bytes32"},{"indexed":true,"internalType":"address","name":"account","type":"address"},{"indexed":true,"internalType":"address","name":"sender","type":"address"}],"name":"RoleRevoked","type":"event"},{"anonymous":false,"inputs":[{"indexed":true,"internalType":"uint256","name":"projectId","type":"uint256"},{"indexed":true,"internalType":"address","name":"secondAuthority","type":"address"}],"name":"SecondAuthorityAssigned","type":"event"},{"inputs":[],"name":"DEFAULT_ADMIN_ROLE","outputs":[{"internalType":"bytes32","name":"","type":"bytes32"}],"stateMutability":"view","type":"function"},{"inputs":[],"name":"HIGHER_AUTHORITY_ROLE","outputs":[{"internalType":"bytes32","name":"","type":"bytes32"}],"stateMutability":"view","type":"function"},{"inputs":[],"name":"LARGE_PROJECT_THRESHOLD","outputs":[{"internalType":"uint256","name":"","type":"uint256"}],"stateMutability":"view","type":"function"},{"inputs":[],"name":"MINIMUM_REVIEW_TIME","outputs":[{"internalType":"uint256","name":"","type":"uint256"}],"stateMutability":"view","type":"function"},{"inputs":[{"internalType":"uint256","name":"_projectId","type":"uint256"},{"internalType":"string","name":"_comments","type":"string"}],"name":"approveProject","outputs":[],"stateMutability":"nonpayable","type":"function"},{"inputs":[{"internalType":"address","name":"","type":"address"}],"name":"authorityInfo","outputs":[{"internalType":"address","name":"authorityAddress","type":"address"},{"internalType":"uint256","name":"pendingReviews","type":"uint256"},{"internalType":"uint256","name":"totalReviewed","type":"uint256"},{"internalType":"uint256","name":"approvalCount","type":"uint256"},{"internalType":"uint256","name":"rejectionCount","type":"uint256"},{"internalType":"bool","name":"isActive","type":"bool"},{"internalType":"uint256","name":"lastAssignedTime","type":"uint256"}],"stateMutability":"view","type":"function"},{"inputs":[],"name":"getActiveAuthorities","outputs":[{"internalType":"address[]","name":"","type":"address[]"}],"stateMutability":"view","type":"function"},{"inputs":[{"internalType":"uint256","name":"_projectId","type":"uint256"}],"name":"getAssignedAuthority","outputs":[{"internalType":"address","name":"","type":"address"}],"stateMutability":"view","type":"function"},{"inputs":[{"internalType":"address","name":"_authority","type":"address"}],"name":"getAuthorityWorkload","outputs":[{"internalType":"uint256","name":"pending","type":"uint256"},{"internalType":"uint256","name":"total","type":"uint256"},{"internalType":"uint256","name":"approved","type":"uint256"},{"internalType":"uint256","name":"rejected","type":"uint256"}],"stateMutability":"view","type":"function"},{"inputs":[{"internalType":"uint256","name":"_projectId","type":"uint256"}],"name":"getReviewRecord","outputs":[{"components":[{"internalType":"uint256","name":"projectId","type":"uint256"},{"internalType":"address","name":"authority","type":"address"},{"internalType":"uint256","name":"submittedAt","type":"uint256"},{"internalType":"uint256","name":"reviewedAt","type":"uint256"},{"internalType":"bool","name":"isApproved","type":"bool"},{"internalType":"string","name":"comments","type":"string"},{"internalType":"bool","name":"requiresMultiSig","type":"bool"},{"internalType":"address","name":"secondAuthority","type":"address"},{"internalType":"bool","name":"secondApproval","type":"bool"}],"internalType":"struct ApprovalWorkflow.ReviewRecord","name":"","type":"tuple"}],"stateMutability":"view","type":"function"},{"inputs":[{"internalType":"bytes32","name":"role","type":"bytes32"}],"name":"getRoleAdmin","outputs":[{"internalType":"bytes32","name":"","type":"bytes32"}],"stateMutability":"view","type":"function"},{"inputs":[{"internalType":"bytes32","name":"role","type":"bytes32"},{"internalType":"address","name":"account","type":"address"}],"name":"grantRole","outputs":[],"stateMutability":"nonpayable","type":"function"},{"inputs":[{"internalType":"bytes32","name":"role","type":"bytes32"},{"internalType":"address","name":"account","type":"address"}],"name":"hasRole","outputs":[{"internalType":"bool","name":"","type":"bool"}],"stateMutability":"view","type":"function"},{"inputs":[{"internalType":"uint256","name":"","type":"uint256"}],"name":"isUnderReview","outputs":[{"internalType":"bool","name":"","type":"bool"}],"stateMutability":"view","type":"function"},{"inputs":[{"internalType":"uint256","name":"","type":"uint256"}],"name":"projectAssignments","outputs":[{"internalType":"address","name":"","type":"address"}],"stateMutability":"view","type":"function"},{"inputs":[],"name":"projectRegistry","outputs":[{"internalType":"contract ProjectRegistry","name":"","type":"address"}],"stateMutability":"view","type":"function"},{"inputs":[{"internalType":"address","name":"_authority","type":"address"}],"name":"registerAuthority","outputs":[],"stateMutability":"nonpayable","type":"function"},{"inputs":[{"internalType":"uint256","name":"_projectId","type":"uint256"},{"internalType":"string","name":"_reason","type":"string"}],"name":"rejectProject","outputs":[],"stateMutability":"nonpayable","type":"function"},{"inputs":[{"internalType":"address","name":"_authority","type":"address"}],"name":"removeAuthority","outputs":[],"stateMutability":"nonpayable","type":"function"},{"inputs":[{"internalType":"bytes32","name":"role","type":"bytes32"},{"internalType":"address","name":"callerConfirmation","type":"address"}],"name":"renounceRole","outputs":[],"stateMutability":"nonpayable","type":"function"},{"inputs":[{"internalType":"uint256","name":"_projectId","type":"uint256"},{"internalType":"string","name":"_comments","type":"string"}],"name":"requestRevision","outputs":[],"stateMutability":"nonpayable","type":"function"},{"inputs":[{"internalType":"uint256","name":"","type":"uint256"}],"name":"reviewRecords","outputs":[{"internalType":"uint256","name":"projectId","type":"uint256"},{"internalType":"address","name":"authority","type":"address"},{"internalType":"uint256","name":"submittedAt","type":"uint256"},{"internalType":"uint256","name":"reviewedAt","type":"uint256"},{"internalType":"bool","name":"isApproved","type":"bool"},{"internalType":"string","name":"comments","type":"string"},{"internalType":"bool","name":"requiresMultiSig","type":"bool"},{"internalType":"address","name":"secondAuthority","type":"address"},{"internalType":"bool","name":"secondApproval","type":"bool"}],"stateMutability":"view","type":"function"},{"inputs":[{"internalType":"bytes32","name":"role","type":"bytes32"},{"internalType":"address","name":"account","type":"address"}],"name":"revokeRole","outputs":[],"stateMutability":"nonpayable","type":"function"},{"inputs":[{"internalType":"uint256","name":"_projectId","type":"uint256"}],"name":"submitForApproval","outputs":[{"internalType":"address","name":"assignedAuthority","type":"address"}],"stateMutability":"nonpayable","type":"function"},{"inputs":[{"internalType":"bytes4","name":"interfaceId","type":"bytes4"}],"name":"supportsInterface","outputs":[{"internalType":"bool","name":"","type":"bool"}],"stateMutability":"view","type":"function"}],"evm":{"bytecode":{"linkReferences":{},"object":"6080346200008a57601f6200273338819003918201601f19168301916001600160401b038311848410176200008f578084926020946040528339810103126200008a57516001600160a01b038116908190036200008a5760018055600280546001600160a01b0319169190911790556200007933620000a5565b506040516125fc9081620001378239f35b600080fd5b634e487b7160e01b600052604160045260246000fd5b6001600160a01b031660008181527fad3228b676f7d3cd4284a5443f17f1962b36e491b30a40b2405849e597ba5fb5602052604081205490919060ff166200013257818052816020526040822081835260205260408220600160ff1982541617905533917f2f8788117e7eff1d82e926ec794901d17c78024a50270940304540a733656f0d8180a4600190565b509056fe608080604052600436101561001357600080fd5b600090813560e01c90816301ffc9a71461188957508063086a8a8714611569578063248a9ca31461153d578063279732a11461150a5780632cb0aa3114610c8f5780632f2ff15d14610c5257806336568abe14610c0a57806348c4267114610b5b57806349eee5861461097d578063532833ef146109545780635a33d8dc1461092b5780635dcad724146108fc57806365e450251461075d5780637f7e556e1461072857806387633209146106a457806391d14854146106595780639e65845914610634578063a217fddf14610618578063a36697d3146104db578063bdca5852146104ac578063d544e0101461038c578063d547741f1461034b578063e5315f3b146101f6578063e55e7f04146101d85763e6097ac61461013457600080fd5b346101d55760203660031901126101d5576080906001600160a01b03906040908261015d6119ec565b16815260046020522060405191610173836118f1565b8154168252600181015491826020820152600282015480604083015260038301549182606082015260c06006600486015495868985015260ff600582015416151560a08501520154910152604051938452602084015260408301526060820152f35b80fd5b50346101d557806003193601126101d5576020604051620151808152f35b50346101d5576020806003193601126103475760408051926102178461190c565b80845280838501528082850152806060850152806080850152606060a08501528060c08501528060e08501528061010080950152600435815260068352209160405180936102648261190c565b8054825260018060a01b039283600183015416938584019485526002830154926040850193845260038101546060860190815260ff6004830154169060808701911515825260066102b760058501611a3c565b9360a089019485520154958460c089019960ff891615158b5260ff8860e08c019b848c60081c168d52019960a81c16151589528b6040519d8e9d8e5251908d0152511660408b01525160608a015251608089015251151560a0880152519361032d610120958660c08a0152610140890190611b05565b9551151560e0880152511690850152511515908301520390f35b5080fd5b50346101d55760403660031901126101d55761038860043561036b6119d6565b90808452836020526103836001604086200154611bcc565b611da4565b5080f35b50346101d557602080600319360112610347576103a76119ec565b6103af611b92565b6001600160a01b03811680845260048352604084206005015490929060ff16156104715782845260048152600160408520015461042d578284526004905260408320600501805460ff1916905561040590611d0b565b507f272215cde179041f7a3e8da6f8aabc7c8fc1336ccd73aba698cb825a80d3be488280a280f35b6064906040519062461bcd60e51b82526004820152601d60248201527f417574686f72697479206861732070656e64696e6720726576696577730000006044820152fd5b6064906040519062461bcd60e51b825260048201526014602482015273417574686f72697479206e6f742061637469766560601b6044820152fd5b50346101d5576104d46104be36611964565b906104c7611b2a565b6104cf611f2a565b611fe8565b6001805580f35b50346101d5576104ea36611964565b906104f3611b2a565b8083526006602052600161052c60408520600760205261051960ff604088205416611f4d565b828060a01b039283910154163314611f99565b8251156105df57839060025416803b156103475781604051809263b13b620560e01b82528560048301526040602483015281838161056d604482018b611b05565b03925af180156105d4576105bc575b50507f5b517f0844e2b08cbcbb48d130fcb9f01f0a5222e23bc78370b27f73edd97b6e60405160208152806105b633956020830190611b05565b0390a380f35b6105c5906118de565b6105d057823861057c565b8280fd5b6040513d84823e3d90fd5b60405162461bcd60e51b815260206004820152601160248201527010dbdb5b595b9d1cc81c995c5d5a5c9959607a1b6044820152606490fd5b50346101d557806003193601126101d557602090604051908152f35b50346101d557806003193601126101d557602060405169021e19e0c9bab24000008152f35b50346101d55760403660031901126101d55760406106756119d6565b91600435815280602052209060018060a01b0316600052602052602060ff604060002054166040519015158152f35b50346101d55760203660031901126101d55760e0906001600160a01b0390604090826106ce6119ec565b168152600460205220908154169060018101549060028101546003820154600483015491600660ff600586015416940154946040519687526020870152604086015260608501526080840152151560a083015260c0820152f35b50346101d55760203660031901126101d55760209060043581526006825260016040818060a01b039220015416604051908152f35b50346101d557806003193601126101d557600380549082805b8381106108a057506107a061078a85611f04565b946107986040519687611928565b808652611f04565b6020938585019391601f19013685378291835b828110610805575050505060405193838594850191818652518092526040850193925b8281106107e557505050500390f35b83516001600160a01b0316855286955093810193928101926001016107d6565b610813819896979598611e19565b90546001600160a01b0391841b1c81168952600486526040892060059081015490919060ff16610853575b505061084990611f1b565b96939594966107b3565b61085e839693611e19565b905490851b1c1690875183101561088c5791610884918782610849951b8a010152611f1b565b93903861083e565b634e487b7160e01b8a52603260045260248afd5b6108ae819593949295611e19565b905490851b1c6001600160a01b031685526004602052604085206005015460ff166108e7575b6108dd90611f1b565b9390929193610776565b916108f46108dd91611f1b565b9290506108d4565b50346101d55760203660031901126101d55760ff60406020926004358152600784522054166040519015158152f35b50346101d557806003193601126101d5576002546040516001600160a01b039091168152602090f35b50346101d557806003193601126101d55760206040516000805160206125a78339815191528152f35b50346101d557602080600319360112610347576109986119ec565b6109a0611b92565b6001600160a01b03818116928315610b25578385526004815260ff600560408720015416610ae15760035468010000000000000000811015610acd5784610a9c610aa5959488946109f985600160069701600355611e19565b81549060031b908487831b921b1916179055604051958692610a1a846118f1565b8584528284018281526040850191838352604060608701948086526004608089019782895260c060a08b019a60018c52019b838d52835252209951166bffffffffffffffffffffffff60a01b8a5416178955516001890155516002880155516003870155516004860155511515600585019060ff801983541691151516179055565b51910155611bf2565b507f8ec6b4c704da9ea0a8bd9196f71626ec32c89805f3ff10486a6478353ef1cb348280a280f35b634e487b7160e01b86526041600452602486fd5b6064906040519062461bcd60e51b82526004820152601c60248201527f417574686f7269747920616c72656164792072656769737465726564000000006044820152fd5b6064906040519062461bcd60e51b82526004820152600f60248201526e496e76616c6964206164647265737360881b6044820152fd5b50346101d55760203660031901126101d5576040906004358152600660205220805460018060a01b0360ff8160018501541693610be5600282015491600381015484600483015416906006610bb260058501611a3c565b93015494604051998a998a5260208a015260408901526060880152151560808701526101208060a0880152860190611b05565b92828216151560c08601528160081c1660e085015260a81c1615156101008301520390f35b50346101d55760403660031901126101d557610c246119d6565b336001600160a01b03821603610c405761038890600435611da4565b60405163334bd91960e11b8152600490fd5b50346101d55760403660031901126101d557610388600435610c726119d6565b9080845283602052610c8a6001604086200154611bcc565b611c92565b50346101d55760203660031901126101d557610ca9611f2a565b6004358152600760205260ff6040822054166114c5576024600354610ccf811515611e66565b6002546040516334d1a86960e11b8152600480359082015292849184919082906001600160a01b03165afa9182156110f257839261122e575b50610d14811515611e66565b8291600019916008546001810180911161121a5790610d32916124cf565b90845b60035480821015610e0b578184018411610df557610d55908285016124cf565b610d5e81611e19565b905460039190911b1c6001600160a01b0316808852600460205260408820600581015460ff16610d9a575b505050610d9590611f1b565b610d35565b6001810154908782109081610dc4575b5015610d895760089290925595509350610d953880610d89565b600691500154610e1081018111610de157610e1001421138610daa565b634e487b7160e01b8a52601160045260248afd5b634e487b7160e01b600052601160045260246000fd5b8686846001600160a01b038216156111d5576001600160a01b03821680845260046020818152604080872042600690910155913586526005905280852080546001600160a01b0319169092179091555190610e658261190c565b600435825260018060a01b0383166020830152426040830152836060830152836080830152604051908160208101106001600160401b036020840111176111bf5781602069021e19e0c9bab2400000930160405285815260a0840152101560c08201528260e0820152826101008201526004358352600660205260408320815181556001810160018060a01b036020840151166bffffffffffffffffffffffff60a01b8254161790556040820151600282015560608201516003820155610f4160808301511515600483019060ff801983541691151516179055565b60a08201518051906001600160401b038211610acd57610f646005840154611a02565b601f811161117b575b50602090601f8311600114611108579180610100949260069489926110fd575b50508160011b916000199060031b1c19161760058201555b0191610fc360c08201511515849060ff801983541691151516179055565b60e08101518354610100600160a81b03191660089190911b610100600160a81b03161783550151815460ff60a81b191690151560a81b60ff60a81b16179055600480358352600760209081526040808520805460ff191660019081179091556001600160a01b038516865292909152832001805461104090611f1b565b905560025482906001600160a01b0316803b156103475781906084604051809481936352120ee760e01b8352600435600484015260016024840152606060448401528160648401525af180156110f2576110de575b604051602090836001600160a01b0381166004357f68ca2cf0b59d4561e875f2e3ceebb11bfc3dcb92785dcb3a74f63fe140fafc6f8880a3600180556001600160a01b03168152f35b6110e883916118de565b6103475782611095565b6040513d85823e3d90fd5b015190508880610f8d565b906005840187526020872091875b601f1985168110611163575092610100949260019260069583601f1981161061114a575b505050811b016005820155610fa5565b015160001960f88460031b161c1916905588808061113a565b91926020600181928685015181550194019201611116565b60058401875260208720601f840160051c8101602085106111b8575b601f830160051c820181106111ad575050610f6d565b888155600101611197565b5080611197565b634e487b7160e01b600052604160045260246000fd5b60405162461bcd60e51b815260206004820152601b60248201527f4e6f207375697461626c6520617574686f7269747920666f756e6400000000006044820152606490fd5b634e487b7160e01b86526011600452602486fd5b9091503d908184823e6112418282611928565b60e08183810103126114c15760208101516001600160401b0381116114bd5761126f90838301908301611ee7565b5060408101516001600160401b0381116114bd5761129290838301908301611ee7565b506060810151916006608083015110156114bd5760c0820151906001600160401b0382116114b95760e082840182850103126114b957604051926112d5846118f1565b828101516001600160401b038111611474576112f8908383019085840101611ee7565b8452602083820101516001600160401b03811161147457611320908383019085840101611ee7565b6020850152604083820101516001600160401b03811161147457828201601f8286850101011215611474578084830101519061135b82611f04565b916113696040519384611928565b808352602083019185850160208360051b838a8901010101116114b5576020818887010101925b60208360051b838a8901010101841061147857505050506040850152606083820101516001600160401b03811161147457828201601f8286850101011215611474578382010180516113e9918385019190602001611eb2565b6060850152608083820101516001600160401b03811161147457611414908383019085840101611ee7565b608085015260a083820101516001600160401b0381116114745761143f908383019085840101611ee7565b60a085015260c083820101516001600160401b0381116114745760c09361146a938301920101611ee7565b9101529038610d08565b8780fd5b8351906001600160401b0382116114b15760208092916114a489838095888f8f85019401010101611ee7565b8152019401939050611390565b8c80fd5b8a80fd5b8580fd5b8480fd5b8380fd5b60405162461bcd60e51b815260206004820152601c60248201527f50726f6a65637420616c726561647920756e64657220726576696577000000006044820152606490fd5b50346101d55760203660031901126101d557602090600435815260058252604060018060a01b0391205416604051908152f35b50346101d55760203660031901126101d557600160406020926004358152808452200154604051908152f35b50346101d55761157836611964565b90611581611b2a565b611589611f2a565b808352602090600682526040842092600783526115ac60ff604087205416611f4d565b6001848101805491956001600160a01b03926115cb9084163314611f99565b835115611844576005600482019160ff19928381541690554260038201550184516001600160401b0381116118305790849392916116098254611a02565b601f81116117da575b5088601f821160011461177b578b9082611770575b50600019600383901b1c1916908a1b1790555b8589526007875260408920908154169055818154168852600486528660408920016116658154611fdb565b905581815416885260048652600260408920016116828154611f1b565b905554168652600484526004604087200161169d8154611f1b565b905560025416803b156114b9578560405180926352120ee760e01b825285600483015260036024830152606060448301528183816116de6064820189611b05565b03925af180156117655761172e575b506117267f5e5a832cb1c5df272bcf782f38cea3622f9769d9af7d6001c06059a7e609fcc9916040519182918683523396830190611b05565b0390a3805580f35b7f5e5a832cb1c5df272bcf782f38cea3622f9769d9af7d6001c06059a7e609fcc9919561175d611726926118de565b9591506116ed565b6040513d88823e3d90fd5b905087015138611627565b828c52898c208b9291601f1983168e5b8d8282106117c157505083116117a8575b5050811b01905561163a565b89015160001960f88460031b161c19169055388061179c565b838d015185558b9a508f9690940193928301920161178b565b909180939495508b52888b20601f830160051c8101918a8410611826575b87969594939291601f8d920160051c01915b828110611818575050611612565b8d81558897508c910161180a565b90915081906117f8565b634e487b7160e01b8a52604160045260248afd5b60405162461bcd60e51b815260048101879052601960248201527f52656a656374696f6e20726561736f6e207265717569726564000000000000006044820152606490fd5b9050346103475760203660031901126103475760043563ffffffff60e01b81168091036105d05760209250637965db0b60e01b81149081156118cd575b5015158152f35b6301ffc9a760e01b149050386118c6565b6001600160401b0381116111bf57604052565b60e081019081106001600160401b038211176111bf57604052565b61012081019081106001600160401b038211176111bf57604052565b90601f801991011681019081106001600160401b038211176111bf57604052565b6001600160401b0381116111bf57601f01601f191660200190565b9060406003198301126119d157600435916024356001600160401b0381116119d157816023820112156119d1578060040135906119a082611949565b926119ae6040519485611928565b828452602483830101116119d15781600092602460209301838601378301015290565b600080fd5b602435906001600160a01b03821682036119d157565b600435906001600160a01b03821682036119d157565b90600182811c92168015611a32575b6020831014611a1c57565b634e487b7160e01b600052602260045260246000fd5b91607f1691611a11565b9060405191826000825492611a5084611a02565b908184526001948581169081600014611abf5750600114611a7c575b5050611a7a92500383611928565b565b9093915060005260209081600020936000915b818310611aa7575050611a7a93508201013880611a6c565b85548884018501529485019487945091830191611a8f565b915050611a7a94506020925060ff191682840152151560051b8201013880611a6c565b60005b838110611af55750506000910152565b8181015183820152602001611ae5565b90602091611b1e81518092818552858086019101611ae2565b601f01601f1916010190565b3360009081527fa642ad453c16afa8c512cd8f860db756affda0e2a0655347b8fbbe4e7710679160205260409020546000805160206125a78339815191529060ff1615611b745750565b6044906040519063e2517d3f60e01b82523360048301526024820152fd5b3360009081527fad3228b676f7d3cd4284a5443f17f1962b36e491b30a40b2405849e597ba5fb5602052604081205460ff1615611b745750565b80600052600060205260406000203360005260205260ff6040600020541615611b745750565b6001600160a01b031660008181527fa642ad453c16afa8c512cd8f860db756affda0e2a0655347b8fbbe4e7710679160205260408120549091906000805160206125a78339815191529060ff16611c8d57808352826020526040832082845260205260408320600160ff198254161790557f2f8788117e7eff1d82e926ec794901d17c78024a50270940304540a733656f0d339380a4600190565b505090565b9060009180835282602052604083209160018060a01b03169182845260205260ff60408420541615600014611c8d57808352826020526040832082845260205260408320600160ff198254161790557f2f8788117e7eff1d82e926ec794901d17c78024a50270940304540a733656f0d339380a4600190565b6001600160a01b031660008181527fa642ad453c16afa8c512cd8f860db756affda0e2a0655347b8fbbe4e7710679160205260408120549091906000805160206125a78339815191529060ff1615611c8d5780835282602052604083208284526020526040832060ff1981541690557ff6391f5c32d9c69d2a47ea670b442974b53935d1edc7fd64eb21e047a839171b339380a4600190565b9060009180835282602052604083209160018060a01b03169182845260205260ff604084205416600014611c8d5780835282602052604083208284526020526040832060ff1981541690557ff6391f5c32d9c69d2a47ea670b442974b53935d1edc7fd64eb21e047a839171b339380a4600190565b600354811015611e505760036000527fc2575a0e9e593c00f959f8c92f12db2869c3395a3b0502d05e2516446f71f85b0190600090565b634e487b7160e01b600052603260045260246000fd5b15611e6d57565b60405162461bcd60e51b815260206004820152601860248201527f4e6f20617574686f72697469657320617661696c61626c6500000000000000006044820152606490fd5b90929192611ebf81611949565b91611ecd6040519384611928565b8294828452828201116119d1576020611a7a930190611ae2565b9080601f830112156119d1578151611f0192602001611eb2565b90565b6001600160401b0381116111bf5760051b60200190565b6000198114610df55760010190565b600260015414611f3b576002600155565b604051633ee5aeb560e01b8152600490fd5b15611f5457565b60405162461bcd60e51b815260206004820152601860248201527f50726f6a656374206e6f7420756e6465722072657669657700000000000000006044820152606490fd5b15611fa057565b60405162461bcd60e51b81526020600482015260136024820152724e6f742061737369676e656420746f20796f7560681b6044820152606490fd5b8015610df5576000190190565b600091818352602090600682526040938481206007845260ff61200f818885205416611f4d565b60018083019060018060a01b039261202b848454163314611f99565b60028501546201518081018091116124bb5742106124775760068501928354858382169182612469575b50506123f4578354828116806123e6575b6123ac575b50835482811683811592831561238b575b505050612091575b5050505050505050505050565b60049560058782019160ff199286848254161790554260038201550189516001600160401b0381116123785790879695949392918c6120d08354611a02565b601f811161231c575b50508c601f821160011461229a57908089959493928d9161228f575b50600019600383901b1c191690871b1790555b8c8a5260078c528d8a20908154169055818154168952878b52838d8a20016121308154611fdb565b9055818154168952878b5260028d8a200161214b8154611f1b565b90555416875285895260038b8820016121648154611f1b565b90558254908116612231575b5050505060025416803b156105d057918091869388519485926352120ee760e01b845283015260026024830152606060448301528183816121b4606482018a611b05565b03925af1908115612226575085927fee488c6f39811c9198a4ac3dc1b8198855f75bc6ffde0798dfcb227432510729949261220492612217575b5083519384934285528401523396830190611b05565b0390a33880808080808080808080612084565b612220906118de565b386121ee565b8651903d90823e3d90fd5b839060081c1686528488528986200161224a8154611fdb565b905581815460081c1685528387526002898620016122688154611f1b565b90555460081c1683528185526003878420016122848154611f1b565b905580388080612170565b90508d0151386120f5565b8b908d8f601f1985169086855280852094905b8282106122ed57505091899391858d9998979694106122d4575b505050811b019055612108565b015160001960f88460031b161c1916905538808f6122c7565b928b9c9d5094848493959798999a9b9c92960151815501940192018f918f918d9c9b9a999897969594936122ad565b90919280949596979899508c52818c2090601f840160051c820192841061236e575b90601f8b9a99989796959493920160051c01905b818110612361578e91506120d9565b8c81558a99508701612352565b909150819061233e565b634e487b7160e01b8a526041895260248afd5b919250908261239f575b505038838161207c565b60a81c1690508238612395565b60ff60a81b1916600160a81b178455897fdc79fa8ee1e1d4613ba1cabc4c15107fc99269f50b499ba92ce7e23974126c968880a23861206b565b5033868260081c1614612066565b50509394507fa1d89fd08b4ec9b072ec7c20f24e18a62642ae98bac98d8a095330a53d77389d959792509060049161245061242e336124ef565b8254610100600160a81b031916600882901b610100600160a81b031617909255565b1696878552528220016124638154611f1b565b905580a3565b60081c161590508538612055565b895162461bcd60e51b815260048101899052601f60248201527f4d696e696d756d207265766965772074696d65206e6f7420656c6170736564006044820152606490fd5b634e487b7160e01b87526011600452602487fd5b81156124d9570690565b634e487b7160e01b600052601260045260246000fd5b6000809160038054935b8481106125455760405162461bcd60e51b815260206004820152601d60248201527f4e6f207365636f6e6420617574686f7269747920617661696c61626c650000006044820152606490fd5b61254e81611e19565b90546001600160a01b0391841b1c811680865260046020526040862060050154909160ff9091169081612599575b50612590575061258b90611f1b565b6124f9565b94505050505090565b905084168114153861257c56fefa4b640456636962231cee3460c9d89d5bc5f3bed67e86f7491992882f0a9a06a26469706673582212204ef6f9693107526b6c90101b305f864864d7517558bca0e7a81802fa1fcd8bf164736f6c63430008140033","opcodes":"PUSH1 0x80 CALLVALUE PUSH3 0x8A JUMPI PUSH1 0x1F PUSH3 0x2733 CODESIZE DUP2 SWAP1 SUB SWAP2 DUP3 ADD PUSH1 0x1F NOT AND DUP4 ADD SWAP2 PUSH1 0x1 PUSH1 0x1 PUSH1 0x40 SHL SUB DUP4 GT DUP5 DUP5 LT OR PUSH3 0x8F JUMPI DUP1 DUP5 SWAP3 PUSH1 0x20 SWAP5 PUSH1 0x40 MSTORE DUP4 CODECOPY DUP2 ADD SUB SLT PUSH3 0x8A JUMPI MLOAD PUSH1 0x1 PUSH1 0x1 PUSH1 0xA0 SHL SUB DUP2 AND SWAP1 DUP2 SWAP1 SUB PUSH3 0x8A JUMPI PUSH1 0x1 DUP1 SSTORE PUSH1 0x2 DUP1 SLOAD PUSH1 0x1 PUSH1 0x1 PUSH1 0xA0 SHL SUB NOT AND SWAP2 SWAP1 SWAP2 OR SWAP1 SSTORE PUSH3 0x79 CALLER PUSH3 0xA5 JUMP JUMPDEST POP PUSH1 0x40 MLOAD PUSH2 0x25FC SWAP1 DUP2 PUSH3 0x137 DUP3 CODECOPY RETURN JUMPDEST PUSH1 0x0 DUP1 REVERT JUMPDEST PUSH4 0x4E487B71 PUSH1 0xE0 SHL PUSH1 0x0 MSTORE PUSH1 0x41 PUSH1 0x4 MSTORE PUSH1 0x24 PUSH1 0x0 REVERT JUMPDEST PUSH1 0x1 PUSH1 0x1 PUSH1 0xA0 SHL SUB AND PUSH1 0x0 DUP2 DUP2 MSTORE PUSH32 0xAD3228B676F7D3CD4284A5443F17F1962B36E491B30A40B2405849E597BA5FB5 PUSH1 0x20 MSTORE PUSH1 0x40 DUP2 KECCAK256 SLOAD SWAP1 SWAP2 SWAP1 PUSH1 0xFF AND PUSH3 0x132 JUMPI DUP2 DUP1 MSTORE DUP2 PUSH1 0x20 MSTORE PUSH1 0x40 DUP3 KECCAK256 DUP2 DUP4 MSTORE PUSH1 0x20 MSTORE PUSH1 0x40 DUP3 KECCAK256 PUSH1 0x1 PUSH1 0xFF NOT DUP3 SLOAD AND OR SWAP1 SSTORE CALLER SWAP2 PUSH32 0x2F8788117E7EFF1D82E926EC794901D17C78024A50270940304540A733656F0D DUP2 DUP1 LOG4 PUSH1 0x1 SWAP1 JUMP JUMPDEST POP SWAP1 JUMP INVALID PUSH1 0x80 DUP1 PUSH1 0x40 MSTORE PUSH1 0x4 CALLDATASIZE LT ISZERO PUSH2 0x13 JUMPI PUSH1 0x0 DUP1 REVERT JUMPDEST PUSH1 0x0 SWAP1 DUP2 CALLDATALOAD PUSH1 0xE0 SHR SWAP1 DUP2 PUSH4 0x1FFC9A7 EQ PUSH2 0x1889 JUMPI POP DUP1 PUSH4 0x86A8A87 EQ PUSH2 0x1569 JUMPI DUP1 PUSH4 0x248A9CA3 EQ PUSH2 0x153D JUMPI DUP1 PUSH4 0x279732A1 EQ PUSH2 0x150A JUMPI DUP1 PUSH4 0x2CB0AA31 EQ PUSH2 0xC8F JUMPI DUP1 PUSH4 0x2F2FF15D EQ PUSH2 0xC52 JUMPI DUP1 PUSH4 0x36568ABE EQ PUSH2 0xC0A JUMPI DUP1 PUSH4 0x48C42671 EQ PUSH2 0xB5B JUMPI DUP1 PUSH4 0x49EEE586 EQ PUSH2 0x97D JUMPI DUP1 PUSH4 0x532833EF EQ PUSH2 0x954 JUMPI DUP1 PUSH4 0x5A33D8DC EQ PUSH2 0x92B JUMPI DUP1 PUSH4 0x5DCAD724 EQ PUSH2 0x8FC JUMPI DUP1 PUSH4 0x65E45025 EQ PUSH2 0x75D JUMPI DUP1 PUSH4 0x7F7E556E EQ PUSH2 0x728 JUMPI DUP1 PUSH4 0x87633209 EQ PUSH2 0x6A4 JUMPI DUP1 PUSH4 0x91D14854 EQ PUSH2 0x659 JUMPI DUP1 PUSH4 0x9E658459 EQ PUSH2 0x634 JUMPI DUP1 PUSH4 0xA217FDDF EQ PUSH2 0x618 JUMPI DUP1 PUSH4 0xA36697D3 EQ PUSH2 0x4DB JUMPI DUP1 PUSH4 0xBDCA5852 EQ PUSH2 0x4AC JUMPI DUP1 PUSH4 0xD544E010 EQ PUSH2 0x38C JUMPI DUP1 PUSH4 0xD547741F EQ PUSH2 0x34B JUMPI DUP1 PUSH4 0xE5315F3B EQ PUSH2 0x1F6 JUMPI DUP1 PUSH4 0xE55E7F04 EQ PUSH2 0x1D8 JUMPI PUSH4 0xE6097AC6 EQ PUSH2 0x134 JUMPI PUSH1 0x0 DUP1 REVERT JUMPDEST CALLVALUE PUSH2 0x1D5 JUMPI PUSH1 0x20 CALLDATASIZE PUSH1 0x3 NOT ADD SLT PUSH2 0x1D5 JUMPI PUSH1 0x80 SWAP1 PUSH1 0x1 PUSH1 0x1 PUSH1 0xA0 SHL SUB SWAP1 PUSH1 0x40 SWAP1 DUP3 PUSH2 0x15D PUSH2 0x19EC JUMP JUMPDEST AND DUP2 MSTORE PUSH1 0x4 PUSH1 0x20 MSTORE KECCAK256 PUSH1 0x40 MLOAD SWAP2 PUSH2 0x173 DUP4 PUSH2 0x18F1 JUMP JUMPDEST DUP2 SLOAD AND DUP3 MSTORE PUSH1 0x1 DUP2 ADD SLOAD SWAP2 DUP3 PUSH1 0x20 DUP3 ADD MSTORE PUSH1 0x2 DUP3 ADD SLOAD DUP1 PUSH1 0x40 DUP4 ADD MSTORE PUSH1 0x3 DUP4 ADD SLOAD SWAP2 DUP3 PUSH1 0x60 DUP3 ADD MSTORE PUSH1 0xC0 PUSH1 0x6 PUSH1 0x4 DUP7 ADD SLOAD SWAP6 DUP7 DUP10 DUP6 ADD MSTORE PUSH1 0xFF PUSH1 0x5 DUP3 ADD SLOAD AND ISZERO ISZERO PUSH1 0xA0 DUP6 ADD MSTORE ADD SLOAD SWAP2 ADD MSTORE PUSH1 0x40 MLOAD SWAP4 DUP5 MSTORE PUSH1 0x20 DUP5 ADD MSTORE PUSH1 0x40 DUP4 ADD MSTORE PUSH1 0x60 DUP3 ADD MSTORE RETURN JUMPDEST DUP1 REVERT JUMPDEST POP CALLVALUE PUSH2 0x1D5 JUMPI DUP1 PUSH1 0x3 NOT CALLDATASIZE ADD SLT PUSH2 0x1D5 JUMPI PUSH1 0x20 PUSH1 0x40 MLOAD PUSH3 0x15180 DUP2 MSTORE RETURN JUMPDEST POP CALLVALUE PUSH2 0x1D5 JUMPI PUSH1 0x20 DUP1 PUSH1 0x3 NOT CALLDATASIZE ADD SLT PUSH2 0x347 JUMPI PUSH1 0x40 DUP1 MLOAD SWAP3 PUSH2 0x217 DUP5 PUSH2 0x190C JUMP JUMPDEST DUP1 DUP5 MSTORE DUP1 DUP4 DUP6 ADD MSTORE DUP1 DUP3 DUP6 ADD MSTORE DUP1 PUSH1 0x60 DUP6 ADD MSTORE DUP1 PUSH1 0x80 DUP6 ADD MSTORE PUSH1 0x60 PUSH1 0xA0 DUP6 ADD MSTORE DUP1 PUSH1 0xC0 DUP6 ADD MSTORE DUP1 PUSH1 0xE0 DUP6 ADD MSTORE DUP1 PUSH2 0x100 DUP1 SWAP6 ADD MSTORE PUSH1 0x4 CALLDATALOAD DUP2 MSTORE PUSH1 0x6 DUP4 MSTORE KECCAK256 SWAP2 PUSH1 0x40 MLOAD DUP1 SWAP4 PUSH2 0x264 DUP3 PUSH2 0x190C JUMP JUMPDEST DUP1 SLOAD DUP3 MSTORE PUSH1 0x1 DUP1 PUSH1 0xA0 SHL SUB SWAP3 DUP4 PUSH1 0x1 DUP4 ADD SLOAD AND SWAP4 DUP6 DUP5 ADD SWAP5 DUP6 MSTORE PUSH1 0x2 DUP4 ADD SLOAD SWAP3 PUSH1 0x40 DUP6 ADD SWAP4 DUP5 MSTORE PUSH1 0x3 DUP2 ADD SLOAD PUSH1 0x60 DUP7 ADD SWAP1 DUP2 MSTORE PUSH1 0xFF PUSH1 0x4 DUP4 ADD SLOAD AND SWAP1 PUSH1 0x80 DUP8 ADD SWAP2 ISZERO ISZERO DUP3 MSTORE PUSH1 0x6 PUSH2 0x2B7 PUSH1 0x5 DUP6 ADD PUSH2 0x1A3C JUMP JUMPDEST SWAP4 PUSH1 0xA0 DUP10 ADD SWAP5 DUP6 MSTORE ADD SLOAD SWAP6 DUP5 PUSH1 0xC0 DUP10 ADD SWAP10 PUSH1 0xFF DUP10 AND ISZERO ISZERO DUP12 MSTORE PUSH1 0xFF DUP9 PUSH1 0xE0 DUP13 ADD SWAP12 DUP5 DUP13 PUSH1 0x8 SHR AND DUP14 MSTORE ADD SWAP10 PUSH1 0xA8 SHR AND ISZERO ISZERO DUP10 MSTORE DUP12 PUSH1 0x40 MLOAD SWAP14 DUP15 SWAP14 DUP15 MSTORE MLOAD SWAP1 DUP14 ADD MSTORE MLOAD AND PUSH1 0x40 DUP12 ADD MSTORE MLOAD PUSH1 0x60 DUP11 ADD MSTORE MLOAD PUSH1 0x80 DUP10 ADD MSTORE MLOAD ISZERO ISZERO PUSH1 0xA0 DUP9 ADD MSTORE MLOAD SWAP4 PUSH2 0x32D PUSH2 0x120 SWAP6 DUP7 PUSH1 0xC0 DUP11 ADD MSTORE PUSH2 0x140 DUP10 ADD SWAP1 PUSH2 0x1B05 JUMP JUMPDEST SWAP6 MLOAD ISZERO ISZERO PUSH1 0xE0 DUP9 ADD MSTORE MLOAD AND SWAP1 DUP6 ADD MSTORE MLOAD ISZERO ISZERO SWAP1 DUP4 ADD MSTORE SUB SWAP1 RETURN JUMPDEST POP DUP1 REVERT JUMPDEST POP CALLVALUE PUSH2 0x1D5 JUMPI PUSH1 0x40 CALLDATASIZE PUSH1 0x3 NOT ADD SLT PUSH2 0x1D5 JUMPI PUSH2 0x388 PUSH1 0x4 CALLDATALOAD PUSH2 0x36B PUSH2 0x19D6 JUMP JUMPDEST SWAP1 DUP1 DUP5 MSTORE DUP4 PUSH1 0x20 MSTORE PUSH2 0x383 PUSH1 0x1 PUSH1 0x40 DUP7 KECCAK256 ADD SLOAD PUSH2 0x1BCC JUMP JUMPDEST PUSH2 0x1DA4 JUMP JUMPDEST POP DUP1 RETURN JUMPDEST POP CALLVALUE PUSH2 0x1D5 JUMPI PUSH1 0x20 DUP1 PUSH1 0x3 NOT CALLDATASIZE ADD SLT PUSH2 0x347 JUMPI PUSH2 0x3A7 PUSH2 0x19EC JUMP JUMPDEST PUSH2 0x3AF PUSH2 0x1B92 JUMP JUMPDEST PUSH1 0x1 PUSH1 0x1 PUSH1 0xA0 SHL SUB DUP2 AND DUP1 DUP5 MSTORE PUSH1 0x4 DUP4 MSTORE PUSH1 0x40 DUP5 KECCAK256 PUSH1 0x5 ADD SLOAD SWAP1 SWAP3 SWAP1 PUSH1 0xFF AND ISZERO PUSH2 0x471 JUMPI DUP3 DUP5 MSTORE PUSH1 0x4 DUP2 MSTORE PUSH1 0x1 PUSH1 0x40 DUP6 KECCAK256 ADD SLOAD PUSH2 0x42D JUMPI DUP3 DUP5 MSTORE PUSH1 0x4 SWAP1 MSTORE PUSH1 0x40 DUP4 KECCAK256 PUSH1 0x5 ADD DUP1 SLOAD PUSH1 0xFF NOT AND SWAP1 SSTORE PUSH2 0x405 SWAP1 PUSH2 0x1D0B JUMP JUMPDEST POP PUSH32 0x272215CDE179041F7A3E8DA6F8AABC7C8FC1336CCD73ABA698CB825A80D3BE48 DUP3 DUP1 LOG2 DUP1 RETURN JUMPDEST PUSH1 0x64 SWAP1 PUSH1 0x40 MLOAD SWAP1 PUSH3 0x461BCD PUSH1 0xE5 SHL DUP3 MSTORE PUSH1 0x4 DUP3 ADD MSTORE PUSH1 0x1D PUSH1 0x24 DUP3 ADD MSTORE PUSH32 0x417574686F72697479206861732070656E64696E672072657669657773000000 PUSH1 0x44 DUP3 ADD MSTORE REVERT JUMPDEST PUSH1 0x64 SWAP1 PUSH1 0x40 MLOAD SWAP1 PUSH3 0x461BCD PUSH1 0xE5 SHL DUP3 MSTORE PUSH1 0x4 DUP3 ADD MSTORE PUSH1 0x14 PUSH1 0x24 DUP3 ADD MSTORE PUSH20 0x417574686F72697479206E6F7420616374697665 PUSH1 0x60 SHL PUSH1 0x44 DUP3 ADD MSTORE REVERT JUMPDEST POP CALLVALUE PUSH2 0x1D5 JUMPI PUSH2 0x4D4 PUSH2 0x4BE CALLDATASIZE PUSH2 0x1964 JUMP JUMPDEST SWAP1 PUSH2 0x4C7 PUSH2 0x1B2A JUMP JUMPDEST PUSH2 0x4CF PUSH2 0x1F2A JUMP JUMPDEST PUSH2 0x1FE8 JUMP JUMPDEST PUSH1 0x1 DUP1 SSTORE DUP1 RETURN JUMPDEST POP CALLVALUE PUSH2 0x1D5 JUMPI PUSH2 0x4EA CALLDATASIZE PUSH2 0x1964 JUMP JUMPDEST SWAP1 PUSH2 0x4F3 PUSH2 0x1B2A JUMP JUMPDEST DUP1 DUP4 MSTORE PUSH1 0x6 PUSH1 0x20 MSTORE PUSH1 0x1 PUSH2 0x52C PUSH1 0x40 DUP6 KECCAK256 PUSH1 0x7 PUSH1 0x20 MSTORE PUSH2 0x519 PUSH1 0xFF PUSH1 0x40 DUP9 KECCAK256 SLOAD AND PUSH2 0x1F4D JUMP JUMPDEST DUP3 DUP1 PUSH1 0xA0 SHL SUB SWAP3 DUP4 SWAP2 ADD SLOAD AND CALLER EQ PUSH2 0x1F99 JUMP JUMPDEST DUP3 MLOAD ISZERO PUSH2 0x5DF JUMPI DUP4 SWAP1 PUSH1 0x2 SLOAD AND DUP1 EXTCODESIZE ISZERO PUSH2 0x347 JUMPI DUP2 PUSH1 0x40 MLOAD DUP1 SWAP3 PUSH4 0xB13B6205 PUSH1 0xE0 SHL DUP3 MSTORE DUP6 PUSH1 0x4 DUP4 ADD MSTORE PUSH1 0x40 PUSH1 0x24 DUP4 ADD MSTORE DUP2 DUP4 DUP2 PUSH2 0x56D PUSH1 0x44 DUP3 ADD DUP12 PUSH2 0x1B05 JUMP JUMPDEST SUB SWAP3 GAS CALL DUP1 ISZERO PUSH2 0x5D4 JUMPI PUSH2 0x5BC JUMPI JUMPDEST POP POP PUSH32 0x5B517F0844E2B08CBCBB48D130FCB9F01F0A5222E23BC78370B27F73EDD97B6E PUSH1 0x40 MLOAD PUSH1 0x20 DUP2 MSTORE DUP1 PUSH2 0x5B6 CALLER SWAP6 PUSH1 0x20 DUP4 ADD SWAP1 PUSH2 0x1B05 JUMP JUMPDEST SUB SWAP1 LOG3 DUP1 RETURN JUMPDEST PUSH2 0x5C5 SWAP1 PUSH2 0x18DE JUMP JUMPDEST PUSH2 0x5D0 JUMPI DUP3 CODESIZE PUSH2 0x57C JUMP JUMPDEST DUP3 DUP1 REVERT JUMPDEST PUSH1 0x40 MLOAD RETURNDATASIZE DUP5 DUP3 RETURNDATACOPY RETURNDATASIZE SWAP1 REVERT JUMPDEST PUSH1 0x40 MLOAD PUSH3 0x461BCD PUSH1 0xE5 SHL DUP2 MSTORE PUSH1 0x20 PUSH1 0x4 DUP3 ADD MSTORE PUSH1 0x11 PUSH1 0x24 DUP3 ADD MSTORE PUSH17 0x10DBDB5B595B9D1CC81C995C5D5A5C9959 PUSH1 0x7A SHL PUSH1 0x44 DUP3 ADD MSTORE PUSH1 0x64 SWAP1 REVERT JUMPDEST POP CALLVALUE PUSH2 0x1D5 JUMPI DUP1 PUSH1 0x3 NOT CALLDATASIZE ADD SLT PUSH2 0x1D5 JUMPI PUSH1 0x20 SWAP1 PUSH1 0x40 MLOAD SWAP1 DUP2 MSTORE RETURN JUMPDEST POP CALLVALUE PUSH2 0x1D5 JUMPI DUP1 PUSH1 0x3 NOT CALLDATASIZE ADD SLT PUSH2 0x1D5 JUMPI PUSH1 0x20 PUSH1 0x40 MLOAD PUSH10 0x21E19E0C9BAB2400000 DUP2 MSTORE RETURN JUMPDEST POP CALLVALUE PUSH2 0x1D5 JUMPI PUSH1 0x40 CALLDATASIZE PUSH1 0x3 NOT ADD SLT PUSH2 0x1D5 JUMPI PUSH1 0x40 PUSH2 0x675 PUSH2 0x19D6 JUMP JUMPDEST SWAP2 PUSH1 0x4 CALLDATALOAD DUP2 MSTORE DUP1 PUSH1 0x20 MSTORE KECCAK256 SWAP1 PUSH1 0x1 DUP1 PUSH1 0xA0 SHL SUB AND PUSH1 0x0 MSTORE PUSH1 0x20 MSTORE PUSH1 0x20 PUSH1 0xFF PUSH1 0x40 PUSH1 0x0 KECCAK256 SLOAD AND PUSH1 0x40 MLOAD SWAP1 ISZERO ISZERO DUP2 MSTORE RETURN JUMPDEST POP CALLVALUE PUSH2 0x1D5 JUMPI PUSH1 0x20 CALLDATASIZE PUSH1 0x3 NOT ADD SLT PUSH2 0x1D5 JUMPI PUSH1 0xE0 SWAP1 PUSH1 0x1 PUSH1 0x1 PUSH1 0xA0 SHL SUB SWAP1 PUSH1 0x40 SWAP1 DUP3 PUSH2 0x6CE PUSH2 0x19EC JUMP JUMPDEST AND DUP2 MSTORE PUSH1 0x4 PUSH1 0x20 MSTORE KECCAK256 SWAP1 DUP2 SLOAD AND SWAP1 PUSH1 0x1 DUP2 ADD SLOAD SWAP1 PUSH1 0x2 DUP2 ADD SLOAD PUSH1 0x3 DUP3 ADD SLOAD PUSH1 0x4 DUP4 ADD SLOAD SWAP2 PUSH1 0x6 PUSH1 0xFF PUSH1 0x5 DUP7 ADD SLOAD AND SWAP5 ADD SLOAD SWAP5 PUSH1 0x40 MLOAD SWAP7 DUP8 MSTORE PUSH1 0x20 DUP8 ADD MSTORE PUSH1 0x40 DUP7 ADD MSTORE PUSH1 0x60 DUP6 ADD MSTORE PUSH1 0x80 DUP5 ADD MSTORE ISZERO ISZERO PUSH1 0xA0 DUP4 ADD MSTORE PUSH1 0xC0 DUP3 ADD MSTORE RETURN JUMPDEST POP CALLVALUE PUSH2 0x1D5 JUMPI PUSH1 0x20 CALLDATASIZE PUSH1 0x3 NOT ADD SLT PUSH2 0x1D5 JUMPI PUSH1 0x20 SWAP1 PUSH1 0x4 CALLDATALOAD DUP2 MSTORE PUSH1 0x6 DUP3 MSTORE PUSH1 0x1 PUSH1 0x40 DUP2 DUP1 PUSH1 0xA0 SHL SUB SWAP3 KECCAK256 ADD SLOAD AND PUSH1 0x40 MLOAD SWAP1 DUP2 MSTORE RETURN JUMPDEST POP CALLVALUE PUSH2 0x1D5 JUMPI DUP1 PUSH1 0x3 NOT CALLDATASIZE ADD SLT PUSH2 0x1D5 JUMPI PUSH1 0x3 DUP1 SLOAD SWAP1 DUP3 DUP1 JUMPDEST DUP4 DUP2 LT PUSH2 0x8A0 JUMPI POP PUSH2 0x7A0 PUSH2 0x78A DUP6 PUSH2 0x1F04 JUMP JUMPDEST SWAP5 PUSH2 0x798 PUSH1 0x40 MLOAD SWAP7 DUP8 PUSH2 0x1928 JUMP JUMPDEST DUP1 DUP7 MSTORE PUSH2 0x1F04 JUMP JUMPDEST PUSH1 0x20 SWAP4 DUP6 DUP6 ADD SWAP4 SWAP2 PUSH1 0x1F NOT ADD CALLDATASIZE DUP6 CALLDATACOPY DUP3 SWAP2 DUP4 JUMPDEST DUP3 DUP2 LT PUSH2 0x805 JUMPI POP POP POP POP PUSH1 0x40 MLOAD SWAP4 DUP4 DUP6 SWAP5 DUP6 ADD SWAP2 DUP2 DUP7 MSTORE MLOAD DUP1 SWAP3 MSTORE PUSH1 0x40 DUP6 ADD SWAP4 SWAP3 JUMPDEST DUP3 DUP2 LT PUSH2 0x7E5 JUMPI POP POP POP POP SUB SWAP1 RETURN JUMPDEST DUP4 MLOAD PUSH1 0x1 PUSH1 0x1 PUSH1 0xA0 SHL SUB AND DUP6 MSTORE DUP7 SWAP6 POP SWAP4 DUP2 ADD SWAP4 SWAP3 DUP2 ADD SWAP3 PUSH1 0x1 ADD PUSH2 0x7D6 JUMP JUMPDEST PUSH2 0x813 DUP2 SWAP9 SWAP7 SWAP8 SWAP6 SWAP9 PUSH2 0x1E19 JUMP JUMPDEST SWAP1 SLOAD PUSH1 0x1 PUSH1 0x1 PUSH1 0xA0 SHL SUB SWAP2 DUP5 SHL SHR DUP2 AND DUP10 MSTORE PUSH1 0x4 DUP7 MSTORE PUSH1 0x40 DUP10 KECCAK256 PUSH1 0x5 SWAP1 DUP2 ADD SLOAD SWAP1 SWAP2 SWAP1 PUSH1 0xFF AND PUSH2 0x853 JUMPI JUMPDEST POP POP PUSH2 0x849 SWAP1 PUSH2 0x1F1B JUMP JUMPDEST SWAP7 SWAP4 SWAP6 SWAP5 SWAP7 PUSH2 0x7B3 JUMP JUMPDEST PUSH2 0x85E DUP4 SWAP7 SWAP4 PUSH2 0x1E19 JUMP JUMPDEST SWAP1 SLOAD SWAP1 DUP6 SHL SHR AND SWAP1 DUP8 MLOAD DUP4 LT ISZERO PUSH2 0x88C JUMPI SWAP2 PUSH2 0x884 SWAP2 DUP8 DUP3 PUSH2 0x849 SWAP6 SHL DUP11 ADD ADD MSTORE PUSH2 0x1F1B JUMP JUMPDEST SWAP4 SWAP1 CODESIZE PUSH2 0x83E JUMP JUMPDEST PUSH4 0x4E487B71 PUSH1 0xE0 SHL DUP11 MSTORE PUSH1 0x32 PUSH1 0x4 MSTORE PUSH1 0x24 DUP11 REVERT JUMPDEST PUSH2 0x8AE DUP2 SWAP6 SWAP4 SWAP5 SWAP3 SWAP6 PUSH2 0x1E19 JUMP JUMPDEST SWAP1 SLOAD SWAP1 DUP6 SHL SHR PUSH1 0x1 PUSH1 0x1 PUSH1 0xA0 SHL SUB AND DUP6 MSTORE PUSH1 0x4 PUSH1 0x20 MSTORE PUSH1 0x40 DUP6 KECCAK256 PUSH1 0x5 ADD SLOAD PUSH1 0xFF AND PUSH2 0x8E7 JUMPI JUMPDEST PUSH2 0x8DD SWAP1 PUSH2 0x1F1B JUMP JUMPDEST SWAP4 SWAP1 SWAP3 SWAP2 SWAP4 PUSH2 0x776 JUMP JUMPDEST SWAP2 PUSH2 0x8F4 PUSH2 0x8DD SWAP2 PUSH2 0x1F1B JUMP JUMPDEST SWAP3 SWAP1 POP PUSH2 0x8D4 JUMP JUMPDEST POP CALLVALUE PUSH2 0x1D5 JUMPI PUSH1 0x20 CALLDATASIZE PUSH1 0x3 NOT ADD SLT PUSH2 0x1D5 JUMPI PUSH1 0xFF PUSH1 0x40 PUSH1 0x20 SWAP3 PUSH1 0x4 CALLDATALOAD DUP2 MSTORE PUSH1 0x7 DUP5 MSTORE KECCAK256 SLOAD AND PUSH1 0x40 MLOAD SWAP1 ISZERO ISZERO DUP2 MSTORE RETURN JUMPDEST POP CALLVALUE PUSH2 0x1D5 JUMPI DUP1 PUSH1 0x3 NOT CALLDATASIZE ADD SLT PUSH2 0x1D5 JUMPI PUSH1 0x2 SLOAD PUSH1 0x40 MLOAD PUSH1 0x1 PUSH1 0x1 PUSH1 0xA0 SHL SUB SWAP1 SWAP2 AND DUP2 MSTORE PUSH1 0x20 SWAP1 RETURN JUMPDEST POP CALLVALUE PUSH2 0x1D5 JUMPI DUP1 PUSH1 0x3 NOT CALLDATASIZE ADD SLT PUSH2 0x1D5 JUMPI PUSH1 0x20 PUSH1 0x40 MLOAD PUSH1 0x0 DUP1 MLOAD PUSH1 0x20 PUSH2 0x25A7 DUP4 CODECOPY DUP2 MLOAD SWAP2 MSTORE DUP2 MSTORE RETURN JUMPDEST POP CALLVALUE PUSH2 0x1D5 JUMPI PUSH1 0x20 DUP1 PUSH1 0x3 NOT CALLDATASIZE ADD SLT PUSH2 0x347 JUMPI PUSH2 0x998 PUSH2 0x19EC JUMP JUMPDEST PUSH2 0x9A0 PUSH2 0x1B92 JUMP JUMPDEST PUSH1 0x1 PUSH1 0x1 PUSH1 0xA0 SHL SUB DUP2 DUP2 AND SWAP3 DUP4 ISZERO PUSH2 0xB25 JUMPI DUP4 DUP6 MSTORE PUSH1 0x4 DUP2 MSTORE PUSH1 0xFF PUSH1 0x5 PUSH1 0x40 DUP8 KECCAK256 ADD SLOAD AND PUSH2 0xAE1 JUMPI PUSH1 0x3 SLOAD PUSH9 0x10000000000000000 DUP2 LT ISZERO PUSH2 0xACD JUMPI DUP5 PUSH2 0xA9C PUSH2 0xAA5 SWAP6 SWAP5 DUP9 SWAP5 PUSH2 0x9F9 DUP6 PUSH1 0x1 PUSH1 0x6 SWAP8 ADD PUSH1 0x3 SSTORE PUSH2 0x1E19 JUMP JUMPDEST DUP2 SLOAD SWAP1 PUSH1 0x3 SHL SWAP1 DUP5 DUP8 DUP4 SHL SWAP3 SHL NOT AND OR SWAP1 SSTORE PUSH1 0x40 MLOAD SWAP6 DUP7 SWAP3 PUSH2 0xA1A DUP5 PUSH2 0x18F1 JUMP JUMPDEST DUP6 DUP5 MSTORE DUP3 DUP5 ADD DUP3 DUP2 MSTORE PUSH1 0x40 DUP6 ADD SWAP2 DUP4 DUP4 MSTORE PUSH1 0x40 PUSH1 0x60 DUP8 ADD SWAP5 DUP1 DUP7 MSTORE PUSH1 0x4 PUSH1 0x80 DUP10 ADD SWAP8 DUP3 DUP10 MSTORE PUSH1 0xC0 PUSH1 0xA0 DUP12 ADD SWAP11 PUSH1 0x1 DUP13 MSTORE ADD SWAP12 DUP4 DUP14 MSTORE DUP4 MSTORE MSTORE KECCAK256 SWAP10 MLOAD AND PUSH12 0xFFFFFFFFFFFFFFFFFFFFFFFF PUSH1 0xA0 SHL DUP11 SLOAD AND OR DUP10 SSTORE MLOAD PUSH1 0x1 DUP10 ADD SSTORE MLOAD PUSH1 0x2 DUP9 ADD SSTORE MLOAD PUSH1 0x3 DUP8 ADD SSTORE MLOAD PUSH1 0x4 DUP7 ADD SSTORE MLOAD ISZERO ISZERO PUSH1 0x5 DUP6 ADD SWAP1 PUSH1 0xFF DUP1 NOT DUP4 SLOAD AND SWAP2 ISZERO ISZERO AND OR SWAP1 SSTORE JUMP JUMPDEST MLOAD SWAP2 ADD SSTORE PUSH2 0x1BF2 JUMP JUMPDEST POP PUSH32 0x8EC6B4C704DA9EA0A8BD9196F71626EC32C89805F3FF10486A6478353EF1CB34 DUP3 DUP1 LOG2 DUP1 RETURN JUMPDEST PUSH4 0x4E487B71 PUSH1 0xE0 SHL DUP7 MSTORE PUSH1 0x41 PUSH1 0x4 MSTORE PUSH1 0x24 DUP7 REVERT JUMPDEST PUSH1 0x64 SWAP1 PUSH1 0x40 MLOAD SWAP1 PUSH3 0x461BCD PUSH1 0xE5 SHL DUP3 MSTORE PUSH1 0x4 DUP3 ADD MSTORE PUSH1 0x1C PUSH1 0x24 DUP3 ADD MSTORE PUSH32 0x417574686F7269747920616C7265616479207265676973746572656400000000 PUSH1 0x44 DUP3 ADD MSTORE REVERT JUMPDEST PUSH1 0x64 SWAP1 PUSH1 0x40 MLOAD SWAP1 PUSH3 0x461BCD PUSH1 0xE5 SHL DUP3 MSTORE PUSH1 0x4 DUP3 ADD MSTORE PUSH1 0xF PUSH1 0x24 DUP3 ADD MSTORE PUSH15 0x496E76616C69642061646472657373 PUSH1 0x88 SHL PUSH1 0x44 DUP3 ADD MSTORE REVERT JUMPDEST POP CALLVALUE PUSH2 0x1D5 JUMPI PUSH1 0x20 CALLDATASIZE PUSH1 0x3 NOT ADD SLT PUSH2 0x1D5 JUMPI PUSH1 0x40 SWAP1 PUSH1 0x4 CALLDATALOAD DUP2 MSTORE PUSH1 0x6 PUSH1 0x20 MSTORE KECCAK256 DUP1 SLOAD PUSH1 0x1 DUP1 PUSH1 0xA0 SHL SUB PUSH1 0xFF DUP2 PUSH1 0x1 DUP6 ADD SLOAD AND SWAP4 PUSH2 0xBE5 PUSH1 0x2 DUP3 ADD SLOAD SWAP2 PUSH1 0x3 DUP2 ADD SLOAD DUP5 PUSH1 0x4 DUP4 ADD SLOAD AND SWAP1 PUSH1 0x6 PUSH2 0xBB2 PUSH1 0x5 DUP6 ADD PUSH2 0x1A3C JUMP JUMPDEST SWAP4 ADD SLOAD SWAP5 PUSH1 0x40 MLOAD SWAP10 DUP11 SWAP10 DUP11 MSTORE PUSH1 0x20 DUP11 ADD MSTORE PUSH1 0x40 DUP10 ADD MSTORE PUSH1 0x60 DUP9 ADD MSTORE ISZERO ISZERO PUSH1 0x80 DUP8 ADD MSTORE PUSH2 0x120 DUP1 PUSH1 0xA0 DUP9 ADD MSTORE DUP7 ADD SWAP1 PUSH2 0x1B05 JUMP JUMPDEST SWAP3 DUP3 DUP3 AND ISZERO ISZERO PUSH1 0xC0 DUP7 ADD MSTORE DUP2 PUSH1 0x8 SHR AND PUSH1 0xE0 DUP6 ADD MSTORE PUSH1 0xA8 SHR AND ISZERO ISZERO PUSH2 0x100 DUP4 ADD MSTORE SUB SWAP1 RETURN JUMPDEST POP CALLVALUE PUSH2 0x1D5 JUMPI PUSH1 0x40 CALLDATASIZE PUSH1 0x3 NOT ADD SLT PUSH2 0x1D5 JUMPI PUSH2 0xC24 PUSH2 0x19D6 JUMP JUMPDEST CALLER PUSH1 0x1 PUSH1 0x1 PUSH1 0xA0 SHL SUB DUP3 AND SUB PUSH2 0xC40 JUMPI PUSH2 0x388 SWAP1 PUSH1 0x4 CALLDATALOAD PUSH2 0x1DA4 JUMP JUMPDEST PUSH1 0x40 MLOAD PUSH4 0x334BD919 PUSH1 0xE1 SHL DUP2 MSTORE PUSH1 0x4 SWAP1 REVERT JUMPDEST POP CALLVALUE PUSH2 0x1D5 JUMPI PUSH1 0x40 CALLDATASIZE PUSH1 0x3 NOT ADD SLT PUSH2 0x1D5 JUMPI PUSH2 0x388 PUSH1 0x4 CALLDATALOAD PUSH2 0xC72 PUSH2 0x19D6 JUMP JUMPDEST SWAP1 DUP1 DUP5 MSTORE DUP4 PUSH1 0x20 MSTORE PUSH2 0xC8A PUSH1 0x1 PUSH1 0x40 DUP7 KECCAK256 ADD SLOAD PUSH2 0x1BCC JUMP JUMPDEST PUSH2 0x1C92 JUMP JUMPDEST POP CALLVALUE PUSH2 0x1D5 JUMPI PUSH1 0x20 CALLDATASIZE PUSH1 0x3 NOT ADD SLT PUSH2 0x1D5 JUMPI PUSH2 0xCA9 PUSH2 0x1F2A JUMP JUMPDEST PUSH1 0x4 CALLDATALOAD DUP2 MSTORE PUSH1 0x7 PUSH1 0x20 MSTORE PUSH1 0xFF PUSH1 0x40 DUP3 KECCAK256 SLOAD AND PUSH2 0x14C5 JUMPI PUSH1 0x24 PUSH1 0x3 SLOAD PUSH2 0xCCF DUP2 ISZERO ISZERO PUSH2 0x1E66 JUMP JUMPDEST PUSH1 0x2 SLOAD PUSH1 0x40 MLOAD PUSH4 0x34D1A869 PUSH1 0xE1 SHL DUP2 MSTORE PUSH1 0x4 DUP1 CALLDATALOAD SWAP1 DUP3 ADD MSTORE SWAP3 DUP5 SWAP2 DUP5 SWAP2 SWAP1 DUP3 SWAP1 PUSH1 0x1 PUSH1 0x1 PUSH1 0xA0 SHL SUB AND GAS STATICCALL SWAP2 DUP3 ISZERO PUSH2 0x10F2 JUMPI DUP4 SWAP3 PUSH2 0x122E JUMPI JUMPDEST POP PUSH2 0xD14 DUP2 ISZERO ISZERO PUSH2 0x1E66 JUMP JUMPDEST DUP3 SWAP2 PUSH1 0x0 NOT SWAP2 PUSH1 0x8 SLOAD PUSH1 0x1 DUP2 ADD DUP1 SWAP2 GT PUSH2 0x121A JUMPI SWAP1 PUSH2 0xD32 SWAP2 PUSH2 0x24CF JUMP JUMPDEST SWAP1 DUP5 JUMPDEST PUSH1 0x3 SLOAD DUP1 DUP3 LT ISZERO PUSH2 0xE0B JUMPI DUP2 DUP5 ADD DUP5 GT PUSH2 0xDF5 JUMPI PUSH2 0xD55 SWAP1 DUP3 DUP6 ADD PUSH2 0x24CF JUMP JUMPDEST PUSH2 0xD5E DUP2 PUSH2 0x1E19 JUMP JUMPDEST SWAP1 SLOAD PUSH1 0x3 SWAP2 SWAP1 SWAP2 SHL SHR PUSH1 0x1 PUSH1 0x1 PUSH1 0xA0 SHL SUB AND DUP1 DUP9 MSTORE PUSH1 0x4 PUSH1 0x20 MSTORE PUSH1 0x40 DUP9 KECCAK256 PUSH1 0x5 DUP2 ADD SLOAD PUSH1 0xFF AND PUSH2 0xD9A JUMPI JUMPDEST POP POP POP PUSH2 0xD95 SWAP1 PUSH2 0x1F1B JUMP JUMPDEST PUSH2 0xD35 JUMP JUMPDEST PUSH1 0x1 DUP2 ADD SLOAD SWAP1 DUP8 DUP3 LT SWAP1 DUP2 PUSH2 0xDC4 JUMPI JUMPDEST POP ISZERO PUSH2 0xD89 JUMPI PUSH1 0x8 SWAP3 SWAP1 SWAP3 SSTORE SWAP6 POP SWAP4 POP PUSH2 0xD95 CODESIZE DUP1 PUSH2 0xD89 JUMP JUMPDEST PUSH1 0x6 SWAP2 POP ADD SLOAD PUSH2 0xE10 DUP2 ADD DUP2 GT PUSH2 0xDE1 JUMPI PUSH2 0xE10 ADD TIMESTAMP GT CODESIZE PUSH2 0xDAA JUMP JUMPDEST PUSH4 0x4E487B71 PUSH1 0xE0 SHL DUP11 MSTORE PUSH1 0x11 PUSH1 0x4 MSTORE PUSH1 0x24 DUP11 REVERT JUMPDEST PUSH4 0x4E487B71 PUSH1 0xE0 SHL PUSH1 0x0 MSTORE PUSH1 0x11 PUSH1 0x4 MSTORE PUSH1 0x24 PUSH1 0x0 REVERT JUMPDEST DUP7 DUP7 DUP5 PUSH1 0x1 PUSH1 0x1 PUSH1 0xA0 SHL SUB DUP3 AND ISZERO PUSH2 0x11D5 JUMPI PUSH1 0x1 PUSH1 0x1 PUSH1 0xA0 SHL SUB DUP3 AND DUP1 DUP5 MSTORE PUSH1 0x4 PUSH1 0x20 DUP2 DUP2 MSTORE PUSH1 0x40 DUP1 DUP8 KECCAK256 TIMESTAMP PUSH1 0x6 SWAP1 SWAP2 ADD SSTORE SWAP2 CALLDATALOAD DUP7 MSTORE PUSH1 0x5 SWAP1 MSTORE DUP1 DUP6 KECCAK256 DUP1 SLOAD PUSH1 0x1 PUSH1 0x1 PUSH1 0xA0 SHL SUB NOT AND SWAP1 SWAP3 OR SWAP1 SWAP2 SSTORE MLOAD SWAP1 PUSH2 0xE65 DUP3 PUSH2 0x190C JUMP JUMPDEST PUSH1 0x4 CALLDATALOAD DUP3 MSTORE PUSH1 0x1 DUP1 PUSH1 0xA0 SHL SUB DUP4 AND PUSH1 0x20 DUP4 ADD MSTORE TIMESTAMP PUSH1 0x40 DUP4 ADD MSTORE DUP4 PUSH1 0x60 DUP4 ADD MSTORE DUP4 PUSH1 0x80 DUP4 ADD MSTORE PUSH1 0x40 MLOAD SWAP1 DUP2 PUSH1 0x20 DUP2 ADD LT PUSH1 0x1 PUSH1 0x1 PUSH1 0x40 SHL SUB PUSH1 0x20 DUP5 ADD GT OR PUSH2 0x11BF JUMPI DUP2 PUSH1 0x20 PUSH10 0x21E19E0C9BAB2400000 SWAP4 ADD PUSH1 0x40 MSTORE DUP6 DUP2 MSTORE PUSH1 0xA0 DUP5 ADD MSTORE LT ISZERO PUSH1 0xC0 DUP3 ADD MSTORE DUP3 PUSH1 0xE0 DUP3 ADD MSTORE DUP3 PUSH2 0x100 DUP3 ADD MSTORE PUSH1 0x4 CALLDATALOAD DUP4 MSTORE PUSH1 0x6 PUSH1 0x20 MSTORE PUSH1 0x40 DUP4 KECCAK256 DUP2 MLOAD DUP2 SSTORE PUSH1 0x1 DUP2 ADD PUSH1 0x1 DUP1 PUSH1 0xA0 SHL SUB PUSH1 0x20 DUP5 ADD MLOAD AND PUSH12 0xFFFFFFFFFFFFFFFFFFFFFFFF PUSH1 0xA0 SHL DUP3 SLOAD AND OR SWAP1 SSTORE PUSH1 0x40 DUP3 ADD MLOAD PUSH1 0x2 DUP3 ADD SSTORE PUSH1 0x60 DUP3 ADD MLOAD PUSH1 0x3 DUP3 ADD SSTORE PUSH2 0xF41 PUSH1 0x80 DUP4 ADD MLOAD ISZERO ISZERO PUSH1 0x4 DUP4 ADD SWAP1 PUSH1 0xFF DUP1 NOT DUP4 SLOAD AND SWAP2 ISZERO ISZERO AND OR SWAP1 SSTORE JUMP JUMPDEST PUSH1 0xA0 DUP3 ADD MLOAD DUP1 MLOAD SWAP1 PUSH1 0x1 PUSH1 0x1 PUSH1 0x40 SHL SUB DUP3 GT PUSH2 0xACD JUMPI PUSH2 0xF64 PUSH1 0x5 DUP5 ADD SLOAD PUSH2 0x1A02 JUMP JUMPDEST PUSH1 0x1F DUP2 GT PUSH2 0x117B JUMPI JUMPDEST POP PUSH1 0x20 SWAP1 PUSH1 0x1F DUP4 GT PUSH1 0x1 EQ PUSH2 0x1108 JUMPI SWAP2 DUP1 PUSH2 0x100 SWAP5 SWAP3 PUSH1 0x6 SWAP5 DUP10 SWAP3 PUSH2 0x10FD JUMPI JUMPDEST POP POP DUP2 PUSH1 0x1 SHL SWAP2 PUSH1 0x0 NOT SWAP1 PUSH1 0x3 SHL SHR NOT AND OR PUSH1 0x5 DUP3 ADD SSTORE JUMPDEST ADD SWAP2 PUSH2 0xFC3 PUSH1 0xC0 DUP3 ADD MLOAD ISZERO ISZERO DUP5 SWAP1 PUSH1 0xFF DUP1 NOT DUP4 SLOAD AND SWAP2 ISZERO ISZERO AND OR SWAP1 SSTORE JUMP JUMPDEST PUSH1 0xE0 DUP2 ADD MLOAD DUP4 SLOAD PUSH2 0x100 PUSH1 0x1 PUSH1 0xA8 SHL SUB NOT AND PUSH1 0x8 SWAP2 SWAP1 SWAP2 SHL PUSH2 0x100 PUSH1 0x1 PUSH1 0xA8 SHL SUB AND OR DUP4 SSTORE ADD MLOAD DUP2 SLOAD PUSH1 0xFF PUSH1 0xA8 SHL NOT AND SWAP1 ISZERO ISZERO PUSH1 0xA8 SHL PUSH1 0xFF PUSH1 0xA8 SHL AND OR SWAP1 SSTORE PUSH1 0x4 DUP1 CALLDATALOAD DUP4 MSTORE PUSH1 0x7 PUSH1 0x20 SWAP1 DUP2 MSTORE PUSH1 0x40 DUP1 DUP6 KECCAK256 DUP1 SLOAD PUSH1 0xFF NOT AND PUSH1 0x1 SWAP1 DUP2 OR SWAP1 SWAP2 SSTORE PUSH1 0x1 PUSH1 0x1 PUSH1 0xA0 SHL SUB DUP6 AND DUP7 MSTORE SWAP3 SWAP1 SWAP2 MSTORE DUP4 KECCAK256 ADD DUP1 SLOAD PUSH2 0x1040 SWAP1 PUSH2 0x1F1B JUMP JUMPDEST SWAP1 SSTORE PUSH1 0x2 SLOAD DUP3 SWAP1 PUSH1 0x1 PUSH1 0x1 PUSH1 0xA0 SHL SUB AND DUP1 EXTCODESIZE ISZERO PUSH2 0x347 JUMPI DUP2 SWAP1 PUSH1 0x84 PUSH1 0x40 MLOAD DUP1 SWAP5 DUP2 SWAP4 PUSH4 0x52120EE7 PUSH1 0xE0 SHL DUP4 MSTORE PUSH1 0x4 CALLDATALOAD PUSH1 0x4 DUP5 ADD MSTORE PUSH1 0x1 PUSH1 0x24 DUP5 ADD MSTORE PUSH1 0x60 PUSH1 0x44 DUP5 ADD MSTORE DUP2 PUSH1 0x64 DUP5 ADD MSTORE GAS CALL DUP1 ISZERO PUSH2 0x10F2 JUMPI PUSH2 0x10DE JUMPI JUMPDEST PUSH1 0x40 MLOAD PUSH1 0x20 SWAP1 DUP4 PUSH1 0x1 PUSH1 0x1 PUSH1 0xA0 SHL SUB DUP2 AND PUSH1 0x4 CALLDATALOAD PUSH32 0x68CA2CF0B59D4561E875F2E3CEEBB11BFC3DCB92785DCB3A74F63FE140FAFC6F DUP9 DUP1 LOG3 PUSH1 0x1 DUP1 SSTORE PUSH1 0x1 PUSH1 0x1 PUSH1 0xA0 SHL SUB AND DUP2 MSTORE RETURN JUMPDEST PUSH2 0x10E8 DUP4 SWAP2 PUSH2 0x18DE JUMP JUMPDEST PUSH2 0x347 JUMPI DUP3 PUSH2 0x1095 JUMP JUMPDEST PUSH1 0x40 MLOAD RETURNDATASIZE DUP6 DUP3 RETURNDATACOPY RETURNDATASIZE SWAP1 REVERT JUMPDEST ADD MLOAD SWAP1 POP DUP9 DUP1 PUSH2 0xF8D JUMP JUMPDEST SWAP1 PUSH1 0x5 DUP5 ADD DUP8 MSTORE PUSH1 0x20 DUP8 KECCAK256 SWAP2 DUP8 JUMPDEST PUSH1 0x1F NOT DUP6 AND DUP2 LT PUSH2 0x1163 JUMPI POP SWAP3 PUSH2 0x100 SWAP5 SWAP3 PUSH1 0x1 SWAP3 PUSH1 0x6 SWAP6 DUP4 PUSH1 0x1F NOT DUP2 AND LT PUSH2 0x114A JUMPI JUMPDEST POP POP POP DUP2 SHL ADD PUSH1 0x5 DUP3 ADD SSTORE PUSH2 0xFA5 JUMP JUMPDEST ADD MLOAD PUSH1 0x0 NOT PUSH1 0xF8 DUP5 PUSH1 0x3 SHL AND SHR NOT AND SWAP1 SSTORE DUP9 DUP1 DUP1 PUSH2 0x113A JUMP JUMPDEST SWAP2 SWAP3 PUSH1 0x20 PUSH1 0x1 DUP2 SWAP3 DUP7 DUP6 ADD MLOAD DUP2 SSTORE ADD SWAP5 ADD SWAP3 ADD PUSH2 0x1116 JUMP JUMPDEST PUSH1 0x5 DUP5 ADD DUP8 MSTORE PUSH1 0x20 DUP8 KECCAK256 PUSH1 0x1F DUP5 ADD PUSH1 0x5 SHR DUP2 ADD PUSH1 0x20 DUP6 LT PUSH2 0x11B8 JUMPI JUMPDEST PUSH1 0x1F DUP4 ADD PUSH1 0x5 SHR DUP3 ADD DUP2 LT PUSH2 0x11AD JUMPI POP POP PUSH2 0xF6D JUMP JUMPDEST DUP9 DUP2 SSTORE PUSH1 0x1 ADD PUSH2 0x1197 JUMP JUMPDEST POP DUP1 PUSH2 0x1197 JUMP JUMPDEST PUSH4 0x4E487B71 PUSH1 0xE0 SHL PUSH1 0x0 MSTORE PUSH1 0x41 PUSH1 0x4 MSTORE PUSH1 0x24 PUSH1 0x0 REVERT JUMPDEST PUSH1 0x40 MLOAD PUSH3 0x461BCD PUSH1 0xE5 SHL DUP2 MSTORE PUSH1 0x20 PUSH1 0x4 DUP3 ADD MSTORE PUSH1 0x1B PUSH1 0x24 DUP3 ADD MSTORE PUSH32 0x4E6F207375697461626C6520617574686F7269747920666F756E640000000000 PUSH1 0x44 DUP3 ADD MSTORE PUSH1 0x64 SWAP1 REVERT JUMPDEST PUSH4 0x4E487B71 PUSH1 0xE0 SHL DUP7 MSTORE PUSH1 0x11 PUSH1 0x4 MSTORE PUSH1 0x24 DUP7 REVERT JUMPDEST SWAP1 SWAP2 POP RETURNDATASIZE SWAP1 DUP2 DUP5 DUP3 RETURNDATACOPY PUSH2 0x1241 DUP3 DUP3 PUSH2 0x1928 JUMP JUMPDEST PUSH1 0xE0 DUP2 DUP4 DUP2 ADD SUB SLT PUSH2 0x14C1 JUMPI PUSH1 0x20 DUP2 ADD MLOAD PUSH1 0x1 PUSH1 0x1 PUSH1 0x40 SHL SUB DUP2 GT PUSH2 0x14BD JUMPI PUSH2 0x126F SWAP1 DUP4 DUP4 ADD SWAP1 DUP4 ADD PUSH2 0x1EE7 JUMP JUMPDEST POP PUSH1 0x40 DUP2 ADD MLOAD PUSH1 0x1 PUSH1 0x1 PUSH1 0x40 SHL SUB DUP2 GT PUSH2 0x14BD JUMPI PUSH2 0x1292 SWAP1 DUP4 DUP4 ADD SWAP1 DUP4 ADD PUSH2 0x1EE7 JUMP JUMPDEST POP PUSH1 0x60 DUP2 ADD MLOAD SWAP2 PUSH1 0x6 PUSH1 0x80 DUP4 ADD MLOAD LT ISZERO PUSH2 0x14BD JUMPI PUSH1 0xC0 DUP3 ADD MLOAD SWAP1 PUSH1 0x1 PUSH1 0x1 PUSH1 0x40 SHL SUB DUP3 GT PUSH2 0x14B9 JUMPI PUSH1 0xE0 DUP3 DUP5 ADD DUP3 DUP6 ADD SUB SLT PUSH2 0x14B9 JUMPI PUSH1 0x40 MLOAD SWAP3 PUSH2 0x12D5 DUP5 PUSH2 0x18F1 JUMP JUMPDEST DUP3 DUP2 ADD MLOAD PUSH1 0x1 PUSH1 0x1 PUSH1 0x40 SHL SUB DUP2 GT PUSH2 0x1474 JUMPI PUSH2 0x12F8 SWAP1 DUP4 DUP4 ADD SWAP1 DUP6 DUP5 ADD ADD PUSH2 0x1EE7 JUMP JUMPDEST DUP5 MSTORE PUSH1 0x20 DUP4 DUP3 ADD ADD MLOAD PUSH1 0x1 PUSH1 0x1 PUSH1 0x40 SHL SUB DUP2 GT PUSH2 0x1474 JUMPI PUSH2 0x1320 SWAP1 DUP4 DUP4 ADD SWAP1 DUP6 DUP5 ADD ADD PUSH2 0x1EE7 JUMP JUMPDEST PUSH1 0x20 DUP6 ADD MSTORE PUSH1 0x40 DUP4 DUP3 ADD ADD MLOAD PUSH1 0x1 PUSH1 0x1 PUSH1 0x40 SHL SUB DUP2 GT PUSH2 0x1474 JUMPI DUP3 DUP3 ADD PUSH1 0x1F DUP3 DUP7 DUP6 ADD ADD ADD SLT ISZERO PUSH2 0x1474 JUMPI DUP1 DUP5 DUP4 ADD ADD MLOAD SWAP1 PUSH2 0x135B DUP3 PUSH2 0x1F04 JUMP JUMPDEST SWAP2 PUSH2 0x1369 PUSH1 0x40 MLOAD SWAP4 DUP5 PUSH2 0x1928 JUMP JUMPDEST DUP1 DUP4 MSTORE PUSH1 0x20 DUP4 ADD SWAP2 DUP6 DUP6 ADD PUSH1 0x20 DUP4 PUSH1 0x5 SHL DUP4 DUP11 DUP10 ADD ADD ADD ADD GT PUSH2 0x14B5 JUMPI PUSH1 0x20 DUP2 DUP9 DUP8 ADD ADD ADD SWAP3 JUMPDEST PUSH1 0x20 DUP4 PUSH1 0x5 SHL DUP4 DUP11 DUP10 ADD ADD ADD ADD DUP5 LT PUSH2 0x1478 JUMPI POP POP POP POP PUSH1 0x40 DUP6 ADD MSTORE PUSH1 0x60 DUP4 DUP3 ADD ADD MLOAD PUSH1 0x1 PUSH1 0x1 PUSH1 0x40 SHL SUB DUP2 GT PUSH2 0x1474 JUMPI DUP3 DUP3 ADD PUSH1 0x1F DUP3 DUP7 DUP6 ADD ADD ADD SLT ISZERO PUSH2 0x1474 JUMPI DUP4 DUP3 ADD ADD DUP1 MLOAD PUSH2 0x13E9 SWAP2 DUP4 DUP6 ADD SWAP2 SWAP1 PUSH1 0x20 ADD PUSH2 0x1EB2 JUMP JUMPDEST PUSH1 0x60 DUP6 ADD MSTORE PUSH1 0x80 DUP4 DUP3 ADD ADD MLOAD PUSH1 0x1 PUSH1 0x1 PUSH1 0x40 SHL SUB DUP2 GT PUSH2 0x1474 JUMPI PUSH2 0x1414 SWAP1 DUP4 DUP4 ADD SWAP1 DUP6 DUP5 ADD ADD PUSH2 0x1EE7 JUMP JUMPDEST PUSH1 0x80 DUP6 ADD MSTORE PUSH1 0xA0 DUP4 DUP3 ADD ADD MLOAD PUSH1 0x1 PUSH1 0x1 PUSH1 0x40 SHL SUB DUP2 GT PUSH2 0x1474 JUMPI PUSH2 0x143F SWAP1 DUP4 DUP4 ADD SWAP1 DUP6 DUP5 ADD ADD PUSH2 0x1EE7 JUMP JUMPDEST PUSH1 0xA0 DUP6 ADD MSTORE PUSH1 0xC0 DUP4 DUP3 ADD ADD MLOAD PUSH1 0x1 PUSH1 0x1 PUSH1 0x40 SHL SUB DUP2 GT PUSH2 0x1474 JUMPI PUSH1 0xC0 SWAP4 PUSH2 0x146A SWAP4 DUP4 ADD SWAP3 ADD ADD PUSH2 0x1EE7 JUMP JUMPDEST SWAP2 ADD MSTORE SWAP1 CODESIZE PUSH2 0xD08 JUMP JUMPDEST DUP8 DUP1 REVERT JUMPDEST DUP4 MLOAD SWAP1 PUSH1 0x1 PUSH1 0x1 PUSH1 0x40 SHL SUB DUP3 GT PUSH2 0x14B1 JUMPI PUSH1 0x20 DUP1 SWAP3 SWAP2 PUSH2 0x14A4 DUP10 DUP4 DUP1 SWAP6 DUP9 DUP16 DUP16 DUP6 ADD SWAP5 ADD ADD ADD ADD PUSH2 0x1EE7 JUMP JUMPDEST DUP2 MSTORE ADD SWAP5 ADD SWAP4 SWAP1 POP PUSH2 0x1390 JUMP JUMPDEST DUP13 DUP1 REVERT JUMPDEST DUP11 DUP1 REVERT JUMPDEST DUP6 DUP1 REVERT JUMPDEST DUP5 DUP1 REVERT JUMPDEST DUP4 DUP1 REVERT JUMPDEST PUSH1 0x40 MLOAD PUSH3 0x461BCD PUSH1 0xE5 SHL DUP2 MSTORE PUSH1 0x20 PUSH1 0x4 DUP3 ADD MSTORE PUSH1 0x1C PUSH1 0x24 DUP3 ADD MSTORE PUSH32 0x50726F6A65637420616C726561647920756E6465722072657669657700000000 PUSH1 0x44 DUP3 ADD MSTORE PUSH1 0x64 SWAP1 REVERT JUMPDEST POP CALLVALUE PUSH2 0x1D5 JUMPI PUSH1 0x20 CALLDATASIZE PUSH1 0x3 NOT ADD SLT PUSH2 0x1D5 JUMPI PUSH1 0x20 SWAP1 PUSH1 0x4 CALLDATALOAD DUP2 MSTORE PUSH1 0x5 DUP3 MSTORE PUSH1 0x40 PUSH1 0x1 DUP1 PUSH1 0xA0 SHL SUB SWAP2 KECCAK256 SLOAD AND PUSH1 0x40 MLOAD SWAP1 DUP2 MSTORE RETURN JUMPDEST POP CALLVALUE PUSH2 0x1D5 JUMPI PUSH1 0x20 CALLDATASIZE PUSH1 0x3 NOT ADD SLT PUSH2 0x1D5 JUMPI PUSH1 0x1 PUSH1 0x40 PUSH1 0x20 SWAP3 PUSH1 0x4 CALLDATALOAD DUP2 MSTORE DUP1 DUP5 MSTORE KECCAK256 ADD SLOAD PUSH1 0x40 MLOAD SWAP1 DUP2 MSTORE RETURN JUMPDEST POP CALLVALUE PUSH2 0x1D5 JUMPI PUSH2 0x1578 CALLDATASIZE PUSH2 0x1964 JUMP JUMPDEST SWAP1 PUSH2 0x1581 PUSH2 0x1B2A JUMP JUMPDEST PUSH2 0x1589 PUSH2 0x1F2A JUMP JUMPDEST DUP1 DUP4 MSTORE PUSH1 0x20 SWAP1 PUSH1 0x6 DUP3 MSTORE PUSH1 0x40 DUP5 KECCAK256 SWAP3 PUSH1 0x7 DUP4 MSTORE PUSH2 0x15AC PUSH1 0xFF PUSH1 0x40 DUP8 KECCAK256 SLOAD AND PUSH2 0x1F4D JUMP JUMPDEST PUSH1 0x1 DUP5 DUP2 ADD DUP1 SLOAD SWAP2 SWAP6 PUSH1 0x1 PUSH1 0x1 PUSH1 0xA0 SHL SUB SWAP3 PUSH2 0x15CB SWAP1 DUP5 AND CALLER EQ PUSH2 0x1F99 JUMP JUMPDEST DUP4 MLOAD ISZERO PUSH2 0x1844 JUMPI PUSH1 0x5 PUSH1 0x4 DUP3 ADD SWAP2 PUSH1 0xFF NOT SWAP3 DUP4 DUP2 SLOAD AND SWAP1 SSTORE TIMESTAMP PUSH1 0x3 DUP3 ADD SSTORE ADD DUP5 MLOAD PUSH1 0x1 PUSH1 0x1 PUSH1 0x40 SHL SUB DUP2 GT PUSH2 0x1830 JUMPI SWAP1 DUP5 SWAP4 SWAP3 SWAP2 PUSH2 0x1609 DUP3 SLOAD PUSH2 0x1A02 JUMP JUMPDEST PUSH1 0x1F DUP2 GT PUSH2 0x17DA JUMPI JUMPDEST POP DUP9 PUSH1 0x1F DUP3 GT PUSH1 0x1 EQ PUSH2 0x177B JUMPI DUP12 SWAP1 DUP3 PUSH2 0x1770 JUMPI JUMPDEST POP PUSH1 0x0 NOT PUSH1 0x3 DUP4 SWAP1 SHL SHR NOT AND SWAP1 DUP11 SHL OR SWAP1 SSTORE JUMPDEST DUP6 DUP10 MSTORE PUSH1 0x7 DUP8 MSTORE PUSH1 0x40 DUP10 KECCAK256 SWAP1 DUP2 SLOAD AND SWAP1 SSTORE DUP2 DUP2 SLOAD AND DUP9 MSTORE PUSH1 0x4 DUP7 MSTORE DUP7 PUSH1 0x40 DUP10 KECCAK256 ADD PUSH2 0x1665 DUP2 SLOAD PUSH2 0x1FDB JUMP JUMPDEST SWAP1 SSTORE DUP2 DUP2 SLOAD AND DUP9 MSTORE PUSH1 0x4 DUP7 MSTORE PUSH1 0x2 PUSH1 0x40 DUP10 KECCAK256 ADD PUSH2 0x1682 DUP2 SLOAD PUSH2 0x1F1B JUMP JUMPDEST SWAP1 SSTORE SLOAD AND DUP7 MSTORE PUSH1 0x4 DUP5 MSTORE PUSH1 0x4 PUSH1 0x40 DUP8 KECCAK256 ADD PUSH2 0x169D DUP2 SLOAD PUSH2 0x1F1B JUMP JUMPDEST SWAP1 SSTORE PUSH1 0x2 SLOAD AND DUP1 EXTCODESIZE ISZERO PUSH2 0x14B9 JUMPI DUP6 PUSH1 0x40 MLOAD DUP1 SWAP3 PUSH4 0x52120EE7 PUSH1 0xE0 SHL DUP3 MSTORE DUP6 PUSH1 0x4 DUP4 ADD MSTORE PUSH1 0x3 PUSH1 0x24 DUP4 ADD MSTORE PUSH1 0x60 PUSH1 0x44 DUP4 ADD MSTORE DUP2 DUP4 DUP2 PUSH2 0x16DE PUSH1 0x64 DUP3 ADD DUP10 PUSH2 0x1B05 JUMP JUMPDEST SUB SWAP3 GAS CALL DUP1 ISZERO PUSH2 0x1765 JUMPI PUSH2 0x172E JUMPI JUMPDEST POP PUSH2 0x1726 PUSH32 0x5E5A832CB1C5DF272BCF782F38CEA3622F9769D9AF7D6001C06059A7E609FCC9 SWAP2 PUSH1 0x40 MLOAD SWAP2 DUP3 SWAP2 DUP7 DUP4 MSTORE CALLER SWAP7 DUP4 ADD SWAP1 PUSH2 0x1B05 JUMP JUMPDEST SUB SWAP1 LOG3 DUP1 SSTORE DUP1 RETURN JUMPDEST PUSH32 0x5E5A832CB1C5DF272BCF782F38CEA3622F9769D9AF7D6001C06059A7E609FCC9 SWAP2 SWAP6 PUSH2 0x175D PUSH2 0x1726 SWAP3 PUSH2 0x18DE JUMP JUMPDEST SWAP6 SWAP2 POP PUSH2 0x16ED JUMP JUMPDEST PUSH1 0x40 MLOAD RETURNDATASIZE DUP9 DUP3 RETURNDATACOPY RETURNDATASIZE SWAP1 REVERT JUMPDEST SWAP1 POP DUP8 ADD MLOAD CODESIZE PUSH2 0x1627 JUMP JUMPDEST DUP3 DUP13 MSTORE DUP10 DUP13 KECCAK256 DUP12 SWAP3 SWAP2 PUSH1 0x1F NOT DUP4 AND DUP15 JUMPDEST DUP14 DUP3 DUP3 LT PUSH2 0x17C1 JUMPI POP POP DUP4 GT PUSH2 0x17A8 JUMPI JUMPDEST POP POP DUP2 SHL ADD SWAP1 SSTORE PUSH2 0x163A JUMP JUMPDEST DUP10 ADD MLOAD PUSH1 0x0 NOT PUSH1 0xF8 DUP5 PUSH1 0x3 SHL AND SHR NOT AND SWAP1 SSTORE CODESIZE DUP1 PUSH2 0x179C JUMP JUMPDEST DUP4 DUP14 ADD MLOAD DUP6 SSTORE DUP12 SWAP11 POP DUP16 SWAP7 SWAP1 SWAP5 ADD SWAP4 SWAP3 DUP4 ADD SWAP3 ADD PUSH2 0x178B JUMP JUMPDEST SWAP1 SWAP2 DUP1 SWAP4 SWAP5 SWAP6 POP DUP12 MSTORE DUP9 DUP12 KECCAK256 PUSH1 0x1F DUP4 ADD PUSH1 0x5 SHR DUP2 ADD SWAP2 DUP11 DUP5 LT PUSH2 0x1826 JUMPI JUMPDEST DUP8 SWAP7 SWAP6 SWAP5 SWAP4 SWAP3 SWAP2 PUSH1 0x1F DUP14 SWAP3 ADD PUSH1 0x5 SHR ADD SWAP2 JUMPDEST DUP3 DUP2 LT PUSH2 0x1818 JUMPI POP POP PUSH2 0x1612 JUMP JUMPDEST DUP14 DUP2 SSTORE DUP9 SWAP8 POP DUP13 SWAP2 ADD PUSH2 0x180A JUMP JUMPDEST SWAP1 SWAP2 POP DUP2 SWAP1 PUSH2 0x17F8 JUMP JUMPDEST PUSH4 0x4E487B71 PUSH1 0xE0 SHL DUP11 MSTORE PUSH1 0x41 PUSH1 0x4 MSTORE PUSH1 0x24 DUP11 REVERT JUMPDEST PUSH1 0x40 MLOAD PUSH3 0x461BCD PUSH1 0xE5 SHL DUP2 MSTORE PUSH1 0x4 DUP2 ADD DUP8 SWAP1 MSTORE PUSH1 0x19 PUSH1 0x24 DUP3 ADD MSTORE PUSH32 0x52656A656374696F6E20726561736F6E20726571756972656400000000000000 PUSH1 0x44 DUP3 ADD MSTORE PUSH1 0x64 SWAP1 REVERT JUMPDEST SWAP1 POP CALLVALUE PUSH2 0x347 JUMPI PUSH1 0x20 CALLDATASIZE PUSH1 0x3 NOT ADD SLT PUSH2 0x347 JUMPI PUSH1 0x4 CALLDATALOAD PUSH4 0xFFFFFFFF PUSH1 0xE0 SHL DUP2 AND DUP1 SWAP2 SUB PUSH2 0x5D0 JUMPI PUSH1 0x20 SWAP3 POP PUSH4 0x7965DB0B PUSH1 0xE0 SHL DUP2 EQ SWAP1 DUP2 ISZERO PUSH2 0x18CD JUMPI JUMPDEST POP ISZERO ISZERO DUP2 MSTORE RETURN JUMPDEST PUSH4 0x1FFC9A7 PUSH1 0xE0 SHL EQ SWAP1 POP CODESIZE PUSH2 0x18C6 JUMP JUMPDEST PUSH1 0x1 PUSH1 0x1 PUSH1 0x40 SHL SUB DUP2 GT PUSH2 0x11BF JUMPI PUSH1 0x40 MSTORE JUMP JUMPDEST PUSH1 0xE0 DUP2 ADD SWAP1 DUP2 LT PUSH1 0x1 PUSH1 0x1 PUSH1 0x40 SHL SUB DUP3 GT OR PUSH2 0x11BF JUMPI PUSH1 0x40 MSTORE JUMP JUMPDEST PUSH2 0x120 DUP2 ADD SWAP1 DUP2 LT PUSH1 0x1 PUSH1 0x1 PUSH1 0x40 SHL SUB DUP3 GT OR PUSH2 0x11BF JUMPI PUSH1 0x40 MSTORE JUMP JUMPDEST SWAP1 PUSH1 0x1F DUP1 NOT SWAP2 ADD AND DUP2 ADD SWAP1 DUP2 LT PUSH1 0x1 PUSH1 0x1 PUSH1 0x40 SHL SUB DUP3 GT OR PUSH2 0x11BF JUMPI PUSH1 0x40 MSTORE JUMP JUMPDEST PUSH1 0x1 PUSH1 0x1 PUSH1 0x40 SHL SUB DUP2 GT PUSH2 0x11BF JUMPI PUSH1 0x1F ADD PUSH1 0x1F NOT AND PUSH1 0x20 ADD SWAP1 JUMP JUMPDEST SWAP1 PUSH1 0x40 PUSH1 0x3 NOT DUP4 ADD SLT PUSH2 0x19D1 JUMPI PUSH1 0x4 CALLDATALOAD SWAP2 PUSH1 0x24 CALLDATALOAD PUSH1 0x1 PUSH1 0x1 PUSH1 0x40 SHL SUB DUP2 GT PUSH2 0x19D1 JUMPI DUP2 PUSH1 0x23 DUP3 ADD SLT ISZERO PUSH2 0x19D1 JUMPI DUP1 PUSH1 0x4 ADD CALLDATALOAD SWAP1 PUSH2 0x19A0 DUP3 PUSH2 0x1949 JUMP JUMPDEST SWAP3 PUSH2 0x19AE PUSH1 0x40 MLOAD SWAP5 DUP6 PUSH2 0x1928 JUMP JUMPDEST DUP3 DUP5 MSTORE PUSH1 0x24 DUP4 DUP4 ADD ADD GT PUSH2 0x19D1 JUMPI DUP2 PUSH1 0x0 SWAP3 PUSH1 0x24 PUSH1 0x20 SWAP4 ADD DUP4 DUP7 ADD CALLDATACOPY DUP4 ADD ADD MSTORE SWAP1 JUMP JUMPDEST PUSH1 0x0 DUP1 REVERT JUMPDEST PUSH1 0x24 CALLDATALOAD SWAP1 PUSH1 0x1 PUSH1 0x1 PUSH1 0xA0 SHL SUB DUP3 AND DUP3 SUB PUSH2 0x19D1 JUMPI JUMP JUMPDEST PUSH1 0x4 CALLDATALOAD SWAP1 PUSH1 0x1 PUSH1 0x1 PUSH1 0xA0 SHL SUB DUP3 AND DUP3 SUB PUSH2 0x19D1 JUMPI JUMP JUMPDEST SWAP1 PUSH1 0x1 DUP3 DUP2 SHR SWAP3 AND DUP1 ISZERO PUSH2 0x1A32 JUMPI JUMPDEST PUSH1 0x20 DUP4 LT EQ PUSH2 0x1A1C JUMPI JUMP JUMPDEST PUSH4 0x4E487B71 PUSH1 0xE0 SHL PUSH1 0x0 MSTORE PUSH1 0x22 PUSH1 0x4 MSTORE PUSH1 0x24 PUSH1 0x0 REVERT JUMPDEST SWAP2 PUSH1 0x7F AND SWAP2 PUSH2 0x1A11 JUMP JUMPDEST SWAP1 PUSH1 0x40 MLOAD SWAP2 DUP3 PUSH1 0x0 DUP3 SLOAD SWAP3 PUSH2 0x1A50 DUP5 PUSH2 0x1A02 JUMP JUMPDEST SWAP1 DUP2 DUP5 MSTORE PUSH1 0x1 SWAP5 DUP6 DUP2 AND SWAP1 DUP2 PUSH1 0x0 EQ PUSH2 0x1ABF JUMPI POP PUSH1 0x1 EQ PUSH2 0x1A7C JUMPI JUMPDEST POP POP PUSH2 0x1A7A SWAP3 POP SUB DUP4 PUSH2 0x1928 JUMP JUMPDEST JUMP JUMPDEST SWAP1 SWAP4 SWAP2 POP PUSH1 0x0 MSTORE PUSH1 0x20 SWAP1 DUP2 PUSH1 0x0 KECCAK256 SWAP4 PUSH1 0x0 SWAP2 JUMPDEST DUP2 DUP4 LT PUSH2 0x1AA7 JUMPI POP POP PUSH2 0x1A7A SWAP4 POP DUP3 ADD ADD CODESIZE DUP1 PUSH2 0x1A6C JUMP JUMPDEST DUP6 SLOAD DUP9 DUP5 ADD DUP6 ADD MSTORE SWAP5 DUP6 ADD SWAP5 DUP8 SWAP5 POP SWAP2 DUP4 ADD SWAP2 PUSH2 0x1A8F JUMP JUMPDEST SWAP2 POP POP PUSH2 0x1A7A SWAP5 POP PUSH1 0x20 SWAP3 POP PUSH1 0xFF NOT AND DUP3 DUP5 ADD MSTORE ISZERO ISZERO PUSH1 0x5 SHL DUP3 ADD ADD CODESIZE DUP1 PUSH2 0x1A6C JUMP JUMPDEST PUSH1 0x0 JUMPDEST DUP4 DUP2 LT PUSH2 0x1AF5 JUMPI POP POP PUSH1 0x0 SWAP2 ADD MSTORE JUMP JUMPDEST DUP2 DUP2 ADD MLOAD DUP4 DUP3 ADD MSTORE PUSH1 0x20 ADD PUSH2 0x1AE5 JUMP JUMPDEST SWAP1 PUSH1 0x20 SWAP2 PUSH2 0x1B1E DUP2 MLOAD DUP1 SWAP3 DUP2 DUP6 MSTORE DUP6 DUP1 DUP7 ADD SWAP2 ADD PUSH2 0x1AE2 JUMP JUMPDEST PUSH1 0x1F ADD PUSH1 0x1F NOT AND ADD ADD SWAP1 JUMP JUMPDEST CALLER PUSH1 0x0 SWAP1 DUP2 MSTORE PUSH32 0xA642AD453C16AFA8C512CD8F860DB756AFFDA0E2A0655347B8FBBE4E77106791 PUSH1 0x20 MSTORE PUSH1 0x40 SWAP1 KECCAK256 SLOAD PUSH1 0x0 DUP1 MLOAD PUSH1 0x20 PUSH2 0x25A7 DUP4 CODECOPY DUP2 MLOAD SWAP2 MSTORE SWAP1 PUSH1 0xFF AND ISZERO PUSH2 0x1B74 JUMPI POP JUMP JUMPDEST PUSH1 0x44 SWAP1 PUSH1 0x40 MLOAD SWAP1 PUSH4 0xE2517D3F PUSH1 0xE0 SHL DUP3 MSTORE CALLER PUSH1 0x4 DUP4 ADD MSTORE PUSH1 0x24 DUP3 ADD MSTORE REVERT JUMPDEST CALLER PUSH1 0x0 SWAP1 DUP2 MSTORE PUSH32 0xAD3228B676F7D3CD4284A5443F17F1962B36E491B30A40B2405849E597BA5FB5 PUSH1 0x20 MSTORE PUSH1 0x40 DUP2 KECCAK256 SLOAD PUSH1 0xFF AND ISZERO PUSH2 0x1B74 JUMPI POP JUMP JUMPDEST DUP1 PUSH1 0x0 MSTORE PUSH1 0x0 PUSH1 0x20 MSTORE PUSH1 0x40 PUSH1 0x0 KECCAK256 CALLER PUSH1 0x0 MSTORE PUSH1 0x20 MSTORE PUSH1 0xFF PUSH1 0x40 PUSH1 0x0 KECCAK256 SLOAD AND ISZERO PUSH2 0x1B74 JUMPI POP JUMP JUMPDEST PUSH1 0x1 PUSH1 0x1 PUSH1 0xA0 SHL SUB AND PUSH1 0x0 DUP2 DUP2 MSTORE PUSH32 0xA642AD453C16AFA8C512CD8F860DB756AFFDA0E2A0655347B8FBBE4E77106791 PUSH1 0x20 MSTORE PUSH1 0x40 DUP2 KECCAK256 SLOAD SWAP1 SWAP2 SWAP1 PUSH1 0x0 DUP1 MLOAD PUSH1 0x20 PUSH2 0x25A7 DUP4 CODECOPY DUP2 MLOAD SWAP2 MSTORE SWAP1 PUSH1 0xFF AND PUSH2 0x1C8D JUMPI DUP1 DUP4 MSTORE DUP3 PUSH1 0x20 MSTORE PUSH1 0x40 DUP4 KECCAK256 DUP3 DUP5 MSTORE PUSH1 0x20 MSTORE PUSH1 0x40 DUP4 KECCAK256 PUSH1 0x1 PUSH1 0xFF NOT DUP3 SLOAD AND OR SWAP1 SSTORE PUSH32 0x2F8788117E7EFF1D82E926EC794901D17C78024A50270940304540A733656F0D CALLER SWAP4 DUP1 LOG4 PUSH1 0x1 SWAP1 JUMP JUMPDEST POP POP SWAP1 JUMP JUMPDEST SWAP1 PUSH1 0x0 SWAP2 DUP1 DUP4 MSTORE DUP3 PUSH1 0x20 MSTORE PUSH1 0x40 DUP4 KECCAK256 SWAP2 PUSH1 0x1 DUP1 PUSH1 0xA0 SHL SUB AND SWAP2 DUP3 DUP5 MSTORE PUSH1 0x20 MSTORE PUSH1 0xFF PUSH1 0x40 DUP5 KECCAK256 SLOAD AND ISZERO PUSH1 0x0 EQ PUSH2 0x1C8D JUMPI DUP1 DUP4 MSTORE DUP3 PUSH1 0x20 MSTORE PUSH1 0x40 DUP4 KECCAK256 DUP3 DUP5 MSTORE PUSH1 0x20 MSTORE PUSH1 0x40 DUP4 KECCAK256 PUSH1 0x1 PUSH1 0xFF NOT DUP3 SLOAD AND OR SWAP1 SSTORE PUSH32 0x2F8788117E7EFF1D82E926EC794901D17C78024A50270940304540A733656F0D CALLER SWAP4 DUP1 LOG4 PUSH1 0x1 SWAP1 JUMP JUMPDEST PUSH1 0x1 PUSH1 0x1 PUSH1 0xA0 SHL SUB AND PUSH1 0x0 DUP2 DUP2 MSTORE PUSH32 0xA642AD453C16AFA8C512CD8F860DB756AFFDA0E2A0655347B8FBBE4E77106791 PUSH1 0x20 MSTORE PUSH1 0x40 DUP2 KECCAK256 SLOAD SWAP1 SWAP2 SWAP1 PUSH1 0x0 DUP1 MLOAD PUSH1 0x20 PUSH2 0x25A7 DUP4 CODECOPY DUP2 MLOAD SWAP2 MSTORE SWAP1 PUSH1 0xFF AND ISZERO PUSH2 0x1C8D JUMPI DUP1 DUP4 MSTORE DUP3 PUSH1 0x20 MSTORE PUSH1 0x40 DUP4 KECCAK256 DUP3 DUP5 MSTORE PUSH1 0x20 MSTORE PUSH1 0x40 DUP4 KECCAK256 PUSH1 0xFF NOT DUP2 SLOAD AND SWAP1 SSTORE PUSH32 0xF6391F5C32D9C69D2A47EA670B442974B53935D1EDC7FD64EB21E047A839171B CALLER SWAP4 DUP1 LOG4 PUSH1 0x1 SWAP1 JUMP JUMPDEST SWAP1 PUSH1 0x0 SWAP2 DUP1 DUP4 MSTORE DUP3 PUSH1 0x20 MSTORE PUSH1 0x40 DUP4 KECCAK256 SWAP2 PUSH1 0x1 DUP1 PUSH1 0xA0 SHL SUB AND SWAP2 DUP3 DUP5 MSTORE PUSH1 0x20 MSTORE PUSH1 0xFF PUSH1 0x40 DUP5 KECCAK256 SLOAD AND PUSH1 0x0 EQ PUSH2 0x1C8D JUMPI DUP1 DUP4 MSTORE DUP3 PUSH1 0x20 MSTORE PUSH1 0x40 DUP4 KECCAK256 DUP3 DUP5 MSTORE PUSH1 0x20 MSTORE PUSH1 0x40 DUP4 KECCAK256 PUSH1 0xFF NOT DUP2 SLOAD AND SWAP1 SSTORE PUSH32 0xF6391F5C32D9C69D2A47EA670B442974B53935D1EDC7FD64EB21E047A839171B CALLER SWAP4 DUP1 LOG4 PUSH1 0x1 SWAP1 JUMP JUMPDEST PUSH1 0x3 SLOAD DUP2 LT ISZERO PUSH2 0x1E50 JUMPI PUSH1 0x3 PUSH1 0x0 MSTORE PUSH32 0xC2575A0E9E593C00F959F8C92F12DB2869C3395A3B0502D05E2516446F71F85B ADD SWAP1 PUSH1 0x0 SWAP1 JUMP JUMPDEST PUSH4 0x4E487B71 PUSH1 0xE0 SHL PUSH1 0x0 MSTORE PUSH1 0x32 PUSH1 0x4 MSTORE PUSH1 0x24 PUSH1 0x0 REVERT JUMPDEST ISZERO PUSH2 0x1E6D JUMPI JUMP JUMPDEST PUSH1 0x40 MLOAD PUSH3 0x461BCD PUSH1 0xE5 SHL DUP2 MSTORE PUSH1 0x20 PUSH1 0x4 DUP3 ADD MSTORE PUSH1 0x18 PUSH1 0x24 DUP3 ADD MSTORE PUSH32 0x4E6F20617574686F72697469657320617661696C61626C650000000000000000 PUSH1 0x44 DUP3 ADD MSTORE PUSH1 0x64 SWAP1 REVERT JUMPDEST SWAP1 SWAP3 SWAP2 SWAP3 PUSH2 0x1EBF DUP2 PUSH2 0x1949 JUMP JUMPDEST SWAP2 PUSH2 0x1ECD PUSH1 0x40 MLOAD SWAP4 DUP5 PUSH2 0x1928 JUMP JUMPDEST DUP3 SWAP5 DUP3 DUP5 MSTORE DUP3 DUP3 ADD GT PUSH2 0x19D1 JUMPI PUSH1 0x20 PUSH2 0x1A7A SWAP4 ADD SWAP1 PUSH2 0x1AE2 JUMP JUMPDEST SWAP1 DUP1 PUSH1 0x1F DUP4 ADD SLT ISZERO PUSH2 0x19D1 JUMPI DUP2 MLOAD PUSH2 0x1F01 SWAP3 PUSH1 0x20 ADD PUSH2 0x1EB2 JUMP JUMPDEST SWAP1 JUMP JUMPDEST PUSH1 0x1 PUSH1 0x1 PUSH1 0x40 SHL SUB DUP2 GT PUSH2 0x11BF JUMPI PUSH1 0x5 SHL PUSH1 0x20 ADD SWAP1 JUMP JUMPDEST PUSH1 0x0 NOT DUP2 EQ PUSH2 0xDF5 JUMPI PUSH1 0x1 ADD SWAP1 JUMP JUMPDEST PUSH1 0x2 PUSH1 0x1 SLOAD EQ PUSH2 0x1F3B JUMPI PUSH1 0x2 PUSH1 0x1 SSTORE JUMP JUMPDEST PUSH1 0x40 MLOAD PUSH4 0x3EE5AEB5 PUSH1 0xE0 SHL DUP2 MSTORE PUSH1 0x4 SWAP1 REVERT JUMPDEST ISZERO PUSH2 0x1F54 JUMPI JUMP JUMPDEST PUSH1 0x40 MLOAD PUSH3 0x461BCD PUSH1 0xE5 SHL DUP2 MSTORE PUSH1 0x20 PUSH1 0x4 DUP3 ADD MSTORE PUSH1 0x18 PUSH1 0x24 DUP3 ADD MSTORE PUSH32 0x50726F6A656374206E6F7420756E646572207265766965770000000000000000 PUSH1 0x44 DUP3 ADD MSTORE PUSH1 0x64 SWAP1 REVERT JUMPDEST ISZERO PUSH2 0x1FA0 JUMPI JUMP JUMPDEST PUSH1 0x40 MLOAD PUSH3 0x461BCD PUSH1 0xE5 SHL DUP2 MSTORE PUSH1 0x20 PUSH1 0x4 DUP3 ADD MSTORE PUSH1 0x13 PUSH1 0x24 DUP3 ADD MSTORE PUSH19 0x4E6F742061737369676E656420746F20796F75 PUSH1 0x68 SHL PUSH1 0x44 DUP3 ADD MSTORE PUSH1 0x64 SWAP1 REVERT JUMPDEST DUP1 ISZERO PUSH2 0xDF5 JUMPI PUSH1 0x0 NOT ADD SWAP1 JUMP JUMPDEST PUSH1 0x0 SWAP2 DUP2 DUP4 MSTORE PUSH1 0x20 SWAP1 PUSH1 0x6 DUP3 MSTORE PUSH1 0x40 SWAP4 DUP5 DUP2 KECCAK256 PUSH1 0x7 DUP5 MSTORE PUSH1 0xFF PUSH2 0x200F DUP2 DUP9 DUP6 KECCAK256 SLOAD AND PUSH2 0x1F4D JUMP JUMPDEST PUSH1 0x1 DUP1 DUP4 ADD SWAP1 PUSH1 0x1 DUP1 PUSH1 0xA0 SHL SUB SWAP3 PUSH2 0x202B DUP5 DUP5 SLOAD AND CALLER EQ PUSH2 0x1F99 JUMP JUMPDEST PUSH1 0x2 DUP6 ADD SLOAD PUSH3 0x15180 DUP2 ADD DUP1 SWAP2 GT PUSH2 0x24BB JUMPI TIMESTAMP LT PUSH2 0x2477 JUMPI PUSH1 0x6 DUP6 ADD SWAP3 DUP4 SLOAD DUP6 DUP4 DUP3 AND SWAP2 DUP3 PUSH2 0x2469 JUMPI JUMPDEST POP POP PUSH2 0x23F4 JUMPI DUP4 SLOAD DUP3 DUP2 AND DUP1 PUSH2 0x23E6 JUMPI JUMPDEST PUSH2 0x23AC JUMPI JUMPDEST POP DUP4 SLOAD DUP3 DUP2 AND DUP4 DUP2 ISZERO SWAP3 DUP4 ISZERO PUSH2 0x238B JUMPI JUMPDEST POP POP POP PUSH2 0x2091 JUMPI JUMPDEST POP POP POP POP POP POP POP POP POP POP POP JUMP JUMPDEST PUSH1 0x4 SWAP6 PUSH1 0x5 DUP8 DUP3 ADD SWAP2 PUSH1 0xFF NOT SWAP3 DUP7 DUP5 DUP3 SLOAD AND OR SWAP1 SSTORE TIMESTAMP PUSH1 0x3 DUP3 ADD SSTORE ADD DUP10 MLOAD PUSH1 0x1 PUSH1 0x1 PUSH1 0x40 SHL SUB DUP2 GT PUSH2 0x2378 JUMPI SWAP1 DUP8 SWAP7 SWAP6 SWAP5 SWAP4 SWAP3 SWAP2 DUP13 PUSH2 0x20D0 DUP4 SLOAD PUSH2 0x1A02 JUMP JUMPDEST PUSH1 0x1F DUP2 GT PUSH2 0x231C JUMPI JUMPDEST POP POP DUP13 PUSH1 0x1F DUP3 GT PUSH1 0x1 EQ PUSH2 0x229A JUMPI SWAP1 DUP1 DUP10 SWAP6 SWAP5 SWAP4 SWAP3 DUP14 SWAP2 PUSH2 0x228F JUMPI JUMPDEST POP PUSH1 0x0 NOT PUSH1 0x3 DUP4 SWAP1 SHL SHR NOT AND SWAP1 DUP8 SHL OR SWAP1 SSTORE JUMPDEST DUP13 DUP11 MSTORE PUSH1 0x7 DUP13 MSTORE DUP14 DUP11 KECCAK256 SWAP1 DUP2 SLOAD AND SWAP1 SSTORE DUP2 DUP2 SLOAD AND DUP10 MSTORE DUP8 DUP12 MSTORE DUP4 DUP14 DUP11 KECCAK256 ADD PUSH2 0x2130 DUP2 SLOAD PUSH2 0x1FDB JUMP JUMPDEST SWAP1 SSTORE DUP2 DUP2 SLOAD AND DUP10 MSTORE DUP8 DUP12 MSTORE PUSH1 0x2 DUP14 DUP11 KECCAK256 ADD PUSH2 0x214B DUP2 SLOAD PUSH2 0x1F1B JUMP JUMPDEST SWAP1 SSTORE SLOAD AND DUP8 MSTORE DUP6 DUP10 MSTORE PUSH1 0x3 DUP12 DUP9 KECCAK256 ADD PUSH2 0x2164 DUP2 SLOAD PUSH2 0x1F1B JUMP JUMPDEST SWAP1 SSTORE DUP3 SLOAD SWAP1 DUP2 AND PUSH2 0x2231 JUMPI JUMPDEST POP POP POP POP PUSH1 0x2 SLOAD AND DUP1 EXTCODESIZE ISZERO PUSH2 0x5D0 JUMPI SWAP2 DUP1 SWAP2 DUP7 SWAP4 DUP9 MLOAD SWAP5 DUP6 SWAP3 PUSH4 0x52120EE7 PUSH1 0xE0 SHL DUP5 MSTORE DUP4 ADD MSTORE PUSH1 0x2 PUSH1 0x24 DUP4 ADD MSTORE PUSH1 0x60 PUSH1 0x44 DUP4 ADD MSTORE DUP2 DUP4 DUP2 PUSH2 0x21B4 PUSH1 0x64 DUP3 ADD DUP11 PUSH2 0x1B05 JUMP JUMPDEST SUB SWAP3 GAS CALL SWAP1 DUP2 ISZERO PUSH2 0x2226 JUMPI POP DUP6 SWAP3 PUSH32 0xEE488C6F39811C9198A4AC3DC1B8198855F75BC6FFDE0798DFCB227432510729 SWAP5 SWAP3 PUSH2 0x2204 SWAP3 PUSH2 0x2217 JUMPI JUMPDEST POP DUP4 MLOAD SWAP4 DUP5 SWAP4 TIMESTAMP DUP6 MSTORE DUP5 ADD MSTORE CALLER SWAP7 DUP4 ADD SWAP1 PUSH2 0x1B05 JUMP JUMPDEST SUB SWAP1 LOG3 CODESIZE DUP1 DUP1 DUP1 DUP1 DUP1 DUP1 DUP1 DUP1 DUP1 DUP1 PUSH2 0x2084 JUMP JUMPDEST PUSH2 0x2220 SWAP1 PUSH2 0x18DE JUMP JUMPDEST CODESIZE PUSH2 0x21EE JUMP JUMPDEST DUP7 MLOAD SWAP1 RETURNDATASIZE SWAP1 DUP3 RETURNDATACOPY RETURNDATASIZE SWAP1 REVERT JUMPDEST DUP4 SWAP1 PUSH1 0x8 SHR AND DUP7 MSTORE DUP5 DUP9 MSTORE DUP10 DUP7 KECCAK256 ADD PUSH2 0x224A DUP2 SLOAD PUSH2 0x1FDB JUMP JUMPDEST SWAP1 SSTORE DUP2 DUP2 SLOAD PUSH1 0x8 SHR AND DUP6 MSTORE DUP4 DUP8 MSTORE PUSH1 0x2 DUP10 DUP7 KECCAK256 ADD PUSH2 0x2268 DUP2 SLOAD PUSH2 0x1F1B JUMP JUMPDEST SWAP1 SSTORE SLOAD PUSH1 0x8 SHR AND DUP4 MSTORE DUP2 DUP6 MSTORE PUSH1 0x3 DUP8 DUP5 KECCAK256 ADD PUSH2 0x2284 DUP2 SLOAD PUSH2 0x1F1B JUMP JUMPDEST SWAP1 SSTORE DUP1 CODESIZE DUP1 DUP1 PUSH2 0x2170 JUMP JUMPDEST SWAP1 POP DUP14 ADD MLOAD CODESIZE PUSH2 0x20F5 JUMP JUMPDEST DUP12 SWAP1 DUP14 DUP16 PUSH1 0x1F NOT DUP6 AND SWAP1 DUP7 DUP6 MSTORE DUP1 DUP6 KECCAK256 SWAP5 SWAP1 JUMPDEST DUP3 DUP3 LT PUSH2 0x22ED JUMPI POP POP SWAP2 DUP10 SWAP4 SWAP2 DUP6 DUP14 SWAP10 SWAP9 SWAP8 SWAP7 SWAP5 LT PUSH2 0x22D4 JUMPI JUMPDEST POP POP POP DUP2 SHL ADD SWAP1 SSTORE PUSH2 0x2108 JUMP JUMPDEST ADD MLOAD PUSH1 0x0 NOT PUSH1 0xF8 DUP5 PUSH1 0x3 SHL AND SHR NOT AND SWAP1 SSTORE CODESIZE DUP1 DUP16 PUSH2 0x22C7 JUMP JUMPDEST SWAP3 DUP12 SWAP13 SWAP14 POP SWAP5 DUP5 DUP5 SWAP4 SWAP6 SWAP8 SWAP9 SWAP10 SWAP11 SWAP12 SWAP13 SWAP3 SWAP7 ADD MLOAD DUP2 SSTORE ADD SWAP5 ADD SWAP3 ADD DUP16 SWAP2 DUP16 SWAP2 DUP14 SWAP13 SWAP12 SWAP11 SWAP10 SWAP9 SWAP8 SWAP7 SWAP6 SWAP5 SWAP4 PUSH2 0x22AD JUMP JUMPDEST SWAP1 SWAP2 SWAP3 DUP1 SWAP5 SWAP6 SWAP7 SWAP8 SWAP9 SWAP10 POP DUP13 MSTORE DUP2 DUP13 KECCAK256 SWAP1 PUSH1 0x1F DUP5 ADD PUSH1 0x5 SHR DUP3 ADD SWAP3 DUP5 LT PUSH2 0x236E JUMPI JUMPDEST SWAP1 PUSH1 0x1F DUP12 SWAP11 SWAP10 SWAP9 SWAP8 SWAP7 SWAP6 SWAP5 SWAP4 SWAP3 ADD PUSH1 0x5 SHR ADD SWAP1 JUMPDEST DUP2 DUP2 LT PUSH2 0x2361 JUMPI DUP15 SWAP2 POP PUSH2 0x20D9 JUMP JUMPDEST DUP13 DUP2 SSTORE DUP11 SWAP10 POP DUP8 ADD PUSH2 0x2352 JUMP JUMPDEST SWAP1 SWAP2 POP DUP2 SWAP1 PUSH2 0x233E JUMP JUMPDEST PUSH4 0x4E487B71 PUSH1 0xE0 SHL DUP11 MSTORE PUSH1 0x41 DUP10 MSTORE PUSH1 0x24 DUP11 REVERT JUMPDEST SWAP2 SWAP3 POP SWAP1 DUP3 PUSH2 0x239F JUMPI JUMPDEST POP POP CODESIZE DUP4 DUP2 PUSH2 0x207C JUMP JUMPDEST PUSH1 0xA8 SHR AND SWAP1 POP DUP3 CODESIZE PUSH2 0x2395 JUMP JUMPDEST PUSH1 0xFF PUSH1 0xA8 SHL NOT AND PUSH1 0x1 PUSH1 0xA8 SHL OR DUP5 SSTORE DUP10 PUSH32 0xDC79FA8EE1E1D4613BA1CABC4C15107FC99269F50B499BA92CE7E23974126C96 DUP9 DUP1 LOG2 CODESIZE PUSH2 0x206B JUMP JUMPDEST POP CALLER DUP7 DUP3 PUSH1 0x8 SHR AND EQ PUSH2 0x2066 JUMP JUMPDEST POP POP SWAP4 SWAP5 POP PUSH32 0xA1D89FD08B4EC9B072EC7C20F24E18A62642AE98BAC98D8A095330A53D77389D SWAP6 SWAP8 SWAP3 POP SWAP1 PUSH1 0x4 SWAP2 PUSH2 0x2450 PUSH2 0x242E CALLER PUSH2 0x24EF JUMP JUMPDEST DUP3 SLOAD PUSH2 0x100 PUSH1 0x1 PUSH1 0xA8 SHL SUB NOT AND PUSH1 0x8 DUP3 SWAP1 SHL PUSH2 0x100 PUSH1 0x1 PUSH1 0xA8 SHL SUB AND OR SWAP1 SWAP3 SSTORE JUMP JUMPDEST AND SWAP7 DUP8 DUP6 MSTORE MSTORE DUP3 KECCAK256 ADD PUSH2 0x2463 DUP2 SLOAD PUSH2 0x1F1B JUMP JUMPDEST SWAP1 SSTORE DUP1 LOG3 JUMP JUMPDEST PUSH1 0x8 SHR AND ISZERO SWAP1 POP DUP6 CODESIZE PUSH2 0x2055 JUMP JUMPDEST DUP10 MLOAD PUSH3 0x461BCD PUSH1 0xE5 SHL DUP2 MSTORE PUSH1 0x4 DUP2 ADD DUP10 SWAP1 MSTORE PUSH1 0x1F PUSH1 0x24 DUP3 ADD MSTORE PUSH32 0x4D696E696D756D207265766965772074696D65206E6F7420656C617073656400 PUSH1 0x44 DUP3 ADD MSTORE PUSH1 0x64 SWAP1 REVERT JUMPDEST PUSH4 0x4E487B71 PUSH1 0xE0 SHL DUP8 MSTORE PUSH1 0x11 PUSH1 0x4 MSTORE PUSH1 0x24 DUP8 REVERT JUMPDEST DUP2 ISZERO PUSH2 0x24D9 JUMPI MOD SWAP1 JUMP JUMPDEST PUSH4 0x4E487B71 PUSH1 0xE0 SHL PUSH1 0x0 MSTORE PUSH1 0x12 PUSH1 0x4 MSTORE PUSH1 0x24 PUSH1 0x0 REVERT JUMPDEST PUSH1 0x0 DUP1 SWAP2 PUSH1 0x3 DUP1 SLOAD SWAP4 JUMPDEST DUP5 DUP2 LT PUSH2 0x2545 JUMPI PUSH1 0x40 MLOAD PUSH3 0x461BCD PUSH1 0xE5 SHL DUP2 MSTORE PUSH1 0x20 PUSH1 0x4 DUP3 ADD MSTORE PUSH1 0x1D PUSH1 0x24 DUP3 ADD MSTORE PUSH32 0x4E6F207365636F6E6420617574686F7269747920617661696C61626C65000000 PUSH1 0x44 DUP3 ADD MSTORE PUSH1 0x64 SWAP1 REVERT JUMPDEST PUSH2 0x254E DUP2 PUSH2 0x1E19 JUMP JUMPDEST SWAP1 SLOAD PUSH1 0x1 PUSH1 0x1 PUSH1 0xA0 SHL SUB SWAP2 DUP5 SHL SHR DUP2 AND DUP1 DUP7 MSTORE PUSH1 0x4 PUSH1 0x20 MSTORE PUSH1 0x40 DUP7 KECCAK256 PUSH1 0x5 ADD SLOAD SWAP1 SWAP2 PUSH1 0xFF SWAP1 SWAP2 AND SWAP1 DUP2 PUSH2 0x2599 JUMPI JUMPDEST POP PUSH2 0x2590 JUMPI POP PUSH2 0x258B SWAP1 PUSH2 0x1F1B JUMP JUMPDEST PUSH2 0x24F9 JUMP JUMPDEST SWAP5 POP POP POP POP POP SWAP1 JUMP JUMPDEST SWAP1 POP DUP5 AND DUP2 EQ ISZERO CODESIZE PUSH2 0x257C JUMP INVALID STATICCALL 0x4B PUSH5 0x456636962 0x23 SHR 0xEE CALLVALUE PUSH1 0xC9 0xD8 SWAP14 JUMPDEST 0xC5 RETURN 0xBE 0xD6 PUSH31 0x86F7491992882F0A9A06A26469706673582212204EF6F9693107526B6C9010 SHL ADDRESS PUSH0 DUP7 BASEFEE PUSH5 0xD7517558BC LOG0 0xE7 0xA8 XOR MUL STATICCALL 0x1F 0xCD DUP12 CALL PUSH5 0x736F6C6343 STOP ADDMOD EQ STOP CALLER "},"methodIdentifiers":{"DEFAULT_ADMIN_ROLE()":"a217fddf","HIGHER_AUTHORITY_ROLE()":"532833ef","LARGE_PROJECT_THRESHOLD()":"9e658459","MINIMUM_REVIEW_TIME()":"e55e7f04","approveProject(uint256,string)":"bdca5852","authorityInfo(address)":"87633209","getActiveAuthorities()":"65e45025","getAssignedAuthority(uint256)":"7f7e556e","getAuthorityWorkload(address)":"e6097ac6","getReviewRecord(uint256)":"e5315f3b","getRoleAdmin(bytes32)":"248a9ca3","grantRole(bytes32,address)":"2f2ff15d","hasRole(bytes32,address)":"91d14854","isUnderReview(uint256)":"5dcad724","projectAssignments(uint256)":"279732a1","projectRegistry()":"5a33d8dc","registerAuthority(address)":"49eee586","rejectProject(uint256,string)":"086a8a87","removeAuthority(address)":"d544e010","renounceRole(bytes32,address)":"36568abe","requestRevision(uint256,string)":"a36697d3","reviewRecords(uint256)":"48c42671","revokeRole(bytes32,address)":"d547741f","submitForApproval(uint256)":"2cb0aa31","supportsInterface(bytes4)":"01ffc9a7"}}}}}