{"contracts/AnonymousTenderSystem.sol":{"AnonymousTenderSystem":{"abi":[{"anonymous":false,"inputs":[{"indexed":true,"internalType":"uint256","name":"projectId","type":"uint256"},{"indexed":false,"internalType":"address","name":"contractor","type":"address"},{"indexed":false,"internalType":"uint256","name":"amount","type":"uint256"},{"indexed":false,"internalType":"uint8","name":"milestone","type":"uint8"}],"name":"FundsReleased","type":"event"},{"anonymous":false,"inputs":[{"indexed":true,"internalType":"uint256","name":"milestoneId","type":"uint256"},{"indexed":false,"internalType":"uint256","name":"amountReleased","type":"uint256"}],"name":"MilestoneApproved","type":"event"},{"anonymous":false,"inputs":[{"indexed":true,"internalType":"uint256","name":"milestoneId","type":"uint256"},{"indexed":false,"internalType":"string","name":"reason","type":"string"}],"name":"MilestoneRejected","type":"event"},{"anonymous":false,"inputs":[{"indexed":true,"internalType":"uint256","name":"milestoneId","type":"uint256"},{"indexed":true,"internalType":"uint256","name":"tenderId","type":"uint256"},{"indexed":false,"internalType":"uint8","name":"percentage","type":"uint8"}],"name":"MilestoneSubmitted","type":"event"},{"anonymous":false,"inputs":[{"indexed":true,"internalType":"uint256","name":"projectId","type":"uint256"},{"indexed":false,"internalType":"string","name":"projectName","type":"string"},{"indexed":false,"internalType":"uint256","name":"budget","type":"uint256"},{"indexed":false,"internalType":"address","name":"admin","type":"address"}],"name":"ProjectCreated","type":"event"},{"anonymous":false,"inputs":[{"indexed":true,"internalType":"uint256","name":"tenderId","type":"uint256"},{"indexed":false,"internalType":"address","name":"revealedContractor","type":"address"}],"name":"TenderApproved","type":"event"},{"anonymous":false,"inputs":[{"indexed":true,"internalType":"uint256","name":"tenderId","type":"uint256"},{"indexed":false,"internalType":"string","name":"reason","type":"string"}],"name":"TenderRejected","type":"event"},{"anonymous":false,"inputs":[{"indexed":true,"internalType":"uint256","name":"tenderId","type":"uint256"},{"indexed":true,"internalType":"uint256","name":"projectId","type":"uint256"},{"indexed":false,"internalType":"bytes32","name":"contractorCommitment","type":"bytes32"}],"name":"TenderSubmitted","type":"event"},{"inputs":[{"internalType":"uint256","name":"_tenderId","type":"uint256"},{"internalType":"address","name":"_revealedContractor","type":"address"},{"internalType":"bytes32","name":"_nonce","type":"bytes32"}],"name":"approveTender","outputs":[],"stateMutability":"nonpayable","type":"function"},{"inputs":[{"internalType":"string","name":"_projectName","type":"string"},{"internalType":"uint256","name":"_budget","type":"uint256"},{"internalType":"bytes32","name":"_supervisorCommitment","type":"bytes32"}],"name":"createProject","outputs":[{"internalType":"uint256","name":"","type":"uint256"}],"stateMutability":"nonpayable","type":"function"},{"inputs":[{"internalType":"uint256","name":"_projectId","type":"uint256"}],"name":"getProjectTenders","outputs":[{"internalType":"uint256[]","name":"","type":"uint256[]"}],"stateMutability":"view","type":"function"},{"inputs":[{"internalType":"uint256","name":"_tenderId","type":"uint256"}],"name":"getTenderDetails","outputs":[{"internalType":"string","name":"tenderDoc","type":"string"},{"internalType":"string","name":"qualityReport","type":"string"},{"internalType":"enum AnonymousTenderSystem.TenderStatus","name":"status","type":"uint8"},{"internalType":"address","name":"contractor","type":"address"}],"stateMutability":"view","type":"function"},{"inputs":[],"name":"milestoneCounter","outputs":[{"internalType":"uint256","name":"","type":"uint256"}],"stateMutability":"view","type":"function"},{"inputs":[{"internalType":"uint256","name":"","type":"uint256"}],"name":"milestones","outputs":[{"internalType":"uint256","name":"milestoneId","type":"uint256"},{"internalType":"uint256","name":"projectId","type":"uint256"},{"internalType":"uint256","name":"tenderId","type":"uint256"},{"internalType":"uint8","name":"percentageComplete","type":"uint8"},{"internalType":"string","name":"proofImagesIPFS","type":"string"},{"internalType":"string","name":"gpsCoordinates","type":"string"},{"internalType":"string","name":"architectureDocsIPFS","type":"string"},{"internalType":"bytes32","name":"qualityHash","type":"bytes32"},{"internalType":"enum AnonymousTenderSystem.MilestoneStatus","name":"status","type":"uint8"},{"internalType":"uint256","name":"submittedAt","type":"uint256"},{"internalType":"uint256","name":"approvedAt","type":"uint256"},{"internalType":"string","name":"rejectionReason","type":"string"}],"stateMutability":"view","type":"function"},{"inputs":[],"name":"projectCounter","outputs":[{"internalType":"uint256","name":"","type":"uint256"}],"stateMutability":"view","type":"function"},{"inputs":[{"internalType":"uint256","name":"","type":"uint256"},{"internalType":"uint256","name":"","type":"uint256"}],"name":"projectTenders","outputs":[{"internalType":"uint256","name":"","type":"uint256"}],"stateMutability":"view","type":"function"},{"inputs":[{"internalType":"uint256","name":"","type":"uint256"}],"name":"projects","outputs":[{"internalType":"uint256","name":"projectId","type":"uint256"},{"internalType":"string","name":"projectName","type":"string"},{"internalType":"uint256","name":"budget","type":"uint256"},{"internalType":"address","name":"admin","type":"address"},{"internalType":"bytes32","name":"supervisorCommitment","type":"bytes32"},{"internalType":"enum AnonymousTenderSystem.ProjectStatus","name":"status","type":"uint8"},{"internalType":"uint256","name":"createdAt","type":"uint256"}],"stateMutability":"view","type":"function"},{"inputs":[{"internalType":"uint256","name":"","type":"uint256"}],"name":"revealedContractors","outputs":[{"internalType":"address","name":"","type":"address"}],"stateMutability":"view","type":"function"},{"inputs":[{"internalType":"uint256","name":"_projectId","type":"uint256"},{"internalType":"bytes32","name":"_contractorCommitment","type":"bytes32"},{"internalType":"string","name":"_encryptedContractorDataIPFS","type":"string"},{"internalType":"string","name":"_tenderDocIPFS","type":"string"},{"internalType":"string","name":"_qualityReportIPFS","type":"string"}],"name":"submitAnonymousTender","outputs":[{"internalType":"uint256","name":"","type":"uint256"}],"stateMutability":"nonpayable","type":"function"},{"inputs":[{"internalType":"uint256","name":"_tenderId","type":"uint256"},{"internalType":"uint8","name":"_percentageComplete","type":"uint8"},{"internalType":"string","name":"_proofImagesIPFS","type":"string"},{"internalType":"string","name":"_gpsCoordinates","type":"string"},{"internalType":"string","name":"_architectureDocsIPFS","type":"string"},{"internalType":"bytes32","name":"_qualityHash","type":"bytes32"}],"name":"submitMilestone","outputs":[{"internalType":"uint256","name":"","type":"uint256"}],"stateMutability":"nonpayable","type":"function"},{"inputs":[],"name":"tenderCounter","outputs":[{"internalType":"uint256","name":"","type":"uint256"}],"stateMutability":"view","type":"function"},{"inputs":[{"internalType":"uint256","name":"","type":"uint256"}],"name":"tenders","outputs":[{"internalType":"uint256","name":"tenderId","type":"uint256"},{"internalType":"uint256","name":"projectId","type":"uint256"},{"internalType":"bytes32","name":"contractorCommitment","type":"bytes32"},{"internalType":"string","name":"encryptedContractorDataIPFS","type":"string"},{"internalType":"string","name":"tenderDocumentIPFS","type":"string"},{"internalType":"string","name":"invoiceIPFS","type":"string"},{"internalType":"string","name":"qualityReportIPFS","type":"string"},{"internalType":"enum AnonymousTenderSystem.TenderStatus","name":"status","type":"uint8"},{"internalType":"uint256","name":"submittedAt","type":"uint256"}],"stateMutability":"view","type":"function"},{"inputs":[{"internalType":"uint256","name":"_milestoneId","type":"uint256"},{"internalType":"bool","name":"_qualityVerified","type":"bool"},{"internalType":"bool","name":"_gpsVerified","type":"bool"},{"internalType":"bool","name":"_progressVerified","type":"bool"}],"name":"verifyAndReleaseFunds","outputs":[],"stateMutability":"nonpayable","type":"function"},{"stateMutability":"payable","type":"receive"}],"evm":{"bytecode":{"linkReferences":{},"object":"6080806040523461001657611c18908161001c8239f35b600080fdfe6080604052600436101561001b575b361561001957600080fd5b005b60003560e01c8063107046bd146118425780631878c6bf1461180e57806318d62eab1461155257806330d2210c14611534578063460f1b82146114ec578063465e1def1461140c57806353ee895d146112c05780639787547d146110a95780639ecb052214611003578063a090cdfb14610924578063b34287cc146103aa578063e89e4ed61461029f578063ee4c80a014610106578063f6baaec7146100e85763f8a518ed0361000e57346100e35760003660031901126100e3576020600554604051908152f35b600080fd5b346100e35760003660031901126100e3576020600754604051908152f35b346100e35760603660031901126100e3576024356004356001600160a01b0382168083036100e3578160005260209060018252604060002060018101549061017b604051858101903360601b82526014815261016181611932565b519020836000526000865260046040600020015414611b96565b60405195848701906bffffffffffffffffffffffff199060601b16815260443560348801526034875260608701908782106001600160401b0383111761028957816040528751902060028301540361024857507f08ef1e92b16bd2e2d0be9431db3a64223f23cce123adb96b1202ba2f18ac88db9495506007019060ff199160028382541617905585600052600484526040600020836bffffffffffffffffffffffff60a01b825416179055600052600083526001600560406000200191825416179055604051908152a2005b62461bcd60e51b81526064878101869052601960848901527f496e76616c696420636f6e74726163746f722072657665616c0000000000000060a489015290fd5b634e487b7160e01b600052604160045260246000fd5b346100e35760203660031901126100e357600435600052600260205260406000208054600182015491600281015490600381015460ff1690600481016102e490611989565b916102f160058301611989565b926102fe60068401611989565b600784015494600885015460ff1692600986015494600a87015496600b0161032590611989565b986040519b8c9b8c5260208c015260408b015260608a01526101808060808b0152890161035191611a2f565b88810360a08a015261036291611a2f565b87810360c089015261037391611a2f565b9360e087015261038281611a6f565b6101008601526101208501526101408401528281036101608401526103a691611a2f565b0390f35b346100e35760a03660031901126100e3576044356001600160401b0381116100e3576103da903690600401611abd565b6064356001600160401b0381116100e3576103f9903690600401611abd565b906084356001600160401b0381116100e357610419903690600401611abd565b90600435600052600060205260ff6005604060002001541661043a81611a6f565b6108df57610449600654611b13565b92836006556040519361045b85611916565b808552602085019360043585526040860192602435845260608701948552608087015260405161048a8161194d565b6000815260a087015260c0860152600060e086015242610100860152600052600160205260406000209284518455516001840155516002830155519182516001600160401b038111610289576104f0816104e760038601546118dc565b60038601611b39565b6020601f82116001146108715781929394600092610866575b50508160011b916000199060031b1c19161760038301555b60808101519182516001600160401b038111610289576105518161054860048501546118dc565b60048501611b39565b6020601f82116001146107f857819293946000926107ed575b50508160011b916000199060031b1c19161760048201555b60a08201519182516001600160401b038111610289576105b2816105a960058601546118dc565b60058601611b39565b6020601f821160011461077f5781929394600092610774575b50508160011b916000199060031b1c19161760058301555b60c08101518051906001600160401b038211610289576106138261060a60068701546118dc565b60068701611b39565b602090601f83116001146106fe57918060089492610100946000926106f3575b50508160011b916000199060031b1c19161760068501555b61066560e082015161065c81611a6f565b60078601611b7e565b01519101556004356000526003602052604060002060065490805468010000000000000000811015610289576106a091600182018155611a8f565b819291549060031b91821b91600019901b191617905560206006546040516024358152817fcc51b0e9a11b4449f30eedbf3dc532b58ffe4ad8f2b816544631d5cd5c3c0e9a8460043593a3604051908152f35b015190508680610633565b906006850160005260206000209160005b601f198516811061075c575092600894926001926101009583601f19811610610743575b505050811b01600685015561064b565b015160001960f88460031b161c19169055868080610733565b9192602060018192868501518155019401920161070f565b0151905084806105cb565b6005840160005260206000209060005b601f19841681106107d55750600193949583601f198116106107bc575b505050811b0160058301556105e3565b015160001960f88460031b161c191690558480806107ac565b9091602060018192858a01518155019301910161078f565b01519050848061056a565b6004830160005260206000209060005b601f198416811061084e5750600193949583601f19811610610835575b505050811b016004820155610582565b015160001960f88460031b161c19169055848080610825565b9091602060018192858a015181550193019101610808565b015190508480610509565b6003840160005260206000209060005b601f19841681106108c75750600193949583601f198116106108ae575b505050811b016003830155610521565b015160001960f88460031b161c1916905584808061089e565b9091602060018192858a015181550193019101610881565b60405162461bcd60e51b815260206004820152601d60248201527f50726f6a656374206e6f7420616363657074696e672074656e646572730000006044820152606490fd5b346100e35760c03660031901126100e3576024803560ff811681036100e3576044356001600160401b0381116100e357610962903690600401611abd565b906064356001600160401b0381116100e357610982903690600401611abd565b6084356001600160401b0381116100e3576109a1903690600401611abd565b6004356000526001602052600260ff600760406000200154166109c381611a6f565b03610fc957600435600052600460205260018060a01b03604060002054163303610f8557601460ff8416148015610f78575b8015610f6b575b8015610f5e575b8015610f51575b15610f0d57610a1a600754611b13565b91826007556004356000526001602052600160406000200154946040519561018087018781106001600160401b03821117610ef8576040528487526020870152600435604087015260ff85166060870152608086015260a085015260c084015260a43560e08401526001610100840152426101208401526000610140840152604051610aa58161194d565b60008152610160840152600052600260205260406000208251815560208301516001820155604083015160028201556003810160ff60608501511660ff1982541617905560808301518051906001600160401b038211610de9578190610b1b82610b1260048701546118dc565b60048701611b39565b602090601f8311600114610e8657600092610e7b575b50508160011b916000199060031b1c19161760048201555b60a08301518051906001600160401b038211610de9578190610b7b82610b7260058701546118dc565b60058701611b39565b602090601f8311600114610e0957600092610dfe575b50508160011b916000199060031b1c19161760058201555b60c08301518051906001600160401b038211610de957610bd982610bd060068601546118dc565b60068601611b39565b602090601f8311600114610d735791806101609492600b94600092610d68575b50508160011b916000199060031b1c19161760068201555b60e08501516007820155610c36610100860151610c2d81611a6f565b60088301611b7e565b6101208501516009820155610140850151600a820155019201519182516001600160401b038111610d535760209450610c7981610c7384546118dc565b84611b39565b8493601f8211600114610cf0579381929394600092610ce5575b50508160011b916000199060031b1c19161790555b6007549060ff60405191168152817fa4f370de0d910b9e1634436568274edd60715ade03e4cf084efd418a29349d888460043593a3604051908152f35b015190508580610c93565b601f1982169483600052866000209160005b878110610d3c575083600195969710610d23575b505050811b019055610ca8565b015160001960f88460031b161c19169055858080610d16565b919288600181928685015181550194019201610d02565b84634e487b7160e01b60005260416004526000fd5b015190508880610bf9565b906006840160005260206000209160005b601f1985168110610dd15750926101609492600192600b9583601f19811610610db8575b505050811b016006820155610c11565b015160001960f88460031b161c19169055888080610da8565b91926020600181928685015181550194019201610d84565b85634e487b7160e01b60005260416004526000fd5b015190508680610b91565b9250600584016000526020600020906000935b601f1984168510610e60576001945083601f19811610610e47575b505050811b016005820155610ba9565b015160001960f88460031b161c19169055868080610e37565b81810151835560209485019460019093019290910190610e1c565b015190508680610b31565b9250600484016000526020600020906000935b601f1984168510610edd576001945083601f19811610610ec4575b505050811b016004820155610b49565b015160001960f88460031b161c19169055868080610eb4565b81810151835560209485019460019093019290910190610e99565b88634e487b7160e01b60005260416004526000fd5b60405162461bcd60e51b815260206004820152601c818701527f496e76616c6964206d696c6573746f6e652070657263656e74616765000000006044820152606490fd5b50606460ff841614610a0a565b50605060ff841614610a03565b50603c60ff8416146109fc565b50602860ff8416146109f5565b60405162461bcd60e51b8152602060048201526017818701527f4e6f742061737369676e656420636f6e74726163746f720000000000000000006044820152606490fd5b60405162461bcd60e51b8152602060048201526013818701527215195b99195c881b9bdd08185c1c1c9bdd9959606a1b6044820152606490fd5b346100e3576020806003193601126100e35760043560005260038152604060002060405190818382549182815201908192600052846000209060005b8682821061109557868661105582880383611968565b604051928392818401908285525180915260408401929160005b82811061107e57505050500390f35b83518552869550938101939281019260010161106f565b83548552909301926001928301920161103f565b346100e35760603660031901126100e3576001600160401b036004358181116100e3576110da903690600401611abd565b6024356110e8600554611b13565b806005556040519060e0820182811086821117610289576040528082526020948583018581526040840185815260608501903382526080860192604435845260a08701946000865260c088019642885260005260008b526040600020975188556001808901925180519283116102895761116c8361116686546118dc565b86611b39565b8c908d601f851160011461124b5750928060069a9997959381936111e89a9896600094611240575b50501b916000199060031b1c19161790555b516002880155516003870180546001600160a01b0319166001600160a01b0392909216919091179055516004860155516111df81611a6f565b60058501611b7e565b519101557fbb4637bbc1f7f92783410fb90807fcced52c1562da987ac649876f09a750a5e361122a600554938493604051928392606084526060840190611a2f565b90878301523360408301520390a2604051908152f35b015192503880611194565b9190601f9493941984168660005283600020936000905b8282106112a9575050916111e899979593918560069d9c9a98969410611290575b505050811b0190556111a6565b015160001960f88460031b161c191690558e8080611283565b808886978294978701518155019601940190611262565b346100e35760203660031901126100e3576113d16004358060005260016020526040600020604051906112f282611916565b80548252600181015460208301526002810154604083015261131660038201611989565b606083015261132760048201611989565b926080830193845261133b60058301611989565b60a0840152600261134e60068401611989565b9460c0850195865260ff60078501541694610100600860e083019661137289611a6f565b88885201549101525194519261138785611a6f565b5161139181611a6f565b61139a81611a6f565b03611400576000908152600460205260409020546001600160a01b0316906113df905b604051958695608087526080870190611a2f565b908582036020870152611a2f565b916113e981611a6f565b60408401526001600160a01b031660608301520390f35b506113df6000916113bd565b346100e35760203660031901126100e35760043560005260016020526040600020805460018201549160028101546114d361144960038401611989565b6114c561145860048601611989565b6114b761146760058801611989565b916114a961147760068a01611989565b95600860ff60078c0154169a0154986040519c8d9c8d5260208d015260408c01526101208060608d01528b0190611a2f565b9089820360808b0152611a2f565b9087820360a0890152611a2f565b9085820360c0870152611a2f565b916114dd81611a6f565b60e08401526101008301520390f35b346100e35760403660031901126100e3576024356004356000526003602052604060002080548210156100e35760209161152591611a8f565b90549060031b1c604051908152f35b346100e35760003660031901126100e3576020600654604051908152f35b346100e35760803660031901126100e35760043560243580151581036100e3576044359081151582036100e3576064359081151582036100e35783600052602091600283526115d7600160406000200154604051858101903360601b8252601481526115bd81611932565b519020906000526000855260046040600020015414611b96565b846000526002835260406000209382611806575b50816117fe575b501561173057600882019260ff199360028582541617905542600a840155600183015492836000526000835260026040600020015491600382019260ff8454169081810291818304149015171561171a576064600291049201546000526004845260018060a01b036040600020541690600083838115611710575b600092839283928392f115611704576060869260ff6064967fcd3c5e4379009ba79bacd27e7dda9b2ceae5fa7d95370f5583f8601ff3bee5cf947f939da3b627c123c81fe5aacebf925163337a0d4f8a03724640618078cad248948a6040518a8152a254169460405191825287820152846040820152a2146116eb57005b6000918252526003600560406000200191825416179055005b6040513d6000823e3d90fd5b6108fc925061166d565b634e487b7160e01b600052601160045260246000fd5b608090600b8360087f2346e8d925f08bef41586c0448cb9db28a92557839fbbe0e1a14656b7e3937129501600360ff198254161790550161177181546118dc565b601f81116117dd575b5060267215995c9a599a58d85d1a5bdb8819985a5b1959606a1b0190556028604051918083528201527f5175616c6974792f4750532f50726f677265737320766572696669636174696f6040820152671b8819985a5b195960c21b6060820152a2005b6117f89082600052601f84600020910160051c810190611b22565b8561177a565b9050846115f2565b9150856115eb565b346100e35760203660031901126100e3576004356000526004602052602060018060a01b0360406000205416604051908152f35b346100e35760203660031901126100e35760043560005260006020526040600020805461187160018301611989565b9160028101549060018060a01b03600382015416906004810154600660ff600584015416920154926118b5604051978897885260e0602089015260e0880190611a2f565b946040870152606086015260808501526118ce81611a6f565b60a084015260c08301520390f35b90600182811c9216801561190c575b60208310146118f657565b634e487b7160e01b600052602260045260246000fd5b91607f16916118eb565b61012081019081106001600160401b0382111761028957604052565b604081019081106001600160401b0382111761028957604052565b602081019081106001600160401b0382111761028957604052565b90601f801991011681019081106001600160401b0382111761028957604052565b906040519182600082549261199d846118dc565b908184526001948581169081600014611a0c57506001146119c9575b50506119c792500383611968565b565b9093915060005260209081600020936000915b8183106119f45750506119c7935082010138806119b9565b855488840185015294850194879450918301916119dc565b9150506119c794506020925060ff191682840152151560051b82010138806119b9565b919082519283825260005b848110611a5b575050826000602080949584010152601f8019910116010190565b602081830181015184830182015201611a3a565b60041115611a7957565b634e487b7160e01b600052602160045260246000fd5b8054821015611aa75760005260206000200190600090565b634e487b7160e01b600052603260045260246000fd5b81601f820112156100e3578035906001600160401b0382116102895760405192611af1601f8401601f191660200185611968565b828452602083830101116100e357816000926020809301838601378301015290565b600019811461171a5760010190565b818110611b2d575050565b60008155600101611b22565b9190601f8111611b4857505050565b6119c7926000526020600020906020601f840160051c83019310611b74575b601f0160051c0190611b22565b9091508190611b67565b90611b8881611a6f565b60ff80198354169116179055565b15611b9d57565b60405162461bcd60e51b815260206004820152601960248201527f4e6f7420617574686f72697a65642073757065727669736f72000000000000006044820152606490fdfea2646970667358221220c42dcec6049d2e8937ab7d27004ebf04225e5b28729196e0b68413a1e30e11d864736f6c63430008140033","opcodes":"PUSH1 0x80 DUP1 PUSH1 0x40 MSTORE CALLVALUE PUSH2 0x16 JUMPI PUSH2 0x1C18 SWAP1 DUP2 PUSH2 0x1C DUP3 CODECOPY RETURN JUMPDEST PUSH1 0x0 DUP1 REVERT INVALID PUSH1 0x80 PUSH1 0x40 MSTORE PUSH1 0x4 CALLDATASIZE LT ISZERO PUSH2 0x1B JUMPI JUMPDEST CALLDATASIZE ISZERO PUSH2 0x19 JUMPI PUSH1 0x0 DUP1 REVERT JUMPDEST STOP JUMPDEST PUSH1 0x0 CALLDATALOAD PUSH1 0xE0 SHR DUP1 PUSH4 0x107046BD EQ PUSH2 0x1842 JUMPI DUP1 PUSH4 0x1878C6BF EQ PUSH2 0x180E JUMPI DUP1 PUSH4 0x18D62EAB EQ PUSH2 0x1552 JUMPI DUP1 PUSH4 0x30D2210C EQ PUSH2 0x1534 JUMPI DUP1 PUSH4 0x460F1B82 EQ PUSH2 0x14EC JUMPI DUP1 PUSH4 0x465E1DEF EQ PUSH2 0x140C JUMPI DUP1 PUSH4 0x53EE895D EQ PUSH2 0x12C0 JUMPI DUP1 PUSH4 0x9787547D EQ PUSH2 0x10A9 JUMPI DUP1 PUSH4 0x9ECB0522 EQ PUSH2 0x1003 JUMPI DUP1 PUSH4 0xA090CDFB EQ PUSH2 0x924 JUMPI DUP1 PUSH4 0xB34287CC EQ PUSH2 0x3AA JUMPI DUP1 PUSH4 0xE89E4ED6 EQ PUSH2 0x29F JUMPI DUP1 PUSH4 0xEE4C80A0 EQ PUSH2 0x106 JUMPI DUP1 PUSH4 0xF6BAAEC7 EQ PUSH2 0xE8 JUMPI PUSH4 0xF8A518ED SUB PUSH2 0xE JUMPI CALLVALUE PUSH2 0xE3 JUMPI PUSH1 0x0 CALLDATASIZE PUSH1 0x3 NOT ADD SLT PUSH2 0xE3 JUMPI PUSH1 0x20 PUSH1 0x5 SLOAD PUSH1 0x40 MLOAD SWAP1 DUP2 MSTORE RETURN JUMPDEST PUSH1 0x0 DUP1 REVERT JUMPDEST CALLVALUE PUSH2 0xE3 JUMPI PUSH1 0x0 CALLDATASIZE PUSH1 0x3 NOT ADD SLT PUSH2 0xE3 JUMPI PUSH1 0x20 PUSH1 0x7 SLOAD PUSH1 0x40 MLOAD SWAP1 DUP2 MSTORE RETURN JUMPDEST CALLVALUE PUSH2 0xE3 JUMPI PUSH1 0x60 CALLDATASIZE PUSH1 0x3 NOT ADD SLT PUSH2 0xE3 JUMPI PUSH1 0x24 CALLDATALOAD PUSH1 0x4 CALLDATALOAD PUSH1 0x1 PUSH1 0x1 PUSH1 0xA0 SHL SUB DUP3 AND DUP1 DUP4 SUB PUSH2 0xE3 JUMPI DUP2 PUSH1 0x0 MSTORE PUSH1 0x20 SWAP1 PUSH1 0x1 DUP3 MSTORE PUSH1 0x40 PUSH1 0x0 KECCAK256 PUSH1 0x1 DUP2 ADD SLOAD SWAP1 PUSH2 0x17B PUSH1 0x40 MLOAD DUP6 DUP2 ADD SWAP1 CALLER PUSH1 0x60 SHL DUP3 MSTORE PUSH1 0x14 DUP2 MSTORE PUSH2 0x161 DUP2 PUSH2 0x1932 JUMP JUMPDEST MLOAD SWAP1 KECCAK256 DUP4 PUSH1 0x0 MSTORE PUSH1 0x0 DUP7 MSTORE PUSH1 0x4 PUSH1 0x40 PUSH1 0x0 KECCAK256 ADD SLOAD EQ PUSH2 0x1B96 JUMP JUMPDEST PUSH1 0x40 MLOAD SWAP6 DUP5 DUP8 ADD SWAP1 PUSH12 0xFFFFFFFFFFFFFFFFFFFFFFFF NOT SWAP1 PUSH1 0x60 SHL AND DUP2 MSTORE PUSH1 0x44 CALLDATALOAD PUSH1 0x34 DUP9 ADD MSTORE PUSH1 0x34 DUP8 MSTORE PUSH1 0x60 DUP8 ADD SWAP1 DUP8 DUP3 LT PUSH1 0x1 PUSH1 0x1 PUSH1 0x40 SHL SUB DUP4 GT OR PUSH2 0x289 JUMPI DUP2 PUSH1 0x40 MSTORE DUP8 MLOAD SWAP1 KECCAK256 PUSH1 0x2 DUP4 ADD SLOAD SUB PUSH2 0x248 JUMPI POP PUSH32 0x8EF1E92B16BD2E2D0BE9431DB3A64223F23CCE123ADB96B1202BA2F18AC88DB SWAP5 SWAP6 POP PUSH1 0x7 ADD SWAP1 PUSH1 0xFF NOT SWAP2 PUSH1 0x2 DUP4 DUP3 SLOAD AND OR SWAP1 SSTORE DUP6 PUSH1 0x0 MSTORE PUSH1 0x4 DUP5 MSTORE PUSH1 0x40 PUSH1 0x0 KECCAK256 DUP4 PUSH12 0xFFFFFFFFFFFFFFFFFFFFFFFF PUSH1 0xA0 SHL DUP3 SLOAD AND OR SWAP1 SSTORE PUSH1 0x0 MSTORE PUSH1 0x0 DUP4 MSTORE PUSH1 0x1 PUSH1 0x5 PUSH1 0x40 PUSH1 0x0 KECCAK256 ADD SWAP2 DUP3 SLOAD AND OR SWAP1 SSTORE PUSH1 0x40 MLOAD SWAP1 DUP2 MSTORE LOG2 STOP JUMPDEST PUSH3 0x461BCD PUSH1 0xE5 SHL DUP2 MSTORE PUSH1 0x64 DUP8 DUP2 ADD DUP7 SWAP1 MSTORE PUSH1 0x19 PUSH1 0x84 DUP10 ADD MSTORE PUSH32 0x496E76616C696420636F6E74726163746F722072657665616C00000000000000 PUSH1 0xA4 DUP10 ADD MSTORE SWAP1 REVERT JUMPDEST PUSH4 0x4E487B71 PUSH1 0xE0 SHL PUSH1 0x0 MSTORE PUSH1 0x41 PUSH1 0x4 MSTORE PUSH1 0x24 PUSH1 0x0 REVERT JUMPDEST CALLVALUE PUSH2 0xE3 JUMPI PUSH1 0x20 CALLDATASIZE PUSH1 0x3 NOT ADD SLT PUSH2 0xE3 JUMPI PUSH1 0x4 CALLDATALOAD PUSH1 0x0 MSTORE PUSH1 0x2 PUSH1 0x20 MSTORE PUSH1 0x40 PUSH1 0x0 KECCAK256 DUP1 SLOAD PUSH1 0x1 DUP3 ADD SLOAD SWAP2 PUSH1 0x2 DUP2 ADD SLOAD SWAP1 PUSH1 0x3 DUP2 ADD SLOAD PUSH1 0xFF AND SWAP1 PUSH1 0x4 DUP2 ADD PUSH2 0x2E4 SWAP1 PUSH2 0x1989 JUMP JUMPDEST SWAP2 PUSH2 0x2F1 PUSH1 0x5 DUP4 ADD PUSH2 0x1989 JUMP JUMPDEST SWAP3 PUSH2 0x2FE PUSH1 0x6 DUP5 ADD PUSH2 0x1989 JUMP JUMPDEST PUSH1 0x7 DUP5 ADD SLOAD SWAP5 PUSH1 0x8 DUP6 ADD SLOAD PUSH1 0xFF AND SWAP3 PUSH1 0x9 DUP7 ADD SLOAD SWAP5 PUSH1 0xA DUP8 ADD SLOAD SWAP7 PUSH1 0xB ADD PUSH2 0x325 SWAP1 PUSH2 0x1989 JUMP JUMPDEST SWAP9 PUSH1 0x40 MLOAD SWAP12 DUP13 SWAP12 DUP13 MSTORE PUSH1 0x20 DUP13 ADD MSTORE PUSH1 0x40 DUP12 ADD MSTORE PUSH1 0x60 DUP11 ADD MSTORE PUSH2 0x180 DUP1 PUSH1 0x80 DUP12 ADD MSTORE DUP10 ADD PUSH2 0x351 SWAP2 PUSH2 0x1A2F JUMP JUMPDEST DUP9 DUP2 SUB PUSH1 0xA0 DUP11 ADD MSTORE PUSH2 0x362 SWAP2 PUSH2 0x1A2F JUMP JUMPDEST DUP8 DUP2 SUB PUSH1 0xC0 DUP10 ADD MSTORE PUSH2 0x373 SWAP2 PUSH2 0x1A2F JUMP JUMPDEST SWAP4 PUSH1 0xE0 DUP8 ADD MSTORE PUSH2 0x382 DUP2 PUSH2 0x1A6F JUMP JUMPDEST PUSH2 0x100 DUP7 ADD MSTORE PUSH2 0x120 DUP6 ADD MSTORE PUSH2 0x140 DUP5 ADD MSTORE DUP3 DUP2 SUB PUSH2 0x160 DUP5 ADD MSTORE PUSH2 0x3A6 SWAP2 PUSH2 0x1A2F JUMP JUMPDEST SUB SWAP1 RETURN JUMPDEST CALLVALUE PUSH2 0xE3 JUMPI PUSH1 0xA0 CALLDATASIZE PUSH1 0x3 NOT ADD SLT PUSH2 0xE3 JUMPI PUSH1 0x44 CALLDATALOAD PUSH1 0x1 PUSH1 0x1 PUSH1 0x40 SHL SUB DUP2 GT PUSH2 0xE3 JUMPI PUSH2 0x3DA SWAP1 CALLDATASIZE SWAP1 PUSH1 0x4 ADD PUSH2 0x1ABD JUMP JUMPDEST PUSH1 0x64 CALLDATALOAD PUSH1 0x1 PUSH1 0x1 PUSH1 0x40 SHL SUB DUP2 GT PUSH2 0xE3 JUMPI PUSH2 0x3F9 SWAP1 CALLDATASIZE SWAP1 PUSH1 0x4 ADD PUSH2 0x1ABD JUMP JUMPDEST SWAP1 PUSH1 0x84 CALLDATALOAD PUSH1 0x1 PUSH1 0x1 PUSH1 0x40 SHL SUB DUP2 GT PUSH2 0xE3 JUMPI PUSH2 0x419 SWAP1 CALLDATASIZE SWAP1 PUSH1 0x4 ADD PUSH2 0x1ABD JUMP JUMPDEST SWAP1 PUSH1 0x4 CALLDATALOAD PUSH1 0x0 MSTORE PUSH1 0x0 PUSH1 0x20 MSTORE PUSH1 0xFF PUSH1 0x5 PUSH1 0x40 PUSH1 0x0 KECCAK256 ADD SLOAD AND PUSH2 0x43A DUP2 PUSH2 0x1A6F JUMP JUMPDEST PUSH2 0x8DF JUMPI PUSH2 0x449 PUSH1 0x6 SLOAD PUSH2 0x1B13 JUMP JUMPDEST SWAP3 DUP4 PUSH1 0x6 SSTORE PUSH1 0x40 MLOAD SWAP4 PUSH2 0x45B DUP6 PUSH2 0x1916 JUMP JUMPDEST DUP1 DUP6 MSTORE PUSH1 0x20 DUP6 ADD SWAP4 PUSH1 0x4 CALLDATALOAD DUP6 MSTORE PUSH1 0x40 DUP7 ADD SWAP3 PUSH1 0x24 CALLDATALOAD DUP5 MSTORE PUSH1 0x60 DUP8 ADD SWAP5 DUP6 MSTORE PUSH1 0x80 DUP8 ADD MSTORE PUSH1 0x40 MLOAD PUSH2 0x48A DUP2 PUSH2 0x194D JUMP JUMPDEST PUSH1 0x0 DUP2 MSTORE PUSH1 0xA0 DUP8 ADD MSTORE PUSH1 0xC0 DUP7 ADD MSTORE PUSH1 0x0 PUSH1 0xE0 DUP7 ADD MSTORE TIMESTAMP PUSH2 0x100 DUP7 ADD MSTORE PUSH1 0x0 MSTORE PUSH1 0x1 PUSH1 0x20 MSTORE PUSH1 0x40 PUSH1 0x0 KECCAK256 SWAP3 DUP5 MLOAD DUP5 SSTORE MLOAD PUSH1 0x1 DUP5 ADD SSTORE MLOAD PUSH1 0x2 DUP4 ADD SSTORE MLOAD SWAP2 DUP3 MLOAD PUSH1 0x1 PUSH1 0x1 PUSH1 0x40 SHL SUB DUP2 GT PUSH2 0x289 JUMPI PUSH2 0x4F0 DUP2 PUSH2 0x4E7 PUSH1 0x3 DUP7 ADD SLOAD PUSH2 0x18DC JUMP JUMPDEST PUSH1 0x3 DUP7 ADD PUSH2 0x1B39 JUMP JUMPDEST PUSH1 0x20 PUSH1 0x1F DUP3 GT PUSH1 0x1 EQ PUSH2 0x871 JUMPI DUP2 SWAP3 SWAP4 SWAP5 PUSH1 0x0 SWAP3 PUSH2 0x866 JUMPI JUMPDEST POP POP DUP2 PUSH1 0x1 SHL SWAP2 PUSH1 0x0 NOT SWAP1 PUSH1 0x3 SHL SHR NOT AND OR PUSH1 0x3 DUP4 ADD SSTORE JUMPDEST PUSH1 0x80 DUP2 ADD MLOAD SWAP2 DUP3 MLOAD PUSH1 0x1 PUSH1 0x1 PUSH1 0x40 SHL SUB DUP2 GT PUSH2 0x289 JUMPI PUSH2 0x551 DUP2 PUSH2 0x548 PUSH1 0x4 DUP6 ADD SLOAD PUSH2 0x18DC JUMP JUMPDEST PUSH1 0x4 DUP6 ADD PUSH2 0x1B39 JUMP JUMPDEST PUSH1 0x20 PUSH1 0x1F DUP3 GT PUSH1 0x1 EQ PUSH2 0x7F8 JUMPI DUP2 SWAP3 SWAP4 SWAP5 PUSH1 0x0 SWAP3 PUSH2 0x7ED JUMPI JUMPDEST POP POP DUP2 PUSH1 0x1 SHL SWAP2 PUSH1 0x0 NOT SWAP1 PUSH1 0x3 SHL SHR NOT AND OR PUSH1 0x4 DUP3 ADD SSTORE JUMPDEST PUSH1 0xA0 DUP3 ADD MLOAD SWAP2 DUP3 MLOAD PUSH1 0x1 PUSH1 0x1 PUSH1 0x40 SHL SUB DUP2 GT PUSH2 0x289 JUMPI PUSH2 0x5B2 DUP2 PUSH2 0x5A9 PUSH1 0x5 DUP7 ADD SLOAD PUSH2 0x18DC JUMP JUMPDEST PUSH1 0x5 DUP7 ADD PUSH2 0x1B39 JUMP JUMPDEST PUSH1 0x20 PUSH1 0x1F DUP3 GT PUSH1 0x1 EQ PUSH2 0x77F JUMPI DUP2 SWAP3 SWAP4 SWAP5 PUSH1 0x0 SWAP3 PUSH2 0x774 JUMPI JUMPDEST POP POP DUP2 PUSH1 0x1 SHL SWAP2 PUSH1 0x0 NOT SWAP1 PUSH1 0x3 SHL SHR NOT AND OR PUSH1 0x5 DUP4 ADD SSTORE JUMPDEST PUSH1 0xC0 DUP2 ADD MLOAD DUP1 MLOAD SWAP1 PUSH1 0x1 PUSH1 0x1 PUSH1 0x40 SHL SUB DUP3 GT PUSH2 0x289 JUMPI PUSH2 0x613 DUP3 PUSH2 0x60A PUSH1 0x6 DUP8 ADD SLOAD PUSH2 0x18DC JUMP JUMPDEST PUSH1 0x6 DUP8 ADD PUSH2 0x1B39 JUMP JUMPDEST PUSH1 0x20 SWAP1 PUSH1 0x1F DUP4 GT PUSH1 0x1 EQ PUSH2 0x6FE JUMPI SWAP2 DUP1 PUSH1 0x8 SWAP5 SWAP3 PUSH2 0x100 SWAP5 PUSH1 0x0 SWAP3 PUSH2 0x6F3 JUMPI JUMPDEST POP POP DUP2 PUSH1 0x1 SHL SWAP2 PUSH1 0x0 NOT SWAP1 PUSH1 0x3 SHL SHR NOT AND OR PUSH1 0x6 DUP6 ADD SSTORE JUMPDEST PUSH2 0x665 PUSH1 0xE0 DUP3 ADD MLOAD PUSH2 0x65C DUP2 PUSH2 0x1A6F JUMP JUMPDEST PUSH1 0x7 DUP7 ADD PUSH2 0x1B7E JUMP JUMPDEST ADD MLOAD SWAP2 ADD SSTORE PUSH1 0x4 CALLDATALOAD PUSH1 0x0 MSTORE PUSH1 0x3 PUSH1 0x20 MSTORE PUSH1 0x40 PUSH1 0x0 KECCAK256 PUSH1 0x6 SLOAD SWAP1 DUP1 SLOAD PUSH9 0x10000000000000000 DUP2 LT ISZERO PUSH2 0x289 JUMPI PUSH2 0x6A0 SWAP2 PUSH1 0x1 DUP3 ADD DUP2 SSTORE PUSH2 0x1A8F JUMP JUMPDEST DUP2 SWAP3 SWAP2 SLOAD SWAP1 PUSH1 0x3 SHL SWAP2 DUP3 SHL SWAP2 PUSH1 0x0 NOT SWAP1 SHL NOT AND OR SWAP1 SSTORE PUSH1 0x20 PUSH1 0x6 SLOAD PUSH1 0x40 MLOAD PUSH1 0x24 CALLDATALOAD DUP2 MSTORE DUP2 PUSH32 0xCC51B0E9A11B4449F30EEDBF3DC532B58FFE4AD8F2B816544631D5CD5C3C0E9A DUP5 PUSH1 0x4 CALLDATALOAD SWAP4 LOG3 PUSH1 0x40 MLOAD SWAP1 DUP2 MSTORE RETURN JUMPDEST ADD MLOAD SWAP1 POP DUP7 DUP1 PUSH2 0x633 JUMP JUMPDEST SWAP1 PUSH1 0x6 DUP6 ADD PUSH1 0x0 MSTORE PUSH1 0x20 PUSH1 0x0 KECCAK256 SWAP2 PUSH1 0x0 JUMPDEST PUSH1 0x1F NOT DUP6 AND DUP2 LT PUSH2 0x75C JUMPI POP SWAP3 PUSH1 0x8 SWAP5 SWAP3 PUSH1 0x1 SWAP3 PUSH2 0x100 SWAP6 DUP4 PUSH1 0x1F NOT DUP2 AND LT PUSH2 0x743 JUMPI JUMPDEST POP POP POP DUP2 SHL ADD PUSH1 0x6 DUP6 ADD SSTORE PUSH2 0x64B JUMP JUMPDEST ADD MLOAD PUSH1 0x0 NOT PUSH1 0xF8 DUP5 PUSH1 0x3 SHL AND SHR NOT AND SWAP1 SSTORE DUP7 DUP1 DUP1 PUSH2 0x733 JUMP JUMPDEST SWAP2 SWAP3 PUSH1 0x20 PUSH1 0x1 DUP2 SWAP3 DUP7 DUP6 ADD MLOAD DUP2 SSTORE ADD SWAP5 ADD SWAP3 ADD PUSH2 0x70F JUMP JUMPDEST ADD MLOAD SWAP1 POP DUP5 DUP1 PUSH2 0x5CB JUMP JUMPDEST PUSH1 0x5 DUP5 ADD PUSH1 0x0 MSTORE PUSH1 0x20 PUSH1 0x0 KECCAK256 SWAP1 PUSH1 0x0 JUMPDEST PUSH1 0x1F NOT DUP5 AND DUP2 LT PUSH2 0x7D5 JUMPI POP PUSH1 0x1 SWAP4 SWAP5 SWAP6 DUP4 PUSH1 0x1F NOT DUP2 AND LT PUSH2 0x7BC JUMPI JUMPDEST POP POP POP DUP2 SHL ADD PUSH1 0x5 DUP4 ADD SSTORE PUSH2 0x5E3 JUMP JUMPDEST ADD MLOAD PUSH1 0x0 NOT PUSH1 0xF8 DUP5 PUSH1 0x3 SHL AND SHR NOT AND SWAP1 SSTORE DUP5 DUP1 DUP1 PUSH2 0x7AC JUMP JUMPDEST SWAP1 SWAP2 PUSH1 0x20 PUSH1 0x1 DUP2 SWAP3 DUP6 DUP11 ADD MLOAD DUP2 SSTORE ADD SWAP4 ADD SWAP2 ADD PUSH2 0x78F JUMP JUMPDEST ADD MLOAD SWAP1 POP DUP5 DUP1 PUSH2 0x56A JUMP JUMPDEST PUSH1 0x4 DUP4 ADD PUSH1 0x0 MSTORE PUSH1 0x20 PUSH1 0x0 KECCAK256 SWAP1 PUSH1 0x0 JUMPDEST PUSH1 0x1F NOT DUP5 AND DUP2 LT PUSH2 0x84E JUMPI POP PUSH1 0x1 SWAP4 SWAP5 SWAP6 DUP4 PUSH1 0x1F NOT DUP2 AND LT PUSH2 0x835 JUMPI JUMPDEST POP POP POP DUP2 SHL ADD PUSH1 0x4 DUP3 ADD SSTORE PUSH2 0x582 JUMP JUMPDEST ADD MLOAD PUSH1 0x0 NOT PUSH1 0xF8 DUP5 PUSH1 0x3 SHL AND SHR NOT AND SWAP1 SSTORE DUP5 DUP1 DUP1 PUSH2 0x825 JUMP JUMPDEST SWAP1 SWAP2 PUSH1 0x20 PUSH1 0x1 DUP2 SWAP3 DUP6 DUP11 ADD MLOAD DUP2 SSTORE ADD SWAP4 ADD SWAP2 ADD PUSH2 0x808 JUMP JUMPDEST ADD MLOAD SWAP1 POP DUP5 DUP1 PUSH2 0x509 JUMP JUMPDEST PUSH1 0x3 DUP5 ADD PUSH1 0x0 MSTORE PUSH1 0x20 PUSH1 0x0 KECCAK256 SWAP1 PUSH1 0x0 JUMPDEST PUSH1 0x1F NOT DUP5 AND DUP2 LT PUSH2 0x8C7 JUMPI POP PUSH1 0x1 SWAP4 SWAP5 SWAP6 DUP4 PUSH1 0x1F NOT DUP2 AND LT PUSH2 0x8AE JUMPI JUMPDEST POP POP POP DUP2 SHL ADD PUSH1 0x3 DUP4 ADD SSTORE PUSH2 0x521 JUMP JUMPDEST ADD MLOAD PUSH1 0x0 NOT PUSH1 0xF8 DUP5 PUSH1 0x3 SHL AND SHR NOT AND SWAP1 SSTORE DUP5 DUP1 DUP1 PUSH2 0x89E JUMP JUMPDEST SWAP1 SWAP2 PUSH1 0x20 PUSH1 0x1 DUP2 SWAP3 DUP6 DUP11 ADD MLOAD DUP2 SSTORE ADD SWAP4 ADD SWAP2 ADD PUSH2 0x881 JUMP JUMPDEST PUSH1 0x40 MLOAD PUSH3 0x461BCD PUSH1 0xE5 SHL DUP2 MSTORE PUSH1 0x20 PUSH1 0x4 DUP3 ADD MSTORE PUSH1 0x1D PUSH1 0x24 DUP3 ADD MSTORE PUSH32 0x50726F6A656374206E6F7420616363657074696E672074656E64657273000000 PUSH1 0x44 DUP3 ADD MSTORE PUSH1 0x64 SWAP1 REVERT JUMPDEST CALLVALUE PUSH2 0xE3 JUMPI PUSH1 0xC0 CALLDATASIZE PUSH1 0x3 NOT ADD SLT PUSH2 0xE3 JUMPI PUSH1 0x24 DUP1 CALLDATALOAD PUSH1 0xFF DUP2 AND DUP2 SUB PUSH2 0xE3 JUMPI PUSH1 0x44 CALLDATALOAD PUSH1 0x1 PUSH1 0x1 PUSH1 0x40 SHL SUB DUP2 GT PUSH2 0xE3 JUMPI PUSH2 0x962 SWAP1 CALLDATASIZE SWAP1 PUSH1 0x4 ADD PUSH2 0x1ABD JUMP JUMPDEST SWAP1 PUSH1 0x64 CALLDATALOAD PUSH1 0x1 PUSH1 0x1 PUSH1 0x40 SHL SUB DUP2 GT PUSH2 0xE3 JUMPI PUSH2 0x982 SWAP1 CALLDATASIZE SWAP1 PUSH1 0x4 ADD PUSH2 0x1ABD JUMP JUMPDEST PUSH1 0x84 CALLDATALOAD PUSH1 0x1 PUSH1 0x1 PUSH1 0x40 SHL SUB DUP2 GT PUSH2 0xE3 JUMPI PUSH2 0x9A1 SWAP1 CALLDATASIZE SWAP1 PUSH1 0x4 ADD PUSH2 0x1ABD JUMP JUMPDEST PUSH1 0x4 CALLDATALOAD PUSH1 0x0 MSTORE PUSH1 0x1 PUSH1 0x20 MSTORE PUSH1 0x2 PUSH1 0xFF PUSH1 0x7 PUSH1 0x40 PUSH1 0x0 KECCAK256 ADD SLOAD AND PUSH2 0x9C3 DUP2 PUSH2 0x1A6F JUMP JUMPDEST SUB PUSH2 0xFC9 JUMPI PUSH1 0x4 CALLDATALOAD PUSH1 0x0 MSTORE PUSH1 0x4 PUSH1 0x20 MSTORE PUSH1 0x1 DUP1 PUSH1 0xA0 SHL SUB PUSH1 0x40 PUSH1 0x0 KECCAK256 SLOAD AND CALLER SUB PUSH2 0xF85 JUMPI PUSH1 0x14 PUSH1 0xFF DUP5 AND EQ DUP1 ISZERO PUSH2 0xF78 JUMPI JUMPDEST DUP1 ISZERO PUSH2 0xF6B JUMPI JUMPDEST DUP1 ISZERO PUSH2 0xF5E JUMPI JUMPDEST DUP1 ISZERO PUSH2 0xF51 JUMPI JUMPDEST ISZERO PUSH2 0xF0D JUMPI PUSH2 0xA1A PUSH1 0x7 SLOAD PUSH2 0x1B13 JUMP JUMPDEST SWAP2 DUP3 PUSH1 0x7 SSTORE PUSH1 0x4 CALLDATALOAD PUSH1 0x0 MSTORE PUSH1 0x1 PUSH1 0x20 MSTORE PUSH1 0x1 PUSH1 0x40 PUSH1 0x0 KECCAK256 ADD SLOAD SWAP5 PUSH1 0x40 MLOAD SWAP6 PUSH2 0x180 DUP8 ADD DUP8 DUP2 LT PUSH1 0x1 PUSH1 0x1 PUSH1 0x40 SHL SUB DUP3 GT OR PUSH2 0xEF8 JUMPI PUSH1 0x40 MSTORE DUP5 DUP8 MSTORE PUSH1 0x20 DUP8 ADD MSTORE PUSH1 0x4 CALLDATALOAD PUSH1 0x40 DUP8 ADD MSTORE PUSH1 0xFF DUP6 AND PUSH1 0x60 DUP8 ADD MSTORE PUSH1 0x80 DUP7 ADD MSTORE PUSH1 0xA0 DUP6 ADD MSTORE PUSH1 0xC0 DUP5 ADD MSTORE PUSH1 0xA4 CALLDATALOAD PUSH1 0xE0 DUP5 ADD MSTORE PUSH1 0x1 PUSH2 0x100 DUP5 ADD MSTORE TIMESTAMP PUSH2 0x120 DUP5 ADD MSTORE PUSH1 0x0 PUSH2 0x140 DUP5 ADD MSTORE PUSH1 0x40 MLOAD PUSH2 0xAA5 DUP2 PUSH2 0x194D JUMP JUMPDEST PUSH1 0x0 DUP2 MSTORE PUSH2 0x160 DUP5 ADD MSTORE PUSH1 0x0 MSTORE PUSH1 0x2 PUSH1 0x20 MSTORE PUSH1 0x40 PUSH1 0x0 KECCAK256 DUP3 MLOAD DUP2 SSTORE PUSH1 0x20 DUP4 ADD MLOAD PUSH1 0x1 DUP3 ADD SSTORE PUSH1 0x40 DUP4 ADD MLOAD PUSH1 0x2 DUP3 ADD SSTORE PUSH1 0x3 DUP2 ADD PUSH1 0xFF PUSH1 0x60 DUP6 ADD MLOAD AND PUSH1 0xFF NOT DUP3 SLOAD AND OR SWAP1 SSTORE PUSH1 0x80 DUP4 ADD MLOAD DUP1 MLOAD SWAP1 PUSH1 0x1 PUSH1 0x1 PUSH1 0x40 SHL SUB DUP3 GT PUSH2 0xDE9 JUMPI DUP2 SWAP1 PUSH2 0xB1B DUP3 PUSH2 0xB12 PUSH1 0x4 DUP8 ADD SLOAD PUSH2 0x18DC JUMP JUMPDEST PUSH1 0x4 DUP8 ADD PUSH2 0x1B39 JUMP JUMPDEST PUSH1 0x20 SWAP1 PUSH1 0x1F DUP4 GT PUSH1 0x1 EQ PUSH2 0xE86 JUMPI PUSH1 0x0 SWAP3 PUSH2 0xE7B JUMPI JUMPDEST POP POP DUP2 PUSH1 0x1 SHL SWAP2 PUSH1 0x0 NOT SWAP1 PUSH1 0x3 SHL SHR NOT AND OR PUSH1 0x4 DUP3 ADD SSTORE JUMPDEST PUSH1 0xA0 DUP4 ADD MLOAD DUP1 MLOAD SWAP1 PUSH1 0x1 PUSH1 0x1 PUSH1 0x40 SHL SUB DUP3 GT PUSH2 0xDE9 JUMPI DUP2 SWAP1 PUSH2 0xB7B DUP3 PUSH2 0xB72 PUSH1 0x5 DUP8 ADD SLOAD PUSH2 0x18DC JUMP JUMPDEST PUSH1 0x5 DUP8 ADD PUSH2 0x1B39 JUMP JUMPDEST PUSH1 0x20 SWAP1 PUSH1 0x1F DUP4 GT PUSH1 0x1 EQ PUSH2 0xE09 JUMPI PUSH1 0x0 SWAP3 PUSH2 0xDFE JUMPI JUMPDEST POP POP DUP2 PUSH1 0x1 SHL SWAP2 PUSH1 0x0 NOT SWAP1 PUSH1 0x3 SHL SHR NOT AND OR PUSH1 0x5 DUP3 ADD SSTORE JUMPDEST PUSH1 0xC0 DUP4 ADD MLOAD DUP1 MLOAD SWAP1 PUSH1 0x1 PUSH1 0x1 PUSH1 0x40 SHL SUB DUP3 GT PUSH2 0xDE9 JUMPI PUSH2 0xBD9 DUP3 PUSH2 0xBD0 PUSH1 0x6 DUP7 ADD SLOAD PUSH2 0x18DC JUMP JUMPDEST PUSH1 0x6 DUP7 ADD PUSH2 0x1B39 JUMP JUMPDEST PUSH1 0x20 SWAP1 PUSH1 0x1F DUP4 GT PUSH1 0x1 EQ PUSH2 0xD73 JUMPI SWAP2 DUP1 PUSH2 0x160 SWAP5 SWAP3 PUSH1 0xB SWAP5 PUSH1 0x0 SWAP3 PUSH2 0xD68 JUMPI JUMPDEST POP POP DUP2 PUSH1 0x1 SHL SWAP2 PUSH1 0x0 NOT SWAP1 PUSH1 0x3 SHL SHR NOT AND OR PUSH1 0x6 DUP3 ADD SSTORE JUMPDEST PUSH1 0xE0 DUP6 ADD MLOAD PUSH1 0x7 DUP3 ADD SSTORE PUSH2 0xC36 PUSH2 0x100 DUP7 ADD MLOAD PUSH2 0xC2D DUP2 PUSH2 0x1A6F JUMP JUMPDEST PUSH1 0x8 DUP4 ADD PUSH2 0x1B7E JUMP JUMPDEST PUSH2 0x120 DUP6 ADD MLOAD PUSH1 0x9 DUP3 ADD SSTORE PUSH2 0x140 DUP6 ADD MLOAD PUSH1 0xA DUP3 ADD SSTORE ADD SWAP3 ADD MLOAD SWAP2 DUP3 MLOAD PUSH1 0x1 PUSH1 0x1 PUSH1 0x40 SHL SUB DUP2 GT PUSH2 0xD53 JUMPI PUSH1 0x20 SWAP5 POP PUSH2 0xC79 DUP2 PUSH2 0xC73 DUP5 SLOAD PUSH2 0x18DC JUMP JUMPDEST DUP5 PUSH2 0x1B39 JUMP JUMPDEST DUP5 SWAP4 PUSH1 0x1F DUP3 GT PUSH1 0x1 EQ PUSH2 0xCF0 JUMPI SWAP4 DUP2 SWAP3 SWAP4 SWAP5 PUSH1 0x0 SWAP3 PUSH2 0xCE5 JUMPI JUMPDEST POP POP DUP2 PUSH1 0x1 SHL SWAP2 PUSH1 0x0 NOT SWAP1 PUSH1 0x3 SHL SHR NOT AND OR SWAP1 SSTORE JUMPDEST PUSH1 0x7 SLOAD SWAP1 PUSH1 0xFF PUSH1 0x40 MLOAD SWAP2 AND DUP2 MSTORE DUP2 PUSH32 0xA4F370DE0D910B9E1634436568274EDD60715ADE03E4CF084EFD418A29349D88 DUP5 PUSH1 0x4 CALLDATALOAD SWAP4 LOG3 PUSH1 0x40 MLOAD SWAP1 DUP2 MSTORE RETURN JUMPDEST ADD MLOAD SWAP1 POP DUP6 DUP1 PUSH2 0xC93 JUMP JUMPDEST PUSH1 0x1F NOT DUP3 AND SWAP5 DUP4 PUSH1 0x0 MSTORE DUP7 PUSH1 0x0 KECCAK256 SWAP2 PUSH1 0x0 JUMPDEST DUP8 DUP2 LT PUSH2 0xD3C JUMPI POP DUP4 PUSH1 0x1 SWAP6 SWAP7 SWAP8 LT PUSH2 0xD23 JUMPI JUMPDEST POP POP POP DUP2 SHL ADD SWAP1 SSTORE PUSH2 0xCA8 JUMP JUMPDEST ADD MLOAD PUSH1 0x0 NOT PUSH1 0xF8 DUP5 PUSH1 0x3 SHL AND SHR NOT AND SWAP1 SSTORE DUP6 DUP1 DUP1 PUSH2 0xD16 JUMP JUMPDEST SWAP2 SWAP3 DUP9 PUSH1 0x1 DUP2 SWAP3 DUP7 DUP6 ADD MLOAD DUP2 SSTORE ADD SWAP5 ADD SWAP3 ADD PUSH2 0xD02 JUMP JUMPDEST DUP5 PUSH4 0x4E487B71 PUSH1 0xE0 SHL PUSH1 0x0 MSTORE PUSH1 0x41 PUSH1 0x4 MSTORE PUSH1 0x0 REVERT JUMPDEST ADD MLOAD SWAP1 POP DUP9 DUP1 PUSH2 0xBF9 JUMP JUMPDEST SWAP1 PUSH1 0x6 DUP5 ADD PUSH1 0x0 MSTORE PUSH1 0x20 PUSH1 0x0 KECCAK256 SWAP2 PUSH1 0x0 JUMPDEST PUSH1 0x1F NOT DUP6 AND DUP2 LT PUSH2 0xDD1 JUMPI POP SWAP3 PUSH2 0x160 SWAP5 SWAP3 PUSH1 0x1 SWAP3 PUSH1 0xB SWAP6 DUP4 PUSH1 0x1F NOT DUP2 AND LT PUSH2 0xDB8 JUMPI JUMPDEST POP POP POP DUP2 SHL ADD PUSH1 0x6 DUP3 ADD SSTORE PUSH2 0xC11 JUMP JUMPDEST ADD MLOAD PUSH1 0x0 NOT PUSH1 0xF8 DUP5 PUSH1 0x3 SHL AND SHR NOT AND SWAP1 SSTORE DUP9 DUP1 DUP1 PUSH2 0xDA8 JUMP JUMPDEST SWAP2 SWAP3 PUSH1 0x20 PUSH1 0x1 DUP2 SWAP3 DUP7 DUP6 ADD MLOAD DUP2 SSTORE ADD SWAP5 ADD SWAP3 ADD PUSH2 0xD84 JUMP JUMPDEST DUP6 PUSH4 0x4E487B71 PUSH1 0xE0 SHL PUSH1 0x0 MSTORE PUSH1 0x41 PUSH1 0x4 MSTORE PUSH1 0x0 REVERT JUMPDEST ADD MLOAD SWAP1 POP DUP7 DUP1 PUSH2 0xB91 JUMP JUMPDEST SWAP3 POP PUSH1 0x5 DUP5 ADD PUSH1 0x0 MSTORE PUSH1 0x20 PUSH1 0x0 KECCAK256 SWAP1 PUSH1 0x0 SWAP4 JUMPDEST PUSH1 0x1F NOT DUP5 AND DUP6 LT PUSH2 0xE60 JUMPI PUSH1 0x1 SWAP5 POP DUP4 PUSH1 0x1F NOT DUP2 AND LT PUSH2 0xE47 JUMPI JUMPDEST POP POP POP DUP2 SHL ADD PUSH1 0x5 DUP3 ADD SSTORE PUSH2 0xBA9 JUMP JUMPDEST ADD MLOAD PUSH1 0x0 NOT PUSH1 0xF8 DUP5 PUSH1 0x3 SHL AND SHR NOT AND SWAP1 SSTORE DUP7 DUP1 DUP1 PUSH2 0xE37 JUMP JUMPDEST DUP2 DUP2 ADD MLOAD DUP4 SSTORE PUSH1 0x20 SWAP5 DUP6 ADD SWAP5 PUSH1 0x1 SWAP1 SWAP4 ADD SWAP3 SWAP1 SWAP2 ADD SWAP1 PUSH2 0xE1C JUMP JUMPDEST ADD MLOAD SWAP1 POP DUP7 DUP1 PUSH2 0xB31 JUMP JUMPDEST SWAP3 POP PUSH1 0x4 DUP5 ADD PUSH1 0x0 MSTORE PUSH1 0x20 PUSH1 0x0 KECCAK256 SWAP1 PUSH1 0x0 SWAP4 JUMPDEST PUSH1 0x1F NOT DUP5 AND DUP6 LT PUSH2 0xEDD JUMPI PUSH1 0x1 SWAP5 POP DUP4 PUSH1 0x1F NOT DUP2 AND LT PUSH2 0xEC4 JUMPI JUMPDEST POP POP POP DUP2 SHL ADD PUSH1 0x4 DUP3 ADD SSTORE PUSH2 0xB49 JUMP JUMPDEST ADD MLOAD PUSH1 0x0 NOT PUSH1 0xF8 DUP5 PUSH1 0x3 SHL AND SHR NOT AND SWAP1 SSTORE DUP7 DUP1 DUP1 PUSH2 0xEB4 JUMP JUMPDEST DUP2 DUP2 ADD MLOAD DUP4 SSTORE PUSH1 0x20 SWAP5 DUP6 ADD SWAP5 PUSH1 0x1 SWAP1 SWAP4 ADD SWAP3 SWAP1 SWAP2 ADD SWAP1 PUSH2 0xE99 JUMP JUMPDEST DUP9 PUSH4 0x4E487B71 PUSH1 0xE0 SHL PUSH1 0x0 MSTORE PUSH1 0x41 PUSH1 0x4 MSTORE PUSH1 0x0 REVERT JUMPDEST PUSH1 0x40 MLOAD PUSH3 0x461BCD PUSH1 0xE5 SHL DUP2 MSTORE PUSH1 0x20 PUSH1 0x4 DUP3 ADD MSTORE PUSH1 0x1C DUP2 DUP8 ADD MSTORE PUSH32 0x496E76616C6964206D696C6573746F6E652070657263656E7461676500000000 PUSH1 0x44 DUP3 ADD MSTORE PUSH1 0x64 SWAP1 REVERT JUMPDEST POP PUSH1 0x64 PUSH1 0xFF DUP5 AND EQ PUSH2 0xA0A JUMP JUMPDEST POP PUSH1 0x50 PUSH1 0xFF DUP5 AND EQ PUSH2 0xA03 JUMP JUMPDEST POP PUSH1 0x3C PUSH1 0xFF DUP5 AND EQ PUSH2 0x9FC JUMP JUMPDEST POP PUSH1 0x28 PUSH1 0xFF DUP5 AND EQ PUSH2 0x9F5 JUMP JUMPDEST PUSH1 0x40 MLOAD PUSH3 0x461BCD PUSH1 0xE5 SHL DUP2 MSTORE PUSH1 0x20 PUSH1 0x4 DUP3 ADD MSTORE PUSH1 0x17 DUP2 DUP8 ADD MSTORE PUSH32 0x4E6F742061737369676E656420636F6E74726163746F72000000000000000000 PUSH1 0x44 DUP3 ADD MSTORE PUSH1 0x64 SWAP1 REVERT JUMPDEST PUSH1 0x40 MLOAD PUSH3 0x461BCD PUSH1 0xE5 SHL DUP2 MSTORE PUSH1 0x20 PUSH1 0x4 DUP3 ADD MSTORE PUSH1 0x13 DUP2 DUP8 ADD MSTORE PUSH19 0x15195B99195C881B9BDD08185C1C1C9BDD9959 PUSH1 0x6A SHL PUSH1 0x44 DUP3 ADD MSTORE PUSH1 0x64 SWAP1 REVERT JUMPDEST CALLVALUE PUSH2 0xE3 JUMPI PUSH1 0x20 DUP1 PUSH1 0x3 NOT CALLDATASIZE ADD SLT PUSH2 0xE3 JUMPI PUSH1 0x4 CALLDATALOAD PUSH1 0x0 MSTORE PUSH1 0x3 DUP2 MSTORE PUSH1 0x40 PUSH1 0x0 KECCAK256 PUSH1 0x40 MLOAD SWAP1 DUP2 DUP4 DUP3 SLOAD SWAP2 DUP3 DUP2 MSTORE ADD SWAP1 DUP2 SWAP3 PUSH1 0x0 MSTORE DUP5 PUSH1 0x0 KECCAK256 SWAP1 PUSH1 0x0 JUMPDEST DUP7 DUP3 DUP3 LT PUSH2 0x1095 JUMPI DUP7 DUP7 PUSH2 0x1055 DUP3 DUP9 SUB DUP4 PUSH2 0x1968 JUMP JUMPDEST PUSH1 0x40 MLOAD SWAP3 DUP4 SWAP3 DUP2 DUP5 ADD SWAP1 DUP3 DUP6 MSTORE MLOAD DUP1 SWAP2 MSTORE PUSH1 0x40 DUP5 ADD SWAP3 SWAP2 PUSH1 0x0 JUMPDEST DUP3 DUP2 LT PUSH2 0x107E JUMPI POP POP POP POP SUB SWAP1 RETURN JUMPDEST DUP4 MLOAD DUP6 MSTORE DUP7 SWAP6 POP SWAP4 DUP2 ADD SWAP4 SWAP3 DUP2 ADD SWAP3 PUSH1 0x1 ADD PUSH2 0x106F JUMP JUMPDEST DUP4 SLOAD DUP6 MSTORE SWAP1 SWAP4 ADD SWAP3 PUSH1 0x1 SWAP3 DUP4 ADD SWAP3 ADD PUSH2 0x103F JUMP JUMPDEST CALLVALUE PUSH2 0xE3 JUMPI PUSH1 0x60 CALLDATASIZE PUSH1 0x3 NOT ADD SLT PUSH2 0xE3 JUMPI PUSH1 0x1 PUSH1 0x1 PUSH1 0x40 SHL SUB PUSH1 0x4 CALLDATALOAD DUP2 DUP2 GT PUSH2 0xE3 JUMPI PUSH2 0x10DA SWAP1 CALLDATASIZE SWAP1 PUSH1 0x4 ADD PUSH2 0x1ABD JUMP JUMPDEST PUSH1 0x24 CALLDATALOAD PUSH2 0x10E8 PUSH1 0x5 SLOAD PUSH2 0x1B13 JUMP JUMPDEST DUP1 PUSH1 0x5 SSTORE PUSH1 0x40 MLOAD SWAP1 PUSH1 0xE0 DUP3 ADD DUP3 DUP2 LT DUP7 DUP3 GT OR PUSH2 0x289 JUMPI PUSH1 0x40 MSTORE DUP1 DUP3 MSTORE PUSH1 0x20 SWAP5 DUP6 DUP4 ADD DUP6 DUP2 MSTORE PUSH1 0x40 DUP5 ADD DUP6 DUP2 MSTORE PUSH1 0x60 DUP6 ADD SWAP1 CALLER DUP3 MSTORE PUSH1 0x80 DUP7 ADD SWAP3 PUSH1 0x44 CALLDATALOAD DUP5 MSTORE PUSH1 0xA0 DUP8 ADD SWAP5 PUSH1 0x0 DUP7 MSTORE PUSH1 0xC0 DUP9 ADD SWAP7 TIMESTAMP DUP9 MSTORE PUSH1 0x0 MSTORE PUSH1 0x0 DUP12 MSTORE PUSH1 0x40 PUSH1 0x0 KECCAK256 SWAP8 MLOAD DUP9 SSTORE PUSH1 0x1 DUP1 DUP10 ADD SWAP3 MLOAD DUP1 MLOAD SWAP3 DUP4 GT PUSH2 0x289 JUMPI PUSH2 0x116C DUP4 PUSH2 0x1166 DUP7 SLOAD PUSH2 0x18DC JUMP JUMPDEST DUP7 PUSH2 0x1B39 JUMP JUMPDEST DUP13 SWAP1 DUP14 PUSH1 0x1F DUP6 GT PUSH1 0x1 EQ PUSH2 0x124B JUMPI POP SWAP3 DUP1 PUSH1 0x6 SWAP11 SWAP10 SWAP8 SWAP6 SWAP4 DUP2 SWAP4 PUSH2 0x11E8 SWAP11 SWAP9 SWAP7 PUSH1 0x0 SWAP5 PUSH2 0x1240 JUMPI JUMPDEST POP POP SHL SWAP2 PUSH1 0x0 NOT SWAP1 PUSH1 0x3 SHL SHR NOT AND OR SWAP1 SSTORE JUMPDEST MLOAD PUSH1 0x2 DUP9 ADD SSTORE MLOAD PUSH1 0x3 DUP8 ADD DUP1 SLOAD PUSH1 0x1 PUSH1 0x1 PUSH1 0xA0 SHL SUB NOT AND PUSH1 0x1 PUSH1 0x1 PUSH1 0xA0 SHL SUB SWAP3 SWAP1 SWAP3 AND SWAP2 SWAP1 SWAP2 OR SWAP1 SSTORE MLOAD PUSH1 0x4 DUP7 ADD SSTORE MLOAD PUSH2 0x11DF DUP2 PUSH2 0x1A6F JUMP JUMPDEST PUSH1 0x5 DUP6 ADD PUSH2 0x1B7E JUMP JUMPDEST MLOAD SWAP2 ADD SSTORE PUSH32 0xBB4637BBC1F7F92783410FB90807FCCED52C1562DA987AC649876F09A750A5E3 PUSH2 0x122A PUSH1 0x5 SLOAD SWAP4 DUP5 SWAP4 PUSH1 0x40 MLOAD SWAP3 DUP4 SWAP3 PUSH1 0x60 DUP5 MSTORE PUSH1 0x60 DUP5 ADD SWAP1 PUSH2 0x1A2F JUMP JUMPDEST SWAP1 DUP8 DUP4 ADD MSTORE CALLER PUSH1 0x40 DUP4 ADD MSTORE SUB SWAP1 LOG2 PUSH1 0x40 MLOAD SWAP1 DUP2 MSTORE RETURN JUMPDEST ADD MLOAD SWAP3 POP CODESIZE DUP1 PUSH2 0x1194 JUMP JUMPDEST SWAP2 SWAP1 PUSH1 0x1F SWAP5 SWAP4 SWAP5 NOT DUP5 AND DUP7 PUSH1 0x0 MSTORE DUP4 PUSH1 0x0 KECCAK256 SWAP4 PUSH1 0x0 SWAP1 JUMPDEST DUP3 DUP3 LT PUSH2 0x12A9 JUMPI POP POP SWAP2 PUSH2 0x11E8 SWAP10 SWAP8 SWAP6 SWAP4 SWAP2 DUP6 PUSH1 0x6 SWAP14 SWAP13 SWAP11 SWAP9 SWAP7 SWAP5 LT PUSH2 0x1290 JUMPI JUMPDEST POP POP POP DUP2 SHL ADD SWAP1 SSTORE PUSH2 0x11A6 JUMP JUMPDEST ADD MLOAD PUSH1 0x0 NOT PUSH1 0xF8 DUP5 PUSH1 0x3 SHL AND SHR NOT AND SWAP1 SSTORE DUP15 DUP1 DUP1 PUSH2 0x1283 JUMP JUMPDEST DUP1 DUP9 DUP7 SWAP8 DUP3 SWAP5 SWAP8 DUP8 ADD MLOAD DUP2 SSTORE ADD SWAP7 ADD SWAP5 ADD SWAP1 PUSH2 0x1262 JUMP JUMPDEST CALLVALUE PUSH2 0xE3 JUMPI PUSH1 0x20 CALLDATASIZE PUSH1 0x3 NOT ADD SLT PUSH2 0xE3 JUMPI PUSH2 0x13D1 PUSH1 0x4 CALLDATALOAD DUP1 PUSH1 0x0 MSTORE PUSH1 0x1 PUSH1 0x20 MSTORE PUSH1 0x40 PUSH1 0x0 KECCAK256 PUSH1 0x40 MLOAD SWAP1 PUSH2 0x12F2 DUP3 PUSH2 0x1916 JUMP JUMPDEST DUP1 SLOAD DUP3 MSTORE PUSH1 0x1 DUP2 ADD SLOAD PUSH1 0x20 DUP4 ADD MSTORE PUSH1 0x2 DUP2 ADD SLOAD PUSH1 0x40 DUP4 ADD MSTORE PUSH2 0x1316 PUSH1 0x3 DUP3 ADD PUSH2 0x1989 JUMP JUMPDEST PUSH1 0x60 DUP4 ADD MSTORE PUSH2 0x1327 PUSH1 0x4 DUP3 ADD PUSH2 0x1989 JUMP JUMPDEST SWAP3 PUSH1 0x80 DUP4 ADD SWAP4 DUP5 MSTORE PUSH2 0x133B PUSH1 0x5 DUP4 ADD PUSH2 0x1989 JUMP JUMPDEST PUSH1 0xA0 DUP5 ADD MSTORE PUSH1 0x2 PUSH2 0x134E PUSH1 0x6 DUP5 ADD PUSH2 0x1989 JUMP JUMPDEST SWAP5 PUSH1 0xC0 DUP6 ADD SWAP6 DUP7 MSTORE PUSH1 0xFF PUSH1 0x7 DUP6 ADD SLOAD AND SWAP5 PUSH2 0x100 PUSH1 0x8 PUSH1 0xE0 DUP4 ADD SWAP7 PUSH2 0x1372 DUP10 PUSH2 0x1A6F JUMP JUMPDEST DUP9 DUP9 MSTORE ADD SLOAD SWAP2 ADD MSTORE MLOAD SWAP5 MLOAD SWAP3 PUSH2 0x1387 DUP6 PUSH2 0x1A6F JUMP JUMPDEST MLOAD PUSH2 0x1391 DUP2 PUSH2 0x1A6F JUMP JUMPDEST PUSH2 0x139A DUP2 PUSH2 0x1A6F JUMP JUMPDEST SUB PUSH2 0x1400 JUMPI PUSH1 0x0 SWAP1 DUP2 MSTORE PUSH1 0x4 PUSH1 0x20 MSTORE PUSH1 0x40 SWAP1 KECCAK256 SLOAD PUSH1 0x1 PUSH1 0x1 PUSH1 0xA0 SHL SUB AND SWAP1 PUSH2 0x13DF SWAP1 JUMPDEST PUSH1 0x40 MLOAD SWAP6 DUP7 SWAP6 PUSH1 0x80 DUP8 MSTORE PUSH1 0x80 DUP8 ADD SWAP1 PUSH2 0x1A2F JUMP JUMPDEST SWAP1 DUP6 DUP3 SUB PUSH1 0x20 DUP8 ADD MSTORE PUSH2 0x1A2F JUMP JUMPDEST SWAP2 PUSH2 0x13E9 DUP2 PUSH2 0x1A6F JUMP JUMPDEST PUSH1 0x40 DUP5 ADD MSTORE PUSH1 0x1 PUSH1 0x1 PUSH1 0xA0 SHL SUB AND PUSH1 0x60 DUP4 ADD MSTORE SUB SWAP1 RETURN JUMPDEST POP PUSH2 0x13DF PUSH1 0x0 SWAP2 PUSH2 0x13BD JUMP JUMPDEST CALLVALUE PUSH2 0xE3 JUMPI PUSH1 0x20 CALLDATASIZE PUSH1 0x3 NOT ADD SLT PUSH2 0xE3 JUMPI PUSH1 0x4 CALLDATALOAD PUSH1 0x0 MSTORE PUSH1 0x1 PUSH1 0x20 MSTORE PUSH1 0x40 PUSH1 0x0 KECCAK256 DUP1 SLOAD PUSH1 0x1 DUP3 ADD SLOAD SWAP2 PUSH1 0x2 DUP2 ADD SLOAD PUSH2 0x14D3 PUSH2 0x1449 PUSH1 0x3 DUP5 ADD PUSH2 0x1989 JUMP JUMPDEST PUSH2 0x14C5 PUSH2 0x1458 PUSH1 0x4 DUP7 ADD PUSH2 0x1989 JUMP JUMPDEST PUSH2 0x14B7 PUSH2 0x1467 PUSH1 0x5 DUP9 ADD PUSH2 0x1989 JUMP JUMPDEST SWAP2 PUSH2 0x14A9 PUSH2 0x1477 PUSH1 0x6 DUP11 ADD PUSH2 0x1989 JUMP JUMPDEST SWAP6 PUSH1 0x8 PUSH1 0xFF PUSH1 0x7 DUP13 ADD SLOAD AND SWAP11 ADD SLOAD SWAP9 PUSH1 0x40 MLOAD SWAP13 DUP14 SWAP13 DUP14 MSTORE PUSH1 0x20 DUP14 ADD MSTORE PUSH1 0x40 DUP13 ADD MSTORE PUSH2 0x120 DUP1 PUSH1 0x60 DUP14 ADD MSTORE DUP12 ADD SWAP1 PUSH2 0x1A2F JUMP JUMPDEST SWAP1 DUP10 DUP3 SUB PUSH1 0x80 DUP12 ADD MSTORE PUSH2 0x1A2F JUMP JUMPDEST SWAP1 DUP8 DUP3 SUB PUSH1 0xA0 DUP10 ADD MSTORE PUSH2 0x1A2F JUMP JUMPDEST SWAP1 DUP6 DUP3 SUB PUSH1 0xC0 DUP8 ADD MSTORE PUSH2 0x1A2F JUMP JUMPDEST SWAP2 PUSH2 0x14DD DUP2 PUSH2 0x1A6F JUMP JUMPDEST PUSH1 0xE0 DUP5 ADD MSTORE PUSH2 0x100 DUP4 ADD MSTORE SUB SWAP1 RETURN JUMPDEST CALLVALUE PUSH2 0xE3 JUMPI PUSH1 0x40 CALLDATASIZE PUSH1 0x3 NOT ADD SLT PUSH2 0xE3 JUMPI PUSH1 0x24 CALLDATALOAD PUSH1 0x4 CALLDATALOAD PUSH1 0x0 MSTORE PUSH1 0x3 PUSH1 0x20 MSTORE PUSH1 0x40 PUSH1 0x0 KECCAK256 DUP1 SLOAD DUP3 LT ISZERO PUSH2 0xE3 JUMPI PUSH1 0x20 SWAP2 PUSH2 0x1525 SWAP2 PUSH2 0x1A8F JUMP JUMPDEST SWAP1 SLOAD SWAP1 PUSH1 0x3 SHL SHR PUSH1 0x40 MLOAD SWAP1 DUP2 MSTORE RETURN JUMPDEST CALLVALUE PUSH2 0xE3 JUMPI PUSH1 0x0 CALLDATASIZE PUSH1 0x3 NOT ADD SLT PUSH2 0xE3 JUMPI PUSH1 0x20 PUSH1 0x6 SLOAD PUSH1 0x40 MLOAD SWAP1 DUP2 MSTORE RETURN JUMPDEST CALLVALUE PUSH2 0xE3 JUMPI PUSH1 0x80 CALLDATASIZE PUSH1 0x3 NOT ADD SLT PUSH2 0xE3 JUMPI PUSH1 0x4 CALLDATALOAD PUSH1 0x24 CALLDATALOAD DUP1 ISZERO ISZERO DUP2 SUB PUSH2 0xE3 JUMPI PUSH1 0x44 CALLDATALOAD SWAP1 DUP2 ISZERO ISZERO DUP3 SUB PUSH2 0xE3 JUMPI PUSH1 0x64 CALLDATALOAD SWAP1 DUP2 ISZERO ISZERO DUP3 SUB PUSH2 0xE3 JUMPI DUP4 PUSH1 0x0 MSTORE PUSH1 0x20 SWAP2 PUSH1 0x2 DUP4 MSTORE PUSH2 0x15D7 PUSH1 0x1 PUSH1 0x40 PUSH1 0x0 KECCAK256 ADD SLOAD PUSH1 0x40 MLOAD DUP6 DUP2 ADD SWAP1 CALLER PUSH1 0x60 SHL DUP3 MSTORE PUSH1 0x14 DUP2 MSTORE PUSH2 0x15BD DUP2 PUSH2 0x1932 JUMP JUMPDEST MLOAD SWAP1 KECCAK256 SWAP1 PUSH1 0x0 MSTORE PUSH1 0x0 DUP6 MSTORE PUSH1 0x4 PUSH1 0x40 PUSH1 0x0 KECCAK256 ADD SLOAD EQ PUSH2 0x1B96 JUMP JUMPDEST DUP5 PUSH1 0x0 MSTORE PUSH1 0x2 DUP4 MSTORE PUSH1 0x40 PUSH1 0x0 KECCAK256 SWAP4 DUP3 PUSH2 0x1806 JUMPI JUMPDEST POP DUP2 PUSH2 0x17FE JUMPI JUMPDEST POP ISZERO PUSH2 0x1730 JUMPI PUSH1 0x8 DUP3 ADD SWAP3 PUSH1 0xFF NOT SWAP4 PUSH1 0x2 DUP6 DUP3 SLOAD AND OR SWAP1 SSTORE TIMESTAMP PUSH1 0xA DUP5 ADD SSTORE PUSH1 0x1 DUP4 ADD SLOAD SWAP3 DUP4 PUSH1 0x0 MSTORE PUSH1 0x0 DUP4 MSTORE PUSH1 0x2 PUSH1 0x40 PUSH1 0x0 KECCAK256 ADD SLOAD SWAP2 PUSH1 0x3 DUP3 ADD SWAP3 PUSH1 0xFF DUP5 SLOAD AND SWAP1 DUP2 DUP2 MUL SWAP2 DUP2 DUP4 DIV EQ SWAP1 ISZERO OR ISZERO PUSH2 0x171A JUMPI PUSH1 0x64 PUSH1 0x2 SWAP2 DIV SWAP3 ADD SLOAD PUSH1 0x0 MSTORE PUSH1 0x4 DUP5 MSTORE PUSH1 0x1 DUP1 PUSH1 0xA0 SHL SUB PUSH1 0x40 PUSH1 0x0 KECCAK256 SLOAD AND SWAP1 PUSH1 0x0 DUP4 DUP4 DUP2 ISZERO PUSH2 0x1710 JUMPI JUMPDEST PUSH1 0x0 SWAP3 DUP4 SWAP3 DUP4 SWAP3 DUP4 SWAP3 CALL ISZERO PUSH2 0x1704 JUMPI PUSH1 0x60 DUP7 SWAP3 PUSH1 0xFF PUSH1 0x64 SWAP7 PUSH32 0xCD3C5E4379009BA79BACD27E7DDA9B2CEAE5FA7D95370F5583F8601FF3BEE5CF SWAP5 PUSH32 0x939DA3B627C123C81FE5AACEBF925163337A0D4F8A03724640618078CAD24894 DUP11 PUSH1 0x40 MLOAD DUP11 DUP2 MSTORE LOG2 SLOAD AND SWAP5 PUSH1 0x40 MLOAD SWAP2 DUP3 MSTORE DUP8 DUP3 ADD MSTORE DUP5 PUSH1 0x40 DUP3 ADD MSTORE LOG2 EQ PUSH2 0x16EB JUMPI STOP JUMPDEST PUSH1 0x0 SWAP2 DUP3 MSTORE MSTORE PUSH1 0x3 PUSH1 0x5 PUSH1 0x40 PUSH1 0x0 KECCAK256 ADD SWAP2 DUP3 SLOAD AND OR SWAP1 SSTORE STOP JUMPDEST PUSH1 0x40 MLOAD RETURNDATASIZE PUSH1 0x0 DUP3 RETURNDATACOPY RETURNDATASIZE SWAP1 REVERT JUMPDEST PUSH2 0x8FC SWAP3 POP PUSH2 0x166D JUMP JUMPDEST PUSH4 0x4E487B71 PUSH1 0xE0 SHL PUSH1 0x0 MSTORE PUSH1 0x11 PUSH1 0x4 MSTORE PUSH1 0x24 PUSH1 0x0 REVERT JUMPDEST PUSH1 0x80 SWAP1 PUSH1 0xB DUP4 PUSH1 0x8 PUSH32 0x2346E8D925F08BEF41586C0448CB9DB28A92557839FBBE0E1A14656B7E393712 SWAP6 ADD PUSH1 0x3 PUSH1 0xFF NOT DUP3 SLOAD AND OR SWAP1 SSTORE ADD PUSH2 0x1771 DUP2 SLOAD PUSH2 0x18DC JUMP JUMPDEST PUSH1 0x1F DUP2 GT PUSH2 0x17DD JUMPI JUMPDEST POP PUSH1 0x26 PUSH19 0x15995C9A599A58D85D1A5BDB8819985A5B1959 PUSH1 0x6A SHL ADD SWAP1 SSTORE PUSH1 0x28 PUSH1 0x40 MLOAD SWAP2 DUP1 DUP4 MSTORE DUP3 ADD MSTORE PUSH32 0x5175616C6974792F4750532F50726F677265737320766572696669636174696F PUSH1 0x40 DUP3 ADD MSTORE PUSH8 0x1B8819985A5B1959 PUSH1 0xC2 SHL PUSH1 0x60 DUP3 ADD MSTORE LOG2 STOP JUMPDEST PUSH2 0x17F8 SWAP1 DUP3 PUSH1 0x0 MSTORE PUSH1 0x1F DUP5 PUSH1 0x0 KECCAK256 SWAP2 ADD PUSH1 0x5 SHR DUP2 ADD SWAP1 PUSH2 0x1B22 JUMP JUMPDEST DUP6 PUSH2 0x177A JUMP JUMPDEST SWAP1 POP DUP5 PUSH2 0x15F2 JUMP JUMPDEST SWAP2 POP DUP6 PUSH2 0x15EB JUMP JUMPDEST CALLVALUE PUSH2 0xE3 JUMPI PUSH1 0x20 CALLDATASIZE PUSH1 0x3 NOT ADD SLT PUSH2 0xE3 JUMPI PUSH1 0x4 CALLDATALOAD PUSH1 0x0 MSTORE PUSH1 0x4 PUSH1 0x20 MSTORE PUSH1 0x20 PUSH1 0x1 DUP1 PUSH1 0xA0 SHL SUB PUSH1 0x40 PUSH1 0x0 KECCAK256 SLOAD AND PUSH1 0x40 MLOAD SWAP1 DUP2 MSTORE RETURN JUMPDEST CALLVALUE PUSH2 0xE3 JUMPI PUSH1 0x20 CALLDATASIZE PUSH1 0x3 NOT ADD SLT PUSH2 0xE3 JUMPI PUSH1 0x4 CALLDATALOAD PUSH1 0x0 MSTORE PUSH1 0x0 PUSH1 0x20 MSTORE PUSH1 0x40 PUSH1 0x0 KECCAK256 DUP1 SLOAD PUSH2 0x1871 PUSH1 0x1 DUP4 ADD PUSH2 0x1989 JUMP JUMPDEST SWAP2 PUSH1 0x2 DUP2 ADD SLOAD SWAP1 PUSH1 0x1 DUP1 PUSH1 0xA0 SHL SUB PUSH1 0x3 DUP3 ADD SLOAD AND SWAP1 PUSH1 0x4 DUP2 ADD SLOAD PUSH1 0x6 PUSH1 0xFF PUSH1 0x5 DUP5 ADD SLOAD AND SWAP3 ADD SLOAD SWAP3 PUSH2 0x18B5 PUSH1 0x40 MLOAD SWAP8 DUP9 SWAP8 DUP9 MSTORE PUSH1 0xE0 PUSH1 0x20 DUP10 ADD MSTORE PUSH1 0xE0 DUP9 ADD SWAP1 PUSH2 0x1A2F JUMP JUMPDEST SWAP5 PUSH1 0x40 DUP8 ADD MSTORE PUSH1 0x60 DUP7 ADD MSTORE PUSH1 0x80 DUP6 ADD MSTORE PUSH2 0x18CE DUP2 PUSH2 0x1A6F JUMP JUMPDEST PUSH1 0xA0 DUP5 ADD MSTORE PUSH1 0xC0 DUP4 ADD MSTORE SUB SWAP1 RETURN JUMPDEST SWAP1 PUSH1 0x1 DUP3 DUP2 SHR SWAP3 AND DUP1 ISZERO PUSH2 0x190C JUMPI JUMPDEST PUSH1 0x20 DUP4 LT EQ PUSH2 0x18F6 JUMPI JUMP JUMPDEST PUSH4 0x4E487B71 PUSH1 0xE0 SHL PUSH1 0x0 MSTORE PUSH1 0x22 PUSH1 0x4 MSTORE PUSH1 0x24 PUSH1 0x0 REVERT JUMPDEST SWAP2 PUSH1 0x7F AND SWAP2 PUSH2 0x18EB JUMP JUMPDEST PUSH2 0x120 DUP2 ADD SWAP1 DUP2 LT PUSH1 0x1 PUSH1 0x1 PUSH1 0x40 SHL SUB DUP3 GT OR PUSH2 0x289 JUMPI PUSH1 0x40 MSTORE JUMP JUMPDEST PUSH1 0x40 DUP2 ADD SWAP1 DUP2 LT PUSH1 0x1 PUSH1 0x1 PUSH1 0x40 SHL SUB DUP3 GT OR PUSH2 0x289 JUMPI PUSH1 0x40 MSTORE JUMP JUMPDEST PUSH1 0x20 DUP2 ADD SWAP1 DUP2 LT PUSH1 0x1 PUSH1 0x1 PUSH1 0x40 SHL SUB DUP3 GT OR PUSH2 0x289 JUMPI PUSH1 0x40 MSTORE JUMP JUMPDEST SWAP1 PUSH1 0x1F DUP1 NOT SWAP2 ADD AND DUP2 ADD SWAP1 DUP2 LT PUSH1 0x1 PUSH1 0x1 PUSH1 0x40 SHL SUB DUP3 GT OR PUSH2 0x289 JUMPI PUSH1 0x40 MSTORE JUMP JUMPDEST SWAP1 PUSH1 0x40 MLOAD SWAP2 DUP3 PUSH1 0x0 DUP3 SLOAD SWAP3 PUSH2 0x199D DUP5 PUSH2 0x18DC JUMP JUMPDEST SWAP1 DUP2 DUP5 MSTORE PUSH1 0x1 SWAP5 DUP6 DUP2 AND SWAP1 DUP2 PUSH1 0x0 EQ PUSH2 0x1A0C JUMPI POP PUSH1 0x1 EQ PUSH2 0x19C9 JUMPI JUMPDEST POP POP PUSH2 0x19C7 SWAP3 POP SUB DUP4 PUSH2 0x1968 JUMP JUMPDEST JUMP JUMPDEST SWAP1 SWAP4 SWAP2 POP PUSH1 0x0 MSTORE PUSH1 0x20 SWAP1 DUP2 PUSH1 0x0 KECCAK256 SWAP4 PUSH1 0x0 SWAP2 JUMPDEST DUP2 DUP4 LT PUSH2 0x19F4 JUMPI POP POP PUSH2 0x19C7 SWAP4 POP DUP3 ADD ADD CODESIZE DUP1 PUSH2 0x19B9 JUMP JUMPDEST DUP6 SLOAD DUP9 DUP5 ADD DUP6 ADD MSTORE SWAP5 DUP6 ADD SWAP5 DUP8 SWAP5 POP SWAP2 DUP4 ADD SWAP2 PUSH2 0x19DC JUMP JUMPDEST SWAP2 POP POP PUSH2 0x19C7 SWAP5 POP PUSH1 0x20 SWAP3 POP PUSH1 0xFF NOT AND DUP3 DUP5 ADD MSTORE ISZERO ISZERO PUSH1 0x5 SHL DUP3 ADD ADD CODESIZE DUP1 PUSH2 0x19B9 JUMP JUMPDEST SWAP2 SWAP1 DUP3 MLOAD SWAP3 DUP4 DUP3 MSTORE PUSH1 0x0 JUMPDEST DUP5 DUP2 LT PUSH2 0x1A5B JUMPI POP POP DUP3 PUSH1 0x0 PUSH1 0x20 DUP1 SWAP5 SWAP6 DUP5 ADD ADD MSTORE PUSH1 0x1F DUP1 NOT SWAP2 ADD AND ADD ADD SWAP1 JUMP JUMPDEST PUSH1 0x20 DUP2 DUP4 ADD DUP2 ADD MLOAD DUP5 DUP4 ADD DUP3 ADD MSTORE ADD PUSH2 0x1A3A JUMP JUMPDEST PUSH1 0x4 GT ISZERO PUSH2 0x1A79 JUMPI JUMP JUMPDEST PUSH4 0x4E487B71 PUSH1 0xE0 SHL PUSH1 0x0 MSTORE PUSH1 0x21 PUSH1 0x4 MSTORE PUSH1 0x24 PUSH1 0x0 REVERT JUMPDEST DUP1 SLOAD DUP3 LT ISZERO PUSH2 0x1AA7 JUMPI PUSH1 0x0 MSTORE PUSH1 0x20 PUSH1 0x0 KECCAK256 ADD SWAP1 PUSH1 0x0 SWAP1 JUMP JUMPDEST PUSH4 0x4E487B71 PUSH1 0xE0 SHL PUSH1 0x0 MSTORE PUSH1 0x32 PUSH1 0x4 MSTORE PUSH1 0x24 PUSH1 0x0 REVERT JUMPDEST DUP2 PUSH1 0x1F DUP3 ADD SLT ISZERO PUSH2 0xE3 JUMPI DUP1 CALLDATALOAD SWAP1 PUSH1 0x1 PUSH1 0x1 PUSH1 0x40 SHL SUB DUP3 GT PUSH2 0x289 JUMPI PUSH1 0x40 MLOAD SWAP3 PUSH2 0x1AF1 PUSH1 0x1F DUP5 ADD PUSH1 0x1F NOT AND PUSH1 0x20 ADD DUP6 PUSH2 0x1968 JUMP JUMPDEST DUP3 DUP5 MSTORE PUSH1 0x20 DUP4 DUP4 ADD ADD GT PUSH2 0xE3 JUMPI DUP2 PUSH1 0x0 SWAP3 PUSH1 0x20 DUP1 SWAP4 ADD DUP4 DUP7 ADD CALLDATACOPY DUP4 ADD ADD MSTORE SWAP1 JUMP JUMPDEST PUSH1 0x0 NOT DUP2 EQ PUSH2 0x171A JUMPI PUSH1 0x1 ADD SWAP1 JUMP JUMPDEST DUP2 DUP2 LT PUSH2 0x1B2D JUMPI POP POP JUMP JUMPDEST PUSH1 0x0 DUP2 SSTORE PUSH1 0x1 ADD PUSH2 0x1B22 JUMP JUMPDEST SWAP2 SWAP1 PUSH1 0x1F DUP2 GT PUSH2 0x1B48 JUMPI POP POP POP JUMP JUMPDEST PUSH2 0x19C7 SWAP3 PUSH1 0x0 MSTORE PUSH1 0x20 PUSH1 0x0 KECCAK256 SWAP1 PUSH1 0x20 PUSH1 0x1F DUP5 ADD PUSH1 0x5 SHR DUP4 ADD SWAP4 LT PUSH2 0x1B74 JUMPI JUMPDEST PUSH1 0x1F ADD PUSH1 0x5 SHR ADD SWAP1 PUSH2 0x1B22 JUMP JUMPDEST SWAP1 SWAP2 POP DUP2 SWAP1 PUSH2 0x1B67 JUMP JUMPDEST SWAP1 PUSH2 0x1B88 DUP2 PUSH2 0x1A6F JUMP JUMPDEST PUSH1 0xFF DUP1 NOT DUP4 SLOAD AND SWAP2 AND OR SWAP1 SSTORE JUMP JUMPDEST ISZERO PUSH2 0x1B9D JUMPI JUMP JUMPDEST PUSH1 0x40 MLOAD PUSH3 0x461BCD PUSH1 0xE5 SHL DUP2 MSTORE PUSH1 0x20 PUSH1 0x4 DUP3 ADD MSTORE PUSH1 0x19 PUSH1 0x24 DUP3 ADD MSTORE PUSH32 0x4E6F7420617574686F72697A65642073757065727669736F7200000000000000 PUSH1 0x44 DUP3 ADD MSTORE PUSH1 0x64 SWAP1 REVERT INVALID LOG2 PUSH5 0x6970667358 0x22 SLT KECCAK256 0xC4 0x2D 0xCE 0xC6 DIV SWAP14 0x2E DUP10 CALLDATACOPY 0xAB PUSH30 0x27004EBF04225E5B28729196E0B68413A1E30E11D864736F6C6343000814 STOP CALLER "},"methodIdentifiers":{"approveTender(uint256,address,bytes32)":"ee4c80a0","createProject(string,uint256,bytes32)":"9787547d","getProjectTenders(uint256)":"9ecb0522","getTenderDetails(uint256)":"53ee895d","milestoneCounter()":"f6baaec7","milestones(uint256)":"e89e4ed6","projectCounter()":"f8a518ed","projectTenders(uint256,uint256)":"460f1b82","projects(uint256)":"107046bd","revealedContractors(uint256)":"1878c6bf","submitAnonymousTender(uint256,bytes32,string,string,string)":"b34287cc","submitMilestone(uint256,uint8,string,string,string,bytes32)":"a090cdfb","tenderCounter()":"30d2210c","tenders(uint256)":"465e1def","verifyAndReleaseFunds(uint256,bool,bool,bool)":"18d62eab"}}}}}