{"contracts/FundTracker.sol":{"FundTracker":{"abi":[{"anonymous":false,"inputs":[{"indexed":true,"internalType":"uint256","name":"expenditureId","type":"uint256"},{"indexed":true,"internalType":"uint256","name":"projectId","type":"uint256"},{"indexed":false,"internalType":"uint256","name":"amount","type":"uint256"},{"indexed":false,"internalType":"address","name":"recipient","type":"address"}],"name":"ExpenditureRecorded","type":"event"},{"anonymous":false,"inputs":[{"indexed":true,"internalType":"uint256","name":"projectId","type":"uint256"},{"indexed":false,"internalType":"uint256","name":"amount","type":"uint256"}],"name":"FundsAllocated","type":"event"},{"anonymous":false,"inputs":[{"indexed":true,"internalType":"uint256","name":"projectId","type":"uint256"},{"indexed":false,"internalType":"address","name":"contractor","type":"address"},{"indexed":false,"internalType":"uint256","name":"amount","type":"uint256"},{"indexed":false,"internalType":"uint8","name":"milestone","type":"uint8"}],"name":"FundsReleased","type":"event"},{"anonymous":false,"inputs":[{"indexed":true,"internalType":"uint256","name":"milestoneId","type":"uint256"},{"indexed":false,"internalType":"uint256","name":"amountReleased","type":"uint256"}],"name":"MilestoneApproved","type":"event"},{"anonymous":false,"inputs":[{"indexed":true,"internalType":"uint256","name":"milestoneId","type":"uint256"},{"indexed":true,"internalType":"uint256","name":"projectId","type":"uint256"},{"indexed":false,"internalType":"uint8","name":"percentage","type":"uint8"},{"indexed":false,"internalType":"uint256","name":"targetAmount","type":"uint256"}],"name":"MilestoneCreated","type":"event"},{"anonymous":false,"inputs":[{"indexed":true,"internalType":"uint256","name":"milestoneId","type":"uint256"},{"indexed":false,"internalType":"string","name":"reason","type":"string"}],"name":"MilestoneRejected","type":"event"},{"anonymous":false,"inputs":[{"indexed":true,"internalType":"uint256","name":"milestoneId","type":"uint256"},{"indexed":true,"internalType":"uint256","name":"tenderId","type":"uint256"},{"indexed":false,"internalType":"uint8","name":"percentage","type":"uint8"}],"name":"MilestoneSubmitted","type":"event"},{"anonymous":false,"inputs":[{"indexed":true,"internalType":"uint256","name":"projectId","type":"uint256"},{"indexed":false,"internalType":"string","name":"name","type":"string"},{"indexed":false,"internalType":"uint256","name":"budget","type":"uint256"},{"indexed":false,"internalType":"address","name":"admin","type":"address"},{"indexed":false,"internalType":"uint256","name":"timestamp","type":"uint256"}],"name":"ProjectCreated","type":"event"},{"anonymous":false,"inputs":[{"indexed":true,"internalType":"uint256","name":"tenderId","type":"uint256"},{"indexed":false,"internalType":"address","name":"revealedContractor","type":"address"}],"name":"TenderApproved","type":"event"},{"anonymous":false,"inputs":[{"indexed":true,"internalType":"uint256","name":"tenderId","type":"uint256"},{"indexed":false,"internalType":"string","name":"reason","type":"string"}],"name":"TenderRejected","type":"event"},{"anonymous":false,"inputs":[{"indexed":true,"internalType":"uint256","name":"tenderId","type":"uint256"},{"indexed":true,"internalType":"uint256","name":"projectId","type":"uint256"},{"indexed":false,"internalType":"bytes32","name":"contractorCommitment","type":"bytes32"}],"name":"TenderSubmitted","type":"event"},{"inputs":[{"internalType":"uint256","name":"_tenderId","type":"uint256"},{"internalType":"address","name":"_revealedContractor","type":"address"},{"internalType":"bytes32","name":"_nonce","type":"bytes32"}],"name":"approveTender","outputs":[],"stateMutability":"nonpayable","type":"function"},{"inputs":[{"internalType":"string","name":"_name","type":"string"},{"internalType":"uint256","name":"_budget","type":"uint256"},{"internalType":"bytes32","name":"_supervisorCommitment","type":"bytes32"},{"internalType":"string","name":"_location","type":"string"}],"name":"createProject","outputs":[{"internalType":"uint256","name":"","type":"uint256"}],"stateMutability":"nonpayable","type":"function"},{"inputs":[],"name":"expenditureCount","outputs":[{"internalType":"uint256","name":"","type":"uint256"}],"stateMutability":"view","type":"function"},{"inputs":[{"internalType":"uint256","name":"","type":"uint256"}],"name":"expenditures","outputs":[{"internalType":"uint256","name":"id","type":"uint256"},{"internalType":"uint256","name":"projectId","type":"uint256"},{"internalType":"uint256","name":"milestoneId","type":"uint256"},{"internalType":"uint256","name":"amount","type":"uint256"},{"internalType":"string","name":"description","type":"string"},{"internalType":"address","name":"recipient","type":"address"},{"internalType":"uint256","name":"timestamp","type":"uint256"}],"stateMutability":"view","type":"function"},{"inputs":[{"internalType":"uint256","name":"_milestoneId","type":"uint256"}],"name":"getMilestone","outputs":[{"internalType":"uint256","name":"id","type":"uint256"},{"internalType":"uint256","name":"projectId","type":"uint256"},{"internalType":"uint256","name":"tenderId","type":"uint256"},{"internalType":"uint8","name":"percentageComplete","type":"uint8"},{"internalType":"uint256","name":"targetAmount","type":"uint256"},{"internalType":"uint256","name":"spentAmount","type":"uint256"},{"internalType":"enum FundTracker.MilestoneStatus","name":"status","type":"uint8"},{"internalType":"uint256","name":"submittedAt","type":"uint256"},{"internalType":"uint256","name":"approvedAt","type":"uint256"}],"stateMutability":"view","type":"function"},{"inputs":[{"internalType":"uint256","name":"_milestoneId","type":"uint256"}],"name":"getMilestoneDocuments","outputs":[{"internalType":"string","name":"proofImagesIPFS","type":"string"},{"internalType":"string","name":"gpsCoordinates","type":"string"},{"internalType":"string","name":"architectureDocsIPFS","type":"string"},{"internalType":"bytes32","name":"qualityHash","type":"bytes32"},{"internalType":"string","name":"rejectionReason","type":"string"}],"stateMutability":"view","type":"function"},{"inputs":[{"internalType":"uint256","name":"_projectId","type":"uint256"}],"name":"getProject","outputs":[{"components":[{"internalType":"uint256","name":"id","type":"uint256"},{"internalType":"string","name":"name","type":"string"},{"internalType":"uint256","name":"budget","type":"uint256"},{"internalType":"uint256","name":"allocatedFunds","type":"uint256"},{"internalType":"uint256","name":"spentFunds","type":"uint256"},{"internalType":"address","name":"admin","type":"address"},{"internalType":"bytes32","name":"supervisorCommitment","type":"bytes32"},{"internalType":"enum FundTracker.ProjectStatus","name":"status","type":"uint8"},{"internalType":"string","name":"location","type":"string"},{"internalType":"uint256","name":"createdAt","type":"uint256"},{"internalType":"bool","name":"exists","type":"bool"}],"internalType":"struct FundTracker.Project","name":"","type":"tuple"}],"stateMutability":"view","type":"function"},{"inputs":[{"internalType":"uint256","name":"_projectId","type":"uint256"}],"name":"getProjectExpenditures","outputs":[{"internalType":"uint256[]","name":"","type":"uint256[]"}],"stateMutability":"view","type":"function"},{"inputs":[{"internalType":"uint256","name":"_projectId","type":"uint256"}],"name":"getProjectMilestones","outputs":[{"internalType":"uint256[]","name":"","type":"uint256[]"}],"stateMutability":"view","type":"function"},{"inputs":[{"internalType":"uint256","name":"_projectId","type":"uint256"}],"name":"getProjectTenders","outputs":[{"internalType":"uint256[]","name":"","type":"uint256[]"}],"stateMutability":"view","type":"function"},{"inputs":[{"internalType":"uint256","name":"_tenderId","type":"uint256"}],"name":"getTender","outputs":[{"components":[{"internalType":"uint256","name":"id","type":"uint256"},{"internalType":"uint256","name":"projectId","type":"uint256"},{"internalType":"bytes32","name":"contractorCommitment","type":"bytes32"},{"internalType":"string","name":"encryptedContractorDataIPFS","type":"string"},{"internalType":"string","name":"tenderDocumentIPFS","type":"string"},{"internalType":"string","name":"qualityReportIPFS","type":"string"},{"internalType":"enum FundTracker.TenderStatus","name":"status","type":"uint8"},{"internalType":"uint256","name":"submittedAt","type":"uint256"}],"internalType":"struct FundTracker.Tender","name":"","type":"tuple"}],"stateMutability":"view","type":"function"},{"inputs":[{"internalType":"uint256","name":"_tenderId","type":"uint256"}],"name":"getTenderDetails","outputs":[{"internalType":"string","name":"tenderDoc","type":"string"},{"internalType":"string","name":"qualityReport","type":"string"},{"internalType":"enum FundTracker.TenderStatus","name":"status","type":"uint8"},{"internalType":"address","name":"contractor","type":"address"}],"stateMutability":"view","type":"function"},{"inputs":[],"name":"milestoneCount","outputs":[{"internalType":"uint256","name":"","type":"uint256"}],"stateMutability":"view","type":"function"},{"inputs":[{"internalType":"uint256","name":"","type":"uint256"}],"name":"milestones","outputs":[{"internalType":"uint256","name":"id","type":"uint256"},{"internalType":"uint256","name":"projectId","type":"uint256"},{"internalType":"uint256","name":"tenderId","type":"uint256"},{"internalType":"uint8","name":"percentageComplete","type":"uint8"},{"internalType":"string","name":"proofImagesIPFS","type":"string"},{"internalType":"string","name":"gpsCoordinates","type":"string"},{"internalType":"string","name":"architectureDocsIPFS","type":"string"},{"internalType":"bytes32","name":"qualityHash","type":"bytes32"},{"internalType":"uint256","name":"targetAmount","type":"uint256"},{"internalType":"uint256","name":"spentAmount","type":"uint256"},{"internalType":"enum FundTracker.MilestoneStatus","name":"status","type":"uint8"},{"internalType":"uint256","name":"submittedAt","type":"uint256"},{"internalType":"uint256","name":"approvedAt","type":"uint256"},{"internalType":"string","name":"rejectionReason","type":"string"},{"internalType":"bool","name":"exists","type":"bool"}],"stateMutability":"view","type":"function"},{"inputs":[],"name":"projectCount","outputs":[{"internalType":"uint256","name":"","type":"uint256"}],"stateMutability":"view","type":"function"},{"inputs":[{"internalType":"uint256","name":"","type":"uint256"},{"internalType":"uint256","name":"","type":"uint256"}],"name":"projectExpenditures","outputs":[{"internalType":"uint256","name":"","type":"uint256"}],"stateMutability":"view","type":"function"},{"inputs":[{"internalType":"uint256","name":"","type":"uint256"},{"internalType":"uint256","name":"","type":"uint256"}],"name":"projectMilestones","outputs":[{"internalType":"uint256","name":"","type":"uint256"}],"stateMutability":"view","type":"function"},{"inputs":[{"internalType":"uint256","name":"","type":"uint256"},{"internalType":"uint256","name":"","type":"uint256"}],"name":"projectTenders","outputs":[{"internalType":"uint256","name":"","type":"uint256"}],"stateMutability":"view","type":"function"},{"inputs":[{"internalType":"uint256","name":"","type":"uint256"}],"name":"projects","outputs":[{"internalType":"uint256","name":"id","type":"uint256"},{"internalType":"string","name":"name","type":"string"},{"internalType":"uint256","name":"budget","type":"uint256"},{"internalType":"uint256","name":"allocatedFunds","type":"uint256"},{"internalType":"uint256","name":"spentFunds","type":"uint256"},{"internalType":"address","name":"admin","type":"address"},{"internalType":"bytes32","name":"supervisorCommitment","type":"bytes32"},{"internalType":"enum FundTracker.ProjectStatus","name":"status","type":"uint8"},{"internalType":"string","name":"location","type":"string"},{"internalType":"uint256","name":"createdAt","type":"uint256"},{"internalType":"bool","name":"exists","type":"bool"}],"stateMutability":"view","type":"function"},{"inputs":[{"internalType":"uint256","name":"_projectId","type":"uint256"},{"internalType":"uint256","name":"_milestoneId","type":"uint256"},{"internalType":"uint256","name":"_amount","type":"uint256"},{"internalType":"string","name":"_description","type":"string"},{"internalType":"address","name":"_recipient","type":"address"}],"name":"recordExpenditure","outputs":[{"internalType":"uint256","name":"","type":"uint256"}],"stateMutability":"nonpayable","type":"function"},{"inputs":[{"internalType":"uint256","name":"","type":"uint256"}],"name":"revealedContractors","outputs":[{"internalType":"address","name":"","type":"address"}],"stateMutability":"view","type":"function"},{"inputs":[{"internalType":"uint256","name":"_projectId","type":"uint256"},{"internalType":"bytes32","name":"_contractorCommitment","type":"bytes32"},{"internalType":"string","name":"_encryptedContractorDataIPFS","type":"string"},{"internalType":"string","name":"_tenderDocIPFS","type":"string"},{"internalType":"string","name":"_qualityReportIPFS","type":"string"}],"name":"submitAnonymousTender","outputs":[{"internalType":"uint256","name":"","type":"uint256"}],"stateMutability":"nonpayable","type":"function"},{"inputs":[{"internalType":"uint256","name":"_tenderId","type":"uint256"},{"internalType":"uint8","name":"_percentageComplete","type":"uint8"},{"internalType":"string","name":"_proofImagesIPFS","type":"string"},{"internalType":"string","name":"_gpsCoordinates","type":"string"},{"internalType":"string","name":"_architectureDocsIPFS","type":"string"},{"internalType":"bytes32","name":"_qualityHash","type":"bytes32"}],"name":"submitMilestone","outputs":[{"internalType":"uint256","name":"","type":"uint256"}],"stateMutability":"nonpayable","type":"function"},{"inputs":[],"name":"tenderCount","outputs":[{"internalType":"uint256","name":"","type":"uint256"}],"stateMutability":"view","type":"function"},{"inputs":[{"internalType":"uint256","name":"","type":"uint256"}],"name":"tenders","outputs":[{"internalType":"uint256","name":"id","type":"uint256"},{"internalType":"uint256","name":"projectId","type":"uint256"},{"internalType":"bytes32","name":"contractorCommitment","type":"bytes32"},{"internalType":"string","name":"encryptedContractorDataIPFS","type":"string"},{"internalType":"string","name":"tenderDocumentIPFS","type":"string"},{"internalType":"string","name":"qualityReportIPFS","type":"string"},{"internalType":"enum FundTracker.TenderStatus","name":"status","type":"uint8"},{"internalType":"uint256","name":"submittedAt","type":"uint256"}],"stateMutability":"view","type":"function"},{"inputs":[{"internalType":"uint256","name":"_milestoneId","type":"uint256"},{"internalType":"bool","name":"_qualityVerified","type":"bool"},{"internalType":"bool","name":"_gpsVerified","type":"bool"},{"internalType":"bool","name":"_progressVerified","type":"bool"}],"name":"verifyAndReleaseFunds","outputs":[],"stateMutability":"payable","type":"function"},{"stateMutability":"payable","type":"receive"}],"evm":{"bytecode":{"linkReferences":{},"object":"608080604052346100295760008055600060015560006002556000600355612946908161002f8239f35b600080fdfe6080604052600436101561001b575b361561001957600080fd5b005b60003560e01c806301830c48146121785780630585c25e1461201a5780630681ca5514611ffc578063107046bd14611f1c5780631878c6bf14611ee857806318d62eab14611c0e5780631f05877614611bf05780632442e1cb14611b4057806330daa3a214611b2257806336fbad2614611b045780633af48e3214611a77578063460f1b8214611a46578063465e1def1461198557806352766d80146118ff57806353ee895d146117c55780636cb0adba14611794578063716c0bbc1461170e57806371e9d3cd1461136f578063793d2083146112aa578063868a654b1461126b5780639ecb0522146111d5578063a090cdfb14610a5b578063b34287cc146105e5578063e89e4ed6146104ae578063ee4c80a01461031f5763f0f3f2c80361000e573461031a57602036600319011261031a576004356000610140604051610163816124e0565b828152606060208201528260408201528260608201528260808201528260a08201528260c08201528260e082015260606101008201528261012082015201528060005260046020526101bf60ff600a60406000200154166127ec565b6000526004602052604060002060ff600a604051926101dd846124e0565b805484526101ed60018201612644565b602085015260028101546040850152600381015460608501526004810154608085015260058101546001600160a01b031660a0850152600681015460c08501526007810154831661023d816125ea565b60e085015261024e60088201612644565b610100850152600981015461012085015201541615156101408201526040518091602082528051602083015261014061030161029b602084015161016060408701526101808601906125aa565b6040840151606086015260608401516080860152608084015160a086015260018060a01b0360a08501511660c086015260c084015160e086015260e08401516102e3816125ea565b610100860152610100840151601f19868303016101208701526125aa565b9161012081015182850152015115156101608301520390f35b600080fd5b3461031a57606036600319011261031a576024356004356001600160a01b03821680830361031a5781600052602090600582526040600020600181015490610394604051858101903360601b82526014815261037a81612518565b51902083600052600486526006604060002001541461286b565b60405195848701906001600160601b03199060601b16815260443560348801526034875260608701908782106001600160401b0383111761049857816040528751902060028301540361045757507f08ef1e92b16bd2e2d0be9431db3a64223f23cce123adb96b1202ba2f18ac88db9495506006019060ff199160028382541617905585600052600b84526040600020836001600160601b0360a01b825416179055600052600483526001600760406000200191825416179055604051908152a2005b62461bcd60e51b81526064878101869052601960848901527f496e76616c696420636f6e74726163746f722072657665616c0000000000000060a489015290fd5b634e487b7160e01b600052604160045260246000fd5b3461031a57602036600319011261031a5760043560005260066020526040600020805490600181015490600281015490600381015460ff16600482016104f390612644565b9061050060058401612644565b9161050d60068501612644565b926007850154936008860154600987015491600a88015460ff1693600b89015495600c8a015497600d8b0161054190612644565b9a600e015460ff169b6040519e8f9e8f91825260208201526040015260608d01528b6101e06080819201528c01610577916125aa565b8b810360a08d0152610588916125aa565b8a810360c08c0152610599916125aa565b9560e08a01526101008901526101208801526105b4816125ea565b6101408701526101608601526101808501528381036101a08501526105d8916125aa565b9015156101c08301520390f35b3461031a5760a036600319011261031a576044356001600160401b03811161031a57610615903690600401612554565b6064356001600160401b03811161031a57610634903690600401612554565b6084356001600160401b03811161031a57610653903690600401612554565b91600435600052600460205261067360ff600a60406000200154166127ec565b600435600052600460205260ff60076040600020015416610693816125ea565b610a16576106a2600154612769565b9182600155604051926106b4846124fc565b808452602084019460043586526040850192602435845260608601948552608086015260a0850152600060c08501524260e0850152600052600560205260406000209383518555516001850155516002840155519182516001600160401b038111610498576107338161072a600385015461260a565b6003850161278f565b6020601f82116001146109a8578192939460009261099d575b50508160011b916000199060031b1c19161760038201555b60808201519182516001600160401b038111610498576107948161078b600486015461260a565b6004860161278f565b6020601f821160011461092f5781929394600092610924575b50508160011b916000199060031b1c19161760048301555b60a08101518051906001600160401b038211610498576107f5826107ec600587015461260a565b6005870161278f565b602090601f83116001146108af5791806007949260e0946000926108a4575b50508160011b916000199060031b1c19161760058501555b61084660c082015161083d816125ea565b600686016127d4565b01519101556004356000526008602052610867604060002060015490612831565b60206001546040516024358152817fcc51b0e9a11b4449f30eedbf3dc532b58ffe4ad8f2b816544631d5cd5c3c0e9a8460043593a3604051908152f35b015190508680610814565b906005850160005260206000209160005b601f198516811061090c5750926007949260019260e09583601f198116106108f3575b505050811b01600585015561082c565b015160001960f88460031b161c191690558680806108e3565b919260206001819286850151815501940192016108c0565b0151905084806107ad565b6004840160005260206000209060005b601f19841681106109855750600193949583601f1981161061096c575b505050811b0160048301556107c5565b015160001960f88460031b161c1916905584808061095c565b9091602060018192858a01518155019301910161093f565b01519050848061074c565b6003830160005260206000209060005b601f19841681106109fe5750600193949583601f198116106109e5575b505050811b016003820155610764565b015160001960f88460031b161c191690558480806109d5565b9091602060018192858a0151815501930191016109b8565b60405162461bcd60e51b815260206004820152601d60248201527f50726f6a656374206e6f7420616363657074696e672074656e646572730000006044820152606490fd5b3461031a5760c036600319011261031a5760243560ff8116810361031a576044356001600160401b03811161031a57610a98903690600401612554565b906064356001600160401b03811161031a57610ab8903690600401612554565b916084356001600160401b03811161031a57610ad8903690600401612554565b906004356000526005602052600260ff60066040600020015416610afb816125ea565b0361119a576004356000908152600b60205260409020546001600160a01b0316330361115557601460ff8416148015611148575b801561113b575b801561112e575b8015611121575b156110dc57610b54600254612769565b9081600255600435600052600560205260016040600020015492836000526004602052600260406000200154908160ff871681020460ff871614821517156110c65760405196876101e08101106001600160401b036101e08a011117610498576064936101e089016040528589528660208a015260043560408a015260ff881660608a0152608089015260a088015260c087015260a43560e087015260ff85160204610100850152600061012085015260016101408501524261016085015260006101808501526040518060208101106001600160401b036020830111176104985760208101604052600081526101a085015260016101c0850152600052600660205260406000208351815560208401516001820155604084015160028201556003810160ff60608601511660ff1982541617905560808401518051906001600160401b038211610498578190610cbb82610cb2600487015461260a565b6004870161278f565b602090601f831160011461105457600092611049575b50508160011b916000199060031b1c19161760048201555b60a08401518051906001600160401b038211610498578190610d12826107ec600587015461260a565b602090601f8311600114610fd757600092610fcc575b50508160011b916000199060031b1c19161760058201555b60c08401518051906001600160401b038211610498578190610d7282610d69600687015461260a565b6006870161278f565b602090601f8311600114610f5a57600092610f4f575b50508160011b916000199060031b1c19161760068201555b60e0840151600782015561010084015160088201556101208401516009820155610ddb610140850151610dd2816125ea565b600a83016127d4565b610160840151600b820155610180840151600c8201556101a08401519384516001600160401b03811161049857602095610e2582610e1c600d87015461260a565b600d870161278f565b8690601f8311600114610ed7579282600e936101c093610e779796600092610ecc575b50508160011b916000199060031b1c191617600d8501555b0151151591019060ff801983541691151516179055565b60005260098252610e8f604060002060025490612831565b6002549060ff60405191168152817fa4f370de0d910b9e1634436568274edd60715ade03e4cf084efd418a29349d888460043593a3604051908152f35b015190508a80610e48565b90600d8501600052876000209160005b601f1985168110610f385750836101c093610e77979693600193600e97601f19811610610f1f575b505050811b01600d850155610e60565b015160001960f88460031b161c191690558a8080610f0f565b919289600181928685015181550194019201610ee7565b015190508680610d88565b9250600684016000526020600020906000935b601f1984168510610fb1576001945083601f19811610610f98575b505050811b016006820155610da0565b015160001960f88460031b161c19169055868080610f88565b81810151835560209485019460019093019290910190610f6d565b015190508680610d28565b9250600584016000526020600020906000935b601f198416851061102e576001945083601f19811610611015575b505050811b016005820155610d40565b015160001960f88460031b161c19169055868080611005565b81810151835560209485019460019093019290910190610fea565b015190508680610cd1565b9250600484016000526020600020906000935b601f19841685106110ab576001945083601f19811610611092575b505050811b016004820155610ce9565b015160001960f88460031b161c19169055868080611082565b81810151835560209485019460019093019290910190611067565b634e487b7160e01b600052601160045260246000fd5b60405162461bcd60e51b815260206004820152601c60248201527f496e76616c6964206d696c6573746f6e652070657263656e74616765000000006044820152606490fd5b50606460ff841614610b44565b50605060ff841614610b3d565b50603c60ff841614610b36565b50602860ff841614610b2f565b60405162461bcd60e51b815260206004820152601760248201527f4e6f742061737369676e656420636f6e74726163746f720000000000000000006044820152606490fd5b60405162461bcd60e51b815260206004820152601360248201527215195b99195c881b9bdd08185c1c1c9bdd9959606a1b6044820152606490fd5b3461031a5760208060031936011261031a57600435806000526004825261120660ff600a60406000200154166127ec565b60005260088152604060002090604051908181845491828152019360005281600020916000905b828210611254576112508561124481890382612533565b6040519182918261272e565b0390f35b83548652948501946001938401939091019061122d565b3461031a57611279366126ea565b90600052600a6020526040600020805482101561031a5760209161129c91612700565b90546040519160031b1c8152f35b3461031a57602036600319011261031a576004358060005260066020526112db60ff600e60406000200154166128c4565b6000526006602052611340604060002061125060078201546112ff60048401612644565b9261135c61130f60058301612644565b9161134e61132b600d61132460068501612644565b9301612644565b9360405198899860a08a5260a08a01906125aa565b9088820360208a01526125aa565b9086820360408801526125aa565b91606085015283820360808501526125aa565b3461031a5760a036600319011261031a576001600160401b0360643581811161031a576113a0903690600401612554565b906001600160a01b036084358181169081900361031a576004359182600052602094600486526113da60ff600a60406000200154166127ec565b83600052600486528160056040600020015416331480156116d9575b156116a35783600052600486526040600020916044359561141b8760048601546128b7565b60038095015410611652576114308454612769565b908185556040519260e084019184831081841117610498578a926040528385528285019589875260408601966024359788815260608801918d835260808901938452600760a08a01978d895260c08b0199428b52600052526040600020985189555160018901555160028801555188870155519081519081116104985760048601916114c6826114c0855461260a565b8561278f565b8c908d601f84116001146115be575092827f13780f32aef756aa7b54bf1925480ed3b26bedf45cb3ac9ad99ca2f493bc02c99a9896936006969360409b99966000926115b3575b50508160011b91600019908b1b1c19161790555b600585019151166001600160601b0360a01b825416179055519101558015158061159a575b611579575b5084600052600a875261156382600020825490612831565b54948593825191825287820152a3604051908152f35b60005260068752600982600020016115928782546128b7565b90558761154b565b50806000526006885260ff600e84600020015416611546565b01519050388061150d565b91908460005282600020926000601f198616915b82821061163a575050936006969360409b999693600193837f13780f32aef756aa7b54bf1925480ed3b26bedf45cb3ac9ad99ca2f493bc02c99f9d9b9810611622575b505050811b019055611521565b0151600019838d1b60f8161c19169055388080611615565b806001869782949787015181550196019401906115d2565b60405162461bcd60e51b815260048101899052602360248201527f457870656e646974757265206578636565647320616c6c6f63617465642066756044820152626e647360e81b6064820152608490fd5b60405162461bcd60e51b815260048101879052600e60248201526d139bdd08185d5d1a1bdc9a5e995960921b6044820152606490fd5b50604051868101903360601b8252601481526116f481612518565b5190208460005260048752600660406000200154146113f6565b3461031a5760208060031936011261031a57600435806000526004825261173f60ff600a60406000200154166127ec565b600052600a8152604060002090604051908181845491828152019360005281600020916000905b82821061177d576112508561124481890382612533565b835486529485019460019384019390910190611766565b3461031a576117a2366126ea565b9060005260096020526040600020805482101561031a5760209161129c91612700565b3461031a57602036600319011261031a576118c46004358060005260056020526040600020604051906117f7826124fc565b80548252600181015460208301526002810154604083015261181b60038201612644565b606083015261182c60048201612644565b9260808301938452600261184260058401612644565b9460a0850195865260ff6006850154169460e0600760c0830196611865896125ea565b88885201549101525194519261187a856125ea565b51611884816125ea565b61188d816125ea565b036118f3576000908152600b60205260409020546001600160a01b0316906118d2905b6040519586956080875260808701906125aa565b9085820360208701526125aa565b916118dc816125ea565b60408401526001600160a01b031660608301520390f35b506118d26000916118b0565b3461031a5760208060031936011261031a57600435806000526004825261193060ff600a60406000200154166127ec565b60005260098152604060002090604051908181845491828152019360005281600020916000905b82821061196e576112508561124481890382612533565b835486529485019460019384019390910190611957565b3461031a57602036600319011261031a576004356000526005602052604060002080546001820154916002810154611a2e6119c260038401612644565b611a206119d160048601612644565b611a126119e060058801612644565b93600760ff60068a015416980154966040519a8b9a8b5260208b015260408a01526101008060608b01528901906125aa565b9087820360808901526125aa565b9085820360a08701526125aa565b91611a38816125ea565b60c084015260e08301520390f35b3461031a57611a54366126ea565b9060005260086020526040600020805482101561031a5760209161129c91612700565b3461031a57602036600319011261031a576004356000526007602052604060002080546001820154916002810154611af56003830154611ab960048501612644565b90600660018060a01b0360058701541695015493604051978897885260208801526040870152606086015260e0608086015260e08501906125aa565b9160a084015260c08301520390f35b3461031a57600036600319011261031a576020600054604051908152f35b3461031a57600036600319011261031a576020600354604051908152f35b3461031a57602036600319011261031a57600435806000526006602052611b7160ff600e60406000200154166128c4565b60005260066020526101206040600020805490600181015490600281015460ff600383015416600883015460098401549160ff600a8601541693600c600b87015496015496604051988952602089015260408801526060870152608086015260a0850152611bde816125ea565b60c084015260e0830152610100820152f35b3461031a57600036600319011261031a576020600154604051908152f35b608036600319011261031a57602435600435811515820361031a5760443591821515830361031a5760643590811515820361031a578260005260209060068252604060002092600184015495611c91604051858101903360601b825260148152611c7781612518565b51902088600052600486526006604060002001541461286b565b82611ee0575b5081611ed8575b5015611e0b57600a820160ff199060028282541617905542600c8401556008830154906002840154600052600b8352600360018060a01b036040600020541694876000526004855281604060002001611cf88582546128b7565b905587600052600485526004604060002001611d158582546128b7565b90550190606460ff83541614600014611ded57866000526004845260036007604060002001918254161790555b81471015611db2575b9060ff83927fcd3c5e4379009ba79bacd27e7dda9b2ceae5fa7d95370f5583f8601ff3bee5cf967f939da3b627c123c81fe5aacebf925163337a0d4f8a03724640618078cad2489460609796604051868152a25416916040519384528301526040820152a2005b929190600081848115611de3575b600092839283928392f115611dd757909192611d4b565b6040513d6000823e3d90fd5b6108fc9250611dc0565b86600052600484526002600760406000200191825416179055611d42565b7f2346e8d925f08bef41586c0448cb9db28a92557839fbbe0e1a14656b7e393712929350600d82600a60809401600360ff1982541617905501611e4e815461260a565b601f8111611eb4575b50605181556000526001816000207f5175616c6974792f4750532f50726f677265737320766572696669636174696f90818155671b8819985a5b195960c21b928391015560286040519380855284015260408301526060820152a2005b611ed290826000526002601f85600020920160051c82019101612778565b85611e57565b905085611c9e565b915086611c97565b3461031a57602036600319011261031a57600435600052600b602052602060018060a01b0360406000205416604051908152f35b3461031a57602036600319011261031a57600435600052600460205260406000208054611f4b60018301612644565b916002810154611fe9600383015491600484015460018060a01b03600586015416600686015460ff60078801541691611f8660088901612644565b9360ff600a60098b01549a01541697611fb36040519c8d9c8d5260208d61016091829101528d01906125aa565b9660408c015260608b015260808a015260a089015260c0880152611fd6816125ea565b60e08701528582036101008701526125aa565b9161012084015215156101408301520390f35b3461031a57600036600319011261031a576020600254604051908152f35b3461031a5760208060031936011261031a57604051612038816124fc565b6000815260008282015260006040820152600060e060609283808201528360808201528360a08201528260c0820152015260043560005260058252604060002060405191612085836124fc565b81548352600182015484840190815261215f6002840154604086019081526120af60038601612644565b8487019081526120c160048701612644565b94608088019586526120d560058801612644565b9260a08901938452600760ff60068a0154169860c08b01996120f6816125ea565b8a5201549560e08a019687526040519a8b9a818c5251908b01525160408a01525190880152519361214e612138610100968760808b01526101208a01906125aa565b915191601f1992838a83030160a08b01526125aa565b9151908783030160c08801526125aa565b925161216a816125ea565b60e085015251908301520390f35b3461031a57608036600319011261031a576004356001600160401b03811161031a576121a8903690600401612554565b6064356001600160401b03811161031a576121c7903690600401612554565b6121d2600054612769565b9081600055604051916121e4836124e0565b8083526020830191848352602435604085015260006060850152600060808501523360a085015260443560c0850152600060e0850152610100840152426101208401526001610140840152600052600460205260406000209082518255519283516001600160401b0381116104985761226d81612264600186015461260a565b6001860161278f565b6020601f8211600114612471578192939495600092612466575b50508160011b916000199060031b1c19161760018301555b6040830151600283015560608301516003830155608083015160048301556005820160018060a01b0360a0850151166001600160601b0360a01b82541617905560c0830151600683015561230360e08401516122fa816125ea565b600784016127d4565b60088201926101008101519384516001600160401b03811161049857602095612330826114c0855461260a565b8690601f83116001146123f257936123c9969383600a946101409461238e986000926123e7575b50508160011b916000199060031b1c19161790555b61012081015160098501550151151591019060ff801983541691151516179055565b7fe12127e830a916393848200f5a64634469c00a020e37627666649822a07a61bd6000549283926040519182916080835260808301906125aa565b602435878301523360408301524260608301520390a2604051908152f35b015190508b80612357565b90601f1983169184600052886000209260005b81811061244f5750846101409461238e98946123c99b9894600a9860019510612436575b505050811b01905561236c565b015160001960f88460031b161c191690558b8080612429565b92938a600181928786015181550195019301612405565b015190508580612287565b6001840160005260206000209060005b601f19841681106124c8575060019394959683601f198116106124af575b505050811b01600183015561229f565b015160001960f88460031b161c1916905585808061249f565b9091602060018192858b015181550193019101612481565b61016081019081106001600160401b0382111761049857604052565b61010081019081106001600160401b0382111761049857604052565b604081019081106001600160401b0382111761049857604052565b90601f801991011681019081106001600160401b0382111761049857604052565b81601f8201121561031a578035906001600160401b0382116104985760405192612588601f8401601f191660200185612533565b8284526020838301011161031a57816000926020809301838601378301015290565b919082519283825260005b8481106125d6575050826000602080949584010152601f8019910116010190565b6020818301810151848301820152016125b5565b600411156125f457565b634e487b7160e01b600052602160045260246000fd5b90600182811c9216801561263a575b602083101461262457565b634e487b7160e01b600052602260045260246000fd5b91607f1691612619565b90604051918260008254926126588461260a565b9081845260019485811690816000146126c75750600114612684575b505061268292500383612533565b565b9093915060005260209081600020936000915b8183106126af57505061268293508201013880612674565b85548884018501529485019487945091830191612697565b91505061268294506020925060ff191682840152151560051b8201013880612674565b604090600319011261031a576004359060243590565b80548210156127185760005260206000200190600090565b634e487b7160e01b600052603260045260246000fd5b6020908160408183019282815285518094520193019160005b828110612755575050505090565b835185529381019392810192600101612747565b60001981146110c65760010190565b818110612783575050565b60008155600101612778565b9190601f811161279e57505050565b612682926000526020600020906020601f840160051c830193106127ca575b601f0160051c0190612778565b90915081906127bd565b906127de816125ea565b60ff80198354169116179055565b156127f357565b60405162461bcd60e51b8152602060048201526016602482015275141c9bda9958dd08191bd95cc81b9bdd08195e1a5cdd60521b6044820152606490fd5b8054680100000000000000008110156104985761285391600182018155612700565b819291549060031b91821b91600019901b1916179055565b1561287257565b60405162461bcd60e51b815260206004820152601960248201527f4e6f7420617574686f72697a65642073757065727669736f72000000000000006044820152606490fd5b919082018092116110c657565b156128cb57565b60405162461bcd60e51b815260206004820152601860248201527f4d696c6573746f6e6520646f6573206e6f7420657869737400000000000000006044820152606490fdfea26469706673582212203b15bf24c1559e57ba9e60841a30343b325693a9a1d4c8d6f6b9a110d67e94d464736f6c63430008140033","opcodes":"PUSH1 0x80 DUP1 PUSH1 0x40 MSTORE CALLVALUE PUSH2 0x29 JUMPI PUSH1 0x0 DUP1 SSTORE PUSH1 0x0 PUSH1 0x1 SSTORE PUSH1 0x0 PUSH1 0x2 SSTORE PUSH1 0x0 PUSH1 0x3 SSTORE PUSH2 0x2946 SWAP1 DUP2 PUSH2 0x2F DUP3 CODECOPY RETURN JUMPDEST PUSH1 0x0 DUP1 REVERT INVALID PUSH1 0x80 PUSH1 0x40 MSTORE PUSH1 0x4 CALLDATASIZE LT ISZERO PUSH2 0x1B JUMPI JUMPDEST CALLDATASIZE ISZERO PUSH2 0x19 JUMPI PUSH1 0x0 DUP1 REVERT JUMPDEST STOP JUMPDEST PUSH1 0x0 CALLDATALOAD PUSH1 0xE0 SHR DUP1 PUSH4 0x1830C48 EQ PUSH2 0x2178 JUMPI DUP1 PUSH4 0x585C25E EQ PUSH2 0x201A JUMPI DUP1 PUSH4 0x681CA55 EQ PUSH2 0x1FFC JUMPI DUP1 PUSH4 0x107046BD EQ PUSH2 0x1F1C JUMPI DUP1 PUSH4 0x1878C6BF EQ PUSH2 0x1EE8 JUMPI DUP1 PUSH4 0x18D62EAB EQ PUSH2 0x1C0E JUMPI DUP1 PUSH4 0x1F058776 EQ PUSH2 0x1BF0 JUMPI DUP1 PUSH4 0x2442E1CB EQ PUSH2 0x1B40 JUMPI DUP1 PUSH4 0x30DAA3A2 EQ PUSH2 0x1B22 JUMPI DUP1 PUSH4 0x36FBAD26 EQ PUSH2 0x1B04 JUMPI DUP1 PUSH4 0x3AF48E32 EQ PUSH2 0x1A77 JUMPI DUP1 PUSH4 0x460F1B82 EQ PUSH2 0x1A46 JUMPI DUP1 PUSH4 0x465E1DEF EQ PUSH2 0x1985 JUMPI DUP1 PUSH4 0x52766D80 EQ PUSH2 0x18FF JUMPI DUP1 PUSH4 0x53EE895D EQ PUSH2 0x17C5 JUMPI DUP1 PUSH4 0x6CB0ADBA EQ PUSH2 0x1794 JUMPI DUP1 PUSH4 0x716C0BBC EQ PUSH2 0x170E JUMPI DUP1 PUSH4 0x71E9D3CD EQ PUSH2 0x136F JUMPI DUP1 PUSH4 0x793D2083 EQ PUSH2 0x12AA JUMPI DUP1 PUSH4 0x868A654B EQ PUSH2 0x126B JUMPI DUP1 PUSH4 0x9ECB0522 EQ PUSH2 0x11D5 JUMPI DUP1 PUSH4 0xA090CDFB EQ PUSH2 0xA5B JUMPI DUP1 PUSH4 0xB34287CC EQ PUSH2 0x5E5 JUMPI DUP1 PUSH4 0xE89E4ED6 EQ PUSH2 0x4AE JUMPI DUP1 PUSH4 0xEE4C80A0 EQ PUSH2 0x31F JUMPI PUSH4 0xF0F3F2C8 SUB PUSH2 0xE JUMPI CALLVALUE PUSH2 0x31A JUMPI PUSH1 0x20 CALLDATASIZE PUSH1 0x3 NOT ADD SLT PUSH2 0x31A JUMPI PUSH1 0x4 CALLDATALOAD PUSH1 0x0 PUSH2 0x140 PUSH1 0x40 MLOAD PUSH2 0x163 DUP2 PUSH2 0x24E0 JUMP JUMPDEST DUP3 DUP2 MSTORE PUSH1 0x60 PUSH1 0x20 DUP3 ADD MSTORE DUP3 PUSH1 0x40 DUP3 ADD MSTORE DUP3 PUSH1 0x60 DUP3 ADD MSTORE DUP3 PUSH1 0x80 DUP3 ADD MSTORE DUP3 PUSH1 0xA0 DUP3 ADD MSTORE DUP3 PUSH1 0xC0 DUP3 ADD MSTORE DUP3 PUSH1 0xE0 DUP3 ADD MSTORE PUSH1 0x60 PUSH2 0x100 DUP3 ADD MSTORE DUP3 PUSH2 0x120 DUP3 ADD MSTORE ADD MSTORE DUP1 PUSH1 0x0 MSTORE PUSH1 0x4 PUSH1 0x20 MSTORE PUSH2 0x1BF PUSH1 0xFF PUSH1 0xA PUSH1 0x40 PUSH1 0x0 KECCAK256 ADD SLOAD AND PUSH2 0x27EC JUMP JUMPDEST PUSH1 0x0 MSTORE PUSH1 0x4 PUSH1 0x20 MSTORE PUSH1 0x40 PUSH1 0x0 KECCAK256 PUSH1 0xFF PUSH1 0xA PUSH1 0x40 MLOAD SWAP3 PUSH2 0x1DD DUP5 PUSH2 0x24E0 JUMP JUMPDEST DUP1 SLOAD DUP5 MSTORE PUSH2 0x1ED PUSH1 0x1 DUP3 ADD PUSH2 0x2644 JUMP JUMPDEST PUSH1 0x20 DUP6 ADD MSTORE PUSH1 0x2 DUP2 ADD SLOAD PUSH1 0x40 DUP6 ADD MSTORE PUSH1 0x3 DUP2 ADD SLOAD PUSH1 0x60 DUP6 ADD MSTORE PUSH1 0x4 DUP2 ADD SLOAD PUSH1 0x80 DUP6 ADD MSTORE PUSH1 0x5 DUP2 ADD SLOAD PUSH1 0x1 PUSH1 0x1 PUSH1 0xA0 SHL SUB AND PUSH1 0xA0 DUP6 ADD MSTORE PUSH1 0x6 DUP2 ADD SLOAD PUSH1 0xC0 DUP6 ADD MSTORE PUSH1 0x7 DUP2 ADD SLOAD DUP4 AND PUSH2 0x23D DUP2 PUSH2 0x25EA JUMP JUMPDEST PUSH1 0xE0 DUP6 ADD MSTORE PUSH2 0x24E PUSH1 0x8 DUP3 ADD PUSH2 0x2644 JUMP JUMPDEST PUSH2 0x100 DUP6 ADD MSTORE PUSH1 0x9 DUP2 ADD SLOAD PUSH2 0x120 DUP6 ADD MSTORE ADD SLOAD AND ISZERO ISZERO PUSH2 0x140 DUP3 ADD MSTORE PUSH1 0x40 MLOAD DUP1 SWAP2 PUSH1 0x20 DUP3 MSTORE DUP1 MLOAD PUSH1 0x20 DUP4 ADD MSTORE PUSH2 0x140 PUSH2 0x301 PUSH2 0x29B PUSH1 0x20 DUP5 ADD MLOAD PUSH2 0x160 PUSH1 0x40 DUP8 ADD MSTORE PUSH2 0x180 DUP7 ADD SWAP1 PUSH2 0x25AA JUMP JUMPDEST PUSH1 0x40 DUP5 ADD MLOAD PUSH1 0x60 DUP7 ADD MSTORE PUSH1 0x60 DUP5 ADD MLOAD PUSH1 0x80 DUP7 ADD MSTORE PUSH1 0x80 DUP5 ADD MLOAD PUSH1 0xA0 DUP7 ADD MSTORE PUSH1 0x1 DUP1 PUSH1 0xA0 SHL SUB PUSH1 0xA0 DUP6 ADD MLOAD AND PUSH1 0xC0 DUP7 ADD MSTORE PUSH1 0xC0 DUP5 ADD MLOAD PUSH1 0xE0 DUP7 ADD MSTORE PUSH1 0xE0 DUP5 ADD MLOAD PUSH2 0x2E3 DUP2 PUSH2 0x25EA JUMP JUMPDEST PUSH2 0x100 DUP7 ADD MSTORE PUSH2 0x100 DUP5 ADD MLOAD PUSH1 0x1F NOT DUP7 DUP4 SUB ADD PUSH2 0x120 DUP8 ADD MSTORE PUSH2 0x25AA JUMP JUMPDEST SWAP2 PUSH2 0x120 DUP2 ADD MLOAD DUP3 DUP6 ADD MSTORE ADD MLOAD ISZERO ISZERO PUSH2 0x160 DUP4 ADD MSTORE SUB SWAP1 RETURN JUMPDEST PUSH1 0x0 DUP1 REVERT JUMPDEST CALLVALUE PUSH2 0x31A JUMPI PUSH1 0x60 CALLDATASIZE PUSH1 0x3 NOT ADD SLT PUSH2 0x31A JUMPI PUSH1 0x24 CALLDATALOAD PUSH1 0x4 CALLDATALOAD PUSH1 0x1 PUSH1 0x1 PUSH1 0xA0 SHL SUB DUP3 AND DUP1 DUP4 SUB PUSH2 0x31A JUMPI DUP2 PUSH1 0x0 MSTORE PUSH1 0x20 SWAP1 PUSH1 0x5 DUP3 MSTORE PUSH1 0x40 PUSH1 0x0 KECCAK256 PUSH1 0x1 DUP2 ADD SLOAD SWAP1 PUSH2 0x394 PUSH1 0x40 MLOAD DUP6 DUP2 ADD SWAP1 CALLER PUSH1 0x60 SHL DUP3 MSTORE PUSH1 0x14 DUP2 MSTORE PUSH2 0x37A DUP2 PUSH2 0x2518 JUMP JUMPDEST MLOAD SWAP1 KECCAK256 DUP4 PUSH1 0x0 MSTORE PUSH1 0x4 DUP7 MSTORE PUSH1 0x6 PUSH1 0x40 PUSH1 0x0 KECCAK256 ADD SLOAD EQ PUSH2 0x286B JUMP JUMPDEST PUSH1 0x40 MLOAD SWAP6 DUP5 DUP8 ADD SWAP1 PUSH1 0x1 PUSH1 0x1 PUSH1 0x60 SHL SUB NOT SWAP1 PUSH1 0x60 SHL AND DUP2 MSTORE PUSH1 0x44 CALLDATALOAD PUSH1 0x34 DUP9 ADD MSTORE PUSH1 0x34 DUP8 MSTORE PUSH1 0x60 DUP8 ADD SWAP1 DUP8 DUP3 LT PUSH1 0x1 PUSH1 0x1 PUSH1 0x40 SHL SUB DUP4 GT OR PUSH2 0x498 JUMPI DUP2 PUSH1 0x40 MSTORE DUP8 MLOAD SWAP1 KECCAK256 PUSH1 0x2 DUP4 ADD SLOAD SUB PUSH2 0x457 JUMPI POP PUSH32 0x8EF1E92B16BD2E2D0BE9431DB3A64223F23CCE123ADB96B1202BA2F18AC88DB SWAP5 SWAP6 POP PUSH1 0x6 ADD SWAP1 PUSH1 0xFF NOT SWAP2 PUSH1 0x2 DUP4 DUP3 SLOAD AND OR SWAP1 SSTORE DUP6 PUSH1 0x0 MSTORE PUSH1 0xB DUP5 MSTORE PUSH1 0x40 PUSH1 0x0 KECCAK256 DUP4 PUSH1 0x1 PUSH1 0x1 PUSH1 0x60 SHL SUB PUSH1 0xA0 SHL DUP3 SLOAD AND OR SWAP1 SSTORE PUSH1 0x0 MSTORE PUSH1 0x4 DUP4 MSTORE PUSH1 0x1 PUSH1 0x7 PUSH1 0x40 PUSH1 0x0 KECCAK256 ADD SWAP2 DUP3 SLOAD AND OR SWAP1 SSTORE PUSH1 0x40 MLOAD SWAP1 DUP2 MSTORE LOG2 STOP JUMPDEST PUSH3 0x461BCD PUSH1 0xE5 SHL DUP2 MSTORE PUSH1 0x64 DUP8 DUP2 ADD DUP7 SWAP1 MSTORE PUSH1 0x19 PUSH1 0x84 DUP10 ADD MSTORE PUSH32 0x496E76616C696420636F6E74726163746F722072657665616C00000000000000 PUSH1 0xA4 DUP10 ADD MSTORE SWAP1 REVERT JUMPDEST PUSH4 0x4E487B71 PUSH1 0xE0 SHL PUSH1 0x0 MSTORE PUSH1 0x41 PUSH1 0x4 MSTORE PUSH1 0x24 PUSH1 0x0 REVERT JUMPDEST CALLVALUE PUSH2 0x31A JUMPI PUSH1 0x20 CALLDATASIZE PUSH1 0x3 NOT ADD SLT PUSH2 0x31A JUMPI PUSH1 0x4 CALLDATALOAD PUSH1 0x0 MSTORE PUSH1 0x6 PUSH1 0x20 MSTORE PUSH1 0x40 PUSH1 0x0 KECCAK256 DUP1 SLOAD SWAP1 PUSH1 0x1 DUP2 ADD SLOAD SWAP1 PUSH1 0x2 DUP2 ADD SLOAD SWAP1 PUSH1 0x3 DUP2 ADD SLOAD PUSH1 0xFF AND PUSH1 0x4 DUP3 ADD PUSH2 0x4F3 SWAP1 PUSH2 0x2644 JUMP JUMPDEST SWAP1 PUSH2 0x500 PUSH1 0x5 DUP5 ADD PUSH2 0x2644 JUMP JUMPDEST SWAP2 PUSH2 0x50D PUSH1 0x6 DUP6 ADD PUSH2 0x2644 JUMP JUMPDEST SWAP3 PUSH1 0x7 DUP6 ADD SLOAD SWAP4 PUSH1 0x8 DUP7 ADD SLOAD PUSH1 0x9 DUP8 ADD SLOAD SWAP2 PUSH1 0xA DUP9 ADD SLOAD PUSH1 0xFF AND SWAP4 PUSH1 0xB DUP10 ADD SLOAD SWAP6 PUSH1 0xC DUP11 ADD SLOAD SWAP8 PUSH1 0xD DUP12 ADD PUSH2 0x541 SWAP1 PUSH2 0x2644 JUMP JUMPDEST SWAP11 PUSH1 0xE ADD SLOAD PUSH1 0xFF AND SWAP12 PUSH1 0x40 MLOAD SWAP15 DUP16 SWAP15 DUP16 SWAP2 DUP3 MSTORE PUSH1 0x20 DUP3 ADD MSTORE PUSH1 0x40 ADD MSTORE PUSH1 0x60 DUP14 ADD MSTORE DUP12 PUSH2 0x1E0 PUSH1 0x80 DUP2 SWAP3 ADD MSTORE DUP13 ADD PUSH2 0x577 SWAP2 PUSH2 0x25AA JUMP JUMPDEST DUP12 DUP2 SUB PUSH1 0xA0 DUP14 ADD MSTORE PUSH2 0x588 SWAP2 PUSH2 0x25AA JUMP JUMPDEST DUP11 DUP2 SUB PUSH1 0xC0 DUP13 ADD MSTORE PUSH2 0x599 SWAP2 PUSH2 0x25AA JUMP JUMPDEST SWAP6 PUSH1 0xE0 DUP11 ADD MSTORE PUSH2 0x100 DUP10 ADD MSTORE PUSH2 0x120 DUP9 ADD MSTORE PUSH2 0x5B4 DUP2 PUSH2 0x25EA JUMP JUMPDEST PUSH2 0x140 DUP8 ADD MSTORE PUSH2 0x160 DUP7 ADD MSTORE PUSH2 0x180 DUP6 ADD MSTORE DUP4 DUP2 SUB PUSH2 0x1A0 DUP6 ADD MSTORE PUSH2 0x5D8 SWAP2 PUSH2 0x25AA JUMP JUMPDEST SWAP1 ISZERO ISZERO PUSH2 0x1C0 DUP4 ADD MSTORE SUB SWAP1 RETURN JUMPDEST CALLVALUE PUSH2 0x31A JUMPI PUSH1 0xA0 CALLDATASIZE PUSH1 0x3 NOT ADD SLT PUSH2 0x31A JUMPI PUSH1 0x44 CALLDATALOAD PUSH1 0x1 PUSH1 0x1 PUSH1 0x40 SHL SUB DUP2 GT PUSH2 0x31A JUMPI PUSH2 0x615 SWAP1 CALLDATASIZE SWAP1 PUSH1 0x4 ADD PUSH2 0x2554 JUMP JUMPDEST PUSH1 0x64 CALLDATALOAD PUSH1 0x1 PUSH1 0x1 PUSH1 0x40 SHL SUB DUP2 GT PUSH2 0x31A JUMPI PUSH2 0x634 SWAP1 CALLDATASIZE SWAP1 PUSH1 0x4 ADD PUSH2 0x2554 JUMP JUMPDEST PUSH1 0x84 CALLDATALOAD PUSH1 0x1 PUSH1 0x1 PUSH1 0x40 SHL SUB DUP2 GT PUSH2 0x31A JUMPI PUSH2 0x653 SWAP1 CALLDATASIZE SWAP1 PUSH1 0x4 ADD PUSH2 0x2554 JUMP JUMPDEST SWAP2 PUSH1 0x4 CALLDATALOAD PUSH1 0x0 MSTORE PUSH1 0x4 PUSH1 0x20 MSTORE PUSH2 0x673 PUSH1 0xFF PUSH1 0xA PUSH1 0x40 PUSH1 0x0 KECCAK256 ADD SLOAD AND PUSH2 0x27EC JUMP JUMPDEST PUSH1 0x4 CALLDATALOAD PUSH1 0x0 MSTORE PUSH1 0x4 PUSH1 0x20 MSTORE PUSH1 0xFF PUSH1 0x7 PUSH1 0x40 PUSH1 0x0 KECCAK256 ADD SLOAD AND PUSH2 0x693 DUP2 PUSH2 0x25EA JUMP JUMPDEST PUSH2 0xA16 JUMPI PUSH2 0x6A2 PUSH1 0x1 SLOAD PUSH2 0x2769 JUMP JUMPDEST SWAP2 DUP3 PUSH1 0x1 SSTORE PUSH1 0x40 MLOAD SWAP3 PUSH2 0x6B4 DUP5 PUSH2 0x24FC JUMP JUMPDEST DUP1 DUP5 MSTORE PUSH1 0x20 DUP5 ADD SWAP5 PUSH1 0x4 CALLDATALOAD DUP7 MSTORE PUSH1 0x40 DUP6 ADD SWAP3 PUSH1 0x24 CALLDATALOAD DUP5 MSTORE PUSH1 0x60 DUP7 ADD SWAP5 DUP6 MSTORE PUSH1 0x80 DUP7 ADD MSTORE PUSH1 0xA0 DUP6 ADD MSTORE PUSH1 0x0 PUSH1 0xC0 DUP6 ADD MSTORE TIMESTAMP PUSH1 0xE0 DUP6 ADD MSTORE PUSH1 0x0 MSTORE PUSH1 0x5 PUSH1 0x20 MSTORE PUSH1 0x40 PUSH1 0x0 KECCAK256 SWAP4 DUP4 MLOAD DUP6 SSTORE MLOAD PUSH1 0x1 DUP6 ADD SSTORE MLOAD PUSH1 0x2 DUP5 ADD SSTORE MLOAD SWAP2 DUP3 MLOAD PUSH1 0x1 PUSH1 0x1 PUSH1 0x40 SHL SUB DUP2 GT PUSH2 0x498 JUMPI PUSH2 0x733 DUP2 PUSH2 0x72A PUSH1 0x3 DUP6 ADD SLOAD PUSH2 0x260A JUMP JUMPDEST PUSH1 0x3 DUP6 ADD PUSH2 0x278F JUMP JUMPDEST PUSH1 0x20 PUSH1 0x1F DUP3 GT PUSH1 0x1 EQ PUSH2 0x9A8 JUMPI DUP2 SWAP3 SWAP4 SWAP5 PUSH1 0x0 SWAP3 PUSH2 0x99D JUMPI JUMPDEST POP POP DUP2 PUSH1 0x1 SHL SWAP2 PUSH1 0x0 NOT SWAP1 PUSH1 0x3 SHL SHR NOT AND OR PUSH1 0x3 DUP3 ADD SSTORE JUMPDEST PUSH1 0x80 DUP3 ADD MLOAD SWAP2 DUP3 MLOAD PUSH1 0x1 PUSH1 0x1 PUSH1 0x40 SHL SUB DUP2 GT PUSH2 0x498 JUMPI PUSH2 0x794 DUP2 PUSH2 0x78B PUSH1 0x4 DUP7 ADD SLOAD PUSH2 0x260A JUMP JUMPDEST PUSH1 0x4 DUP7 ADD PUSH2 0x278F JUMP JUMPDEST PUSH1 0x20 PUSH1 0x1F DUP3 GT PUSH1 0x1 EQ PUSH2 0x92F JUMPI DUP2 SWAP3 SWAP4 SWAP5 PUSH1 0x0 SWAP3 PUSH2 0x924 JUMPI JUMPDEST POP POP DUP2 PUSH1 0x1 SHL SWAP2 PUSH1 0x0 NOT SWAP1 PUSH1 0x3 SHL SHR NOT AND OR PUSH1 0x4 DUP4 ADD SSTORE JUMPDEST PUSH1 0xA0 DUP2 ADD MLOAD DUP1 MLOAD SWAP1 PUSH1 0x1 PUSH1 0x1 PUSH1 0x40 SHL SUB DUP3 GT PUSH2 0x498 JUMPI PUSH2 0x7F5 DUP3 PUSH2 0x7EC PUSH1 0x5 DUP8 ADD SLOAD PUSH2 0x260A JUMP JUMPDEST PUSH1 0x5 DUP8 ADD PUSH2 0x278F JUMP JUMPDEST PUSH1 0x20 SWAP1 PUSH1 0x1F DUP4 GT PUSH1 0x1 EQ PUSH2 0x8AF JUMPI SWAP2 DUP1 PUSH1 0x7 SWAP5 SWAP3 PUSH1 0xE0 SWAP5 PUSH1 0x0 SWAP3 PUSH2 0x8A4 JUMPI JUMPDEST POP POP DUP2 PUSH1 0x1 SHL SWAP2 PUSH1 0x0 NOT SWAP1 PUSH1 0x3 SHL SHR NOT AND OR PUSH1 0x5 DUP6 ADD SSTORE JUMPDEST PUSH2 0x846 PUSH1 0xC0 DUP3 ADD MLOAD PUSH2 0x83D DUP2 PUSH2 0x25EA JUMP JUMPDEST PUSH1 0x6 DUP7 ADD PUSH2 0x27D4 JUMP JUMPDEST ADD MLOAD SWAP2 ADD SSTORE PUSH1 0x4 CALLDATALOAD PUSH1 0x0 MSTORE PUSH1 0x8 PUSH1 0x20 MSTORE PUSH2 0x867 PUSH1 0x40 PUSH1 0x0 KECCAK256 PUSH1 0x1 SLOAD SWAP1 PUSH2 0x2831 JUMP JUMPDEST PUSH1 0x20 PUSH1 0x1 SLOAD PUSH1 0x40 MLOAD PUSH1 0x24 CALLDATALOAD DUP2 MSTORE DUP2 PUSH32 0xCC51B0E9A11B4449F30EEDBF3DC532B58FFE4AD8F2B816544631D5CD5C3C0E9A DUP5 PUSH1 0x4 CALLDATALOAD SWAP4 LOG3 PUSH1 0x40 MLOAD SWAP1 DUP2 MSTORE RETURN JUMPDEST ADD MLOAD SWAP1 POP DUP7 DUP1 PUSH2 0x814 JUMP JUMPDEST SWAP1 PUSH1 0x5 DUP6 ADD PUSH1 0x0 MSTORE PUSH1 0x20 PUSH1 0x0 KECCAK256 SWAP2 PUSH1 0x0 JUMPDEST PUSH1 0x1F NOT DUP6 AND DUP2 LT PUSH2 0x90C JUMPI POP SWAP3 PUSH1 0x7 SWAP5 SWAP3 PUSH1 0x1 SWAP3 PUSH1 0xE0 SWAP6 DUP4 PUSH1 0x1F NOT DUP2 AND LT PUSH2 0x8F3 JUMPI JUMPDEST POP POP POP DUP2 SHL ADD PUSH1 0x5 DUP6 ADD SSTORE PUSH2 0x82C JUMP JUMPDEST ADD MLOAD PUSH1 0x0 NOT PUSH1 0xF8 DUP5 PUSH1 0x3 SHL AND SHR NOT AND SWAP1 SSTORE DUP7 DUP1 DUP1 PUSH2 0x8E3 JUMP JUMPDEST SWAP2 SWAP3 PUSH1 0x20 PUSH1 0x1 DUP2 SWAP3 DUP7 DUP6 ADD MLOAD DUP2 SSTORE ADD SWAP5 ADD SWAP3 ADD PUSH2 0x8C0 JUMP JUMPDEST ADD MLOAD SWAP1 POP DUP5 DUP1 PUSH2 0x7AD JUMP JUMPDEST PUSH1 0x4 DUP5 ADD PUSH1 0x0 MSTORE PUSH1 0x20 PUSH1 0x0 KECCAK256 SWAP1 PUSH1 0x0 JUMPDEST PUSH1 0x1F NOT DUP5 AND DUP2 LT PUSH2 0x985 JUMPI POP PUSH1 0x1 SWAP4 SWAP5 SWAP6 DUP4 PUSH1 0x1F NOT DUP2 AND LT PUSH2 0x96C JUMPI JUMPDEST POP POP POP DUP2 SHL ADD PUSH1 0x4 DUP4 ADD SSTORE PUSH2 0x7C5 JUMP JUMPDEST ADD MLOAD PUSH1 0x0 NOT PUSH1 0xF8 DUP5 PUSH1 0x3 SHL AND SHR NOT AND SWAP1 SSTORE DUP5 DUP1 DUP1 PUSH2 0x95C JUMP JUMPDEST SWAP1 SWAP2 PUSH1 0x20 PUSH1 0x1 DUP2 SWAP3 DUP6 DUP11 ADD MLOAD DUP2 SSTORE ADD SWAP4 ADD SWAP2 ADD PUSH2 0x93F JUMP JUMPDEST ADD MLOAD SWAP1 POP DUP5 DUP1 PUSH2 0x74C JUMP JUMPDEST PUSH1 0x3 DUP4 ADD PUSH1 0x0 MSTORE PUSH1 0x20 PUSH1 0x0 KECCAK256 SWAP1 PUSH1 0x0 JUMPDEST PUSH1 0x1F NOT DUP5 AND DUP2 LT PUSH2 0x9FE JUMPI POP PUSH1 0x1 SWAP4 SWAP5 SWAP6 DUP4 PUSH1 0x1F NOT DUP2 AND LT PUSH2 0x9E5 JUMPI JUMPDEST POP POP POP DUP2 SHL ADD PUSH1 0x3 DUP3 ADD SSTORE PUSH2 0x764 JUMP JUMPDEST ADD MLOAD PUSH1 0x0 NOT PUSH1 0xF8 DUP5 PUSH1 0x3 SHL AND SHR NOT AND SWAP1 SSTORE DUP5 DUP1 DUP1 PUSH2 0x9D5 JUMP JUMPDEST SWAP1 SWAP2 PUSH1 0x20 PUSH1 0x1 DUP2 SWAP3 DUP6 DUP11 ADD MLOAD DUP2 SSTORE ADD SWAP4 ADD SWAP2 ADD PUSH2 0x9B8 JUMP JUMPDEST PUSH1 0x40 MLOAD PUSH3 0x461BCD PUSH1 0xE5 SHL DUP2 MSTORE PUSH1 0x20 PUSH1 0x4 DUP3 ADD MSTORE PUSH1 0x1D PUSH1 0x24 DUP3 ADD MSTORE PUSH32 0x50726F6A656374206E6F7420616363657074696E672074656E64657273000000 PUSH1 0x44 DUP3 ADD MSTORE PUSH1 0x64 SWAP1 REVERT JUMPDEST CALLVALUE PUSH2 0x31A JUMPI PUSH1 0xC0 CALLDATASIZE PUSH1 0x3 NOT ADD SLT PUSH2 0x31A JUMPI PUSH1 0x24 CALLDATALOAD PUSH1 0xFF DUP2 AND DUP2 SUB PUSH2 0x31A JUMPI PUSH1 0x44 CALLDATALOAD PUSH1 0x1 PUSH1 0x1 PUSH1 0x40 SHL SUB DUP2 GT PUSH2 0x31A JUMPI PUSH2 0xA98 SWAP1 CALLDATASIZE SWAP1 PUSH1 0x4 ADD PUSH2 0x2554 JUMP JUMPDEST SWAP1 PUSH1 0x64 CALLDATALOAD PUSH1 0x1 PUSH1 0x1 PUSH1 0x40 SHL SUB DUP2 GT PUSH2 0x31A JUMPI PUSH2 0xAB8 SWAP1 CALLDATASIZE SWAP1 PUSH1 0x4 ADD PUSH2 0x2554 JUMP JUMPDEST SWAP2 PUSH1 0x84 CALLDATALOAD PUSH1 0x1 PUSH1 0x1 PUSH1 0x40 SHL SUB DUP2 GT PUSH2 0x31A JUMPI PUSH2 0xAD8 SWAP1 CALLDATASIZE SWAP1 PUSH1 0x4 ADD PUSH2 0x2554 JUMP JUMPDEST SWAP1 PUSH1 0x4 CALLDATALOAD PUSH1 0x0 MSTORE PUSH1 0x5 PUSH1 0x20 MSTORE PUSH1 0x2 PUSH1 0xFF PUSH1 0x6 PUSH1 0x40 PUSH1 0x0 KECCAK256 ADD SLOAD AND PUSH2 0xAFB DUP2 PUSH2 0x25EA JUMP JUMPDEST SUB PUSH2 0x119A JUMPI PUSH1 0x4 CALLDATALOAD PUSH1 0x0 SWAP1 DUP2 MSTORE PUSH1 0xB PUSH1 0x20 MSTORE PUSH1 0x40 SWAP1 KECCAK256 SLOAD PUSH1 0x1 PUSH1 0x1 PUSH1 0xA0 SHL SUB AND CALLER SUB PUSH2 0x1155 JUMPI PUSH1 0x14 PUSH1 0xFF DUP5 AND EQ DUP1 ISZERO PUSH2 0x1148 JUMPI JUMPDEST DUP1 ISZERO PUSH2 0x113B JUMPI JUMPDEST DUP1 ISZERO PUSH2 0x112E JUMPI JUMPDEST DUP1 ISZERO PUSH2 0x1121 JUMPI JUMPDEST ISZERO PUSH2 0x10DC JUMPI PUSH2 0xB54 PUSH1 0x2 SLOAD PUSH2 0x2769 JUMP JUMPDEST SWAP1 DUP2 PUSH1 0x2 SSTORE PUSH1 0x4 CALLDATALOAD PUSH1 0x0 MSTORE PUSH1 0x5 PUSH1 0x20 MSTORE PUSH1 0x1 PUSH1 0x40 PUSH1 0x0 KECCAK256 ADD SLOAD SWAP3 DUP4 PUSH1 0x0 MSTORE PUSH1 0x4 PUSH1 0x20 MSTORE PUSH1 0x2 PUSH1 0x40 PUSH1 0x0 KECCAK256 ADD SLOAD SWAP1 DUP2 PUSH1 0xFF DUP8 AND DUP2 MUL DIV PUSH1 0xFF DUP8 AND EQ DUP3 ISZERO OR ISZERO PUSH2 0x10C6 JUMPI PUSH1 0x40 MLOAD SWAP7 DUP8 PUSH2 0x1E0 DUP2 ADD LT PUSH1 0x1 PUSH1 0x1 PUSH1 0x40 SHL SUB PUSH2 0x1E0 DUP11 ADD GT OR PUSH2 0x498 JUMPI PUSH1 0x64 SWAP4 PUSH2 0x1E0 DUP10 ADD PUSH1 0x40 MSTORE DUP6 DUP10 MSTORE DUP7 PUSH1 0x20 DUP11 ADD MSTORE PUSH1 0x4 CALLDATALOAD PUSH1 0x40 DUP11 ADD MSTORE PUSH1 0xFF DUP9 AND PUSH1 0x60 DUP11 ADD MSTORE PUSH1 0x80 DUP10 ADD MSTORE PUSH1 0xA0 DUP9 ADD MSTORE PUSH1 0xC0 DUP8 ADD MSTORE PUSH1 0xA4 CALLDATALOAD PUSH1 0xE0 DUP8 ADD MSTORE PUSH1 0xFF DUP6 AND MUL DIV PUSH2 0x100 DUP6 ADD MSTORE PUSH1 0x0 PUSH2 0x120 DUP6 ADD MSTORE PUSH1 0x1 PUSH2 0x140 DUP6 ADD MSTORE TIMESTAMP PUSH2 0x160 DUP6 ADD MSTORE PUSH1 0x0 PUSH2 0x180 DUP6 ADD MSTORE PUSH1 0x40 MLOAD DUP1 PUSH1 0x20 DUP2 ADD LT PUSH1 0x1 PUSH1 0x1 PUSH1 0x40 SHL SUB PUSH1 0x20 DUP4 ADD GT OR PUSH2 0x498 JUMPI PUSH1 0x20 DUP2 ADD PUSH1 0x40 MSTORE PUSH1 0x0 DUP2 MSTORE PUSH2 0x1A0 DUP6 ADD MSTORE PUSH1 0x1 PUSH2 0x1C0 DUP6 ADD MSTORE PUSH1 0x0 MSTORE PUSH1 0x6 PUSH1 0x20 MSTORE PUSH1 0x40 PUSH1 0x0 KECCAK256 DUP4 MLOAD DUP2 SSTORE PUSH1 0x20 DUP5 ADD MLOAD PUSH1 0x1 DUP3 ADD SSTORE PUSH1 0x40 DUP5 ADD MLOAD PUSH1 0x2 DUP3 ADD SSTORE PUSH1 0x3 DUP2 ADD PUSH1 0xFF PUSH1 0x60 DUP7 ADD MLOAD AND PUSH1 0xFF NOT DUP3 SLOAD AND OR SWAP1 SSTORE PUSH1 0x80 DUP5 ADD MLOAD DUP1 MLOAD SWAP1 PUSH1 0x1 PUSH1 0x1 PUSH1 0x40 SHL SUB DUP3 GT PUSH2 0x498 JUMPI DUP2 SWAP1 PUSH2 0xCBB DUP3 PUSH2 0xCB2 PUSH1 0x4 DUP8 ADD SLOAD PUSH2 0x260A JUMP JUMPDEST PUSH1 0x4 DUP8 ADD PUSH2 0x278F JUMP JUMPDEST PUSH1 0x20 SWAP1 PUSH1 0x1F DUP4 GT PUSH1 0x1 EQ PUSH2 0x1054 JUMPI PUSH1 0x0 SWAP3 PUSH2 0x1049 JUMPI JUMPDEST POP POP DUP2 PUSH1 0x1 SHL SWAP2 PUSH1 0x0 NOT SWAP1 PUSH1 0x3 SHL SHR NOT AND OR PUSH1 0x4 DUP3 ADD SSTORE JUMPDEST PUSH1 0xA0 DUP5 ADD MLOAD DUP1 MLOAD SWAP1 PUSH1 0x1 PUSH1 0x1 PUSH1 0x40 SHL SUB DUP3 GT PUSH2 0x498 JUMPI DUP2 SWAP1 PUSH2 0xD12 DUP3 PUSH2 0x7EC PUSH1 0x5 DUP8 ADD SLOAD PUSH2 0x260A JUMP JUMPDEST PUSH1 0x20 SWAP1 PUSH1 0x1F DUP4 GT PUSH1 0x1 EQ PUSH2 0xFD7 JUMPI PUSH1 0x0 SWAP3 PUSH2 0xFCC JUMPI JUMPDEST POP POP DUP2 PUSH1 0x1 SHL SWAP2 PUSH1 0x0 NOT SWAP1 PUSH1 0x3 SHL SHR NOT AND OR PUSH1 0x5 DUP3 ADD SSTORE JUMPDEST PUSH1 0xC0 DUP5 ADD MLOAD DUP1 MLOAD SWAP1 PUSH1 0x1 PUSH1 0x1 PUSH1 0x40 SHL SUB DUP3 GT PUSH2 0x498 JUMPI DUP2 SWAP1 PUSH2 0xD72 DUP3 PUSH2 0xD69 PUSH1 0x6 DUP8 ADD SLOAD PUSH2 0x260A JUMP JUMPDEST PUSH1 0x6 DUP8 ADD PUSH2 0x278F JUMP JUMPDEST PUSH1 0x20 SWAP1 PUSH1 0x1F DUP4 GT PUSH1 0x1 EQ PUSH2 0xF5A JUMPI PUSH1 0x0 SWAP3 PUSH2 0xF4F JUMPI JUMPDEST POP POP DUP2 PUSH1 0x1 SHL SWAP2 PUSH1 0x0 NOT SWAP1 PUSH1 0x3 SHL SHR NOT AND OR PUSH1 0x6 DUP3 ADD SSTORE JUMPDEST PUSH1 0xE0 DUP5 ADD MLOAD PUSH1 0x7 DUP3 ADD SSTORE PUSH2 0x100 DUP5 ADD MLOAD PUSH1 0x8 DUP3 ADD SSTORE PUSH2 0x120 DUP5 ADD MLOAD PUSH1 0x9 DUP3 ADD SSTORE PUSH2 0xDDB PUSH2 0x140 DUP6 ADD MLOAD PUSH2 0xDD2 DUP2 PUSH2 0x25EA JUMP JUMPDEST PUSH1 0xA DUP4 ADD PUSH2 0x27D4 JUMP JUMPDEST PUSH2 0x160 DUP5 ADD MLOAD PUSH1 0xB DUP3 ADD SSTORE PUSH2 0x180 DUP5 ADD MLOAD PUSH1 0xC DUP3 ADD SSTORE PUSH2 0x1A0 DUP5 ADD MLOAD SWAP4 DUP5 MLOAD PUSH1 0x1 PUSH1 0x1 PUSH1 0x40 SHL SUB DUP2 GT PUSH2 0x498 JUMPI PUSH1 0x20 SWAP6 PUSH2 0xE25 DUP3 PUSH2 0xE1C PUSH1 0xD DUP8 ADD SLOAD PUSH2 0x260A JUMP JUMPDEST PUSH1 0xD DUP8 ADD PUSH2 0x278F JUMP JUMPDEST DUP7 SWAP1 PUSH1 0x1F DUP4 GT PUSH1 0x1 EQ PUSH2 0xED7 JUMPI SWAP3 DUP3 PUSH1 0xE SWAP4 PUSH2 0x1C0 SWAP4 PUSH2 0xE77 SWAP8 SWAP7 PUSH1 0x0 SWAP3 PUSH2 0xECC JUMPI JUMPDEST POP POP DUP2 PUSH1 0x1 SHL SWAP2 PUSH1 0x0 NOT SWAP1 PUSH1 0x3 SHL SHR NOT AND OR PUSH1 0xD DUP6 ADD SSTORE JUMPDEST ADD MLOAD ISZERO ISZERO SWAP2 ADD SWAP1 PUSH1 0xFF DUP1 NOT DUP4 SLOAD AND SWAP2 ISZERO ISZERO AND OR SWAP1 SSTORE JUMP JUMPDEST PUSH1 0x0 MSTORE PUSH1 0x9 DUP3 MSTORE PUSH2 0xE8F PUSH1 0x40 PUSH1 0x0 KECCAK256 PUSH1 0x2 SLOAD SWAP1 PUSH2 0x2831 JUMP JUMPDEST PUSH1 0x2 SLOAD SWAP1 PUSH1 0xFF PUSH1 0x40 MLOAD SWAP2 AND DUP2 MSTORE DUP2 PUSH32 0xA4F370DE0D910B9E1634436568274EDD60715ADE03E4CF084EFD418A29349D88 DUP5 PUSH1 0x4 CALLDATALOAD SWAP4 LOG3 PUSH1 0x40 MLOAD SWAP1 DUP2 MSTORE RETURN JUMPDEST ADD MLOAD SWAP1 POP DUP11 DUP1 PUSH2 0xE48 JUMP JUMPDEST SWAP1 PUSH1 0xD DUP6 ADD PUSH1 0x0 MSTORE DUP8 PUSH1 0x0 KECCAK256 SWAP2 PUSH1 0x0 JUMPDEST PUSH1 0x1F NOT DUP6 AND DUP2 LT PUSH2 0xF38 JUMPI POP DUP4 PUSH2 0x1C0 SWAP4 PUSH2 0xE77 SWAP8 SWAP7 SWAP4 PUSH1 0x1 SWAP4 PUSH1 0xE SWAP8 PUSH1 0x1F NOT DUP2 AND LT PUSH2 0xF1F JUMPI JUMPDEST POP POP POP DUP2 SHL ADD PUSH1 0xD DUP6 ADD SSTORE PUSH2 0xE60 JUMP JUMPDEST ADD MLOAD PUSH1 0x0 NOT PUSH1 0xF8 DUP5 PUSH1 0x3 SHL AND SHR NOT AND SWAP1 SSTORE DUP11 DUP1 DUP1 PUSH2 0xF0F JUMP JUMPDEST SWAP2 SWAP3 DUP10 PUSH1 0x1 DUP2 SWAP3 DUP7 DUP6 ADD MLOAD DUP2 SSTORE ADD SWAP5 ADD SWAP3 ADD PUSH2 0xEE7 JUMP JUMPDEST ADD MLOAD SWAP1 POP DUP7 DUP1 PUSH2 0xD88 JUMP JUMPDEST SWAP3 POP PUSH1 0x6 DUP5 ADD PUSH1 0x0 MSTORE PUSH1 0x20 PUSH1 0x0 KECCAK256 SWAP1 PUSH1 0x0 SWAP4 JUMPDEST PUSH1 0x1F NOT DUP5 AND DUP6 LT PUSH2 0xFB1 JUMPI PUSH1 0x1 SWAP5 POP DUP4 PUSH1 0x1F NOT DUP2 AND LT PUSH2 0xF98 JUMPI JUMPDEST POP POP POP DUP2 SHL ADD PUSH1 0x6 DUP3 ADD SSTORE PUSH2 0xDA0 JUMP JUMPDEST ADD MLOAD PUSH1 0x0 NOT PUSH1 0xF8 DUP5 PUSH1 0x3 SHL AND SHR NOT AND SWAP1 SSTORE DUP7 DUP1 DUP1 PUSH2 0xF88 JUMP JUMPDEST DUP2 DUP2 ADD MLOAD DUP4 SSTORE PUSH1 0x20 SWAP5 DUP6 ADD SWAP5 PUSH1 0x1 SWAP1 SWAP4 ADD SWAP3 SWAP1 SWAP2 ADD SWAP1 PUSH2 0xF6D JUMP JUMPDEST ADD MLOAD SWAP1 POP DUP7 DUP1 PUSH2 0xD28 JUMP JUMPDEST SWAP3 POP PUSH1 0x5 DUP5 ADD PUSH1 0x0 MSTORE PUSH1 0x20 PUSH1 0x0 KECCAK256 SWAP1 PUSH1 0x0 SWAP4 JUMPDEST PUSH1 0x1F NOT DUP5 AND DUP6 LT PUSH2 0x102E JUMPI PUSH1 0x1 SWAP5 POP DUP4 PUSH1 0x1F NOT DUP2 AND LT PUSH2 0x1015 JUMPI JUMPDEST POP POP POP DUP2 SHL ADD PUSH1 0x5 DUP3 ADD SSTORE PUSH2 0xD40 JUMP JUMPDEST ADD MLOAD PUSH1 0x0 NOT PUSH1 0xF8 DUP5 PUSH1 0x3 SHL AND SHR NOT AND SWAP1 SSTORE DUP7 DUP1 DUP1 PUSH2 0x1005 JUMP JUMPDEST DUP2 DUP2 ADD MLOAD DUP4 SSTORE PUSH1 0x20 SWAP5 DUP6 ADD SWAP5 PUSH1 0x1 SWAP1 SWAP4 ADD SWAP3 SWAP1 SWAP2 ADD SWAP1 PUSH2 0xFEA JUMP JUMPDEST ADD MLOAD SWAP1 POP DUP7 DUP1 PUSH2 0xCD1 JUMP JUMPDEST SWAP3 POP PUSH1 0x4 DUP5 ADD PUSH1 0x0 MSTORE PUSH1 0x20 PUSH1 0x0 KECCAK256 SWAP1 PUSH1 0x0 SWAP4 JUMPDEST PUSH1 0x1F NOT DUP5 AND DUP6 LT PUSH2 0x10AB JUMPI PUSH1 0x1 SWAP5 POP DUP4 PUSH1 0x1F NOT DUP2 AND LT PUSH2 0x1092 JUMPI JUMPDEST POP POP POP DUP2 SHL ADD PUSH1 0x4 DUP3 ADD SSTORE PUSH2 0xCE9 JUMP JUMPDEST ADD MLOAD PUSH1 0x0 NOT PUSH1 0xF8 DUP5 PUSH1 0x3 SHL AND SHR NOT AND SWAP1 SSTORE DUP7 DUP1 DUP1 PUSH2 0x1082 JUMP JUMPDEST DUP2 DUP2 ADD MLOAD DUP4 SSTORE PUSH1 0x20 SWAP5 DUP6 ADD SWAP5 PUSH1 0x1 SWAP1 SWAP4 ADD SWAP3 SWAP1 SWAP2 ADD SWAP1 PUSH2 0x1067 JUMP JUMPDEST PUSH4 0x4E487B71 PUSH1 0xE0 SHL PUSH1 0x0 MSTORE PUSH1 0x11 PUSH1 0x4 MSTORE PUSH1 0x24 PUSH1 0x0 REVERT JUMPDEST PUSH1 0x40 MLOAD PUSH3 0x461BCD PUSH1 0xE5 SHL DUP2 MSTORE PUSH1 0x20 PUSH1 0x4 DUP3 ADD MSTORE PUSH1 0x1C PUSH1 0x24 DUP3 ADD MSTORE PUSH32 0x496E76616C6964206D696C6573746F6E652070657263656E7461676500000000 PUSH1 0x44 DUP3 ADD MSTORE PUSH1 0x64 SWAP1 REVERT JUMPDEST POP PUSH1 0x64 PUSH1 0xFF DUP5 AND EQ PUSH2 0xB44 JUMP JUMPDEST POP PUSH1 0x50 PUSH1 0xFF DUP5 AND EQ PUSH2 0xB3D JUMP JUMPDEST POP PUSH1 0x3C PUSH1 0xFF DUP5 AND EQ PUSH2 0xB36 JUMP JUMPDEST POP PUSH1 0x28 PUSH1 0xFF DUP5 AND EQ PUSH2 0xB2F JUMP JUMPDEST PUSH1 0x40 MLOAD PUSH3 0x461BCD PUSH1 0xE5 SHL DUP2 MSTORE PUSH1 0x20 PUSH1 0x4 DUP3 ADD MSTORE PUSH1 0x17 PUSH1 0x24 DUP3 ADD MSTORE PUSH32 0x4E6F742061737369676E656420636F6E74726163746F72000000000000000000 PUSH1 0x44 DUP3 ADD MSTORE PUSH1 0x64 SWAP1 REVERT JUMPDEST PUSH1 0x40 MLOAD PUSH3 0x461BCD PUSH1 0xE5 SHL DUP2 MSTORE PUSH1 0x20 PUSH1 0x4 DUP3 ADD MSTORE PUSH1 0x13 PUSH1 0x24 DUP3 ADD MSTORE PUSH19 0x15195B99195C881B9BDD08185C1C1C9BDD9959 PUSH1 0x6A SHL PUSH1 0x44 DUP3 ADD MSTORE PUSH1 0x64 SWAP1 REVERT JUMPDEST CALLVALUE PUSH2 0x31A JUMPI PUSH1 0x20 DUP1 PUSH1 0x3 NOT CALLDATASIZE ADD SLT PUSH2 0x31A JUMPI PUSH1 0x4 CALLDATALOAD DUP1 PUSH1 0x0 MSTORE PUSH1 0x4 DUP3 MSTORE PUSH2 0x1206 PUSH1 0xFF PUSH1 0xA PUSH1 0x40 PUSH1 0x0 KECCAK256 ADD SLOAD AND PUSH2 0x27EC JUMP JUMPDEST PUSH1 0x0 MSTORE PUSH1 0x8 DUP2 MSTORE PUSH1 0x40 PUSH1 0x0 KECCAK256 SWAP1 PUSH1 0x40 MLOAD SWAP1 DUP2 DUP2 DUP5 SLOAD SWAP2 DUP3 DUP2 MSTORE ADD SWAP4 PUSH1 0x0 MSTORE DUP2 PUSH1 0x0 KECCAK256 SWAP2 PUSH1 0x0 SWAP1 JUMPDEST DUP3 DUP3 LT PUSH2 0x1254 JUMPI PUSH2 0x1250 DUP6 PUSH2 0x1244 DUP2 DUP10 SUB DUP3 PUSH2 0x2533 JUMP JUMPDEST PUSH1 0x40 MLOAD SWAP2 DUP3 SWAP2 DUP3 PUSH2 0x272E JUMP JUMPDEST SUB SWAP1 RETURN JUMPDEST DUP4 SLOAD DUP7 MSTORE SWAP5 DUP6 ADD SWAP5 PUSH1 0x1 SWAP4 DUP5 ADD SWAP4 SWAP1 SWAP2 ADD SWAP1 PUSH2 0x122D JUMP JUMPDEST CALLVALUE PUSH2 0x31A JUMPI PUSH2 0x1279 CALLDATASIZE PUSH2 0x26EA JUMP JUMPDEST SWAP1 PUSH1 0x0 MSTORE PUSH1 0xA PUSH1 0x20 MSTORE PUSH1 0x40 PUSH1 0x0 KECCAK256 DUP1 SLOAD DUP3 LT ISZERO PUSH2 0x31A JUMPI PUSH1 0x20 SWAP2 PUSH2 0x129C SWAP2 PUSH2 0x2700 JUMP JUMPDEST SWAP1 SLOAD PUSH1 0x40 MLOAD SWAP2 PUSH1 0x3 SHL SHR DUP2 MSTORE RETURN JUMPDEST CALLVALUE PUSH2 0x31A JUMPI PUSH1 0x20 CALLDATASIZE PUSH1 0x3 NOT ADD SLT PUSH2 0x31A JUMPI PUSH1 0x4 CALLDATALOAD DUP1 PUSH1 0x0 MSTORE PUSH1 0x6 PUSH1 0x20 MSTORE PUSH2 0x12DB PUSH1 0xFF PUSH1 0xE PUSH1 0x40 PUSH1 0x0 KECCAK256 ADD SLOAD AND PUSH2 0x28C4 JUMP JUMPDEST PUSH1 0x0 MSTORE PUSH1 0x6 PUSH1 0x20 MSTORE PUSH2 0x1340 PUSH1 0x40 PUSH1 0x0 KECCAK256 PUSH2 0x1250 PUSH1 0x7 DUP3 ADD SLOAD PUSH2 0x12FF PUSH1 0x4 DUP5 ADD PUSH2 0x2644 JUMP JUMPDEST SWAP3 PUSH2 0x135C PUSH2 0x130F PUSH1 0x5 DUP4 ADD PUSH2 0x2644 JUMP JUMPDEST SWAP2 PUSH2 0x134E PUSH2 0x132B PUSH1 0xD PUSH2 0x1324 PUSH1 0x6 DUP6 ADD PUSH2 0x2644 JUMP JUMPDEST SWAP4 ADD PUSH2 0x2644 JUMP JUMPDEST SWAP4 PUSH1 0x40 MLOAD SWAP9 DUP10 SWAP9 PUSH1 0xA0 DUP11 MSTORE PUSH1 0xA0 DUP11 ADD SWAP1 PUSH2 0x25AA JUMP JUMPDEST SWAP1 DUP9 DUP3 SUB PUSH1 0x20 DUP11 ADD MSTORE PUSH2 0x25AA JUMP JUMPDEST SWAP1 DUP7 DUP3 SUB PUSH1 0x40 DUP9 ADD MSTORE PUSH2 0x25AA JUMP JUMPDEST SWAP2 PUSH1 0x60 DUP6 ADD MSTORE DUP4 DUP3 SUB PUSH1 0x80 DUP6 ADD MSTORE PUSH2 0x25AA JUMP JUMPDEST CALLVALUE PUSH2 0x31A JUMPI PUSH1 0xA0 CALLDATASIZE PUSH1 0x3 NOT ADD SLT PUSH2 0x31A JUMPI PUSH1 0x1 PUSH1 0x1 PUSH1 0x40 SHL SUB PUSH1 0x64 CALLDATALOAD DUP2 DUP2 GT PUSH2 0x31A JUMPI PUSH2 0x13A0 SWAP1 CALLDATASIZE SWAP1 PUSH1 0x4 ADD PUSH2 0x2554 JUMP JUMPDEST SWAP1 PUSH1 0x1 PUSH1 0x1 PUSH1 0xA0 SHL SUB PUSH1 0x84 CALLDATALOAD DUP2 DUP2 AND SWAP1 DUP2 SWAP1 SUB PUSH2 0x31A JUMPI PUSH1 0x4 CALLDATALOAD SWAP2 DUP3 PUSH1 0x0 MSTORE PUSH1 0x20 SWAP5 PUSH1 0x4 DUP7 MSTORE PUSH2 0x13DA PUSH1 0xFF PUSH1 0xA PUSH1 0x40 PUSH1 0x0 KECCAK256 ADD SLOAD AND PUSH2 0x27EC JUMP JUMPDEST DUP4 PUSH1 0x0 MSTORE PUSH1 0x4 DUP7 MSTORE DUP2 PUSH1 0x5 PUSH1 0x40 PUSH1 0x0 KECCAK256 ADD SLOAD AND CALLER EQ DUP1 ISZERO PUSH2 0x16D9 JUMPI JUMPDEST ISZERO PUSH2 0x16A3 JUMPI DUP4 PUSH1 0x0 MSTORE PUSH1 0x4 DUP7 MSTORE PUSH1 0x40 PUSH1 0x0 KECCAK256 SWAP2 PUSH1 0x44 CALLDATALOAD SWAP6 PUSH2 0x141B DUP8 PUSH1 0x4 DUP7 ADD SLOAD PUSH2 0x28B7 JUMP JUMPDEST PUSH1 0x3 DUP1 SWAP6 ADD SLOAD LT PUSH2 0x1652 JUMPI PUSH2 0x1430 DUP5 SLOAD PUSH2 0x2769 JUMP JUMPDEST SWAP1 DUP2 DUP6 SSTORE PUSH1 0x40 MLOAD SWAP3 PUSH1 0xE0 DUP5 ADD SWAP2 DUP5 DUP4 LT DUP2 DUP5 GT OR PUSH2 0x498 JUMPI DUP11 SWAP3 PUSH1 0x40 MSTORE DUP4 DUP6 MSTORE DUP3 DUP6 ADD SWAP6 DUP10 DUP8 MSTORE PUSH1 0x40 DUP7 ADD SWAP7 PUSH1 0x24 CALLDATALOAD SWAP8 DUP9 DUP2 MSTORE PUSH1 0x60 DUP9 ADD SWAP2 DUP14 DUP4 MSTORE PUSH1 0x80 DUP10 ADD SWAP4 DUP5 MSTORE PUSH1 0x7 PUSH1 0xA0 DUP11 ADD SWAP8 DUP14 DUP10 MSTORE PUSH1 0xC0 DUP12 ADD SWAP10 TIMESTAMP DUP12 MSTORE PUSH1 0x0 MSTORE MSTORE PUSH1 0x40 PUSH1 0x0 KECCAK256 SWAP9 MLOAD DUP10 SSTORE MLOAD PUSH1 0x1 DUP10 ADD SSTORE MLOAD PUSH1 0x2 DUP9 ADD SSTORE MLOAD DUP9 DUP8 ADD SSTORE MLOAD SWAP1 DUP2 MLOAD SWAP1 DUP2 GT PUSH2 0x498 JUMPI PUSH1 0x4 DUP7 ADD SWAP2 PUSH2 0x14C6 DUP3 PUSH2 0x14C0 DUP6 SLOAD PUSH2 0x260A JUMP JUMPDEST DUP6 PUSH2 0x278F JUMP JUMPDEST DUP13 SWAP1 DUP14 PUSH1 0x1F DUP5 GT PUSH1 0x1 EQ PUSH2 0x15BE JUMPI POP SWAP3 DUP3 PUSH32 0x13780F32AEF756AA7B54BF1925480ED3B26BEDF45CB3AC9AD99CA2F493BC02C9 SWAP11 SWAP9 SWAP7 SWAP4 PUSH1 0x6 SWAP7 SWAP4 PUSH1 0x40 SWAP12 SWAP10 SWAP7 PUSH1 0x0 SWAP3 PUSH2 0x15B3 JUMPI JUMPDEST POP POP DUP2 PUSH1 0x1 SHL SWAP2 PUSH1 0x0 NOT SWAP1 DUP12 SHL SHR NOT AND OR SWAP1 SSTORE JUMPDEST PUSH1 0x5 DUP6 ADD SWAP2 MLOAD AND PUSH1 0x1 PUSH1 0x1 PUSH1 0x60 SHL SUB PUSH1 0xA0 SHL DUP3 SLOAD AND OR SWAP1 SSTORE MLOAD SWAP2 ADD SSTORE DUP1 ISZERO ISZERO DUP1 PUSH2 0x159A JUMPI JUMPDEST PUSH2 0x1579 JUMPI JUMPDEST POP DUP5 PUSH1 0x0 MSTORE PUSH1 0xA DUP8 MSTORE PUSH2 0x1563 DUP3 PUSH1 0x0 KECCAK256 DUP3 SLOAD SWAP1 PUSH2 0x2831 JUMP JUMPDEST SLOAD SWAP5 DUP6 SWAP4 DUP3 MLOAD SWAP2 DUP3 MSTORE DUP8 DUP3 ADD MSTORE LOG3 PUSH1 0x40 MLOAD SWAP1 DUP2 MSTORE RETURN JUMPDEST PUSH1 0x0 MSTORE PUSH1 0x6 DUP8 MSTORE PUSH1 0x9 DUP3 PUSH1 0x0 KECCAK256 ADD PUSH2 0x1592 DUP8 DUP3 SLOAD PUSH2 0x28B7 JUMP JUMPDEST SWAP1 SSTORE DUP8 PUSH2 0x154B JUMP JUMPDEST POP DUP1 PUSH1 0x0 MSTORE PUSH1 0x6 DUP9 MSTORE PUSH1 0xFF PUSH1 0xE DUP5 PUSH1 0x0 KECCAK256 ADD SLOAD AND PUSH2 0x1546 JUMP JUMPDEST ADD MLOAD SWAP1 POP CODESIZE DUP1 PUSH2 0x150D JUMP JUMPDEST SWAP2 SWAP1 DUP5 PUSH1 0x0 MSTORE DUP3 PUSH1 0x0 KECCAK256 SWAP3 PUSH1 0x0 PUSH1 0x1F NOT DUP7 AND SWAP2 JUMPDEST DUP3 DUP3 LT PUSH2 0x163A JUMPI POP POP SWAP4 PUSH1 0x6 SWAP7 SWAP4 PUSH1 0x40 SWAP12 SWAP10 SWAP7 SWAP4 PUSH1 0x1 SWAP4 DUP4 PUSH32 0x13780F32AEF756AA7B54BF1925480ED3B26BEDF45CB3AC9AD99CA2F493BC02C9 SWAP16 SWAP14 SWAP12 SWAP9 LT PUSH2 0x1622 JUMPI JUMPDEST POP POP POP DUP2 SHL ADD SWAP1 SSTORE PUSH2 0x1521 JUMP JUMPDEST ADD MLOAD PUSH1 0x0 NOT DUP4 DUP14 SHL PUSH1 0xF8 AND SHR NOT AND SWAP1 SSTORE CODESIZE DUP1 DUP1 PUSH2 0x1615 JUMP JUMPDEST DUP1 PUSH1 0x1 DUP7 SWAP8 DUP3 SWAP5 SWAP8 DUP8 ADD MLOAD DUP2 SSTORE ADD SWAP7 ADD SWAP5 ADD SWAP1 PUSH2 0x15D2 JUMP JUMPDEST PUSH1 0x40 MLOAD PUSH3 0x461BCD PUSH1 0xE5 SHL DUP2 MSTORE PUSH1 0x4 DUP2 ADD DUP10 SWAP1 MSTORE PUSH1 0x23 PUSH1 0x24 DUP3 ADD MSTORE PUSH32 0x457870656E646974757265206578636565647320616C6C6F6361746564206675 PUSH1 0x44 DUP3 ADD MSTORE PUSH3 0x6E6473 PUSH1 0xE8 SHL PUSH1 0x64 DUP3 ADD MSTORE PUSH1 0x84 SWAP1 REVERT JUMPDEST PUSH1 0x40 MLOAD PUSH3 0x461BCD PUSH1 0xE5 SHL DUP2 MSTORE PUSH1 0x4 DUP2 ADD DUP8 SWAP1 MSTORE PUSH1 0xE PUSH1 0x24 DUP3 ADD MSTORE PUSH14 0x139BDD08185D5D1A1BDC9A5E9959 PUSH1 0x92 SHL PUSH1 0x44 DUP3 ADD MSTORE PUSH1 0x64 SWAP1 REVERT JUMPDEST POP PUSH1 0x40 MLOAD DUP7 DUP2 ADD SWAP1 CALLER PUSH1 0x60 SHL DUP3 MSTORE PUSH1 0x14 DUP2 MSTORE PUSH2 0x16F4 DUP2 PUSH2 0x2518 JUMP JUMPDEST MLOAD SWAP1 KECCAK256 DUP5 PUSH1 0x0 MSTORE PUSH1 0x4 DUP8 MSTORE PUSH1 0x6 PUSH1 0x40 PUSH1 0x0 KECCAK256 ADD SLOAD EQ PUSH2 0x13F6 JUMP JUMPDEST CALLVALUE PUSH2 0x31A JUMPI PUSH1 0x20 DUP1 PUSH1 0x3 NOT CALLDATASIZE ADD SLT PUSH2 0x31A JUMPI PUSH1 0x4 CALLDATALOAD DUP1 PUSH1 0x0 MSTORE PUSH1 0x4 DUP3 MSTORE PUSH2 0x173F PUSH1 0xFF PUSH1 0xA PUSH1 0x40 PUSH1 0x0 KECCAK256 ADD SLOAD AND PUSH2 0x27EC JUMP JUMPDEST PUSH1 0x0 MSTORE PUSH1 0xA DUP2 MSTORE PUSH1 0x40 PUSH1 0x0 KECCAK256 SWAP1 PUSH1 0x40 MLOAD SWAP1 DUP2 DUP2 DUP5 SLOAD SWAP2 DUP3 DUP2 MSTORE ADD SWAP4 PUSH1 0x0 MSTORE DUP2 PUSH1 0x0 KECCAK256 SWAP2 PUSH1 0x0 SWAP1 JUMPDEST DUP3 DUP3 LT PUSH2 0x177D JUMPI PUSH2 0x1250 DUP6 PUSH2 0x1244 DUP2 DUP10 SUB DUP3 PUSH2 0x2533 JUMP JUMPDEST DUP4 SLOAD DUP7 MSTORE SWAP5 DUP6 ADD SWAP5 PUSH1 0x1 SWAP4 DUP5 ADD SWAP4 SWAP1 SWAP2 ADD SWAP1 PUSH2 0x1766 JUMP JUMPDEST CALLVALUE PUSH2 0x31A JUMPI PUSH2 0x17A2 CALLDATASIZE PUSH2 0x26EA JUMP JUMPDEST SWAP1 PUSH1 0x0 MSTORE PUSH1 0x9 PUSH1 0x20 MSTORE PUSH1 0x40 PUSH1 0x0 KECCAK256 DUP1 SLOAD DUP3 LT ISZERO PUSH2 0x31A JUMPI PUSH1 0x20 SWAP2 PUSH2 0x129C SWAP2 PUSH2 0x2700 JUMP JUMPDEST CALLVALUE PUSH2 0x31A JUMPI PUSH1 0x20 CALLDATASIZE PUSH1 0x3 NOT ADD SLT PUSH2 0x31A JUMPI PUSH2 0x18C4 PUSH1 0x4 CALLDATALOAD DUP1 PUSH1 0x0 MSTORE PUSH1 0x5 PUSH1 0x20 MSTORE PUSH1 0x40 PUSH1 0x0 KECCAK256 PUSH1 0x40 MLOAD SWAP1 PUSH2 0x17F7 DUP3 PUSH2 0x24FC JUMP JUMPDEST DUP1 SLOAD DUP3 MSTORE PUSH1 0x1 DUP2 ADD SLOAD PUSH1 0x20 DUP4 ADD MSTORE PUSH1 0x2 DUP2 ADD SLOAD PUSH1 0x40 DUP4 ADD MSTORE PUSH2 0x181B PUSH1 0x3 DUP3 ADD PUSH2 0x2644 JUMP JUMPDEST PUSH1 0x60 DUP4 ADD MSTORE PUSH2 0x182C PUSH1 0x4 DUP3 ADD PUSH2 0x2644 JUMP JUMPDEST SWAP3 PUSH1 0x80 DUP4 ADD SWAP4 DUP5 MSTORE PUSH1 0x2 PUSH2 0x1842 PUSH1 0x5 DUP5 ADD PUSH2 0x2644 JUMP JUMPDEST SWAP5 PUSH1 0xA0 DUP6 ADD SWAP6 DUP7 MSTORE PUSH1 0xFF PUSH1 0x6 DUP6 ADD SLOAD AND SWAP5 PUSH1 0xE0 PUSH1 0x7 PUSH1 0xC0 DUP4 ADD SWAP7 PUSH2 0x1865 DUP10 PUSH2 0x25EA JUMP JUMPDEST DUP9 DUP9 MSTORE ADD SLOAD SWAP2 ADD MSTORE MLOAD SWAP5 MLOAD SWAP3 PUSH2 0x187A DUP6 PUSH2 0x25EA JUMP JUMPDEST MLOAD PUSH2 0x1884 DUP2 PUSH2 0x25EA JUMP JUMPDEST PUSH2 0x188D DUP2 PUSH2 0x25EA JUMP JUMPDEST SUB PUSH2 0x18F3 JUMPI PUSH1 0x0 SWAP1 DUP2 MSTORE PUSH1 0xB PUSH1 0x20 MSTORE PUSH1 0x40 SWAP1 KECCAK256 SLOAD PUSH1 0x1 PUSH1 0x1 PUSH1 0xA0 SHL SUB AND SWAP1 PUSH2 0x18D2 SWAP1 JUMPDEST PUSH1 0x40 MLOAD SWAP6 DUP7 SWAP6 PUSH1 0x80 DUP8 MSTORE PUSH1 0x80 DUP8 ADD SWAP1 PUSH2 0x25AA JUMP JUMPDEST SWAP1 DUP6 DUP3 SUB PUSH1 0x20 DUP8 ADD MSTORE PUSH2 0x25AA JUMP JUMPDEST SWAP2 PUSH2 0x18DC DUP2 PUSH2 0x25EA JUMP JUMPDEST PUSH1 0x40 DUP5 ADD MSTORE PUSH1 0x1 PUSH1 0x1 PUSH1 0xA0 SHL SUB AND PUSH1 0x60 DUP4 ADD MSTORE SUB SWAP1 RETURN JUMPDEST POP PUSH2 0x18D2 PUSH1 0x0 SWAP2 PUSH2 0x18B0 JUMP JUMPDEST CALLVALUE PUSH2 0x31A JUMPI PUSH1 0x20 DUP1 PUSH1 0x3 NOT CALLDATASIZE ADD SLT PUSH2 0x31A JUMPI PUSH1 0x4 CALLDATALOAD DUP1 PUSH1 0x0 MSTORE PUSH1 0x4 DUP3 MSTORE PUSH2 0x1930 PUSH1 0xFF PUSH1 0xA PUSH1 0x40 PUSH1 0x0 KECCAK256 ADD SLOAD AND PUSH2 0x27EC JUMP JUMPDEST PUSH1 0x0 MSTORE PUSH1 0x9 DUP2 MSTORE PUSH1 0x40 PUSH1 0x0 KECCAK256 SWAP1 PUSH1 0x40 MLOAD SWAP1 DUP2 DUP2 DUP5 SLOAD SWAP2 DUP3 DUP2 MSTORE ADD SWAP4 PUSH1 0x0 MSTORE DUP2 PUSH1 0x0 KECCAK256 SWAP2 PUSH1 0x0 SWAP1 JUMPDEST DUP3 DUP3 LT PUSH2 0x196E JUMPI PUSH2 0x1250 DUP6 PUSH2 0x1244 DUP2 DUP10 SUB DUP3 PUSH2 0x2533 JUMP JUMPDEST DUP4 SLOAD DUP7 MSTORE SWAP5 DUP6 ADD SWAP5 PUSH1 0x1 SWAP4 DUP5 ADD SWAP4 SWAP1 SWAP2 ADD SWAP1 PUSH2 0x1957 JUMP JUMPDEST CALLVALUE PUSH2 0x31A JUMPI PUSH1 0x20 CALLDATASIZE PUSH1 0x3 NOT ADD SLT PUSH2 0x31A JUMPI PUSH1 0x4 CALLDATALOAD PUSH1 0x0 MSTORE PUSH1 0x5 PUSH1 0x20 MSTORE PUSH1 0x40 PUSH1 0x0 KECCAK256 DUP1 SLOAD PUSH1 0x1 DUP3 ADD SLOAD SWAP2 PUSH1 0x2 DUP2 ADD SLOAD PUSH2 0x1A2E PUSH2 0x19C2 PUSH1 0x3 DUP5 ADD PUSH2 0x2644 JUMP JUMPDEST PUSH2 0x1A20 PUSH2 0x19D1 PUSH1 0x4 DUP7 ADD PUSH2 0x2644 JUMP JUMPDEST PUSH2 0x1A12 PUSH2 0x19E0 PUSH1 0x5 DUP9 ADD PUSH2 0x2644 JUMP JUMPDEST SWAP4 PUSH1 0x7 PUSH1 0xFF PUSH1 0x6 DUP11 ADD SLOAD AND SWAP9 ADD SLOAD SWAP7 PUSH1 0x40 MLOAD SWAP11 DUP12 SWAP11 DUP12 MSTORE PUSH1 0x20 DUP12 ADD MSTORE PUSH1 0x40 DUP11 ADD MSTORE PUSH2 0x100 DUP1 PUSH1 0x60 DUP12 ADD MSTORE DUP10 ADD SWAP1 PUSH2 0x25AA JUMP JUMPDEST SWAP1 DUP8 DUP3 SUB PUSH1 0x80 DUP10 ADD MSTORE PUSH2 0x25AA JUMP JUMPDEST SWAP1 DUP6 DUP3 SUB PUSH1 0xA0 DUP8 ADD MSTORE PUSH2 0x25AA JUMP JUMPDEST SWAP2 PUSH2 0x1A38 DUP2 PUSH2 0x25EA JUMP JUMPDEST PUSH1 0xC0 DUP5 ADD MSTORE PUSH1 0xE0 DUP4 ADD MSTORE SUB SWAP1 RETURN JUMPDEST CALLVALUE PUSH2 0x31A JUMPI PUSH2 0x1A54 CALLDATASIZE PUSH2 0x26EA JUMP JUMPDEST SWAP1 PUSH1 0x0 MSTORE PUSH1 0x8 PUSH1 0x20 MSTORE PUSH1 0x40 PUSH1 0x0 KECCAK256 DUP1 SLOAD DUP3 LT ISZERO PUSH2 0x31A JUMPI PUSH1 0x20 SWAP2 PUSH2 0x129C SWAP2 PUSH2 0x2700 JUMP JUMPDEST CALLVALUE PUSH2 0x31A JUMPI PUSH1 0x20 CALLDATASIZE PUSH1 0x3 NOT ADD SLT PUSH2 0x31A JUMPI PUSH1 0x4 CALLDATALOAD PUSH1 0x0 MSTORE PUSH1 0x7 PUSH1 0x20 MSTORE PUSH1 0x40 PUSH1 0x0 KECCAK256 DUP1 SLOAD PUSH1 0x1 DUP3 ADD SLOAD SWAP2 PUSH1 0x2 DUP2 ADD SLOAD PUSH2 0x1AF5 PUSH1 0x3 DUP4 ADD SLOAD PUSH2 0x1AB9 PUSH1 0x4 DUP6 ADD PUSH2 0x2644 JUMP JUMPDEST SWAP1 PUSH1 0x6 PUSH1 0x1 DUP1 PUSH1 0xA0 SHL SUB PUSH1 0x5 DUP8 ADD SLOAD AND SWAP6 ADD SLOAD SWAP4 PUSH1 0x40 MLOAD SWAP8 DUP9 SWAP8 DUP9 MSTORE PUSH1 0x20 DUP9 ADD MSTORE PUSH1 0x40 DUP8 ADD MSTORE PUSH1 0x60 DUP7 ADD MSTORE PUSH1 0xE0 PUSH1 0x80 DUP7 ADD MSTORE PUSH1 0xE0 DUP6 ADD SWAP1 PUSH2 0x25AA JUMP JUMPDEST SWAP2 PUSH1 0xA0 DUP5 ADD MSTORE PUSH1 0xC0 DUP4 ADD MSTORE SUB SWAP1 RETURN JUMPDEST CALLVALUE PUSH2 0x31A JUMPI PUSH1 0x0 CALLDATASIZE PUSH1 0x3 NOT ADD SLT PUSH2 0x31A JUMPI PUSH1 0x20 PUSH1 0x0 SLOAD PUSH1 0x40 MLOAD SWAP1 DUP2 MSTORE RETURN JUMPDEST CALLVALUE PUSH2 0x31A JUMPI PUSH1 0x0 CALLDATASIZE PUSH1 0x3 NOT ADD SLT PUSH2 0x31A JUMPI PUSH1 0x20 PUSH1 0x3 SLOAD PUSH1 0x40 MLOAD SWAP1 DUP2 MSTORE RETURN JUMPDEST CALLVALUE PUSH2 0x31A JUMPI PUSH1 0x20 CALLDATASIZE PUSH1 0x3 NOT ADD SLT PUSH2 0x31A JUMPI PUSH1 0x4 CALLDATALOAD DUP1 PUSH1 0x0 MSTORE PUSH1 0x6 PUSH1 0x20 MSTORE PUSH2 0x1B71 PUSH1 0xFF PUSH1 0xE PUSH1 0x40 PUSH1 0x0 KECCAK256 ADD SLOAD AND PUSH2 0x28C4 JUMP JUMPDEST PUSH1 0x0 MSTORE PUSH1 0x6 PUSH1 0x20 MSTORE PUSH2 0x120 PUSH1 0x40 PUSH1 0x0 KECCAK256 DUP1 SLOAD SWAP1 PUSH1 0x1 DUP2 ADD SLOAD SWAP1 PUSH1 0x2 DUP2 ADD SLOAD PUSH1 0xFF PUSH1 0x3 DUP4 ADD SLOAD AND PUSH1 0x8 DUP4 ADD SLOAD PUSH1 0x9 DUP5 ADD SLOAD SWAP2 PUSH1 0xFF PUSH1 0xA DUP7 ADD SLOAD AND SWAP4 PUSH1 0xC PUSH1 0xB DUP8 ADD SLOAD SWAP7 ADD SLOAD SWAP7 PUSH1 0x40 MLOAD SWAP9 DUP10 MSTORE PUSH1 0x20 DUP10 ADD MSTORE PUSH1 0x40 DUP9 ADD MSTORE PUSH1 0x60 DUP8 ADD MSTORE PUSH1 0x80 DUP7 ADD MSTORE PUSH1 0xA0 DUP6 ADD MSTORE PUSH2 0x1BDE DUP2 PUSH2 0x25EA JUMP JUMPDEST PUSH1 0xC0 DUP5 ADD MSTORE PUSH1 0xE0 DUP4 ADD MSTORE PUSH2 0x100 DUP3 ADD MSTORE RETURN JUMPDEST CALLVALUE PUSH2 0x31A JUMPI PUSH1 0x0 CALLDATASIZE PUSH1 0x3 NOT ADD SLT PUSH2 0x31A JUMPI PUSH1 0x20 PUSH1 0x1 SLOAD PUSH1 0x40 MLOAD SWAP1 DUP2 MSTORE RETURN JUMPDEST PUSH1 0x80 CALLDATASIZE PUSH1 0x3 NOT ADD SLT PUSH2 0x31A JUMPI PUSH1 0x24 CALLDATALOAD PUSH1 0x4 CALLDATALOAD DUP2 ISZERO ISZERO DUP3 SUB PUSH2 0x31A JUMPI PUSH1 0x44 CALLDATALOAD SWAP2 DUP3 ISZERO ISZERO DUP4 SUB PUSH2 0x31A JUMPI PUSH1 0x64 CALLDATALOAD SWAP1 DUP2 ISZERO ISZERO DUP3 SUB PUSH2 0x31A JUMPI DUP3 PUSH1 0x0 MSTORE PUSH1 0x20 SWAP1 PUSH1 0x6 DUP3 MSTORE PUSH1 0x40 PUSH1 0x0 KECCAK256 SWAP3 PUSH1 0x1 DUP5 ADD SLOAD SWAP6 PUSH2 0x1C91 PUSH1 0x40 MLOAD DUP6 DUP2 ADD SWAP1 CALLER PUSH1 0x60 SHL DUP3 MSTORE PUSH1 0x14 DUP2 MSTORE PUSH2 0x1C77 DUP2 PUSH2 0x2518 JUMP JUMPDEST MLOAD SWAP1 KECCAK256 DUP9 PUSH1 0x0 MSTORE PUSH1 0x4 DUP7 MSTORE PUSH1 0x6 PUSH1 0x40 PUSH1 0x0 KECCAK256 ADD SLOAD EQ PUSH2 0x286B JUMP JUMPDEST DUP3 PUSH2 0x1EE0 JUMPI JUMPDEST POP DUP2 PUSH2 0x1ED8 JUMPI JUMPDEST POP ISZERO PUSH2 0x1E0B JUMPI PUSH1 0xA DUP3 ADD PUSH1 0xFF NOT SWAP1 PUSH1 0x2 DUP3 DUP3 SLOAD AND OR SWAP1 SSTORE TIMESTAMP PUSH1 0xC DUP5 ADD SSTORE PUSH1 0x8 DUP4 ADD SLOAD SWAP1 PUSH1 0x2 DUP5 ADD SLOAD PUSH1 0x0 MSTORE PUSH1 0xB DUP4 MSTORE PUSH1 0x3 PUSH1 0x1 DUP1 PUSH1 0xA0 SHL SUB PUSH1 0x40 PUSH1 0x0 KECCAK256 SLOAD AND SWAP5 DUP8 PUSH1 0x0 MSTORE PUSH1 0x4 DUP6 MSTORE DUP2 PUSH1 0x40 PUSH1 0x0 KECCAK256 ADD PUSH2 0x1CF8 DUP6 DUP3 SLOAD PUSH2 0x28B7 JUMP JUMPDEST SWAP1 SSTORE DUP8 PUSH1 0x0 MSTORE PUSH1 0x4 DUP6 MSTORE PUSH1 0x4 PUSH1 0x40 PUSH1 0x0 KECCAK256 ADD PUSH2 0x1D15 DUP6 DUP3 SLOAD PUSH2 0x28B7 JUMP JUMPDEST SWAP1 SSTORE ADD SWAP1 PUSH1 0x64 PUSH1 0xFF DUP4 SLOAD AND EQ PUSH1 0x0 EQ PUSH2 0x1DED JUMPI DUP7 PUSH1 0x0 MSTORE PUSH1 0x4 DUP5 MSTORE PUSH1 0x3 PUSH1 0x7 PUSH1 0x40 PUSH1 0x0 KECCAK256 ADD SWAP2 DUP3 SLOAD AND OR SWAP1 SSTORE JUMPDEST DUP2 SELFBALANCE LT ISZERO PUSH2 0x1DB2 JUMPI JUMPDEST SWAP1 PUSH1 0xFF DUP4 SWAP3 PUSH32 0xCD3C5E4379009BA79BACD27E7DDA9B2CEAE5FA7D95370F5583F8601FF3BEE5CF SWAP7 PUSH32 0x939DA3B627C123C81FE5AACEBF925163337A0D4F8A03724640618078CAD24894 PUSH1 0x60 SWAP8 SWAP7 PUSH1 0x40 MLOAD DUP7 DUP2 MSTORE LOG2 SLOAD AND SWAP2 PUSH1 0x40 MLOAD SWAP4 DUP5 MSTORE DUP4 ADD MSTORE PUSH1 0x40 DUP3 ADD MSTORE LOG2 STOP JUMPDEST SWAP3 SWAP2 SWAP1 PUSH1 0x0 DUP2 DUP5 DUP2 ISZERO PUSH2 0x1DE3 JUMPI JUMPDEST PUSH1 0x0 SWAP3 DUP4 SWAP3 DUP4 SWAP3 DUP4 SWAP3 CALL ISZERO PUSH2 0x1DD7 JUMPI SWAP1 SWAP2 SWAP3 PUSH2 0x1D4B JUMP JUMPDEST PUSH1 0x40 MLOAD RETURNDATASIZE PUSH1 0x0 DUP3 RETURNDATACOPY RETURNDATASIZE SWAP1 REVERT JUMPDEST PUSH2 0x8FC SWAP3 POP PUSH2 0x1DC0 JUMP JUMPDEST DUP7 PUSH1 0x0 MSTORE PUSH1 0x4 DUP5 MSTORE PUSH1 0x2 PUSH1 0x7 PUSH1 0x40 PUSH1 0x0 KECCAK256 ADD SWAP2 DUP3 SLOAD AND OR SWAP1 SSTORE PUSH2 0x1D42 JUMP JUMPDEST PUSH32 0x2346E8D925F08BEF41586C0448CB9DB28A92557839FBBE0E1A14656B7E393712 SWAP3 SWAP4 POP PUSH1 0xD DUP3 PUSH1 0xA PUSH1 0x80 SWAP5 ADD PUSH1 0x3 PUSH1 0xFF NOT DUP3 SLOAD AND OR SWAP1 SSTORE ADD PUSH2 0x1E4E DUP2 SLOAD PUSH2 0x260A JUMP JUMPDEST PUSH1 0x1F DUP2 GT PUSH2 0x1EB4 JUMPI JUMPDEST POP PUSH1 0x51 DUP2 SSTORE PUSH1 0x0 MSTORE PUSH1 0x1 DUP2 PUSH1 0x0 KECCAK256 PUSH32 0x5175616C6974792F4750532F50726F677265737320766572696669636174696F SWAP1 DUP2 DUP2 SSTORE PUSH8 0x1B8819985A5B1959 PUSH1 0xC2 SHL SWAP3 DUP4 SWAP2 ADD SSTORE PUSH1 0x28 PUSH1 0x40 MLOAD SWAP4 DUP1 DUP6 MSTORE DUP5 ADD MSTORE PUSH1 0x40 DUP4 ADD MSTORE PUSH1 0x60 DUP3 ADD MSTORE LOG2 STOP JUMPDEST PUSH2 0x1ED2 SWAP1 DUP3 PUSH1 0x0 MSTORE PUSH1 0x2 PUSH1 0x1F DUP6 PUSH1 0x0 KECCAK256 SWAP3 ADD PUSH1 0x5 SHR DUP3 ADD SWAP2 ADD PUSH2 0x2778 JUMP JUMPDEST DUP6 PUSH2 0x1E57 JUMP JUMPDEST SWAP1 POP DUP6 PUSH2 0x1C9E JUMP JUMPDEST SWAP2 POP DUP7 PUSH2 0x1C97 JUMP JUMPDEST CALLVALUE PUSH2 0x31A JUMPI PUSH1 0x20 CALLDATASIZE PUSH1 0x3 NOT ADD SLT PUSH2 0x31A JUMPI PUSH1 0x4 CALLDATALOAD PUSH1 0x0 MSTORE PUSH1 0xB PUSH1 0x20 MSTORE PUSH1 0x20 PUSH1 0x1 DUP1 PUSH1 0xA0 SHL SUB PUSH1 0x40 PUSH1 0x0 KECCAK256 SLOAD AND PUSH1 0x40 MLOAD SWAP1 DUP2 MSTORE RETURN JUMPDEST CALLVALUE PUSH2 0x31A JUMPI PUSH1 0x20 CALLDATASIZE PUSH1 0x3 NOT ADD SLT PUSH2 0x31A JUMPI PUSH1 0x4 CALLDATALOAD PUSH1 0x0 MSTORE PUSH1 0x4 PUSH1 0x20 MSTORE PUSH1 0x40 PUSH1 0x0 KECCAK256 DUP1 SLOAD PUSH2 0x1F4B PUSH1 0x1 DUP4 ADD PUSH2 0x2644 JUMP JUMPDEST SWAP2 PUSH1 0x2 DUP2 ADD SLOAD PUSH2 0x1FE9 PUSH1 0x3 DUP4 ADD SLOAD SWAP2 PUSH1 0x4 DUP5 ADD SLOAD PUSH1 0x1 DUP1 PUSH1 0xA0 SHL SUB PUSH1 0x5 DUP7 ADD SLOAD AND PUSH1 0x6 DUP7 ADD SLOAD PUSH1 0xFF PUSH1 0x7 DUP9 ADD SLOAD AND SWAP2 PUSH2 0x1F86 PUSH1 0x8 DUP10 ADD PUSH2 0x2644 JUMP JUMPDEST SWAP4 PUSH1 0xFF PUSH1 0xA PUSH1 0x9 DUP12 ADD SLOAD SWAP11 ADD SLOAD AND SWAP8 PUSH2 0x1FB3 PUSH1 0x40 MLOAD SWAP13 DUP14 SWAP13 DUP14 MSTORE PUSH1 0x20 DUP14 PUSH2 0x160 SWAP2 DUP3 SWAP2 ADD MSTORE DUP14 ADD SWAP1 PUSH2 0x25AA JUMP JUMPDEST SWAP7 PUSH1 0x40 DUP13 ADD MSTORE PUSH1 0x60 DUP12 ADD MSTORE PUSH1 0x80 DUP11 ADD MSTORE PUSH1 0xA0 DUP10 ADD MSTORE PUSH1 0xC0 DUP9 ADD MSTORE PUSH2 0x1FD6 DUP2 PUSH2 0x25EA JUMP JUMPDEST PUSH1 0xE0 DUP8 ADD MSTORE DUP6 DUP3 SUB PUSH2 0x100 DUP8 ADD MSTORE PUSH2 0x25AA JUMP JUMPDEST SWAP2 PUSH2 0x120 DUP5 ADD MSTORE ISZERO ISZERO PUSH2 0x140 DUP4 ADD MSTORE SUB SWAP1 RETURN JUMPDEST CALLVALUE PUSH2 0x31A JUMPI PUSH1 0x0 CALLDATASIZE PUSH1 0x3 NOT ADD SLT PUSH2 0x31A JUMPI PUSH1 0x20 PUSH1 0x2 SLOAD PUSH1 0x40 MLOAD SWAP1 DUP2 MSTORE RETURN JUMPDEST CALLVALUE PUSH2 0x31A JUMPI PUSH1 0x20 DUP1 PUSH1 0x3 NOT CALLDATASIZE ADD SLT PUSH2 0x31A JUMPI PUSH1 0x40 MLOAD PUSH2 0x2038 DUP2 PUSH2 0x24FC JUMP JUMPDEST PUSH1 0x0 DUP2 MSTORE PUSH1 0x0 DUP3 DUP3 ADD MSTORE PUSH1 0x0 PUSH1 0x40 DUP3 ADD MSTORE PUSH1 0x0 PUSH1 0xE0 PUSH1 0x60 SWAP3 DUP4 DUP1 DUP3 ADD MSTORE DUP4 PUSH1 0x80 DUP3 ADD MSTORE DUP4 PUSH1 0xA0 DUP3 ADD MSTORE DUP3 PUSH1 0xC0 DUP3 ADD MSTORE ADD MSTORE PUSH1 0x4 CALLDATALOAD PUSH1 0x0 MSTORE PUSH1 0x5 DUP3 MSTORE PUSH1 0x40 PUSH1 0x0 KECCAK256 PUSH1 0x40 MLOAD SWAP2 PUSH2 0x2085 DUP4 PUSH2 0x24FC JUMP JUMPDEST DUP2 SLOAD DUP4 MSTORE PUSH1 0x1 DUP3 ADD SLOAD DUP5 DUP5 ADD SWAP1 DUP2 MSTORE PUSH2 0x215F PUSH1 0x2 DUP5 ADD SLOAD PUSH1 0x40 DUP7 ADD SWAP1 DUP2 MSTORE PUSH2 0x20AF PUSH1 0x3 DUP7 ADD PUSH2 0x2644 JUMP JUMPDEST DUP5 DUP8 ADD SWAP1 DUP2 MSTORE PUSH2 0x20C1 PUSH1 0x4 DUP8 ADD PUSH2 0x2644 JUMP JUMPDEST SWAP5 PUSH1 0x80 DUP9 ADD SWAP6 DUP7 MSTORE PUSH2 0x20D5 PUSH1 0x5 DUP9 ADD PUSH2 0x2644 JUMP JUMPDEST SWAP3 PUSH1 0xA0 DUP10 ADD SWAP4 DUP5 MSTORE PUSH1 0x7 PUSH1 0xFF PUSH1 0x6 DUP11 ADD SLOAD AND SWAP9 PUSH1 0xC0 DUP12 ADD SWAP10 PUSH2 0x20F6 DUP2 PUSH2 0x25EA JUMP JUMPDEST DUP11 MSTORE ADD SLOAD SWAP6 PUSH1 0xE0 DUP11 ADD SWAP7 DUP8 MSTORE PUSH1 0x40 MLOAD SWAP11 DUP12 SWAP11 DUP2 DUP13 MSTORE MLOAD SWAP1 DUP12 ADD MSTORE MLOAD PUSH1 0x40 DUP11 ADD MSTORE MLOAD SWAP1 DUP9 ADD MSTORE MLOAD SWAP4 PUSH2 0x214E PUSH2 0x2138 PUSH2 0x100 SWAP7 DUP8 PUSH1 0x80 DUP12 ADD MSTORE PUSH2 0x120 DUP11 ADD SWAP1 PUSH2 0x25AA JUMP JUMPDEST SWAP2 MLOAD SWAP2 PUSH1 0x1F NOT SWAP3 DUP4 DUP11 DUP4 SUB ADD PUSH1 0xA0 DUP12 ADD MSTORE PUSH2 0x25AA JUMP JUMPDEST SWAP2 MLOAD SWAP1 DUP8 DUP4 SUB ADD PUSH1 0xC0 DUP9 ADD MSTORE PUSH2 0x25AA JUMP JUMPDEST SWAP3 MLOAD PUSH2 0x216A DUP2 PUSH2 0x25EA JUMP JUMPDEST PUSH1 0xE0 DUP6 ADD MSTORE MLOAD SWAP1 DUP4 ADD MSTORE SUB SWAP1 RETURN JUMPDEST CALLVALUE PUSH2 0x31A JUMPI PUSH1 0x80 CALLDATASIZE PUSH1 0x3 NOT ADD SLT PUSH2 0x31A JUMPI PUSH1 0x4 CALLDATALOAD PUSH1 0x1 PUSH1 0x1 PUSH1 0x40 SHL SUB DUP2 GT PUSH2 0x31A JUMPI PUSH2 0x21A8 SWAP1 CALLDATASIZE SWAP1 PUSH1 0x4 ADD PUSH2 0x2554 JUMP JUMPDEST PUSH1 0x64 CALLDATALOAD PUSH1 0x1 PUSH1 0x1 PUSH1 0x40 SHL SUB DUP2 GT PUSH2 0x31A JUMPI PUSH2 0x21C7 SWAP1 CALLDATASIZE SWAP1 PUSH1 0x4 ADD PUSH2 0x2554 JUMP JUMPDEST PUSH2 0x21D2 PUSH1 0x0 SLOAD PUSH2 0x2769 JUMP JUMPDEST SWAP1 DUP2 PUSH1 0x0 SSTORE PUSH1 0x40 MLOAD SWAP2 PUSH2 0x21E4 DUP4 PUSH2 0x24E0 JUMP JUMPDEST DUP1 DUP4 MSTORE PUSH1 0x20 DUP4 ADD SWAP2 DUP5 DUP4 MSTORE PUSH1 0x24 CALLDATALOAD PUSH1 0x40 DUP6 ADD MSTORE PUSH1 0x0 PUSH1 0x60 DUP6 ADD MSTORE PUSH1 0x0 PUSH1 0x80 DUP6 ADD MSTORE CALLER PUSH1 0xA0 DUP6 ADD MSTORE PUSH1 0x44 CALLDATALOAD PUSH1 0xC0 DUP6 ADD MSTORE PUSH1 0x0 PUSH1 0xE0 DUP6 ADD MSTORE PUSH2 0x100 DUP5 ADD MSTORE TIMESTAMP PUSH2 0x120 DUP5 ADD MSTORE PUSH1 0x1 PUSH2 0x140 DUP5 ADD MSTORE PUSH1 0x0 MSTORE PUSH1 0x4 PUSH1 0x20 MSTORE PUSH1 0x40 PUSH1 0x0 KECCAK256 SWAP1 DUP3 MLOAD DUP3 SSTORE MLOAD SWAP3 DUP4 MLOAD PUSH1 0x1 PUSH1 0x1 PUSH1 0x40 SHL SUB DUP2 GT PUSH2 0x498 JUMPI PUSH2 0x226D DUP2 PUSH2 0x2264 PUSH1 0x1 DUP7 ADD SLOAD PUSH2 0x260A JUMP JUMPDEST PUSH1 0x1 DUP7 ADD PUSH2 0x278F JUMP JUMPDEST PUSH1 0x20 PUSH1 0x1F DUP3 GT PUSH1 0x1 EQ PUSH2 0x2471 JUMPI DUP2 SWAP3 SWAP4 SWAP5 SWAP6 PUSH1 0x0 SWAP3 PUSH2 0x2466 JUMPI JUMPDEST POP POP DUP2 PUSH1 0x1 SHL SWAP2 PUSH1 0x0 NOT SWAP1 PUSH1 0x3 SHL SHR NOT AND OR PUSH1 0x1 DUP4 ADD SSTORE JUMPDEST PUSH1 0x40 DUP4 ADD MLOAD PUSH1 0x2 DUP4 ADD SSTORE PUSH1 0x60 DUP4 ADD MLOAD PUSH1 0x3 DUP4 ADD SSTORE PUSH1 0x80 DUP4 ADD MLOAD PUSH1 0x4 DUP4 ADD SSTORE PUSH1 0x5 DUP3 ADD PUSH1 0x1 DUP1 PUSH1 0xA0 SHL SUB PUSH1 0xA0 DUP6 ADD MLOAD AND PUSH1 0x1 PUSH1 0x1 PUSH1 0x60 SHL SUB PUSH1 0xA0 SHL DUP3 SLOAD AND OR SWAP1 SSTORE PUSH1 0xC0 DUP4 ADD MLOAD PUSH1 0x6 DUP4 ADD SSTORE PUSH2 0x2303 PUSH1 0xE0 DUP5 ADD MLOAD PUSH2 0x22FA DUP2 PUSH2 0x25EA JUMP JUMPDEST PUSH1 0x7 DUP5 ADD PUSH2 0x27D4 JUMP JUMPDEST PUSH1 0x8 DUP3 ADD SWAP3 PUSH2 0x100 DUP2 ADD MLOAD SWAP4 DUP5 MLOAD PUSH1 0x1 PUSH1 0x1 PUSH1 0x40 SHL SUB DUP2 GT PUSH2 0x498 JUMPI PUSH1 0x20 SWAP6 PUSH2 0x2330 DUP3 PUSH2 0x14C0 DUP6 SLOAD PUSH2 0x260A JUMP JUMPDEST DUP7 SWAP1 PUSH1 0x1F DUP4 GT PUSH1 0x1 EQ PUSH2 0x23F2 JUMPI SWAP4 PUSH2 0x23C9 SWAP7 SWAP4 DUP4 PUSH1 0xA SWAP5 PUSH2 0x140 SWAP5 PUSH2 0x238E SWAP9 PUSH1 0x0 SWAP3 PUSH2 0x23E7 JUMPI JUMPDEST POP POP DUP2 PUSH1 0x1 SHL SWAP2 PUSH1 0x0 NOT SWAP1 PUSH1 0x3 SHL SHR NOT AND OR SWAP1 SSTORE JUMPDEST PUSH2 0x120 DUP2 ADD MLOAD PUSH1 0x9 DUP6 ADD SSTORE ADD MLOAD ISZERO ISZERO SWAP2 ADD SWAP1 PUSH1 0xFF DUP1 NOT DUP4 SLOAD AND SWAP2 ISZERO ISZERO AND OR SWAP1 SSTORE JUMP JUMPDEST PUSH32 0xE12127E830A916393848200F5A64634469C00A020E37627666649822A07A61BD PUSH1 0x0 SLOAD SWAP3 DUP4 SWAP3 PUSH1 0x40 MLOAD SWAP2 DUP3 SWAP2 PUSH1 0x80 DUP4 MSTORE PUSH1 0x80 DUP4 ADD SWAP1 PUSH2 0x25AA JUMP JUMPDEST PUSH1 0x24 CALLDATALOAD DUP8 DUP4 ADD MSTORE CALLER PUSH1 0x40 DUP4 ADD MSTORE TIMESTAMP PUSH1 0x60 DUP4 ADD MSTORE SUB SWAP1 LOG2 PUSH1 0x40 MLOAD SWAP1 DUP2 MSTORE RETURN JUMPDEST ADD MLOAD SWAP1 POP DUP12 DUP1 PUSH2 0x2357 JUMP JUMPDEST SWAP1 PUSH1 0x1F NOT DUP4 AND SWAP2 DUP5 PUSH1 0x0 MSTORE DUP9 PUSH1 0x0 KECCAK256 SWAP3 PUSH1 0x0 JUMPDEST DUP2 DUP2 LT PUSH2 0x244F JUMPI POP DUP5 PUSH2 0x140 SWAP5 PUSH2 0x238E SWAP9 SWAP5 PUSH2 0x23C9 SWAP12 SWAP9 SWAP5 PUSH1 0xA SWAP9 PUSH1 0x1 SWAP6 LT PUSH2 0x2436 JUMPI JUMPDEST POP POP POP DUP2 SHL ADD SWAP1 SSTORE PUSH2 0x236C JUMP JUMPDEST ADD MLOAD PUSH1 0x0 NOT PUSH1 0xF8 DUP5 PUSH1 0x3 SHL AND SHR NOT AND SWAP1 SSTORE DUP12 DUP1 DUP1 PUSH2 0x2429 JUMP JUMPDEST SWAP3 SWAP4 DUP11 PUSH1 0x1 DUP2 SWAP3 DUP8 DUP7 ADD MLOAD DUP2 SSTORE ADD SWAP6 ADD SWAP4 ADD PUSH2 0x2405 JUMP JUMPDEST ADD MLOAD SWAP1 POP DUP6 DUP1 PUSH2 0x2287 JUMP JUMPDEST PUSH1 0x1 DUP5 ADD PUSH1 0x0 MSTORE PUSH1 0x20 PUSH1 0x0 KECCAK256 SWAP1 PUSH1 0x0 JUMPDEST PUSH1 0x1F NOT DUP5 AND DUP2 LT PUSH2 0x24C8 JUMPI POP PUSH1 0x1 SWAP4 SWAP5 SWAP6 SWAP7 DUP4 PUSH1 0x1F NOT DUP2 AND LT PUSH2 0x24AF JUMPI JUMPDEST POP POP POP DUP2 SHL ADD PUSH1 0x1 DUP4 ADD SSTORE PUSH2 0x229F JUMP JUMPDEST ADD MLOAD PUSH1 0x0 NOT PUSH1 0xF8 DUP5 PUSH1 0x3 SHL AND SHR NOT AND SWAP1 SSTORE DUP6 DUP1 DUP1 PUSH2 0x249F JUMP JUMPDEST SWAP1 SWAP2 PUSH1 0x20 PUSH1 0x1 DUP2 SWAP3 DUP6 DUP12 ADD MLOAD DUP2 SSTORE ADD SWAP4 ADD SWAP2 ADD PUSH2 0x2481 JUMP JUMPDEST PUSH2 0x160 DUP2 ADD SWAP1 DUP2 LT PUSH1 0x1 PUSH1 0x1 PUSH1 0x40 SHL SUB DUP3 GT OR PUSH2 0x498 JUMPI PUSH1 0x40 MSTORE JUMP JUMPDEST PUSH2 0x100 DUP2 ADD SWAP1 DUP2 LT PUSH1 0x1 PUSH1 0x1 PUSH1 0x40 SHL SUB DUP3 GT OR PUSH2 0x498 JUMPI PUSH1 0x40 MSTORE JUMP JUMPDEST PUSH1 0x40 DUP2 ADD SWAP1 DUP2 LT PUSH1 0x1 PUSH1 0x1 PUSH1 0x40 SHL SUB DUP3 GT OR PUSH2 0x498 JUMPI PUSH1 0x40 MSTORE JUMP JUMPDEST SWAP1 PUSH1 0x1F DUP1 NOT SWAP2 ADD AND DUP2 ADD SWAP1 DUP2 LT PUSH1 0x1 PUSH1 0x1 PUSH1 0x40 SHL SUB DUP3 GT OR PUSH2 0x498 JUMPI PUSH1 0x40 MSTORE JUMP JUMPDEST DUP2 PUSH1 0x1F DUP3 ADD SLT ISZERO PUSH2 0x31A JUMPI DUP1 CALLDATALOAD SWAP1 PUSH1 0x1 PUSH1 0x1 PUSH1 0x40 SHL SUB DUP3 GT PUSH2 0x498 JUMPI PUSH1 0x40 MLOAD SWAP3 PUSH2 0x2588 PUSH1 0x1F DUP5 ADD PUSH1 0x1F NOT AND PUSH1 0x20 ADD DUP6 PUSH2 0x2533 JUMP JUMPDEST DUP3 DUP5 MSTORE PUSH1 0x20 DUP4 DUP4 ADD ADD GT PUSH2 0x31A JUMPI DUP2 PUSH1 0x0 SWAP3 PUSH1 0x20 DUP1 SWAP4 ADD DUP4 DUP7 ADD CALLDATACOPY DUP4 ADD ADD MSTORE SWAP1 JUMP JUMPDEST SWAP2 SWAP1 DUP3 MLOAD SWAP3 DUP4 DUP3 MSTORE PUSH1 0x0 JUMPDEST DUP5 DUP2 LT PUSH2 0x25D6 JUMPI POP POP DUP3 PUSH1 0x0 PUSH1 0x20 DUP1 SWAP5 SWAP6 DUP5 ADD ADD MSTORE PUSH1 0x1F DUP1 NOT SWAP2 ADD AND ADD ADD SWAP1 JUMP JUMPDEST PUSH1 0x20 DUP2 DUP4 ADD DUP2 ADD MLOAD DUP5 DUP4 ADD DUP3 ADD MSTORE ADD PUSH2 0x25B5 JUMP JUMPDEST PUSH1 0x4 GT ISZERO PUSH2 0x25F4 JUMPI JUMP JUMPDEST PUSH4 0x4E487B71 PUSH1 0xE0 SHL PUSH1 0x0 MSTORE PUSH1 0x21 PUSH1 0x4 MSTORE PUSH1 0x24 PUSH1 0x0 REVERT JUMPDEST SWAP1 PUSH1 0x1 DUP3 DUP2 SHR SWAP3 AND DUP1 ISZERO PUSH2 0x263A JUMPI JUMPDEST PUSH1 0x20 DUP4 LT EQ PUSH2 0x2624 JUMPI JUMP JUMPDEST PUSH4 0x4E487B71 PUSH1 0xE0 SHL PUSH1 0x0 MSTORE PUSH1 0x22 PUSH1 0x4 MSTORE PUSH1 0x24 PUSH1 0x0 REVERT JUMPDEST SWAP2 PUSH1 0x7F AND SWAP2 PUSH2 0x2619 JUMP JUMPDEST SWAP1 PUSH1 0x40 MLOAD SWAP2 DUP3 PUSH1 0x0 DUP3 SLOAD SWAP3 PUSH2 0x2658 DUP5 PUSH2 0x260A JUMP JUMPDEST SWAP1 DUP2 DUP5 MSTORE PUSH1 0x1 SWAP5 DUP6 DUP2 AND SWAP1 DUP2 PUSH1 0x0 EQ PUSH2 0x26C7 JUMPI POP PUSH1 0x1 EQ PUSH2 0x2684 JUMPI JUMPDEST POP POP PUSH2 0x2682 SWAP3 POP SUB DUP4 PUSH2 0x2533 JUMP JUMPDEST JUMP JUMPDEST SWAP1 SWAP4 SWAP2 POP PUSH1 0x0 MSTORE PUSH1 0x20 SWAP1 DUP2 PUSH1 0x0 KECCAK256 SWAP4 PUSH1 0x0 SWAP2 JUMPDEST DUP2 DUP4 LT PUSH2 0x26AF JUMPI POP POP PUSH2 0x2682 SWAP4 POP DUP3 ADD ADD CODESIZE DUP1 PUSH2 0x2674 JUMP JUMPDEST DUP6 SLOAD DUP9 DUP5 ADD DUP6 ADD MSTORE SWAP5 DUP6 ADD SWAP5 DUP8 SWAP5 POP SWAP2 DUP4 ADD SWAP2 PUSH2 0x2697 JUMP JUMPDEST SWAP2 POP POP PUSH2 0x2682 SWAP5 POP PUSH1 0x20 SWAP3 POP PUSH1 0xFF NOT AND DUP3 DUP5 ADD MSTORE ISZERO ISZERO PUSH1 0x5 SHL DUP3 ADD ADD CODESIZE DUP1 PUSH2 0x2674 JUMP JUMPDEST PUSH1 0x40 SWAP1 PUSH1 0x3 NOT ADD SLT PUSH2 0x31A JUMPI PUSH1 0x4 CALLDATALOAD SWAP1 PUSH1 0x24 CALLDATALOAD SWAP1 JUMP JUMPDEST DUP1 SLOAD DUP3 LT ISZERO PUSH2 0x2718 JUMPI PUSH1 0x0 MSTORE PUSH1 0x20 PUSH1 0x0 KECCAK256 ADD SWAP1 PUSH1 0x0 SWAP1 JUMP JUMPDEST PUSH4 0x4E487B71 PUSH1 0xE0 SHL PUSH1 0x0 MSTORE PUSH1 0x32 PUSH1 0x4 MSTORE PUSH1 0x24 PUSH1 0x0 REVERT JUMPDEST PUSH1 0x20 SWAP1 DUP2 PUSH1 0x40 DUP2 DUP4 ADD SWAP3 DUP3 DUP2 MSTORE DUP6 MLOAD DUP1 SWAP5 MSTORE ADD SWAP4 ADD SWAP2 PUSH1 0x0 JUMPDEST DUP3 DUP2 LT PUSH2 0x2755 JUMPI POP POP POP POP SWAP1 JUMP JUMPDEST DUP4 MLOAD DUP6 MSTORE SWAP4 DUP2 ADD SWAP4 SWAP3 DUP2 ADD SWAP3 PUSH1 0x1 ADD PUSH2 0x2747 JUMP JUMPDEST PUSH1 0x0 NOT DUP2 EQ PUSH2 0x10C6 JUMPI PUSH1 0x1 ADD SWAP1 JUMP JUMPDEST DUP2 DUP2 LT PUSH2 0x2783 JUMPI POP POP JUMP JUMPDEST PUSH1 0x0 DUP2 SSTORE PUSH1 0x1 ADD PUSH2 0x2778 JUMP JUMPDEST SWAP2 SWAP1 PUSH1 0x1F DUP2 GT PUSH2 0x279E JUMPI POP POP POP JUMP JUMPDEST PUSH2 0x2682 SWAP3 PUSH1 0x0 MSTORE PUSH1 0x20 PUSH1 0x0 KECCAK256 SWAP1 PUSH1 0x20 PUSH1 0x1F DUP5 ADD PUSH1 0x5 SHR DUP4 ADD SWAP4 LT PUSH2 0x27CA JUMPI JUMPDEST PUSH1 0x1F ADD PUSH1 0x5 SHR ADD SWAP1 PUSH2 0x2778 JUMP JUMPDEST SWAP1 SWAP2 POP DUP2 SWAP1 PUSH2 0x27BD JUMP JUMPDEST SWAP1 PUSH2 0x27DE DUP2 PUSH2 0x25EA JUMP JUMPDEST PUSH1 0xFF DUP1 NOT DUP4 SLOAD AND SWAP2 AND OR SWAP1 SSTORE JUMP JUMPDEST ISZERO PUSH2 0x27F3 JUMPI JUMP JUMPDEST PUSH1 0x40 MLOAD PUSH3 0x461BCD PUSH1 0xE5 SHL DUP2 MSTORE PUSH1 0x20 PUSH1 0x4 DUP3 ADD MSTORE PUSH1 0x16 PUSH1 0x24 DUP3 ADD MSTORE PUSH22 0x141C9BDA9958DD08191BD95CC81B9BDD08195E1A5CDD PUSH1 0x52 SHL PUSH1 0x44 DUP3 ADD MSTORE PUSH1 0x64 SWAP1 REVERT JUMPDEST DUP1 SLOAD PUSH9 0x10000000000000000 DUP2 LT ISZERO PUSH2 0x498 JUMPI PUSH2 0x2853 SWAP2 PUSH1 0x1 DUP3 ADD DUP2 SSTORE PUSH2 0x2700 JUMP JUMPDEST DUP2 SWAP3 SWAP2 SLOAD SWAP1 PUSH1 0x3 SHL SWAP2 DUP3 SHL SWAP2 PUSH1 0x0 NOT SWAP1 SHL NOT AND OR SWAP1 SSTORE JUMP JUMPDEST ISZERO PUSH2 0x2872 JUMPI JUMP JUMPDEST PUSH1 0x40 MLOAD PUSH3 0x461BCD PUSH1 0xE5 SHL DUP2 MSTORE PUSH1 0x20 PUSH1 0x4 DUP3 ADD MSTORE PUSH1 0x19 PUSH1 0x24 DUP3 ADD MSTORE PUSH32 0x4E6F7420617574686F72697A65642073757065727669736F7200000000000000 PUSH1 0x44 DUP3 ADD MSTORE PUSH1 0x64 SWAP1 REVERT JUMPDEST SWAP2 SWAP1 DUP3 ADD DUP1 SWAP3 GT PUSH2 0x10C6 JUMPI JUMP JUMPDEST ISZERO PUSH2 0x28CB JUMPI JUMP JUMPDEST PUSH1 0x40 MLOAD PUSH3 0x461BCD PUSH1 0xE5 SHL DUP2 MSTORE PUSH1 0x20 PUSH1 0x4 DUP3 ADD MSTORE PUSH1 0x18 PUSH1 0x24 DUP3 ADD MSTORE PUSH32 0x4D696C6573746F6E6520646F6573206E6F742065786973740000000000000000 PUSH1 0x44 DUP3 ADD MSTORE PUSH1 0x64 SWAP1 REVERT INVALID LOG2 PUSH5 0x6970667358 0x22 SLT KECCAK256 EXTCODESIZE ISZERO 0xBF 0x24 0xC1 SSTORE SWAP15 JUMPI 0xBA SWAP15 PUSH1 0x84 BYTE ADDRESS CALLVALUE EXTCODESIZE ORIGIN JUMP SWAP4 0xA9 LOG1 0xD4 0xC8 0xD6 0xF6 0xB9 LOG1 LT 0xD6 PUSH31 0x94D464736F6C63430008140033000000000000000000000000000000000000 "},"methodIdentifiers":{"approveTender(uint256,address,bytes32)":"ee4c80a0","createProject(string,uint256,bytes32,string)":"01830c48","expenditureCount()":"30daa3a2","expenditures(uint256)":"3af48e32","getMilestone(uint256)":"2442e1cb","getMilestoneDocuments(uint256)":"793d2083","getProject(uint256)":"f0f3f2c8","getProjectExpenditures(uint256)":"716c0bbc","getProjectMilestones(uint256)":"52766d80","getProjectTenders(uint256)":"9ecb0522","getTender(uint256)":"0585c25e","getTenderDetails(uint256)":"53ee895d","milestoneCount()":"0681ca55","milestones(uint256)":"e89e4ed6","projectCount()":"36fbad26","projectExpenditures(uint256,uint256)":"868a654b","projectMilestones(uint256,uint256)":"6cb0adba","projectTenders(uint256,uint256)":"460f1b82","projects(uint256)":"107046bd","recordExpenditure(uint256,uint256,uint256,string,address)":"71e9d3cd","revealedContractors(uint256)":"1878c6bf","submitAnonymousTender(uint256,bytes32,string,string,string)":"b34287cc","submitMilestone(uint256,uint8,string,string,string,bytes32)":"a090cdfb","tenderCount()":"1f058776","tenders(uint256)":"465e1def","verifyAndReleaseFunds(uint256,bool,bool,bool)":"18d62eab"}}}}}