{
  "_format": "hh-sol-artifact-1",
  "contractName": "AnonymousTenderSystem",
  "sourceName": "contracts/AnonymousTenderSystem.sol",
  "abi": [
    {
      "anonymous": false,
      "inputs": [
        {
          "indexed": true,
          "internalType": "uint256",
          "name": "projectId",
          "type": "uint256"
        },
        {
          "indexed": false,
          "internalType": "address",
          "name": "contractor",
          "type": "address"
        },
        {
          "indexed": false,
          "internalType": "uint256",
          "name": "amount",
          "type": "uint256"
        },
        {
          "indexed": false,
          "internalType": "uint8",
          "name": "milestone",
          "type": "uint8"
        }
      ],
      "name": "FundsReleased",
      "type": "event"
    },
    {
      "anonymous": false,
      "inputs": [
        {
          "indexed": true,
          "internalType": "uint256",
          "name": "milestoneId",
          "type": "uint256"
        },
        {
          "indexed": false,
          "internalType": "uint256",
          "name": "amountReleased",
          "type": "uint256"
        }
      ],
      "name": "MilestoneApproved",
      "type": "event"
    },
    {
      "anonymous": false,
      "inputs": [
        {
          "indexed": true,
          "internalType": "uint256",
          "name": "milestoneId",
          "type": "uint256"
        },
        {
          "indexed": false,
          "internalType": "string",
          "name": "reason",
          "type": "string"
        }
      ],
      "name": "MilestoneRejected",
      "type": "event"
    },
    {
      "anonymous": false,
      "inputs": [
        {
          "indexed": true,
          "internalType": "uint256",
          "name": "milestoneId",
          "type": "uint256"
        },
        {
          "indexed": true,
          "internalType": "uint256",
          "name": "tenderId",
          "type": "uint256"
        },
        {
          "indexed": false,
          "internalType": "uint8",
          "name": "percentage",
          "type": "uint8"
        }
      ],
      "name": "MilestoneSubmitted",
      "type": "event"
    },
    {
      "anonymous": false,
      "inputs": [
        {
          "indexed": true,
          "internalType": "uint256",
          "name": "projectId",
          "type": "uint256"
        },
        {
          "indexed": false,
          "internalType": "string",
          "name": "projectName",
          "type": "string"
        },
        {
          "indexed": false,
          "internalType": "uint256",
          "name": "budget",
          "type": "uint256"
        },
        {
          "indexed": false,
          "internalType": "address",
          "name": "admin",
          "type": "address"
        }
      ],
      "name": "ProjectCreated",
      "type": "event"
    },
    {
      "anonymous": false,
      "inputs": [
        {
          "indexed": true,
          "internalType": "uint256",
          "name": "tenderId",
          "type": "uint256"
        },
        {
          "indexed": false,
          "internalType": "address",
          "name": "revealedContractor",
          "type": "address"
        }
      ],
      "name": "TenderApproved",
      "type": "event"
    },
    {
      "anonymous": false,
      "inputs": [
        {
          "indexed": true,
          "internalType": "uint256",
          "name": "tenderId",
          "type": "uint256"
        },
        {
          "indexed": false,
          "internalType": "string",
          "name": "reason",
          "type": "string"
        }
      ],
      "name": "TenderRejected",
      "type": "event"
    },
    {
      "anonymous": false,
      "inputs": [
        {
          "indexed": true,
          "internalType": "uint256",
          "name": "tenderId",
          "type": "uint256"
        },
        {
          "indexed": true,
          "internalType": "uint256",
          "name": "projectId",
          "type": "uint256"
        },
        {
          "indexed": false,
          "internalType": "bytes32",
          "name": "contractorCommitment",
          "type": "bytes32"
        }
      ],
      "name": "TenderSubmitted",
      "type": "event"
    },
    {
      "inputs": [
        {
          "internalType": "uint256",
          "name": "_tenderId",
          "type": "uint256"
        },
        {
          "internalType": "address",
          "name": "_revealedContractor",
          "type": "address"
        },
        {
          "internalType": "bytes32",
          "name": "_nonce",
          "type": "bytes32"
        }
      ],
      "name": "approveTender",
      "outputs": [],
      "stateMutability": "nonpayable",
      "type": "function"
    },
    {
      "inputs": [
        {
          "internalType": "string",
          "name": "_projectName",
          "type": "string"
        },
        {
          "internalType": "uint256",
          "name": "_budget",
          "type": "uint256"
        },
        {
          "internalType": "bytes32",
          "name": "_supervisorCommitment",
          "type": "bytes32"
        }
      ],
      "name": "createProject",
      "outputs": [
        {
          "internalType": "uint256",
          "name": "",
          "type": "uint256"
        }
      ],
      "stateMutability": "nonpayable",
      "type": "function"
    },
    {
      "inputs": [
        {
          "internalType": "uint256",
          "name": "_projectId",
          "type": "uint256"
        }
      ],
      "name": "getProjectTenders",
      "outputs": [
        {
          "internalType": "uint256[]",
          "name": "",
          "type": "uint256[]"
        }
      ],
      "stateMutability": "view",
      "type": "function"
    },
    {
      "inputs": [
        {
          "internalType": "uint256",
          "name": "_tenderId",
          "type": "uint256"
        }
      ],
      "name": "getTenderDetails",
      "outputs": [
        {
          "internalType": "string",
          "name": "tenderDoc",
          "type": "string"
        },
        {
          "internalType": "string",
          "name": "qualityReport",
          "type": "string"
        },
        {
          "internalType": "enum AnonymousTenderSystem.TenderStatus",
          "name": "status",
          "type": "uint8"
        },
        {
          "internalType": "address",
          "name": "contractor",
          "type": "address"
        }
      ],
      "stateMutability": "view",
      "type": "function"
    },
    {
      "inputs": [],
      "name": "milestoneCounter",
      "outputs": [
        {
          "internalType": "uint256",
          "name": "",
          "type": "uint256"
        }
      ],
      "stateMutability": "view",
      "type": "function"
    },
    {
      "inputs": [
        {
          "internalType": "uint256",
          "name": "",
          "type": "uint256"
        }
      ],
      "name": "milestones",
      "outputs": [
        {
          "internalType": "uint256",
          "name": "milestoneId",
          "type": "uint256"
        },
        {
          "internalType": "uint256",
          "name": "projectId",
          "type": "uint256"
        },
        {
          "internalType": "uint256",
          "name": "tenderId",
          "type": "uint256"
        },
        {
          "internalType": "uint8",
          "name": "percentageComplete",
          "type": "uint8"
        },
        {
          "internalType": "string",
          "name": "proofImagesIPFS",
          "type": "string"
        },
        {
          "internalType": "string",
          "name": "gpsCoordinates",
          "type": "string"
        },
        {
          "internalType": "string",
          "name": "architectureDocsIPFS",
          "type": "string"
        },
        {
          "internalType": "bytes32",
          "name": "qualityHash",
          "type": "bytes32"
        },
        {
          "internalType": "enum AnonymousTenderSystem.MilestoneStatus",
          "name": "status",
          "type": "uint8"
        },
        {
          "internalType": "uint256",
          "name": "submittedAt",
          "type": "uint256"
        },
        {
          "internalType": "uint256",
          "name": "approvedAt",
          "type": "uint256"
        },
        {
          "internalType": "string",
          "name": "rejectionReason",
          "type": "string"
        }
      ],
      "stateMutability": "view",
      "type": "function"
    },
    {
      "inputs": [],
      "name": "projectCounter",
      "outputs": [
        {
          "internalType": "uint256",
          "name": "",
          "type": "uint256"
        }
      ],
      "stateMutability": "view",
      "type": "function"
    },
    {
      "inputs": [
        {
          "internalType": "uint256",
          "name": "",
          "type": "uint256"
        },
        {
          "internalType": "uint256",
          "name": "",
          "type": "uint256"
        }
      ],
      "name": "projectTenders",
      "outputs": [
        {
          "internalType": "uint256",
          "name": "",
          "type": "uint256"
        }
      ],
      "stateMutability": "view",
      "type": "function"
    },
    {
      "inputs": [
        {
          "internalType": "uint256",
          "name": "",
          "type": "uint256"
        }
      ],
      "name": "projects",
      "outputs": [
        {
          "internalType": "uint256",
          "name": "projectId",
          "type": "uint256"
        },
        {
          "internalType": "string",
          "name": "projectName",
          "type": "string"
        },
        {
          "internalType": "uint256",
          "name": "budget",
          "type": "uint256"
        },
        {
          "internalType": "address",
          "name": "admin",
          "type": "address"
        },
        {
          "internalType": "bytes32",
          "name": "supervisorCommitment",
          "type": "bytes32"
        },
        {
          "internalType": "enum AnonymousTenderSystem.ProjectStatus",
          "name": "status",
          "type": "uint8"
        },
        {
          "internalType": "uint256",
          "name": "createdAt",
          "type": "uint256"
        }
      ],
      "stateMutability": "view",
      "type": "function"
    },
    {
      "inputs": [
        {
          "internalType": "uint256",
          "name": "",
          "type": "uint256"
        }
      ],
      "name": "revealedContractors",
      "outputs": [
        {
          "internalType": "address",
          "name": "",
          "type": "address"
        }
      ],
      "stateMutability": "view",
      "type": "function"
    },
    {
      "inputs": [
        {
          "internalType": "uint256",
          "name": "_projectId",
          "type": "uint256"
        },
        {
          "internalType": "bytes32",
          "name": "_contractorCommitment",
          "type": "bytes32"
        },
        {
          "internalType": "string",
          "name": "_encryptedContractorDataIPFS",
          "type": "string"
        },
        {
          "internalType": "string",
          "name": "_tenderDocIPFS",
          "type": "string"
        },
        {
          "internalType": "string",
          "name": "_qualityReportIPFS",
          "type": "string"
        }
      ],
      "name": "submitAnonymousTender",
      "outputs": [
        {
          "internalType": "uint256",
          "name": "",
          "type": "uint256"
        }
      ],
      "stateMutability": "nonpayable",
      "type": "function"
    },
    {
      "inputs": [
        {
          "internalType": "uint256",
          "name": "_tenderId",
          "type": "uint256"
        },
        {
          "internalType": "uint8",
          "name": "_percentageComplete",
          "type": "uint8"
        },
        {
          "internalType": "string",
          "name": "_proofImagesIPFS",
          "type": "string"
        },
        {
          "internalType": "string",
          "name": "_gpsCoordinates",
          "type": "string"
        },
        {
          "internalType": "string",
          "name": "_architectureDocsIPFS",
          "type": "string"
        },
        {
          "internalType": "bytes32",
          "name": "_qualityHash",
          "type": "bytes32"
        }
      ],
      "name": "submitMilestone",
      "outputs": [
        {
          "internalType": "uint256",
          "name": "",
          "type": "uint256"
        }
      ],
      "stateMutability": "nonpayable",
      "type": "function"
    },
    {
      "inputs": [],
      "name": "tenderCounter",
      "outputs": [
        {
          "internalType": "uint256",
          "name": "",
          "type": "uint256"
        }
      ],
      "stateMutability": "view",
      "type": "function"
    },
    {
      "inputs": [
        {
          "internalType": "uint256",
          "name": "",
          "type": "uint256"
        }
      ],
      "name": "tenders",
      "outputs": [
        {
          "internalType": "uint256",
          "name": "tenderId",
          "type": "uint256"
        },
        {
          "internalType": "uint256",
          "name": "projectId",
          "type": "uint256"
        },
        {
          "internalType": "bytes32",
          "name": "contractorCommitment",
          "type": "bytes32"
        },
        {
          "internalType": "string",
          "name": "encryptedContractorDataIPFS",
          "type": "string"
        },
        {
          "internalType": "string",
          "name": "tenderDocumentIPFS",
          "type": "string"
        },
        {
          "internalType": "string",
          "name": "invoiceIPFS",
          "type": "string"
        },
        {
          "internalType": "string",
          "name": "qualityReportIPFS",
          "type": "string"
        },
        {
          "internalType": "enum AnonymousTenderSystem.TenderStatus",
          "name": "status",
          "type": "uint8"
        },
        {
          "internalType": "uint256",
          "name": "submittedAt",
          "type": "uint256"
        }
      ],
      "stateMutability": "view",
      "type": "function"
    },
    {
      "inputs": [
        {
          "internalType": "uint256",
          "name": "_milestoneId",
          "type": "uint256"
        },
        {
          "internalType": "bool",
          "name": "_qualityVerified",
          "type": "bool"
        },
        {
          "internalType": "bool",
          "name": "_gpsVerified",
          "type": "bool"
        },
        {
          "internalType": "bool",
          "name": "_progressVerified",
          "type": "bool"
        }
      ],
      "name": "verifyAndReleaseFunds",
      "outputs": [],
      "stateMutability": "nonpayable",
      "type": "function"
    },
    {
      "stateMutability": "payable",
      "type": "receive"
    }
  ],
  "bytecode": "0x6080806040523461001657611c18908161001c8239f35b600080fdfe6080604052600436101561001b575b361561001957600080fd5b005b60003560e01c8063107046bd146118425780631878c6bf1461180e57806318d62eab1461155257806330d2210c14611534578063460f1b82146114ec578063465e1def1461140c57806353ee895d146112c05780639787547d146110a95780639ecb052214611003578063a090cdfb14610924578063b34287cc146103aa578063e89e4ed61461029f578063ee4c80a014610106578063f6baaec7146100e85763f8a518ed0361000e57346100e35760003660031901126100e3576020600554604051908152f35b600080fd5b346100e35760003660031901126100e3576020600754604051908152f35b346100e35760603660031901126100e3576024356004356001600160a01b0382168083036100e3578160005260209060018252604060002060018101549061017b604051858101903360601b82526014815261016181611932565b519020836000526000865260046040600020015414611b96565b60405195848701906bffffffffffffffffffffffff199060601b16815260443560348801526034875260608701908782106001600160401b0383111761028957816040528751902060028301540361024857507f08ef1e92b16bd2e2d0be9431db3a64223f23cce123adb96b1202ba2f18ac88db9495506007019060ff199160028382541617905585600052600484526040600020836bffffffffffffffffffffffff60a01b825416179055600052600083526001600560406000200191825416179055604051908152a2005b62461bcd60e51b81526064878101869052601960848901527f496e76616c696420636f6e74726163746f722072657665616c0000000000000060a489015290fd5b634e487b7160e01b600052604160045260246000fd5b346100e35760203660031901126100e357600435600052600260205260406000208054600182015491600281015490600381015460ff1690600481016102e490611989565b916102f160058301611989565b926102fe60068401611989565b600784015494600885015460ff1692600986015494600a87015496600b0161032590611989565b986040519b8c9b8c5260208c015260408b015260608a01526101808060808b0152890161035191611a2f565b88810360a08a015261036291611a2f565b87810360c089015261037391611a2f565b9360e087015261038281611a6f565b6101008601526101208501526101408401528281036101608401526103a691611a2f565b0390f35b346100e35760a03660031901126100e3576044356001600160401b0381116100e3576103da903690600401611abd565b6064356001600160401b0381116100e3576103f9903690600401611abd565b906084356001600160401b0381116100e357610419903690600401611abd565b90600435600052600060205260ff6005604060002001541661043a81611a6f565b6108df57610449600654611b13565b92836006556040519361045b85611916565b808552602085019360043585526040860192602435845260608701948552608087015260405161048a8161194d565b6000815260a087015260c0860152600060e086015242610100860152600052600160205260406000209284518455516001840155516002830155519182516001600160401b038111610289576104f0816104e760038601546118dc565b60038601611b39565b6020601f82116001146108715781929394600092610866575b50508160011b916000199060031b1c19161760038301555b60808101519182516001600160401b038111610289576105518161054860048501546118dc565b60048501611b39565b6020601f82116001146107f857819293946000926107ed575b50508160011b916000199060031b1c19161760048201555b60a08201519182516001600160401b038111610289576105b2816105a960058601546118dc565b60058601611b39565b6020601f821160011461077f5781929394600092610774575b50508160011b916000199060031b1c19161760058301555b60c08101518051906001600160401b038211610289576106138261060a60068701546118dc565b60068701611b39565b602090601f83116001146106fe57918060089492610100946000926106f3575b50508160011b916000199060031b1c19161760068501555b61066560e082015161065c81611a6f565b60078601611b7e565b01519101556004356000526003602052604060002060065490805468010000000000000000811015610289576106a091600182018155611a8f565b819291549060031b91821b91600019901b191617905560206006546040516024358152817fcc51b0e9a11b4449f30eedbf3dc532b58ffe4ad8f2b816544631d5cd5c3c0e9a8460043593a3604051908152f35b015190508680610633565b906006850160005260206000209160005b601f198516811061075c575092600894926001926101009583601f19811610610743575b505050811b01600685015561064b565b015160001960f88460031b161c19169055868080610733565b9192602060018192868501518155019401920161070f565b0151905084806105cb565b6005840160005260206000209060005b601f19841681106107d55750600193949583601f198116106107bc575b505050811b0160058301556105e3565b015160001960f88460031b161c191690558480806107ac565b9091602060018192858a01518155019301910161078f565b01519050848061056a565b6004830160005260206000209060005b601f198416811061084e5750600193949583601f19811610610835575b505050811b016004820155610582565b015160001960f88460031b161c19169055848080610825565b9091602060018192858a015181550193019101610808565b015190508480610509565b6003840160005260206000209060005b601f19841681106108c75750600193949583601f198116106108ae575b505050811b016003830155610521565b015160001960f88460031b161c1916905584808061089e565b9091602060018192858a015181550193019101610881565b60405162461bcd60e51b815260206004820152601d60248201527f50726f6a656374206e6f7420616363657074696e672074656e646572730000006044820152606490fd5b346100e35760c03660031901126100e3576024803560ff811681036100e3576044356001600160401b0381116100e357610962903690600401611abd565b906064356001600160401b0381116100e357610982903690600401611abd565b6084356001600160401b0381116100e3576109a1903690600401611abd565b6004356000526001602052600260ff600760406000200154166109c381611a6f565b03610fc957600435600052600460205260018060a01b03604060002054163303610f8557601460ff8416148015610f78575b8015610f6b575b8015610f5e575b8015610f51575b15610f0d57610a1a600754611b13565b91826007556004356000526001602052600160406000200154946040519561018087018781106001600160401b03821117610ef8576040528487526020870152600435604087015260ff85166060870152608086015260a085015260c084015260a43560e08401526001610100840152426101208401526000610140840152604051610aa58161194d565b60008152610160840152600052600260205260406000208251815560208301516001820155604083015160028201556003810160ff60608501511660ff1982541617905560808301518051906001600160401b038211610de9578190610b1b82610b1260048701546118dc565b60048701611b39565b602090601f8311600114610e8657600092610e7b575b50508160011b916000199060031b1c19161760048201555b60a08301518051906001600160401b038211610de9578190610b7b82610b7260058701546118dc565b60058701611b39565b602090601f8311600114610e0957600092610dfe575b50508160011b916000199060031b1c19161760058201555b60c08301518051906001600160401b038211610de957610bd982610bd060068601546118dc565b60068601611b39565b602090601f8311600114610d735791806101609492600b94600092610d68575b50508160011b916000199060031b1c19161760068201555b60e08501516007820155610c36610100860151610c2d81611a6f565b60088301611b7e565b6101208501516009820155610140850151600a820155019201519182516001600160401b038111610d535760209450610c7981610c7384546118dc565b84611b39565b8493601f8211600114610cf0579381929394600092610ce5575b50508160011b916000199060031b1c19161790555b6007549060ff60405191168152817fa4f370de0d910b9e1634436568274edd60715ade03e4cf084efd418a29349d888460043593a3604051908152f35b015190508580610c93565b601f1982169483600052866000209160005b878110610d3c575083600195969710610d23575b505050811b019055610ca8565b015160001960f88460031b161c19169055858080610d16565b919288600181928685015181550194019201610d02565b84634e487b7160e01b60005260416004526000fd5b015190508880610bf9565b906006840160005260206000209160005b601f1985168110610dd15750926101609492600192600b9583601f19811610610db8575b505050811b016006820155610c11565b015160001960f88460031b161c19169055888080610da8565b91926020600181928685015181550194019201610d84565b85634e487b7160e01b60005260416004526000fd5b015190508680610b91565b9250600584016000526020600020906000935b601f1984168510610e60576001945083601f19811610610e47575b505050811b016005820155610ba9565b015160001960f88460031b161c19169055868080610e37565b81810151835560209485019460019093019290910190610e1c565b015190508680610b31565b9250600484016000526020600020906000935b601f1984168510610edd576001945083601f19811610610ec4575b505050811b016004820155610b49565b015160001960f88460031b161c19169055868080610eb4565b81810151835560209485019460019093019290910190610e99565b88634e487b7160e01b60005260416004526000fd5b60405162461bcd60e51b815260206004820152601c818701527f496e76616c6964206d696c6573746f6e652070657263656e74616765000000006044820152606490fd5b50606460ff841614610a0a565b50605060ff841614610a03565b50603c60ff8416146109fc565b50602860ff8416146109f5565b60405162461bcd60e51b8152602060048201526017818701527f4e6f742061737369676e656420636f6e74726163746f720000000000000000006044820152606490fd5b60405162461bcd60e51b8152602060048201526013818701527215195b99195c881b9bdd08185c1c1c9bdd9959606a1b6044820152606490fd5b346100e3576020806003193601126100e35760043560005260038152604060002060405190818382549182815201908192600052846000209060005b8682821061109557868661105582880383611968565b604051928392818401908285525180915260408401929160005b82811061107e57505050500390f35b83518552869550938101939281019260010161106f565b83548552909301926001928301920161103f565b346100e35760603660031901126100e3576001600160401b036004358181116100e3576110da903690600401611abd565b6024356110e8600554611b13565b806005556040519060e0820182811086821117610289576040528082526020948583018581526040840185815260608501903382526080860192604435845260a08701946000865260c088019642885260005260008b526040600020975188556001808901925180519283116102895761116c8361116686546118dc565b86611b39565b8c908d601f851160011461124b5750928060069a9997959381936111e89a9896600094611240575b50501b916000199060031b1c19161790555b516002880155516003870180546001600160a01b0319166001600160a01b0392909216919091179055516004860155516111df81611a6f565b60058501611b7e565b519101557fbb4637bbc1f7f92783410fb90807fcced52c1562da987ac649876f09a750a5e361122a600554938493604051928392606084526060840190611a2f565b90878301523360408301520390a2604051908152f35b015192503880611194565b9190601f9493941984168660005283600020936000905b8282106112a9575050916111e899979593918560069d9c9a98969410611290575b505050811b0190556111a6565b015160001960f88460031b161c191690558e8080611283565b808886978294978701518155019601940190611262565b346100e35760203660031901126100e3576113d16004358060005260016020526040600020604051906112f282611916565b80548252600181015460208301526002810154604083015261131660038201611989565b606083015261132760048201611989565b926080830193845261133b60058301611989565b60a0840152600261134e60068401611989565b9460c0850195865260ff60078501541694610100600860e083019661137289611a6f565b88885201549101525194519261138785611a6f565b5161139181611a6f565b61139a81611a6f565b03611400576000908152600460205260409020546001600160a01b0316906113df905b604051958695608087526080870190611a2f565b908582036020870152611a2f565b916113e981611a6f565b60408401526001600160a01b031660608301520390f35b506113df6000916113bd565b346100e35760203660031901126100e35760043560005260016020526040600020805460018201549160028101546114d361144960038401611989565b6114c561145860048601611989565b6114b761146760058801611989565b916114a961147760068a01611989565b95600860ff60078c0154169a0154986040519c8d9c8d5260208d015260408c01526101208060608d01528b0190611a2f565b9089820360808b0152611a2f565b9087820360a0890152611a2f565b9085820360c0870152611a2f565b916114dd81611a6f565b60e08401526101008301520390f35b346100e35760403660031901126100e3576024356004356000526003602052604060002080548210156100e35760209161152591611a8f565b90549060031b1c604051908152f35b346100e35760003660031901126100e3576020600654604051908152f35b346100e35760803660031901126100e35760043560243580151581036100e3576044359081151582036100e3576064359081151582036100e35783600052602091600283526115d7600160406000200154604051858101903360601b8252601481526115bd81611932565b519020906000526000855260046040600020015414611b96565b846000526002835260406000209382611806575b50816117fe575b501561173057600882019260ff199360028582541617905542600a840155600183015492836000526000835260026040600020015491600382019260ff8454169081810291818304149015171561171a576064600291049201546000526004845260018060a01b036040600020541690600083838115611710575b600092839283928392f115611704576060869260ff6064967fcd3c5e4379009ba79bacd27e7dda9b2ceae5fa7d95370f5583f8601ff3bee5cf947f939da3b627c123c81fe5aacebf925163337a0d4f8a03724640618078cad248948a6040518a8152a254169460405191825287820152846040820152a2146116eb57005b6000918252526003600560406000200191825416179055005b6040513d6000823e3d90fd5b6108fc925061166d565b634e487b7160e01b600052601160045260246000fd5b608090600b8360087f2346e8d925f08bef41586c0448cb9db28a92557839fbbe0e1a14656b7e3937129501600360ff198254161790550161177181546118dc565b601f81116117dd575b5060267215995c9a599a58d85d1a5bdb8819985a5b1959606a1b0190556028604051918083528201527f5175616c6974792f4750532f50726f677265737320766572696669636174696f6040820152671b8819985a5b195960c21b6060820152a2005b6117f89082600052601f84600020910160051c810190611b22565b8561177a565b9050846115f2565b9150856115eb565b346100e35760203660031901126100e3576004356000526004602052602060018060a01b0360406000205416604051908152f35b346100e35760203660031901126100e35760043560005260006020526040600020805461187160018301611989565b9160028101549060018060a01b03600382015416906004810154600660ff600584015416920154926118b5604051978897885260e0602089015260e0880190611a2f565b946040870152606086015260808501526118ce81611a6f565b60a084015260c08301520390f35b90600182811c9216801561190c575b60208310146118f657565b634e487b7160e01b600052602260045260246000fd5b91607f16916118eb565b61012081019081106001600160401b0382111761028957604052565b604081019081106001600160401b0382111761028957604052565b602081019081106001600160401b0382111761028957604052565b90601f801991011681019081106001600160401b0382111761028957604052565b906040519182600082549261199d846118dc565b908184526001948581169081600014611a0c57506001146119c9575b50506119c792500383611968565b565b9093915060005260209081600020936000915b8183106119f45750506119c7935082010138806119b9565b855488840185015294850194879450918301916119dc565b9150506119c794506020925060ff191682840152151560051b82010138806119b9565b919082519283825260005b848110611a5b575050826000602080949584010152601f8019910116010190565b602081830181015184830182015201611a3a565b60041115611a7957565b634e487b7160e01b600052602160045260246000fd5b8054821015611aa75760005260206000200190600090565b634e487b7160e01b600052603260045260246000fd5b81601f820112156100e3578035906001600160401b0382116102895760405192611af1601f8401601f191660200185611968565b828452602083830101116100e357816000926020809301838601378301015290565b600019811461171a5760010190565b818110611b2d575050565b60008155600101611b22565b9190601f8111611b4857505050565b6119c7926000526020600020906020601f840160051c83019310611b74575b601f0160051c0190611b22565b9091508190611b67565b90611b8881611a6f565b60ff80198354169116179055565b15611b9d57565b60405162461bcd60e51b815260206004820152601960248201527f4e6f7420617574686f72697a65642073757065727669736f72000000000000006044820152606490fdfea2646970667358221220c42dcec6049d2e8937ab7d27004ebf04225e5b28729196e0b68413a1e30e11d864736f6c63430008140033",
  "linkReferences": {},
  "deployedLinkReferences": {}
}