{
  "_format": "hh-sol-artifact-1",
  "contractName": "FundTracker",
  "sourceName": "contracts/FundTracker.sol",
  "abi": [
    {
      "anonymous": false,
      "inputs": [
        {
          "indexed": true,
          "internalType": "uint256",
          "name": "expenditureId",
          "type": "uint256"
        },
        {
          "indexed": true,
          "internalType": "uint256",
          "name": "projectId",
          "type": "uint256"
        },
        {
          "indexed": false,
          "internalType": "uint256",
          "name": "amount",
          "type": "uint256"
        },
        {
          "indexed": false,
          "internalType": "address",
          "name": "recipient",
          "type": "address"
        }
      ],
      "name": "ExpenditureRecorded",
      "type": "event"
    },
    {
      "anonymous": false,
      "inputs": [
        {
          "indexed": true,
          "internalType": "uint256",
          "name": "projectId",
          "type": "uint256"
        },
        {
          "indexed": false,
          "internalType": "uint256",
          "name": "amount",
          "type": "uint256"
        }
      ],
      "name": "FundsAllocated",
      "type": "event"
    },
    {
      "anonymous": false,
      "inputs": [
        {
          "indexed": true,
          "internalType": "uint256",
          "name": "projectId",
          "type": "uint256"
        },
        {
          "indexed": false,
          "internalType": "address",
          "name": "contractor",
          "type": "address"
        },
        {
          "indexed": false,
          "internalType": "uint256",
          "name": "amount",
          "type": "uint256"
        },
        {
          "indexed": false,
          "internalType": "uint8",
          "name": "milestone",
          "type": "uint8"
        }
      ],
      "name": "FundsReleased",
      "type": "event"
    },
    {
      "anonymous": false,
      "inputs": [
        {
          "indexed": true,
          "internalType": "uint256",
          "name": "milestoneId",
          "type": "uint256"
        },
        {
          "indexed": false,
          "internalType": "uint256",
          "name": "amountReleased",
          "type": "uint256"
        }
      ],
      "name": "MilestoneApproved",
      "type": "event"
    },
    {
      "anonymous": false,
      "inputs": [
        {
          "indexed": true,
          "internalType": "uint256",
          "name": "milestoneId",
          "type": "uint256"
        },
        {
          "indexed": true,
          "internalType": "uint256",
          "name": "projectId",
          "type": "uint256"
        },
        {
          "indexed": false,
          "internalType": "uint8",
          "name": "percentage",
          "type": "uint8"
        },
        {
          "indexed": false,
          "internalType": "uint256",
          "name": "targetAmount",
          "type": "uint256"
        }
      ],
      "name": "MilestoneCreated",
      "type": "event"
    },
    {
      "anonymous": false,
      "inputs": [
        {
          "indexed": true,
          "internalType": "uint256",
          "name": "milestoneId",
          "type": "uint256"
        },
        {
          "indexed": false,
          "internalType": "string",
          "name": "reason",
          "type": "string"
        }
      ],
      "name": "MilestoneRejected",
      "type": "event"
    },
    {
      "anonymous": false,
      "inputs": [
        {
          "indexed": true,
          "internalType": "uint256",
          "name": "milestoneId",
          "type": "uint256"
        },
        {
          "indexed": true,
          "internalType": "uint256",
          "name": "tenderId",
          "type": "uint256"
        },
        {
          "indexed": false,
          "internalType": "uint8",
          "name": "percentage",
          "type": "uint8"
        }
      ],
      "name": "MilestoneSubmitted",
      "type": "event"
    },
    {
      "anonymous": false,
      "inputs": [
        {
          "indexed": true,
          "internalType": "uint256",
          "name": "projectId",
          "type": "uint256"
        },
        {
          "indexed": false,
          "internalType": "string",
          "name": "name",
          "type": "string"
        },
        {
          "indexed": false,
          "internalType": "uint256",
          "name": "budget",
          "type": "uint256"
        },
        {
          "indexed": false,
          "internalType": "address",
          "name": "admin",
          "type": "address"
        },
        {
          "indexed": false,
          "internalType": "uint256",
          "name": "timestamp",
          "type": "uint256"
        }
      ],
      "name": "ProjectCreated",
      "type": "event"
    },
    {
      "anonymous": false,
      "inputs": [
        {
          "indexed": true,
          "internalType": "uint256",
          "name": "tenderId",
          "type": "uint256"
        },
        {
          "indexed": false,
          "internalType": "address",
          "name": "revealedContractor",
          "type": "address"
        }
      ],
      "name": "TenderApproved",
      "type": "event"
    },
    {
      "anonymous": false,
      "inputs": [
        {
          "indexed": true,
          "internalType": "uint256",
          "name": "tenderId",
          "type": "uint256"
        },
        {
          "indexed": false,
          "internalType": "string",
          "name": "reason",
          "type": "string"
        }
      ],
      "name": "TenderRejected",
      "type": "event"
    },
    {
      "anonymous": false,
      "inputs": [
        {
          "indexed": true,
          "internalType": "uint256",
          "name": "tenderId",
          "type": "uint256"
        },
        {
          "indexed": true,
          "internalType": "uint256",
          "name": "projectId",
          "type": "uint256"
        },
        {
          "indexed": false,
          "internalType": "bytes32",
          "name": "contractorCommitment",
          "type": "bytes32"
        }
      ],
      "name": "TenderSubmitted",
      "type": "event"
    },
    {
      "inputs": [
        {
          "internalType": "uint256",
          "name": "_tenderId",
          "type": "uint256"
        },
        {
          "internalType": "address",
          "name": "_revealedContractor",
          "type": "address"
        },
        {
          "internalType": "bytes32",
          "name": "_nonce",
          "type": "bytes32"
        }
      ],
      "name": "approveTender",
      "outputs": [],
      "stateMutability": "nonpayable",
      "type": "function"
    },
    {
      "inputs": [
        {
          "internalType": "string",
          "name": "_name",
          "type": "string"
        },
        {
          "internalType": "uint256",
          "name": "_budget",
          "type": "uint256"
        },
        {
          "internalType": "bytes32",
          "name": "_supervisorCommitment",
          "type": "bytes32"
        },
        {
          "internalType": "string",
          "name": "_location",
          "type": "string"
        }
      ],
      "name": "createProject",
      "outputs": [
        {
          "internalType": "uint256",
          "name": "",
          "type": "uint256"
        }
      ],
      "stateMutability": "nonpayable",
      "type": "function"
    },
    {
      "inputs": [],
      "name": "expenditureCount",
      "outputs": [
        {
          "internalType": "uint256",
          "name": "",
          "type": "uint256"
        }
      ],
      "stateMutability": "view",
      "type": "function"
    },
    {
      "inputs": [
        {
          "internalType": "uint256",
          "name": "",
          "type": "uint256"
        }
      ],
      "name": "expenditures",
      "outputs": [
        {
          "internalType": "uint256",
          "name": "id",
          "type": "uint256"
        },
        {
          "internalType": "uint256",
          "name": "projectId",
          "type": "uint256"
        },
        {
          "internalType": "uint256",
          "name": "milestoneId",
          "type": "uint256"
        },
        {
          "internalType": "uint256",
          "name": "amount",
          "type": "uint256"
        },
        {
          "internalType": "string",
          "name": "description",
          "type": "string"
        },
        {
          "internalType": "address",
          "name": "recipient",
          "type": "address"
        },
        {
          "internalType": "uint256",
          "name": "timestamp",
          "type": "uint256"
        }
      ],
      "stateMutability": "view",
      "type": "function"
    },
    {
      "inputs": [
        {
          "internalType": "uint256",
          "name": "_milestoneId",
          "type": "uint256"
        }
      ],
      "name": "getMilestone",
      "outputs": [
        {
          "internalType": "uint256",
          "name": "id",
          "type": "uint256"
        },
        {
          "internalType": "uint256",
          "name": "projectId",
          "type": "uint256"
        },
        {
          "internalType": "uint256",
          "name": "tenderId",
          "type": "uint256"
        },
        {
          "internalType": "uint8",
          "name": "percentageComplete",
          "type": "uint8"
        },
        {
          "internalType": "uint256",
          "name": "targetAmount",
          "type": "uint256"
        },
        {
          "internalType": "uint256",
          "name": "spentAmount",
          "type": "uint256"
        },
        {
          "internalType": "enum FundTracker.MilestoneStatus",
          "name": "status",
          "type": "uint8"
        },
        {
          "internalType": "uint256",
          "name": "submittedAt",
          "type": "uint256"
        },
        {
          "internalType": "uint256",
          "name": "approvedAt",
          "type": "uint256"
        }
      ],
      "stateMutability": "view",
      "type": "function"
    },
    {
      "inputs": [
        {
          "internalType": "uint256",
          "name": "_milestoneId",
          "type": "uint256"
        }
      ],
      "name": "getMilestoneDocuments",
      "outputs": [
        {
          "internalType": "string",
          "name": "proofImagesIPFS",
          "type": "string"
        },
        {
          "internalType": "string",
          "name": "gpsCoordinates",
          "type": "string"
        },
        {
          "internalType": "string",
          "name": "architectureDocsIPFS",
          "type": "string"
        },
        {
          "internalType": "bytes32",
          "name": "qualityHash",
          "type": "bytes32"
        },
        {
          "internalType": "string",
          "name": "rejectionReason",
          "type": "string"
        }
      ],
      "stateMutability": "view",
      "type": "function"
    },
    {
      "inputs": [
        {
          "internalType": "uint256",
          "name": "_projectId",
          "type": "uint256"
        }
      ],
      "name": "getProject",
      "outputs": [
        {
          "components": [
            {
              "internalType": "uint256",
              "name": "id",
              "type": "uint256"
            },
            {
              "internalType": "string",
              "name": "name",
              "type": "string"
            },
            {
              "internalType": "uint256",
              "name": "budget",
              "type": "uint256"
            },
            {
              "internalType": "uint256",
              "name": "allocatedFunds",
              "type": "uint256"
            },
            {
              "internalType": "uint256",
              "name": "spentFunds",
              "type": "uint256"
            },
            {
              "internalType": "address",
              "name": "admin",
              "type": "address"
            },
            {
              "internalType": "bytes32",
              "name": "supervisorCommitment",
              "type": "bytes32"
            },
            {
              "internalType": "enum FundTracker.ProjectStatus",
              "name": "status",
              "type": "uint8"
            },
            {
              "internalType": "string",
              "name": "location",
              "type": "string"
            },
            {
              "internalType": "uint256",
              "name": "createdAt",
              "type": "uint256"
            },
            {
              "internalType": "bool",
              "name": "exists",
              "type": "bool"
            }
          ],
          "internalType": "struct FundTracker.Project",
          "name": "",
          "type": "tuple"
        }
      ],
      "stateMutability": "view",
      "type": "function"
    },
    {
      "inputs": [
        {
          "internalType": "uint256",
          "name": "_projectId",
          "type": "uint256"
        }
      ],
      "name": "getProjectExpenditures",
      "outputs": [
        {
          "internalType": "uint256[]",
          "name": "",
          "type": "uint256[]"
        }
      ],
      "stateMutability": "view",
      "type": "function"
    },
    {
      "inputs": [
        {
          "internalType": "uint256",
          "name": "_projectId",
          "type": "uint256"
        }
      ],
      "name": "getProjectMilestones",
      "outputs": [
        {
          "internalType": "uint256[]",
          "name": "",
          "type": "uint256[]"
        }
      ],
      "stateMutability": "view",
      "type": "function"
    },
    {
      "inputs": [
        {
          "internalType": "uint256",
          "name": "_projectId",
          "type": "uint256"
        }
      ],
      "name": "getProjectTenders",
      "outputs": [
        {
          "internalType": "uint256[]",
          "name": "",
          "type": "uint256[]"
        }
      ],
      "stateMutability": "view",
      "type": "function"
    },
    {
      "inputs": [
        {
          "internalType": "uint256",
          "name": "_tenderId",
          "type": "uint256"
        }
      ],
      "name": "getTender",
      "outputs": [
        {
          "components": [
            {
              "internalType": "uint256",
              "name": "id",
              "type": "uint256"
            },
            {
              "internalType": "uint256",
              "name": "projectId",
              "type": "uint256"
            },
            {
              "internalType": "bytes32",
              "name": "contractorCommitment",
              "type": "bytes32"
            },
            {
              "internalType": "string",
              "name": "encryptedContractorDataIPFS",
              "type": "string"
            },
            {
              "internalType": "string",
              "name": "tenderDocumentIPFS",
              "type": "string"
            },
            {
              "internalType": "string",
              "name": "qualityReportIPFS",
              "type": "string"
            },
            {
              "internalType": "enum FundTracker.TenderStatus",
              "name": "status",
              "type": "uint8"
            },
            {
              "internalType": "uint256",
              "name": "submittedAt",
              "type": "uint256"
            }
          ],
          "internalType": "struct FundTracker.Tender",
          "name": "",
          "type": "tuple"
        }
      ],
      "stateMutability": "view",
      "type": "function"
    },
    {
      "inputs": [
        {
          "internalType": "uint256",
          "name": "_tenderId",
          "type": "uint256"
        }
      ],
      "name": "getTenderDetails",
      "outputs": [
        {
          "internalType": "string",
          "name": "tenderDoc",
          "type": "string"
        },
        {
          "internalType": "string",
          "name": "qualityReport",
          "type": "string"
        },
        {
          "internalType": "enum FundTracker.TenderStatus",
          "name": "status",
          "type": "uint8"
        },
        {
          "internalType": "address",
          "name": "contractor",
          "type": "address"
        }
      ],
      "stateMutability": "view",
      "type": "function"
    },
    {
      "inputs": [],
      "name": "milestoneCount",
      "outputs": [
        {
          "internalType": "uint256",
          "name": "",
          "type": "uint256"
        }
      ],
      "stateMutability": "view",
      "type": "function"
    },
    {
      "inputs": [
        {
          "internalType": "uint256",
          "name": "",
          "type": "uint256"
        }
      ],
      "name": "milestones",
      "outputs": [
        {
          "internalType": "uint256",
          "name": "id",
          "type": "uint256"
        },
        {
          "internalType": "uint256",
          "name": "projectId",
          "type": "uint256"
        },
        {
          "internalType": "uint256",
          "name": "tenderId",
          "type": "uint256"
        },
        {
          "internalType": "uint8",
          "name": "percentageComplete",
          "type": "uint8"
        },
        {
          "internalType": "string",
          "name": "proofImagesIPFS",
          "type": "string"
        },
        {
          "internalType": "string",
          "name": "gpsCoordinates",
          "type": "string"
        },
        {
          "internalType": "string",
          "name": "architectureDocsIPFS",
          "type": "string"
        },
        {
          "internalType": "bytes32",
          "name": "qualityHash",
          "type": "bytes32"
        },
        {
          "internalType": "uint256",
          "name": "targetAmount",
          "type": "uint256"
        },
        {
          "internalType": "uint256",
          "name": "spentAmount",
          "type": "uint256"
        },
        {
          "internalType": "enum FundTracker.MilestoneStatus",
          "name": "status",
          "type": "uint8"
        },
        {
          "internalType": "uint256",
          "name": "submittedAt",
          "type": "uint256"
        },
        {
          "internalType": "uint256",
          "name": "approvedAt",
          "type": "uint256"
        },
        {
          "internalType": "string",
          "name": "rejectionReason",
          "type": "string"
        },
        {
          "internalType": "bool",
          "name": "exists",
          "type": "bool"
        }
      ],
      "stateMutability": "view",
      "type": "function"
    },
    {
      "inputs": [],
      "name": "projectCount",
      "outputs": [
        {
          "internalType": "uint256",
          "name": "",
          "type": "uint256"
        }
      ],
      "stateMutability": "view",
      "type": "function"
    },
    {
      "inputs": [
        {
          "internalType": "uint256",
          "name": "",
          "type": "uint256"
        },
        {
          "internalType": "uint256",
          "name": "",
          "type": "uint256"
        }
      ],
      "name": "projectExpenditures",
      "outputs": [
        {
          "internalType": "uint256",
          "name": "",
          "type": "uint256"
        }
      ],
      "stateMutability": "view",
      "type": "function"
    },
    {
      "inputs": [
        {
          "internalType": "uint256",
          "name": "",
          "type": "uint256"
        },
        {
          "internalType": "uint256",
          "name": "",
          "type": "uint256"
        }
      ],
      "name": "projectMilestones",
      "outputs": [
        {
          "internalType": "uint256",
          "name": "",
          "type": "uint256"
        }
      ],
      "stateMutability": "view",
      "type": "function"
    },
    {
      "inputs": [
        {
          "internalType": "uint256",
          "name": "",
          "type": "uint256"
        },
        {
          "internalType": "uint256",
          "name": "",
          "type": "uint256"
        }
      ],
      "name": "projectTenders",
      "outputs": [
        {
          "internalType": "uint256",
          "name": "",
          "type": "uint256"
        }
      ],
      "stateMutability": "view",
      "type": "function"
    },
    {
      "inputs": [
        {
          "internalType": "uint256",
          "name": "",
          "type": "uint256"
        }
      ],
      "name": "projects",
      "outputs": [
        {
          "internalType": "uint256",
          "name": "id",
          "type": "uint256"
        },
        {
          "internalType": "string",
          "name": "name",
          "type": "string"
        },
        {
          "internalType": "uint256",
          "name": "budget",
          "type": "uint256"
        },
        {
          "internalType": "uint256",
          "name": "allocatedFunds",
          "type": "uint256"
        },
        {
          "internalType": "uint256",
          "name": "spentFunds",
          "type": "uint256"
        },
        {
          "internalType": "address",
          "name": "admin",
          "type": "address"
        },
        {
          "internalType": "bytes32",
          "name": "supervisorCommitment",
          "type": "bytes32"
        },
        {
          "internalType": "enum FundTracker.ProjectStatus",
          "name": "status",
          "type": "uint8"
        },
        {
          "internalType": "string",
          "name": "location",
          "type": "string"
        },
        {
          "internalType": "uint256",
          "name": "createdAt",
          "type": "uint256"
        },
        {
          "internalType": "bool",
          "name": "exists",
          "type": "bool"
        }
      ],
      "stateMutability": "view",
      "type": "function"
    },
    {
      "inputs": [
        {
          "internalType": "uint256",
          "name": "_projectId",
          "type": "uint256"
        },
        {
          "internalType": "uint256",
          "name": "_milestoneId",
          "type": "uint256"
        },
        {
          "internalType": "uint256",
          "name": "_amount",
          "type": "uint256"
        },
        {
          "internalType": "string",
          "name": "_description",
          "type": "string"
        },
        {
          "internalType": "address",
          "name": "_recipient",
          "type": "address"
        }
      ],
      "name": "recordExpenditure",
      "outputs": [
        {
          "internalType": "uint256",
          "name": "",
          "type": "uint256"
        }
      ],
      "stateMutability": "nonpayable",
      "type": "function"
    },
    {
      "inputs": [
        {
          "internalType": "uint256",
          "name": "",
          "type": "uint256"
        }
      ],
      "name": "revealedContractors",
      "outputs": [
        {
          "internalType": "address",
          "name": "",
          "type": "address"
        }
      ],
      "stateMutability": "view",
      "type": "function"
    },
    {
      "inputs": [
        {
          "internalType": "uint256",
          "name": "_projectId",
          "type": "uint256"
        },
        {
          "internalType": "bytes32",
          "name": "_contractorCommitment",
          "type": "bytes32"
        },
        {
          "internalType": "string",
          "name": "_encryptedContractorDataIPFS",
          "type": "string"
        },
        {
          "internalType": "string",
          "name": "_tenderDocIPFS",
          "type": "string"
        },
        {
          "internalType": "string",
          "name": "_qualityReportIPFS",
          "type": "string"
        }
      ],
      "name": "submitAnonymousTender",
      "outputs": [
        {
          "internalType": "uint256",
          "name": "",
          "type": "uint256"
        }
      ],
      "stateMutability": "nonpayable",
      "type": "function"
    },
    {
      "inputs": [
        {
          "internalType": "uint256",
          "name": "_tenderId",
          "type": "uint256"
        },
        {
          "internalType": "uint8",
          "name": "_percentageComplete",
          "type": "uint8"
        },
        {
          "internalType": "string",
          "name": "_proofImagesIPFS",
          "type": "string"
        },
        {
          "internalType": "string",
          "name": "_gpsCoordinates",
          "type": "string"
        },
        {
          "internalType": "string",
          "name": "_architectureDocsIPFS",
          "type": "string"
        },
        {
          "internalType": "bytes32",
          "name": "_qualityHash",
          "type": "bytes32"
        }
      ],
      "name": "submitMilestone",
      "outputs": [
        {
          "internalType": "uint256",
          "name": "",
          "type": "uint256"
        }
      ],
      "stateMutability": "nonpayable",
      "type": "function"
    },
    {
      "inputs": [],
      "name": "tenderCount",
      "outputs": [
        {
          "internalType": "uint256",
          "name": "",
          "type": "uint256"
        }
      ],
      "stateMutability": "view",
      "type": "function"
    },
    {
      "inputs": [
        {
          "internalType": "uint256",
          "name": "",
          "type": "uint256"
        }
      ],
      "name": "tenders",
      "outputs": [
        {
          "internalType": "uint256",
          "name": "id",
          "type": "uint256"
        },
        {
          "internalType": "uint256",
          "name": "projectId",
          "type": "uint256"
        },
        {
          "internalType": "bytes32",
          "name": "contractorCommitment",
          "type": "bytes32"
        },
        {
          "internalType": "string",
          "name": "encryptedContractorDataIPFS",
          "type": "string"
        },
        {
          "internalType": "string",
          "name": "tenderDocumentIPFS",
          "type": "string"
        },
        {
          "internalType": "string",
          "name": "qualityReportIPFS",
          "type": "string"
        },
        {
          "internalType": "enum FundTracker.TenderStatus",
          "name": "status",
          "type": "uint8"
        },
        {
          "internalType": "uint256",
          "name": "submittedAt",
          "type": "uint256"
        }
      ],
      "stateMutability": "view",
      "type": "function"
    },
    {
      "inputs": [
        {
          "internalType": "uint256",
          "name": "_milestoneId",
          "type": "uint256"
        },
        {
          "internalType": "bool",
          "name": "_qualityVerified",
          "type": "bool"
        },
        {
          "internalType": "bool",
          "name": "_gpsVerified",
          "type": "bool"
        },
        {
          "internalType": "bool",
          "name": "_progressVerified",
          "type": "bool"
        }
      ],
      "name": "verifyAndReleaseFunds",
      "outputs": [],
      "stateMutability": "payable",
      "type": "function"
    },
    {
      "stateMutability": "payable",
      "type": "receive"
    }
  ],
  "bytecode": "0x608080604052346100295760008055600060015560006002556000600355612946908161002f8239f35b600080fdfe6080604052600436101561001b575b361561001957600080fd5b005b60003560e01c806301830c48146121785780630585c25e1461201a5780630681ca5514611ffc578063107046bd14611f1c5780631878c6bf14611ee857806318d62eab14611c0e5780631f05877614611bf05780632442e1cb14611b4057806330daa3a214611b2257806336fbad2614611b045780633af48e3214611a77578063460f1b8214611a46578063465e1def1461198557806352766d80146118ff57806353ee895d146117c55780636cb0adba14611794578063716c0bbc1461170e57806371e9d3cd1461136f578063793d2083146112aa578063868a654b1461126b5780639ecb0522146111d5578063a090cdfb14610a5b578063b34287cc146105e5578063e89e4ed6146104ae578063ee4c80a01461031f5763f0f3f2c80361000e573461031a57602036600319011261031a576004356000610140604051610163816124e0565b828152606060208201528260408201528260608201528260808201528260a08201528260c08201528260e082015260606101008201528261012082015201528060005260046020526101bf60ff600a60406000200154166127ec565b6000526004602052604060002060ff600a604051926101dd846124e0565b805484526101ed60018201612644565b602085015260028101546040850152600381015460608501526004810154608085015260058101546001600160a01b031660a0850152600681015460c08501526007810154831661023d816125ea565b60e085015261024e60088201612644565b610100850152600981015461012085015201541615156101408201526040518091602082528051602083015261014061030161029b602084015161016060408701526101808601906125aa565b6040840151606086015260608401516080860152608084015160a086015260018060a01b0360a08501511660c086015260c084015160e086015260e08401516102e3816125ea565b610100860152610100840151601f19868303016101208701526125aa565b9161012081015182850152015115156101608301520390f35b600080fd5b3461031a57606036600319011261031a576024356004356001600160a01b03821680830361031a5781600052602090600582526040600020600181015490610394604051858101903360601b82526014815261037a81612518565b51902083600052600486526006604060002001541461286b565b60405195848701906001600160601b03199060601b16815260443560348801526034875260608701908782106001600160401b0383111761049857816040528751902060028301540361045757507f08ef1e92b16bd2e2d0be9431db3a64223f23cce123adb96b1202ba2f18ac88db9495506006019060ff199160028382541617905585600052600b84526040600020836001600160601b0360a01b825416179055600052600483526001600760406000200191825416179055604051908152a2005b62461bcd60e51b81526064878101869052601960848901527f496e76616c696420636f6e74726163746f722072657665616c0000000000000060a489015290fd5b634e487b7160e01b600052604160045260246000fd5b3461031a57602036600319011261031a5760043560005260066020526040600020805490600181015490600281015490600381015460ff16600482016104f390612644565b9061050060058401612644565b9161050d60068501612644565b926007850154936008860154600987015491600a88015460ff1693600b89015495600c8a015497600d8b0161054190612644565b9a600e015460ff169b6040519e8f9e8f91825260208201526040015260608d01528b6101e06080819201528c01610577916125aa565b8b810360a08d0152610588916125aa565b8a810360c08c0152610599916125aa565b9560e08a01526101008901526101208801526105b4816125ea565b6101408701526101608601526101808501528381036101a08501526105d8916125aa565b9015156101c08301520390f35b3461031a5760a036600319011261031a576044356001600160401b03811161031a57610615903690600401612554565b6064356001600160401b03811161031a57610634903690600401612554565b6084356001600160401b03811161031a57610653903690600401612554565b91600435600052600460205261067360ff600a60406000200154166127ec565b600435600052600460205260ff60076040600020015416610693816125ea565b610a16576106a2600154612769565b9182600155604051926106b4846124fc565b808452602084019460043586526040850192602435845260608601948552608086015260a0850152600060c08501524260e0850152600052600560205260406000209383518555516001850155516002840155519182516001600160401b038111610498576107338161072a600385015461260a565b6003850161278f565b6020601f82116001146109a8578192939460009261099d575b50508160011b916000199060031b1c19161760038201555b60808201519182516001600160401b038111610498576107948161078b600486015461260a565b6004860161278f565b6020601f821160011461092f5781929394600092610924575b50508160011b916000199060031b1c19161760048301555b60a08101518051906001600160401b038211610498576107f5826107ec600587015461260a565b6005870161278f565b602090601f83116001146108af5791806007949260e0946000926108a4575b50508160011b916000199060031b1c19161760058501555b61084660c082015161083d816125ea565b600686016127d4565b01519101556004356000526008602052610867604060002060015490612831565b60206001546040516024358152817fcc51b0e9a11b4449f30eedbf3dc532b58ffe4ad8f2b816544631d5cd5c3c0e9a8460043593a3604051908152f35b015190508680610814565b906005850160005260206000209160005b601f198516811061090c5750926007949260019260e09583601f198116106108f3575b505050811b01600585015561082c565b015160001960f88460031b161c191690558680806108e3565b919260206001819286850151815501940192016108c0565b0151905084806107ad565b6004840160005260206000209060005b601f19841681106109855750600193949583601f1981161061096c575b505050811b0160048301556107c5565b015160001960f88460031b161c1916905584808061095c565b9091602060018192858a01518155019301910161093f565b01519050848061074c565b6003830160005260206000209060005b601f19841681106109fe5750600193949583601f198116106109e5575b505050811b016003820155610764565b015160001960f88460031b161c191690558480806109d5565b9091602060018192858a0151815501930191016109b8565b60405162461bcd60e51b815260206004820152601d60248201527f50726f6a656374206e6f7420616363657074696e672074656e646572730000006044820152606490fd5b3461031a5760c036600319011261031a5760243560ff8116810361031a576044356001600160401b03811161031a57610a98903690600401612554565b906064356001600160401b03811161031a57610ab8903690600401612554565b916084356001600160401b03811161031a57610ad8903690600401612554565b906004356000526005602052600260ff60066040600020015416610afb816125ea565b0361119a576004356000908152600b60205260409020546001600160a01b0316330361115557601460ff8416148015611148575b801561113b575b801561112e575b8015611121575b156110dc57610b54600254612769565b9081600255600435600052600560205260016040600020015492836000526004602052600260406000200154908160ff871681020460ff871614821517156110c65760405196876101e08101106001600160401b036101e08a011117610498576064936101e089016040528589528660208a015260043560408a015260ff881660608a0152608089015260a088015260c087015260a43560e087015260ff85160204610100850152600061012085015260016101408501524261016085015260006101808501526040518060208101106001600160401b036020830111176104985760208101604052600081526101a085015260016101c0850152600052600660205260406000208351815560208401516001820155604084015160028201556003810160ff60608601511660ff1982541617905560808401518051906001600160401b038211610498578190610cbb82610cb2600487015461260a565b6004870161278f565b602090601f831160011461105457600092611049575b50508160011b916000199060031b1c19161760048201555b60a08401518051906001600160401b038211610498578190610d12826107ec600587015461260a565b602090601f8311600114610fd757600092610fcc575b50508160011b916000199060031b1c19161760058201555b60c08401518051906001600160401b038211610498578190610d7282610d69600687015461260a565b6006870161278f565b602090601f8311600114610f5a57600092610f4f575b50508160011b916000199060031b1c19161760068201555b60e0840151600782015561010084015160088201556101208401516009820155610ddb610140850151610dd2816125ea565b600a83016127d4565b610160840151600b820155610180840151600c8201556101a08401519384516001600160401b03811161049857602095610e2582610e1c600d87015461260a565b600d870161278f565b8690601f8311600114610ed7579282600e936101c093610e779796600092610ecc575b50508160011b916000199060031b1c191617600d8501555b0151151591019060ff801983541691151516179055565b60005260098252610e8f604060002060025490612831565b6002549060ff60405191168152817fa4f370de0d910b9e1634436568274edd60715ade03e4cf084efd418a29349d888460043593a3604051908152f35b015190508a80610e48565b90600d8501600052876000209160005b601f1985168110610f385750836101c093610e77979693600193600e97601f19811610610f1f575b505050811b01600d850155610e60565b015160001960f88460031b161c191690558a8080610f0f565b919289600181928685015181550194019201610ee7565b015190508680610d88565b9250600684016000526020600020906000935b601f1984168510610fb1576001945083601f19811610610f98575b505050811b016006820155610da0565b015160001960f88460031b161c19169055868080610f88565b81810151835560209485019460019093019290910190610f6d565b015190508680610d28565b9250600584016000526020600020906000935b601f198416851061102e576001945083601f19811610611015575b505050811b016005820155610d40565b015160001960f88460031b161c19169055868080611005565b81810151835560209485019460019093019290910190610fea565b015190508680610cd1565b9250600484016000526020600020906000935b601f19841685106110ab576001945083601f19811610611092575b505050811b016004820155610ce9565b015160001960f88460031b161c19169055868080611082565b81810151835560209485019460019093019290910190611067565b634e487b7160e01b600052601160045260246000fd5b60405162461bcd60e51b815260206004820152601c60248201527f496e76616c6964206d696c6573746f6e652070657263656e74616765000000006044820152606490fd5b50606460ff841614610b44565b50605060ff841614610b3d565b50603c60ff841614610b36565b50602860ff841614610b2f565b60405162461bcd60e51b815260206004820152601760248201527f4e6f742061737369676e656420636f6e74726163746f720000000000000000006044820152606490fd5b60405162461bcd60e51b815260206004820152601360248201527215195b99195c881b9bdd08185c1c1c9bdd9959606a1b6044820152606490fd5b3461031a5760208060031936011261031a57600435806000526004825261120660ff600a60406000200154166127ec565b60005260088152604060002090604051908181845491828152019360005281600020916000905b828210611254576112508561124481890382612533565b6040519182918261272e565b0390f35b83548652948501946001938401939091019061122d565b3461031a57611279366126ea565b90600052600a6020526040600020805482101561031a5760209161129c91612700565b90546040519160031b1c8152f35b3461031a57602036600319011261031a576004358060005260066020526112db60ff600e60406000200154166128c4565b6000526006602052611340604060002061125060078201546112ff60048401612644565b9261135c61130f60058301612644565b9161134e61132b600d61132460068501612644565b9301612644565b9360405198899860a08a5260a08a01906125aa565b9088820360208a01526125aa565b9086820360408801526125aa565b91606085015283820360808501526125aa565b3461031a5760a036600319011261031a576001600160401b0360643581811161031a576113a0903690600401612554565b906001600160a01b036084358181169081900361031a576004359182600052602094600486526113da60ff600a60406000200154166127ec565b83600052600486528160056040600020015416331480156116d9575b156116a35783600052600486526040600020916044359561141b8760048601546128b7565b60038095015410611652576114308454612769565b908185556040519260e084019184831081841117610498578a926040528385528285019589875260408601966024359788815260608801918d835260808901938452600760a08a01978d895260c08b0199428b52600052526040600020985189555160018901555160028801555188870155519081519081116104985760048601916114c6826114c0855461260a565b8561278f565b8c908d601f84116001146115be575092827f13780f32aef756aa7b54bf1925480ed3b26bedf45cb3ac9ad99ca2f493bc02c99a9896936006969360409b99966000926115b3575b50508160011b91600019908b1b1c19161790555b600585019151166001600160601b0360a01b825416179055519101558015158061159a575b611579575b5084600052600a875261156382600020825490612831565b54948593825191825287820152a3604051908152f35b60005260068752600982600020016115928782546128b7565b90558761154b565b50806000526006885260ff600e84600020015416611546565b01519050388061150d565b91908460005282600020926000601f198616915b82821061163a575050936006969360409b999693600193837f13780f32aef756aa7b54bf1925480ed3b26bedf45cb3ac9ad99ca2f493bc02c99f9d9b9810611622575b505050811b019055611521565b0151600019838d1b60f8161c19169055388080611615565b806001869782949787015181550196019401906115d2565b60405162461bcd60e51b815260048101899052602360248201527f457870656e646974757265206578636565647320616c6c6f63617465642066756044820152626e647360e81b6064820152608490fd5b60405162461bcd60e51b815260048101879052600e60248201526d139bdd08185d5d1a1bdc9a5e995960921b6044820152606490fd5b50604051868101903360601b8252601481526116f481612518565b5190208460005260048752600660406000200154146113f6565b3461031a5760208060031936011261031a57600435806000526004825261173f60ff600a60406000200154166127ec565b600052600a8152604060002090604051908181845491828152019360005281600020916000905b82821061177d576112508561124481890382612533565b835486529485019460019384019390910190611766565b3461031a576117a2366126ea565b9060005260096020526040600020805482101561031a5760209161129c91612700565b3461031a57602036600319011261031a576118c46004358060005260056020526040600020604051906117f7826124fc565b80548252600181015460208301526002810154604083015261181b60038201612644565b606083015261182c60048201612644565b9260808301938452600261184260058401612644565b9460a0850195865260ff6006850154169460e0600760c0830196611865896125ea565b88885201549101525194519261187a856125ea565b51611884816125ea565b61188d816125ea565b036118f3576000908152600b60205260409020546001600160a01b0316906118d2905b6040519586956080875260808701906125aa565b9085820360208701526125aa565b916118dc816125ea565b60408401526001600160a01b031660608301520390f35b506118d26000916118b0565b3461031a5760208060031936011261031a57600435806000526004825261193060ff600a60406000200154166127ec565b60005260098152604060002090604051908181845491828152019360005281600020916000905b82821061196e576112508561124481890382612533565b835486529485019460019384019390910190611957565b3461031a57602036600319011261031a576004356000526005602052604060002080546001820154916002810154611a2e6119c260038401612644565b611a206119d160048601612644565b611a126119e060058801612644565b93600760ff60068a015416980154966040519a8b9a8b5260208b015260408a01526101008060608b01528901906125aa565b9087820360808901526125aa565b9085820360a08701526125aa565b91611a38816125ea565b60c084015260e08301520390f35b3461031a57611a54366126ea565b9060005260086020526040600020805482101561031a5760209161129c91612700565b3461031a57602036600319011261031a576004356000526007602052604060002080546001820154916002810154611af56003830154611ab960048501612644565b90600660018060a01b0360058701541695015493604051978897885260208801526040870152606086015260e0608086015260e08501906125aa565b9160a084015260c08301520390f35b3461031a57600036600319011261031a576020600054604051908152f35b3461031a57600036600319011261031a576020600354604051908152f35b3461031a57602036600319011261031a57600435806000526006602052611b7160ff600e60406000200154166128c4565b60005260066020526101206040600020805490600181015490600281015460ff600383015416600883015460098401549160ff600a8601541693600c600b87015496015496604051988952602089015260408801526060870152608086015260a0850152611bde816125ea565b60c084015260e0830152610100820152f35b3461031a57600036600319011261031a576020600154604051908152f35b608036600319011261031a57602435600435811515820361031a5760443591821515830361031a5760643590811515820361031a578260005260209060068252604060002092600184015495611c91604051858101903360601b825260148152611c7781612518565b51902088600052600486526006604060002001541461286b565b82611ee0575b5081611ed8575b5015611e0b57600a820160ff199060028282541617905542600c8401556008830154906002840154600052600b8352600360018060a01b036040600020541694876000526004855281604060002001611cf88582546128b7565b905587600052600485526004604060002001611d158582546128b7565b90550190606460ff83541614600014611ded57866000526004845260036007604060002001918254161790555b81471015611db2575b9060ff83927fcd3c5e4379009ba79bacd27e7dda9b2ceae5fa7d95370f5583f8601ff3bee5cf967f939da3b627c123c81fe5aacebf925163337a0d4f8a03724640618078cad2489460609796604051868152a25416916040519384528301526040820152a2005b929190600081848115611de3575b600092839283928392f115611dd757909192611d4b565b6040513d6000823e3d90fd5b6108fc9250611dc0565b86600052600484526002600760406000200191825416179055611d42565b7f2346e8d925f08bef41586c0448cb9db28a92557839fbbe0e1a14656b7e393712929350600d82600a60809401600360ff1982541617905501611e4e815461260a565b601f8111611eb4575b50605181556000526001816000207f5175616c6974792f4750532f50726f677265737320766572696669636174696f90818155671b8819985a5b195960c21b928391015560286040519380855284015260408301526060820152a2005b611ed290826000526002601f85600020920160051c82019101612778565b85611e57565b905085611c9e565b915086611c97565b3461031a57602036600319011261031a57600435600052600b602052602060018060a01b0360406000205416604051908152f35b3461031a57602036600319011261031a57600435600052600460205260406000208054611f4b60018301612644565b916002810154611fe9600383015491600484015460018060a01b03600586015416600686015460ff60078801541691611f8660088901612644565b9360ff600a60098b01549a01541697611fb36040519c8d9c8d5260208d61016091829101528d01906125aa565b9660408c015260608b015260808a015260a089015260c0880152611fd6816125ea565b60e08701528582036101008701526125aa565b9161012084015215156101408301520390f35b3461031a57600036600319011261031a576020600254604051908152f35b3461031a5760208060031936011261031a57604051612038816124fc565b6000815260008282015260006040820152600060e060609283808201528360808201528360a08201528260c0820152015260043560005260058252604060002060405191612085836124fc565b81548352600182015484840190815261215f6002840154604086019081526120af60038601612644565b8487019081526120c160048701612644565b94608088019586526120d560058801612644565b9260a08901938452600760ff60068a0154169860c08b01996120f6816125ea565b8a5201549560e08a019687526040519a8b9a818c5251908b01525160408a01525190880152519361214e612138610100968760808b01526101208a01906125aa565b915191601f1992838a83030160a08b01526125aa565b9151908783030160c08801526125aa565b925161216a816125ea565b60e085015251908301520390f35b3461031a57608036600319011261031a576004356001600160401b03811161031a576121a8903690600401612554565b6064356001600160401b03811161031a576121c7903690600401612554565b6121d2600054612769565b9081600055604051916121e4836124e0565b8083526020830191848352602435604085015260006060850152600060808501523360a085015260443560c0850152600060e0850152610100840152426101208401526001610140840152600052600460205260406000209082518255519283516001600160401b0381116104985761226d81612264600186015461260a565b6001860161278f565b6020601f8211600114612471578192939495600092612466575b50508160011b916000199060031b1c19161760018301555b6040830151600283015560608301516003830155608083015160048301556005820160018060a01b0360a0850151166001600160601b0360a01b82541617905560c0830151600683015561230360e08401516122fa816125ea565b600784016127d4565b60088201926101008101519384516001600160401b03811161049857602095612330826114c0855461260a565b8690601f83116001146123f257936123c9969383600a946101409461238e986000926123e7575b50508160011b916000199060031b1c19161790555b61012081015160098501550151151591019060ff801983541691151516179055565b7fe12127e830a916393848200f5a64634469c00a020e37627666649822a07a61bd6000549283926040519182916080835260808301906125aa565b602435878301523360408301524260608301520390a2604051908152f35b015190508b80612357565b90601f1983169184600052886000209260005b81811061244f5750846101409461238e98946123c99b9894600a9860019510612436575b505050811b01905561236c565b015160001960f88460031b161c191690558b8080612429565b92938a600181928786015181550195019301612405565b015190508580612287565b6001840160005260206000209060005b601f19841681106124c8575060019394959683601f198116106124af575b505050811b01600183015561229f565b015160001960f88460031b161c1916905585808061249f565b9091602060018192858b015181550193019101612481565b61016081019081106001600160401b0382111761049857604052565b61010081019081106001600160401b0382111761049857604052565b604081019081106001600160401b0382111761049857604052565b90601f801991011681019081106001600160401b0382111761049857604052565b81601f8201121561031a578035906001600160401b0382116104985760405192612588601f8401601f191660200185612533565b8284526020838301011161031a57816000926020809301838601378301015290565b919082519283825260005b8481106125d6575050826000602080949584010152601f8019910116010190565b6020818301810151848301820152016125b5565b600411156125f457565b634e487b7160e01b600052602160045260246000fd5b90600182811c9216801561263a575b602083101461262457565b634e487b7160e01b600052602260045260246000fd5b91607f1691612619565b90604051918260008254926126588461260a565b9081845260019485811690816000146126c75750600114612684575b505061268292500383612533565b565b9093915060005260209081600020936000915b8183106126af57505061268293508201013880612674565b85548884018501529485019487945091830191612697565b91505061268294506020925060ff191682840152151560051b8201013880612674565b604090600319011261031a576004359060243590565b80548210156127185760005260206000200190600090565b634e487b7160e01b600052603260045260246000fd5b6020908160408183019282815285518094520193019160005b828110612755575050505090565b835185529381019392810192600101612747565b60001981146110c65760010190565b818110612783575050565b60008155600101612778565b9190601f811161279e57505050565b612682926000526020600020906020601f840160051c830193106127ca575b601f0160051c0190612778565b90915081906127bd565b906127de816125ea565b60ff80198354169116179055565b156127f357565b60405162461bcd60e51b8152602060048201526016602482015275141c9bda9958dd08191bd95cc81b9bdd08195e1a5cdd60521b6044820152606490fd5b8054680100000000000000008110156104985761285391600182018155612700565b819291549060031b91821b91600019901b1916179055565b1561287257565b60405162461bcd60e51b815260206004820152601960248201527f4e6f7420617574686f72697a65642073757065727669736f72000000000000006044820152606490fd5b919082018092116110c657565b156128cb57565b60405162461bcd60e51b815260206004820152601860248201527f4d696c6573746f6e6520646f6573206e6f7420657869737400000000000000006044820152606490fdfea26469706673582212203b15bf24c1559e57ba9e60841a30343b325693a9a1d4c8d6f6b9a110d67e94d464736f6c63430008140033",
  "linkReferences": {},
  "deployedLinkReferences": {}
}