{
  "_format": "hh-sol-artifact-1",
  "contractName": "ApprovalWorkflow",
  "sourceName": "contracts/ApprovalWorkflow.sol",
  "abi": [
    {
      "inputs": [
        {
          "internalType": "address",
          "name": "_projectRegistryAddress",
          "type": "address"
        }
      ],
      "stateMutability": "nonpayable",
      "type": "constructor"
    },
    {
      "inputs": [],
      "name": "AccessControlBadConfirmation",
      "type": "error"
    },
    {
      "inputs": [
        {
          "internalType": "address",
          "name": "account",
          "type": "address"
        },
        {
          "internalType": "bytes32",
          "name": "neededRole",
          "type": "bytes32"
        }
      ],
      "name": "AccessControlUnauthorizedAccount",
      "type": "error"
    },
    {
      "inputs": [],
      "name": "ReentrancyGuardReentrantCall",
      "type": "error"
    },
    {
      "anonymous": false,
      "inputs": [
        {
          "indexed": true,
          "internalType": "uint256",
          "name": "projectId",
          "type": "uint256"
        },
        {
          "indexed": true,
          "internalType": "address",
          "name": "authority",
          "type": "address"
        }
      ],
      "name": "AuthorityAssigned",
      "type": "event"
    },
    {
      "anonymous": false,
      "inputs": [
        {
          "indexed": true,
          "internalType": "address",
          "name": "authority",
          "type": "address"
        }
      ],
      "name": "AuthorityRegistered",
      "type": "event"
    },
    {
      "anonymous": false,
      "inputs": [
        {
          "indexed": true,
          "internalType": "address",
          "name": "authority",
          "type": "address"
        }
      ],
      "name": "AuthorityRemoved",
      "type": "event"
    },
    {
      "anonymous": false,
      "inputs": [
        {
          "indexed": true,
          "internalType": "uint256",
          "name": "projectId",
          "type": "uint256"
        }
      ],
      "name": "MultiSigApprovalCompleted",
      "type": "event"
    },
    {
      "anonymous": false,
      "inputs": [
        {
          "indexed": true,
          "internalType": "uint256",
          "name": "projectId",
          "type": "uint256"
        },
        {
          "indexed": true,
          "internalType": "address",
          "name": "authority",
          "type": "address"
        },
        {
          "indexed": false,
          "internalType": "uint256",
          "name": "timestamp",
          "type": "uint256"
        },
        {
          "indexed": false,
          "internalType": "string",
          "name": "comments",
          "type": "string"
        }
      ],
      "name": "ProjectApproved",
      "type": "event"
    },
    {
      "anonymous": false,
      "inputs": [
        {
          "indexed": true,
          "internalType": "uint256",
          "name": "projectId",
          "type": "uint256"
        },
        {
          "indexed": true,
          "internalType": "address",
          "name": "authority",
          "type": "address"
        },
        {
          "indexed": false,
          "internalType": "string",
          "name": "reason",
          "type": "string"
        }
      ],
      "name": "ProjectRejected",
      "type": "event"
    },
    {
      "anonymous": false,
      "inputs": [
        {
          "indexed": true,
          "internalType": "uint256",
          "name": "projectId",
          "type": "uint256"
        },
        {
          "indexed": true,
          "internalType": "address",
          "name": "authority",
          "type": "address"
        },
        {
          "indexed": false,
          "internalType": "string",
          "name": "comments",
          "type": "string"
        }
      ],
      "name": "RevisionRequested",
      "type": "event"
    },
    {
      "anonymous": false,
      "inputs": [
        {
          "indexed": true,
          "internalType": "bytes32",
          "name": "role",
          "type": "bytes32"
        },
        {
          "indexed": true,
          "internalType": "bytes32",
          "name": "previousAdminRole",
          "type": "bytes32"
        },
        {
          "indexed": true,
          "internalType": "bytes32",
          "name": "newAdminRole",
          "type": "bytes32"
        }
      ],
      "name": "RoleAdminChanged",
      "type": "event"
    },
    {
      "anonymous": false,
      "inputs": [
        {
          "indexed": true,
          "internalType": "bytes32",
          "name": "role",
          "type": "bytes32"
        },
        {
          "indexed": true,
          "internalType": "address",
          "name": "account",
          "type": "address"
        },
        {
          "indexed": true,
          "internalType": "address",
          "name": "sender",
          "type": "address"
        }
      ],
      "name": "RoleGranted",
      "type": "event"
    },
    {
      "anonymous": false,
      "inputs": [
        {
          "indexed": true,
          "internalType": "bytes32",
          "name": "role",
          "type": "bytes32"
        },
        {
          "indexed": true,
          "internalType": "address",
          "name": "account",
          "type": "address"
        },
        {
          "indexed": true,
          "internalType": "address",
          "name": "sender",
          "type": "address"
        }
      ],
      "name": "RoleRevoked",
      "type": "event"
    },
    {
      "anonymous": false,
      "inputs": [
        {
          "indexed": true,
          "internalType": "uint256",
          "name": "projectId",
          "type": "uint256"
        },
        {
          "indexed": true,
          "internalType": "address",
          "name": "secondAuthority",
          "type": "address"
        }
      ],
      "name": "SecondAuthorityAssigned",
      "type": "event"
    },
    {
      "inputs": [],
      "name": "DEFAULT_ADMIN_ROLE",
      "outputs": [
        {
          "internalType": "bytes32",
          "name": "",
          "type": "bytes32"
        }
      ],
      "stateMutability": "view",
      "type": "function"
    },
    {
      "inputs": [],
      "name": "HIGHER_AUTHORITY_ROLE",
      "outputs": [
        {
          "internalType": "bytes32",
          "name": "",
          "type": "bytes32"
        }
      ],
      "stateMutability": "view",
      "type": "function"
    },
    {
      "inputs": [],
      "name": "LARGE_PROJECT_THRESHOLD",
      "outputs": [
        {
          "internalType": "uint256",
          "name": "",
          "type": "uint256"
        }
      ],
      "stateMutability": "view",
      "type": "function"
    },
    {
      "inputs": [],
      "name": "MINIMUM_REVIEW_TIME",
      "outputs": [
        {
          "internalType": "uint256",
          "name": "",
          "type": "uint256"
        }
      ],
      "stateMutability": "view",
      "type": "function"
    },
    {
      "inputs": [
        {
          "internalType": "uint256",
          "name": "_projectId",
          "type": "uint256"
        },
        {
          "internalType": "string",
          "name": "_comments",
          "type": "string"
        }
      ],
      "name": "approveProject",
      "outputs": [],
      "stateMutability": "nonpayable",
      "type": "function"
    },
    {
      "inputs": [
        {
          "internalType": "address",
          "name": "",
          "type": "address"
        }
      ],
      "name": "authorityInfo",
      "outputs": [
        {
          "internalType": "address",
          "name": "authorityAddress",
          "type": "address"
        },
        {
          "internalType": "uint256",
          "name": "pendingReviews",
          "type": "uint256"
        },
        {
          "internalType": "uint256",
          "name": "totalReviewed",
          "type": "uint256"
        },
        {
          "internalType": "uint256",
          "name": "approvalCount",
          "type": "uint256"
        },
        {
          "internalType": "uint256",
          "name": "rejectionCount",
          "type": "uint256"
        },
        {
          "internalType": "bool",
          "name": "isActive",
          "type": "bool"
        },
        {
          "internalType": "uint256",
          "name": "lastAssignedTime",
          "type": "uint256"
        }
      ],
      "stateMutability": "view",
      "type": "function"
    },
    {
      "inputs": [],
      "name": "getActiveAuthorities",
      "outputs": [
        {
          "internalType": "address[]",
          "name": "",
          "type": "address[]"
        }
      ],
      "stateMutability": "view",
      "type": "function"
    },
    {
      "inputs": [
        {
          "internalType": "uint256",
          "name": "_projectId",
          "type": "uint256"
        }
      ],
      "name": "getAssignedAuthority",
      "outputs": [
        {
          "internalType": "address",
          "name": "",
          "type": "address"
        }
      ],
      "stateMutability": "view",
      "type": "function"
    },
    {
      "inputs": [
        {
          "internalType": "address",
          "name": "_authority",
          "type": "address"
        }
      ],
      "name": "getAuthorityWorkload",
      "outputs": [
        {
          "internalType": "uint256",
          "name": "pending",
          "type": "uint256"
        },
        {
          "internalType": "uint256",
          "name": "total",
          "type": "uint256"
        },
        {
          "internalType": "uint256",
          "name": "approved",
          "type": "uint256"
        },
        {
          "internalType": "uint256",
          "name": "rejected",
          "type": "uint256"
        }
      ],
      "stateMutability": "view",
      "type": "function"
    },
    {
      "inputs": [
        {
          "internalType": "uint256",
          "name": "_projectId",
          "type": "uint256"
        }
      ],
      "name": "getReviewRecord",
      "outputs": [
        {
          "components": [
            {
              "internalType": "uint256",
              "name": "projectId",
              "type": "uint256"
            },
            {
              "internalType": "address",
              "name": "authority",
              "type": "address"
            },
            {
              "internalType": "uint256",
              "name": "submittedAt",
              "type": "uint256"
            },
            {
              "internalType": "uint256",
              "name": "reviewedAt",
              "type": "uint256"
            },
            {
              "internalType": "bool",
              "name": "isApproved",
              "type": "bool"
            },
            {
              "internalType": "string",
              "name": "comments",
              "type": "string"
            },
            {
              "internalType": "bool",
              "name": "requiresMultiSig",
              "type": "bool"
            },
            {
              "internalType": "address",
              "name": "secondAuthority",
              "type": "address"
            },
            {
              "internalType": "bool",
              "name": "secondApproval",
              "type": "bool"
            }
          ],
          "internalType": "struct ApprovalWorkflow.ReviewRecord",
          "name": "",
          "type": "tuple"
        }
      ],
      "stateMutability": "view",
      "type": "function"
    },
    {
      "inputs": [
        {
          "internalType": "bytes32",
          "name": "role",
          "type": "bytes32"
        }
      ],
      "name": "getRoleAdmin",
      "outputs": [
        {
          "internalType": "bytes32",
          "name": "",
          "type": "bytes32"
        }
      ],
      "stateMutability": "view",
      "type": "function"
    },
    {
      "inputs": [
        {
          "internalType": "bytes32",
          "name": "role",
          "type": "bytes32"
        },
        {
          "internalType": "address",
          "name": "account",
          "type": "address"
        }
      ],
      "name": "grantRole",
      "outputs": [],
      "stateMutability": "nonpayable",
      "type": "function"
    },
    {
      "inputs": [
        {
          "internalType": "bytes32",
          "name": "role",
          "type": "bytes32"
        },
        {
          "internalType": "address",
          "name": "account",
          "type": "address"
        }
      ],
      "name": "hasRole",
      "outputs": [
        {
          "internalType": "bool",
          "name": "",
          "type": "bool"
        }
      ],
      "stateMutability": "view",
      "type": "function"
    },
    {
      "inputs": [
        {
          "internalType": "uint256",
          "name": "",
          "type": "uint256"
        }
      ],
      "name": "isUnderReview",
      "outputs": [
        {
          "internalType": "bool",
          "name": "",
          "type": "bool"
        }
      ],
      "stateMutability": "view",
      "type": "function"
    },
    {
      "inputs": [
        {
          "internalType": "uint256",
          "name": "",
          "type": "uint256"
        }
      ],
      "name": "projectAssignments",
      "outputs": [
        {
          "internalType": "address",
          "name": "",
          "type": "address"
        }
      ],
      "stateMutability": "view",
      "type": "function"
    },
    {
      "inputs": [],
      "name": "projectRegistry",
      "outputs": [
        {
          "internalType": "contract ProjectRegistry",
          "name": "",
          "type": "address"
        }
      ],
      "stateMutability": "view",
      "type": "function"
    },
    {
      "inputs": [
        {
          "internalType": "address",
          "name": "_authority",
          "type": "address"
        }
      ],
      "name": "registerAuthority",
      "outputs": [],
      "stateMutability": "nonpayable",
      "type": "function"
    },
    {
      "inputs": [
        {
          "internalType": "uint256",
          "name": "_projectId",
          "type": "uint256"
        },
        {
          "internalType": "string",
          "name": "_reason",
          "type": "string"
        }
      ],
      "name": "rejectProject",
      "outputs": [],
      "stateMutability": "nonpayable",
      "type": "function"
    },
    {
      "inputs": [
        {
          "internalType": "address",
          "name": "_authority",
          "type": "address"
        }
      ],
      "name": "removeAuthority",
      "outputs": [],
      "stateMutability": "nonpayable",
      "type": "function"
    },
    {
      "inputs": [
        {
          "internalType": "bytes32",
          "name": "role",
          "type": "bytes32"
        },
        {
          "internalType": "address",
          "name": "callerConfirmation",
          "type": "address"
        }
      ],
      "name": "renounceRole",
      "outputs": [],
      "stateMutability": "nonpayable",
      "type": "function"
    },
    {
      "inputs": [
        {
          "internalType": "uint256",
          "name": "_projectId",
          "type": "uint256"
        },
        {
          "internalType": "string",
          "name": "_comments",
          "type": "string"
        }
      ],
      "name": "requestRevision",
      "outputs": [],
      "stateMutability": "nonpayable",
      "type": "function"
    },
    {
      "inputs": [
        {
          "internalType": "uint256",
          "name": "",
          "type": "uint256"
        }
      ],
      "name": "reviewRecords",
      "outputs": [
        {
          "internalType": "uint256",
          "name": "projectId",
          "type": "uint256"
        },
        {
          "internalType": "address",
          "name": "authority",
          "type": "address"
        },
        {
          "internalType": "uint256",
          "name": "submittedAt",
          "type": "uint256"
        },
        {
          "internalType": "uint256",
          "name": "reviewedAt",
          "type": "uint256"
        },
        {
          "internalType": "bool",
          "name": "isApproved",
          "type": "bool"
        },
        {
          "internalType": "string",
          "name": "comments",
          "type": "string"
        },
        {
          "internalType": "bool",
          "name": "requiresMultiSig",
          "type": "bool"
        },
        {
          "internalType": "address",
          "name": "secondAuthority",
          "type": "address"
        },
        {
          "internalType": "bool",
          "name": "secondApproval",
          "type": "bool"
        }
      ],
      "stateMutability": "view",
      "type": "function"
    },
    {
      "inputs": [
        {
          "internalType": "bytes32",
          "name": "role",
          "type": "bytes32"
        },
        {
          "internalType": "address",
          "name": "account",
          "type": "address"
        }
      ],
      "name": "revokeRole",
      "outputs": [],
      "stateMutability": "nonpayable",
      "type": "function"
    },
    {
      "inputs": [
        {
          "internalType": "uint256",
          "name": "_projectId",
          "type": "uint256"
        }
      ],
      "name": "submitForApproval",
      "outputs": [
        {
          "internalType": "address",
          "name": "assignedAuthority",
          "type": "address"
        }
      ],
      "stateMutability": "nonpayable",
      "type": "function"
    },
    {
      "inputs": [
        {
          "internalType": "bytes4",
          "name": "interfaceId",
          "type": "bytes4"
        }
      ],
      "name": "supportsInterface",
      "outputs": [
        {
          "internalType": "bool",
          "name": "",
          "type": "bool"
        }
      ],
      "stateMutability": "view",
      "type": "function"
    }
  ],
  "bytecode": "0x6080346200008a57601f6200273338819003918201601f19168301916001600160401b038311848410176200008f578084926020946040528339810103126200008a57516001600160a01b038116908190036200008a5760018055600280546001600160a01b0319169190911790556200007933620000a5565b506040516125fc9081620001378239f35b600080fd5b634e487b7160e01b600052604160045260246000fd5b6001600160a01b031660008181527fad3228b676f7d3cd4284a5443f17f1962b36e491b30a40b2405849e597ba5fb5602052604081205490919060ff166200013257818052816020526040822081835260205260408220600160ff1982541617905533917f2f8788117e7eff1d82e926ec794901d17c78024a50270940304540a733656f0d8180a4600190565b509056fe608080604052600436101561001357600080fd5b600090813560e01c90816301ffc9a71461188957508063086a8a8714611569578063248a9ca31461153d578063279732a11461150a5780632cb0aa3114610c8f5780632f2ff15d14610c5257806336568abe14610c0a57806348c4267114610b5b57806349eee5861461097d578063532833ef146109545780635a33d8dc1461092b5780635dcad724146108fc57806365e450251461075d5780637f7e556e1461072857806387633209146106a457806391d14854146106595780639e65845914610634578063a217fddf14610618578063a36697d3146104db578063bdca5852146104ac578063d544e0101461038c578063d547741f1461034b578063e5315f3b146101f6578063e55e7f04146101d85763e6097ac61461013457600080fd5b346101d55760203660031901126101d5576080906001600160a01b03906040908261015d6119ec565b16815260046020522060405191610173836118f1565b8154168252600181015491826020820152600282015480604083015260038301549182606082015260c06006600486015495868985015260ff600582015416151560a08501520154910152604051938452602084015260408301526060820152f35b80fd5b50346101d557806003193601126101d5576020604051620151808152f35b50346101d5576020806003193601126103475760408051926102178461190c565b80845280838501528082850152806060850152806080850152606060a08501528060c08501528060e08501528061010080950152600435815260068352209160405180936102648261190c565b8054825260018060a01b039283600183015416938584019485526002830154926040850193845260038101546060860190815260ff6004830154169060808701911515825260066102b760058501611a3c565b9360a089019485520154958460c089019960ff891615158b5260ff8860e08c019b848c60081c168d52019960a81c16151589528b6040519d8e9d8e5251908d0152511660408b01525160608a015251608089015251151560a0880152519361032d610120958660c08a0152610140890190611b05565b9551151560e0880152511690850152511515908301520390f35b5080fd5b50346101d55760403660031901126101d55761038860043561036b6119d6565b90808452836020526103836001604086200154611bcc565b611da4565b5080f35b50346101d557602080600319360112610347576103a76119ec565b6103af611b92565b6001600160a01b03811680845260048352604084206005015490929060ff16156104715782845260048152600160408520015461042d578284526004905260408320600501805460ff1916905561040590611d0b565b507f272215cde179041f7a3e8da6f8aabc7c8fc1336ccd73aba698cb825a80d3be488280a280f35b6064906040519062461bcd60e51b82526004820152601d60248201527f417574686f72697479206861732070656e64696e6720726576696577730000006044820152fd5b6064906040519062461bcd60e51b825260048201526014602482015273417574686f72697479206e6f742061637469766560601b6044820152fd5b50346101d5576104d46104be36611964565b906104c7611b2a565b6104cf611f2a565b611fe8565b6001805580f35b50346101d5576104ea36611964565b906104f3611b2a565b8083526006602052600161052c60408520600760205261051960ff604088205416611f4d565b828060a01b039283910154163314611f99565b8251156105df57839060025416803b156103475781604051809263b13b620560e01b82528560048301526040602483015281838161056d604482018b611b05565b03925af180156105d4576105bc575b50507f5b517f0844e2b08cbcbb48d130fcb9f01f0a5222e23bc78370b27f73edd97b6e60405160208152806105b633956020830190611b05565b0390a380f35b6105c5906118de565b6105d057823861057c565b8280fd5b6040513d84823e3d90fd5b60405162461bcd60e51b815260206004820152601160248201527010dbdb5b595b9d1cc81c995c5d5a5c9959607a1b6044820152606490fd5b50346101d557806003193601126101d557602090604051908152f35b50346101d557806003193601126101d557602060405169021e19e0c9bab24000008152f35b50346101d55760403660031901126101d55760406106756119d6565b91600435815280602052209060018060a01b0316600052602052602060ff604060002054166040519015158152f35b50346101d55760203660031901126101d55760e0906001600160a01b0390604090826106ce6119ec565b168152600460205220908154169060018101549060028101546003820154600483015491600660ff600586015416940154946040519687526020870152604086015260608501526080840152151560a083015260c0820152f35b50346101d55760203660031901126101d55760209060043581526006825260016040818060a01b039220015416604051908152f35b50346101d557806003193601126101d557600380549082805b8381106108a057506107a061078a85611f04565b946107986040519687611928565b808652611f04565b6020938585019391601f19013685378291835b828110610805575050505060405193838594850191818652518092526040850193925b8281106107e557505050500390f35b83516001600160a01b0316855286955093810193928101926001016107d6565b610813819896979598611e19565b90546001600160a01b0391841b1c81168952600486526040892060059081015490919060ff16610853575b505061084990611f1b565b96939594966107b3565b61085e839693611e19565b905490851b1c1690875183101561088c5791610884918782610849951b8a010152611f1b565b93903861083e565b634e487b7160e01b8a52603260045260248afd5b6108ae819593949295611e19565b905490851b1c6001600160a01b031685526004602052604085206005015460ff166108e7575b6108dd90611f1b565b9390929193610776565b916108f46108dd91611f1b565b9290506108d4565b50346101d55760203660031901126101d55760ff60406020926004358152600784522054166040519015158152f35b50346101d557806003193601126101d5576002546040516001600160a01b039091168152602090f35b50346101d557806003193601126101d55760206040516000805160206125a78339815191528152f35b50346101d557602080600319360112610347576109986119ec565b6109a0611b92565b6001600160a01b03818116928315610b25578385526004815260ff600560408720015416610ae15760035468010000000000000000811015610acd5784610a9c610aa5959488946109f985600160069701600355611e19565b81549060031b908487831b921b1916179055604051958692610a1a846118f1565b8584528284018281526040850191838352604060608701948086526004608089019782895260c060a08b019a60018c52019b838d52835252209951166bffffffffffffffffffffffff60a01b8a5416178955516001890155516002880155516003870155516004860155511515600585019060ff801983541691151516179055565b51910155611bf2565b507f8ec6b4c704da9ea0a8bd9196f71626ec32c89805f3ff10486a6478353ef1cb348280a280f35b634e487b7160e01b86526041600452602486fd5b6064906040519062461bcd60e51b82526004820152601c60248201527f417574686f7269747920616c72656164792072656769737465726564000000006044820152fd5b6064906040519062461bcd60e51b82526004820152600f60248201526e496e76616c6964206164647265737360881b6044820152fd5b50346101d55760203660031901126101d5576040906004358152600660205220805460018060a01b0360ff8160018501541693610be5600282015491600381015484600483015416906006610bb260058501611a3c565b93015494604051998a998a5260208a015260408901526060880152151560808701526101208060a0880152860190611b05565b92828216151560c08601528160081c1660e085015260a81c1615156101008301520390f35b50346101d55760403660031901126101d557610c246119d6565b336001600160a01b03821603610c405761038890600435611da4565b60405163334bd91960e11b8152600490fd5b50346101d55760403660031901126101d557610388600435610c726119d6565b9080845283602052610c8a6001604086200154611bcc565b611c92565b50346101d55760203660031901126101d557610ca9611f2a565b6004358152600760205260ff6040822054166114c5576024600354610ccf811515611e66565b6002546040516334d1a86960e11b8152600480359082015292849184919082906001600160a01b03165afa9182156110f257839261122e575b50610d14811515611e66565b8291600019916008546001810180911161121a5790610d32916124cf565b90845b60035480821015610e0b578184018411610df557610d55908285016124cf565b610d5e81611e19565b905460039190911b1c6001600160a01b0316808852600460205260408820600581015460ff16610d9a575b505050610d9590611f1b565b610d35565b6001810154908782109081610dc4575b5015610d895760089290925595509350610d953880610d89565b600691500154610e1081018111610de157610e1001421138610daa565b634e487b7160e01b8a52601160045260248afd5b634e487b7160e01b600052601160045260246000fd5b8686846001600160a01b038216156111d5576001600160a01b03821680845260046020818152604080872042600690910155913586526005905280852080546001600160a01b0319169092179091555190610e658261190c565b600435825260018060a01b0383166020830152426040830152836060830152836080830152604051908160208101106001600160401b036020840111176111bf5781602069021e19e0c9bab2400000930160405285815260a0840152101560c08201528260e0820152826101008201526004358352600660205260408320815181556001810160018060a01b036020840151166bffffffffffffffffffffffff60a01b8254161790556040820151600282015560608201516003820155610f4160808301511515600483019060ff801983541691151516179055565b60a08201518051906001600160401b038211610acd57610f646005840154611a02565b601f811161117b575b50602090601f8311600114611108579180610100949260069489926110fd575b50508160011b916000199060031b1c19161760058201555b0191610fc360c08201511515849060ff801983541691151516179055565b60e08101518354610100600160a81b03191660089190911b610100600160a81b03161783550151815460ff60a81b191690151560a81b60ff60a81b16179055600480358352600760209081526040808520805460ff191660019081179091556001600160a01b038516865292909152832001805461104090611f1b565b905560025482906001600160a01b0316803b156103475781906084604051809481936352120ee760e01b8352600435600484015260016024840152606060448401528160648401525af180156110f2576110de575b604051602090836001600160a01b0381166004357f68ca2cf0b59d4561e875f2e3ceebb11bfc3dcb92785dcb3a74f63fe140fafc6f8880a3600180556001600160a01b03168152f35b6110e883916118de565b6103475782611095565b6040513d85823e3d90fd5b015190508880610f8d565b906005840187526020872091875b601f1985168110611163575092610100949260019260069583601f1981161061114a575b505050811b016005820155610fa5565b015160001960f88460031b161c1916905588808061113a565b91926020600181928685015181550194019201611116565b60058401875260208720601f840160051c8101602085106111b8575b601f830160051c820181106111ad575050610f6d565b888155600101611197565b5080611197565b634e487b7160e01b600052604160045260246000fd5b60405162461bcd60e51b815260206004820152601b60248201527f4e6f207375697461626c6520617574686f7269747920666f756e6400000000006044820152606490fd5b634e487b7160e01b86526011600452602486fd5b9091503d908184823e6112418282611928565b60e08183810103126114c15760208101516001600160401b0381116114bd5761126f90838301908301611ee7565b5060408101516001600160401b0381116114bd5761129290838301908301611ee7565b506060810151916006608083015110156114bd5760c0820151906001600160401b0382116114b95760e082840182850103126114b957604051926112d5846118f1565b828101516001600160401b038111611474576112f8908383019085840101611ee7565b8452602083820101516001600160401b03811161147457611320908383019085840101611ee7565b6020850152604083820101516001600160401b03811161147457828201601f8286850101011215611474578084830101519061135b82611f04565b916113696040519384611928565b808352602083019185850160208360051b838a8901010101116114b5576020818887010101925b60208360051b838a8901010101841061147857505050506040850152606083820101516001600160401b03811161147457828201601f8286850101011215611474578382010180516113e9918385019190602001611eb2565b6060850152608083820101516001600160401b03811161147457611414908383019085840101611ee7565b608085015260a083820101516001600160401b0381116114745761143f908383019085840101611ee7565b60a085015260c083820101516001600160401b0381116114745760c09361146a938301920101611ee7565b9101529038610d08565b8780fd5b8351906001600160401b0382116114b15760208092916114a489838095888f8f85019401010101611ee7565b8152019401939050611390565b8c80fd5b8a80fd5b8580fd5b8480fd5b8380fd5b60405162461bcd60e51b815260206004820152601c60248201527f50726f6a65637420616c726561647920756e64657220726576696577000000006044820152606490fd5b50346101d55760203660031901126101d557602090600435815260058252604060018060a01b0391205416604051908152f35b50346101d55760203660031901126101d557600160406020926004358152808452200154604051908152f35b50346101d55761157836611964565b90611581611b2a565b611589611f2a565b808352602090600682526040842092600783526115ac60ff604087205416611f4d565b6001848101805491956001600160a01b03926115cb9084163314611f99565b835115611844576005600482019160ff19928381541690554260038201550184516001600160401b0381116118305790849392916116098254611a02565b601f81116117da575b5088601f821160011461177b578b9082611770575b50600019600383901b1c1916908a1b1790555b8589526007875260408920908154169055818154168852600486528660408920016116658154611fdb565b905581815416885260048652600260408920016116828154611f1b565b905554168652600484526004604087200161169d8154611f1b565b905560025416803b156114b9578560405180926352120ee760e01b825285600483015260036024830152606060448301528183816116de6064820189611b05565b03925af180156117655761172e575b506117267f5e5a832cb1c5df272bcf782f38cea3622f9769d9af7d6001c06059a7e609fcc9916040519182918683523396830190611b05565b0390a3805580f35b7f5e5a832cb1c5df272bcf782f38cea3622f9769d9af7d6001c06059a7e609fcc9919561175d611726926118de565b9591506116ed565b6040513d88823e3d90fd5b905087015138611627565b828c52898c208b9291601f1983168e5b8d8282106117c157505083116117a8575b5050811b01905561163a565b89015160001960f88460031b161c19169055388061179c565b838d015185558b9a508f9690940193928301920161178b565b909180939495508b52888b20601f830160051c8101918a8410611826575b87969594939291601f8d920160051c01915b828110611818575050611612565b8d81558897508c910161180a565b90915081906117f8565b634e487b7160e01b8a52604160045260248afd5b60405162461bcd60e51b815260048101879052601960248201527f52656a656374696f6e20726561736f6e207265717569726564000000000000006044820152606490fd5b9050346103475760203660031901126103475760043563ffffffff60e01b81168091036105d05760209250637965db0b60e01b81149081156118cd575b5015158152f35b6301ffc9a760e01b149050386118c6565b6001600160401b0381116111bf57604052565b60e081019081106001600160401b038211176111bf57604052565b61012081019081106001600160401b038211176111bf57604052565b90601f801991011681019081106001600160401b038211176111bf57604052565b6001600160401b0381116111bf57601f01601f191660200190565b9060406003198301126119d157600435916024356001600160401b0381116119d157816023820112156119d1578060040135906119a082611949565b926119ae6040519485611928565b828452602483830101116119d15781600092602460209301838601378301015290565b600080fd5b602435906001600160a01b03821682036119d157565b600435906001600160a01b03821682036119d157565b90600182811c92168015611a32575b6020831014611a1c57565b634e487b7160e01b600052602260045260246000fd5b91607f1691611a11565b9060405191826000825492611a5084611a02565b908184526001948581169081600014611abf5750600114611a7c575b5050611a7a92500383611928565b565b9093915060005260209081600020936000915b818310611aa7575050611a7a93508201013880611a6c565b85548884018501529485019487945091830191611a8f565b915050611a7a94506020925060ff191682840152151560051b8201013880611a6c565b60005b838110611af55750506000910152565b8181015183820152602001611ae5565b90602091611b1e81518092818552858086019101611ae2565b601f01601f1916010190565b3360009081527fa642ad453c16afa8c512cd8f860db756affda0e2a0655347b8fbbe4e7710679160205260409020546000805160206125a78339815191529060ff1615611b745750565b6044906040519063e2517d3f60e01b82523360048301526024820152fd5b3360009081527fad3228b676f7d3cd4284a5443f17f1962b36e491b30a40b2405849e597ba5fb5602052604081205460ff1615611b745750565b80600052600060205260406000203360005260205260ff6040600020541615611b745750565b6001600160a01b031660008181527fa642ad453c16afa8c512cd8f860db756affda0e2a0655347b8fbbe4e7710679160205260408120549091906000805160206125a78339815191529060ff16611c8d57808352826020526040832082845260205260408320600160ff198254161790557f2f8788117e7eff1d82e926ec794901d17c78024a50270940304540a733656f0d339380a4600190565b505090565b9060009180835282602052604083209160018060a01b03169182845260205260ff60408420541615600014611c8d57808352826020526040832082845260205260408320600160ff198254161790557f2f8788117e7eff1d82e926ec794901d17c78024a50270940304540a733656f0d339380a4600190565b6001600160a01b031660008181527fa642ad453c16afa8c512cd8f860db756affda0e2a0655347b8fbbe4e7710679160205260408120549091906000805160206125a78339815191529060ff1615611c8d5780835282602052604083208284526020526040832060ff1981541690557ff6391f5c32d9c69d2a47ea670b442974b53935d1edc7fd64eb21e047a839171b339380a4600190565b9060009180835282602052604083209160018060a01b03169182845260205260ff604084205416600014611c8d5780835282602052604083208284526020526040832060ff1981541690557ff6391f5c32d9c69d2a47ea670b442974b53935d1edc7fd64eb21e047a839171b339380a4600190565b600354811015611e505760036000527fc2575a0e9e593c00f959f8c92f12db2869c3395a3b0502d05e2516446f71f85b0190600090565b634e487b7160e01b600052603260045260246000fd5b15611e6d57565b60405162461bcd60e51b815260206004820152601860248201527f4e6f20617574686f72697469657320617661696c61626c6500000000000000006044820152606490fd5b90929192611ebf81611949565b91611ecd6040519384611928565b8294828452828201116119d1576020611a7a930190611ae2565b9080601f830112156119d1578151611f0192602001611eb2565b90565b6001600160401b0381116111bf5760051b60200190565b6000198114610df55760010190565b600260015414611f3b576002600155565b604051633ee5aeb560e01b8152600490fd5b15611f5457565b60405162461bcd60e51b815260206004820152601860248201527f50726f6a656374206e6f7420756e6465722072657669657700000000000000006044820152606490fd5b15611fa057565b60405162461bcd60e51b81526020600482015260136024820152724e6f742061737369676e656420746f20796f7560681b6044820152606490fd5b8015610df5576000190190565b600091818352602090600682526040938481206007845260ff61200f818885205416611f4d565b60018083019060018060a01b039261202b848454163314611f99565b60028501546201518081018091116124bb5742106124775760068501928354858382169182612469575b50506123f4578354828116806123e6575b6123ac575b50835482811683811592831561238b575b505050612091575b5050505050505050505050565b60049560058782019160ff199286848254161790554260038201550189516001600160401b0381116123785790879695949392918c6120d08354611a02565b601f811161231c575b50508c601f821160011461229a57908089959493928d9161228f575b50600019600383901b1c191690871b1790555b8c8a5260078c528d8a20908154169055818154168952878b52838d8a20016121308154611fdb565b9055818154168952878b5260028d8a200161214b8154611f1b565b90555416875285895260038b8820016121648154611f1b565b90558254908116612231575b5050505060025416803b156105d057918091869388519485926352120ee760e01b845283015260026024830152606060448301528183816121b4606482018a611b05565b03925af1908115612226575085927fee488c6f39811c9198a4ac3dc1b8198855f75bc6ffde0798dfcb227432510729949261220492612217575b5083519384934285528401523396830190611b05565b0390a33880808080808080808080612084565b612220906118de565b386121ee565b8651903d90823e3d90fd5b839060081c1686528488528986200161224a8154611fdb565b905581815460081c1685528387526002898620016122688154611f1b565b90555460081c1683528185526003878420016122848154611f1b565b905580388080612170565b90508d0151386120f5565b8b908d8f601f1985169086855280852094905b8282106122ed57505091899391858d9998979694106122d4575b505050811b019055612108565b015160001960f88460031b161c1916905538808f6122c7565b928b9c9d5094848493959798999a9b9c92960151815501940192018f918f918d9c9b9a999897969594936122ad565b90919280949596979899508c52818c2090601f840160051c820192841061236e575b90601f8b9a99989796959493920160051c01905b818110612361578e91506120d9565b8c81558a99508701612352565b909150819061233e565b634e487b7160e01b8a526041895260248afd5b919250908261239f575b505038838161207c565b60a81c1690508238612395565b60ff60a81b1916600160a81b178455897fdc79fa8ee1e1d4613ba1cabc4c15107fc99269f50b499ba92ce7e23974126c968880a23861206b565b5033868260081c1614612066565b50509394507fa1d89fd08b4ec9b072ec7c20f24e18a62642ae98bac98d8a095330a53d77389d959792509060049161245061242e336124ef565b8254610100600160a81b031916600882901b610100600160a81b031617909255565b1696878552528220016124638154611f1b565b905580a3565b60081c161590508538612055565b895162461bcd60e51b815260048101899052601f60248201527f4d696e696d756d207265766965772074696d65206e6f7420656c6170736564006044820152606490fd5b634e487b7160e01b87526011600452602487fd5b81156124d9570690565b634e487b7160e01b600052601260045260246000fd5b6000809160038054935b8481106125455760405162461bcd60e51b815260206004820152601d60248201527f4e6f207365636f6e6420617574686f7269747920617661696c61626c650000006044820152606490fd5b61254e81611e19565b90546001600160a01b0391841b1c811680865260046020526040862060050154909160ff9091169081612599575b50612590575061258b90611f1b565b6124f9565b94505050505090565b905084168114153861257c56fefa4b640456636962231cee3460c9d89d5bc5f3bed67e86f7491992882f0a9a06a26469706673582212204ef6f9693107526b6c90101b305f864864d7517558bca0e7a81802fa1fcd8bf164736f6c63430008140033",
  "linkReferences": {},
  "deployedLinkReferences": {}
}